:020000040800F2
:1000000000040020B9010008BB010008BB01000882
:10001000BB010008BB010008BB010008BB010008D0
:10002000BB010008BB010008BB01000805D00008A7
:10003000BB010008BB010008BB01000855E2000835
:10004000BB010008BB010008BB010008BB010008A0
:10005000BB010008BB01000891340008D13400083E
:10006000113500085535000899350008BB01000816
:10007000BB010008BB01000825E90008BB0100081E
:10008000DD350008BB010008BB010008BB0100080A
:10009000BB010008BB010008BB010008BB01000850
:1000A000BB010008BB01000811E5000825E50008B8
:1000B000BB010008BB010008BB010008BB01000830
:1000C00075E200087D360008BB01000831370008E2
:1000D000BB010008BB010008BB010008BB01000810
:1000E00072B6264880F30888254880F30988254899
:1000F00025490860022080F31488BFF36F8F0CF04D
:10010000ADFC0CF087FA4FF0553020491B4A914264
:100110003CBF41F8040BFAE71D49194A91423CBF24
:1001200041F8040BFAE71B491B4A1C4B9A423EBF9D
:1001300051F8040B42F8040BF8E700201849194A5B
:1001400091423CBF41F8040BFAE70CF08BFC0CF039
:1001500086FC154C154DAC4203DA54F8041B884755
:10016000F9E707F065F8124C124DAC4203DA54F887
:10017000041B8847F9E70CF073BC00000004002062
:10018000000C00200000000808ED00E00000002046
:1001900000040020E4120108000C0020F40F0020ED
:1001A000F80F00201C3A0020E0000008E0000008E2
:1001B000E0000008E000000892E700F000F8FEE729
:1001C0002DE9F04FC1F80CD0C3689D46BDE8F08F13
:1001D000002383F311882846A04700200CF046FE38
:1001E000FEE70CF079FD00DFFEE7000053B94AB9E5
:1001F000002908BF00281CBF4FF0FF314FF0FF302F
:1002000000F074B9ADF1080C6DE904CE00F006F809
:10021000DDF804E0DDE9022304B070472DE9F04782
:100220008C460446089E002B40F086808A42154684
:1002300048D9B2FA82F24AB1C2F1200701FA02F3B8
:1002400020FA07F7954047EA030C94404FEA154E11
:10025000BCFBFEF71FFA85F80EFB17C307FB08F976
:10026000210C41EA0343994509D9EB1807F1FF3105
:1002700080F0E180994540F2DE80023F2B44A3EB01
:100280000903B3FBFEF00EFB103300FB08F1A4B230
:1002900044EA0344A14209D92C1900F1FF3380F04C
:1002A000C880A14240F2C58002382C4440EA074091
:1002B0000027641A1EB10023D440C6E90043394622
:1002C000BDE8F087002A54D0B2FA82F2002A40F04A
:1002D000B4800127491B4FEA15481FFA85F9B1FB85
:1002E000F8FE08FB1E1109FB0EF04FEA144C4CEA15
:1002F0000143984207D9EB180EF1FF3102D2984220
:1003000000F2EB808E461B1AB3FBF8F008FB1033AB
:1003100009FB00F9A4B244EA0344A14507D92C190A
:1003200000F1FF3302D2A14500F2DB801846A4EBB6
:10033000090440EA0E40BDE78B4208D9002E75D073
:100340000027C6E9000138463946BDE8F087B3FA10
:1003500083F77FB98B4202D3824200F2BC80841AB9
:1003600061EB030301209C46002EA8D0C6E9004C97
:10037000A5E7FFDEC7F12005BB4022FA05FC4CEAE9
:10038000030C21FA05F44FEA1C4EB4FBFEF91FFAE8
:100390008CF80EFB194420FA05F3B94009FB08FA62
:1003A00019430B0C43EA0444A24502FA07F200FA8F
:1003B00007F30BD91CEB040409F1FF3080F08980AE
:1003C000A24540F28680A9F102096444A4EB0A0424
:1003D000B4FBFEF00EFB104400FB08FA89B241EAC0
:1003E0000444A24508D91CEB040400F1FF316CD28F
:1003F000A2456AD90238644440EA0940A0FB028958
:10040000A4EB0A044C454146CE4655D352D0002EAB
:100410006AD05A1A64EB0E0404FA05F522FA07F3BF
:10042000FC401D43C6E90054002748E737463046E4
:1004300045E718463AE70F4621E79540C2F1200309
:1004400021FA03F04FEA1548B0FBF8F71FFA85F9D7
:1004500008FB170E24FA03FC914007FB09FA4CEA4B
:100460000101080C40EA0E40824504FA02F407D963
:10047000281807F1FF332AD2824528D9023F2844A1
:10048000A0EB0A00B0FBF8FC08FB1C000CFB09F316
:1004900089B241EA00418B4208D969180CF1FF305A
:1004A00011D28B420FD9ACF1020C2944C91A4CEA83
:1004B000074714E74345AAD2B8EB020169EB0C02E7
:1004C00001389646A3E78446F0E7084694E71F46BE
:1004D000D6E781467AE7384646E7AEF1020E2B446E
:1004E00011E702382C4422E73746E8E6704700BFA0
:1004F00008B5062000F0C2FA01200DF0F3FC00BFA1
:10050000024B0146186800F055B900BF000C0020EE
:10051000024B0146186800F0F9B800BF000C00203B
:10052000032A70B412D940EA0105AD0704460B4610
:1005300020D11946204653F8045B54F8046BAE42B0
:1005400018D1043A032A20461946F2D8541E72B133
:1005500003780A789A4208BF241806D00CE010F8F5
:10056000013F11F8012F934206D1A042F7D100209C
:1005700070BC7047541EEBE7981A70BC704700BF00
:10058000844641EA000313F0030349D1403A23D3E0
:100590000B6803604B6843608B688360CB68C36003
:1005A0000B6903614B6943618B698361CB69C361EB
:1005B0000B6A03624B6A43628B6A8362CB6AC362D3
:1005C0000B6B03634B6B43638B6B8363CB6BC363BB
:1005D00040304031403ADBD230320BD30B680360FD
:1005E0004B6843608B688360CB68C3601030103108
:1005F000103AF3D20C3205D351F8043B40F8043BD7
:10060000043AF9D2043208D0D2071CBF11F8013BDA
:1006100000F8013B01D30B8803806046704700BFA0
:10062000082A13D38B07B1D010F00303AED0C3F167
:100630000403D21ADB071CBF11F8013B00F8013B91
:10064000A4D331F8023B20F8023B9FE7043AD9D308
:10065000013A11F8013B00F8013BF9D20B78037025
:100660004B7843708B78837060467047F0B4860790
:1006700046D0541E002A3CD0CAB2034602E014F110
:10068000FF3436D303F8012B9D07F8D1032C29D969
:10069000CDB245EA05250F2C45EA054533D9A4F12D
:1006A0001006360903F1200707EB061703F11002C5
:1006B00042E9045542E902551032BA42F8D1721C9F
:1006C00014F00C0F03EB021204F00F0613D0331FCB
:1006D00023F003030433134442F8045B9342FBD139
:1006E00006F003042CB1C9B21C4403F8011B9C4260
:1006F000FBD1F0BC704734461346002CF3D1F8E729
:1007000014460346C2E71A462646E0E700293AD0D7
:1007100038B551F8043C0C1F002BB8BFE41805464F
:1007200000F05AFA224B1A682AB1A2420DD9216868
:100730006018824221D0626028461C60BDE83840C3
:1007400000F04CBAA34203D81A465368002BF9D1E3
:1007500011685018A04217D022D82168601883422F
:1007600003BFD3E900030918C4E9001363605460B0
:100770002846BDE8384000F031BAD2E90002014411
:10078000C4E90012D8E7704720680144501883423A
:100790001160EDD1D3E900030144C2E90013E7E79A
:1007A0000C2328462B60BDE8384000F017BA00BF84
:1007B000F80F0020F8B5CD1C25F0030508350C2DE9
:1007C00038BF0C25002D064633DBA94231D82A4F0D
:1007D00000F002FA3A6852B113685B1B04D43FE0A0
:1007E00023685B1B29D522465468002CF8D1796810
:1007F00000293BD0294630460DF058FB431C28D039
:10080000C41C24F00304A04205D0211A30460DF088
:100810004DFB01301DD02560304600F0DFF904F1BA
:100820000B0020F00700231DC21A01D01B1AA35091
:10083000F8BD0C2200203260F8BD0B2B05D8A24277
:10084000636811D05360E7E7144623601C442560B9
:10085000E2E70C233046336000F0C0F90020F8BD19
:100860000B2BF1D8144653683B60D5E730460DF0AA
:100870001DFB7860BEE700BFF80F002038B5124BB3
:1008800005461C68A06B18B10023C0E9045338BDAD
:100890001820FFF735FEA06378B101220023C0E9DC
:1008A00004230A4B0B24836000230949094A8481ED
:1008B000C0E90012C0E9045338BD0246064B42218C
:1008C000064800F041F900BF000C0020ECDE0500F6
:1008D0000E33CDAB34126DE6141201082C12010850
:1008E00038B51A4B1C68A26B92B114691849536948
:1008F00001FB04F1174800FB0313A4FB0045611C36
:100900001D4445F1000323F00040C2E9041338BD43
:100910001820FFF7F5FD0246A06388B101240025E9
:100920000B21C0E904450C4B0948136003460B4DED
:100930000B4C91810B49C2E90154C2E9041338BD43
:10094000094B4E21094800F0FFF800BF000C0020C1
:100950002DF451582D7F954C0E33CDAB34126DE6EE
:10096000ECDE05002E7F954C141201082C120108B4
:1009700010B580210446FFF71DFF606440B10022DE
:10098000031F7C3043F8042F8342FBD1002010BDAD
:100990004FF0FF3010BD00BF436C0BB1002070471B
:1009A000E6E700BF1F2970B5054608D8436C164618
:1009B0000C464BB153F8240043F8246070BD162256
:1009C0004FF0FF302A6070BDFFF7D2FF08B96B6CA3
:1009D000F0E74FF0FF3070BD1F2938B5054620D82D
:1009E000426C0C466AB152F8213053B1012B16D03B
:1009F000591C10D00025204642F82450984728461C
:100A000038BD284600F070F8224601462846BDE869
:100A1000384000F055B8162301202B6038BD002067
:100A200038BD16234FF0FF302B6038BD1F2921D869
:100A300038B5436C05460C4683B153F8242003EBCC
:100A400084034AB1511C10D0012A0CD00025204645
:100A50001D609047284638BD012038BDFFF788FF4C
:100A600028B96B6CE9E7032038BD022038BD4FF090
:100A7000FF3038BD4FF0FF30704700BF024B0146DA
:100A80001868FFF7A9BF00BF000C0020024B0A4600
:100A900001461868FFF786BF000C0020034B18685A
:100AA000436C0BB10020704762E700BF000C0020D0
:100AB000024B01461868FFF7B9BF00BF000C0020C9
:100AC00070B50D460023074C0646114628462360A4
:100AD0000DF010FA431C00D070BD2368002BFBD032
:100AE000336070BD183A00200DF00CBA20F00301FD
:100AF00010F00300C0F1000051F8043B00F1040CB9
:100B00004FEACC0C6FF000021CBF22FA0CF2134328
:100B10004FF0010C4CEA0C2C4CEA0C4CA3EB0C02F1
:100B200022EA030212EACC1204BF51F8043B04305B
:100B3000F4D0C2F1000102EA0102B2FA82F2C2F17B
:100B40001F0200EBD200704700B50A4C0546206832
:100B500085B01C46C06852B1074BCDE90132009107
:100B60002B462246054900F023F8FFF7C1FC044B51
:100B70001A46F2E7000C002060120108701201080A
:100B80006C12010808B513460022FFF7DDFF00BF15
:100B90000CB410B582B004AC54F8042B2346019475
:100BA00000F060F802B0BDE8104002B0704700BF2E
:100BB0000EB430B582B005AC54F8042B054D014697
:100BC00023462868019400F04DF802B0BDE830409B
:100BD00003B07047000C0020704700BF704700BF93
:100BE0009368013B002B93600FDA10B49469A34221
:100BF00008DB0A2906D01368581C106019700846D3
:100C000010BC704710BC00F07BBB1368581C106010
:100C100019700846704700BF9BB1F8B513440F46E2
:100C200006465D1E541E01E0AC4208D03A4614F858
:100C3000011F3046FFF7D4FF431CF5D1F8BD00205B
:100C4000F8BD0020704700BF936810B5144613B973
:100C50005360184610BD00F013FE0023C4E90133B1
:100C600010BD00BF2DE9F04F9FB08B4690461C464B
:100C7000039018B18369002B00F0B980A34B9B450A
:100C800000F0BB80A24B9B4500F0C980A14B9B4567
:100C900004BF039BD3F80CB0BBF80C30180740F12D
:100CA000B480DBF81030002B00F0AF80302300213F
:100CB00020228DF8323098F8003005940B918DF891
:100CC0003120954E0127002B00F08980252B00F064
:100CD0001781454603E0252B00F0A58025466B785B
:100CE0006C1C002BF7D1B4EB080A78D0424653466F
:100CF00059460398FFF790FF013070D00B9B6A783C
:100D000053440B93002A6AD000234FF0FF32013482
:100D10000693CDE908338DF85B301C93079206E00B
:100D20002C46069B801B07FA00F0184306902546C8
:100D3000052215F8011B304600F0E6FFAA46002800
:100D4000EED1069BD90644BF20228DF85B201A07FE
:100D500048BF2B22217848BF8DF85B202A2967D114
:100D6000059A1168043200290592C0F29E8009910B
:100D70006178A51C2E2974D0684C0322204600F00F
:100D8000C3FF002800F087804022069B001B02FA68
:100D900000F00343069305F101082B78062219465B
:100DA0005F488DF8303000F0AFFF002800F08380FE
:100DB0005C4B002B72D005AB00935A465A4B06A9E8
:100DC0000398AFF300808146B9F1FF3F07D00B9B3A
:100DD0004B440B9398F80030002B7FF477AFBBF8AF
:100DE0000C305B0618D40B981FB0BDE8F08F00F0F4
:100DF00027FD464B9B457FF445AF039BD3F804B0DA
:100E0000BBF80C3018073FF54CAF5946039800F07B
:100E1000D7FA00283FF44AAF4FF0FF30E4E7039BD6
:100E2000D3F808B038E7B4EB080A3FF46DAF5DE7DC
:100E3000A1F13002092A88BFA2469BD8099B01E094
:100E40002C460135297803EB830302EB4303A1F120
:100E50003002092AAA46F3D92E2904F10205099382
:100E60008AD19AF801102A292FD1059B0AF1020094
:100E70001A680433002A079205939AF802100AF1BF
:100E8000030538DB254C82460322204600F03CFF58
:100E900000287FF479AFA84655467EE7059B0733C7
:100EA00023F007030833059391E7494243F0020317
:100EB000099106935CE705AB00935A461A4B06A9C5
:100EC000039800F0D3F881467EE70023A1F13002B9
:100ED000092A079301D915E05546697803EB830386
:100EE00002EB4303A1F13002092A05F1010AF3D90B
:100EF0000235079340E74FF0FF33824607933BE705
:100F0000444601E7AA46013536E700BFD8FE00088F
:100F1000B8FE000898FE0008A0120108A8120108F7
:100F2000AC12010800000000190C000810B4044CB9
:100F300013460A460146206810BCFFF793BE00BF67
:100F4000000C00202DE9F0470C460969A568914680
:100F50008D42B8BF0D46156094F8431006461F46F3
:100F6000DDF8208011B16A1CC9F8002023689906B9
:100F70005CD5D9F800200232C9F80020236813F0AC
:100F8000060F19461DD1E1688A1A002AD8BF1946F2
:100F900017DD002504F1190A05E0E368D9F80020FF
:100FA0009B1AAB420CDD0123524639463046C047FE
:100FB000013005F10105F0D14FF0FF30BDE8F087B9
:100FC000216894F84330003318BF01238A060AD5FC
:100FD0003021E21882F8431094F845105A1C22443C
:100FE00082F84310023304F1430239463046C047C9
:100FF0000130E1D02368A26803F00603042B2169C5
:101000001DD08A4226DD4FF00009521A9144002576
:101010001A3401E04D451DDA012322463946304697
:10102000C047013005F10105F4D1C5E713F0060F03
:1010300013D094F84330003318BF0123D3E7D9F815
:101040000000E3688A42A3EB000323EAE379DCDCD7
:10105000002BDCDC0020BDE8F087E168D9F8002037
:101060008A1A002AD8BF194693DCAAE72DE9F04373
:101070000C46097E85B06E2906461746984604F14F
:10108000430C0C986DD039D9732900F0F48044D901
:10109000752900F00281782940F00F8178232268B9
:1010A000DFF854E284F845300168150651F8043B36
:1010B000016040F1A180D10744BF42F020022260CC
:1010C000002B00F093801022002184F84310606808
:1010D0000028A060C0F2C680216821F004012160D0
:1010E000002B40F0A280002840F0BE806546082A10
:1010F00000F0AB80ACEB0503236141E0632900F015
:10110000E3801AD8002938D0582940F0D68084F8D6
:1011100045102268DFF8E4E1C6E76F2900F0BD80E2
:10112000702940F0CA8078232268DFF8CCE142F0D1
:101130002002226084F84530B6E7642902D069298C
:1011400040F0BB8022680368110603F1040557D5FF
:10115000196805600B46002959DB0A22DFF89CE17B
:10116000B5E7036822681D1D6169056015061B68E7
:1011700002D4500600F1BB8019600023654623614C
:10118000CDF800803B4603AA21463046FFF7DAFE41
:10119000013020D02A46236939463046C047013005
:1011A00019D0226803989207E36819D51A1A002A01
:1011B00016DD002504F1190904E0E36803981A1A02
:1011C000AA420DDD01234A4639463046C047013068
:1011D00005F10105F1D14FF0FF3005B0BDE8F08316
:1011E0009842B8BF184605B0BDE8F08321681022C8
:1011F00021F02001216067E7500648BF9BB25AE703
:101200005106A5D5B3F9003005601946A3E72D2096
:1012100061685B42002984F84300A16002DB22F090
:10122000040222600A22DFF8D4E0654600E00B46A3
:10123000B3FBF2F102FB11301EF80000934205F8F7
:10124000010DF4D2082A7FF455AF2368DB077FF540
:1012500051AF626823699A423FF74CAF3023013D9A
:101260002B7047E7002BE0D19EF8003004F14205D7
:1012700084F842303BE703686268191D01601D680D
:101280000021284600F040FD002832D0401B60605D
:101290002061002384F8433072E72268036812F06B
:1012A000800F03F104051AD01B6805606F290CBF7D
:1012B00008220A22DFF844E006E7012384F84210FE
:1012C000236104F14205E4E70122036804F14205C9
:1012D000191D1B68016084F842302261D9E712F0C1
:1012E000400F0DBF1B6805601B880560DEE7198095
:1012F00043E76068CCE700BFC8120108B4120108D8
:10130000F8B50D461446064608B1836943B3254B2C
:101310009C422AD0244B9C4229D0244B9C4208BF9B
:10132000F468A269A389A2601A0722D5236903B3CE
:1013300022686169D31AEDB299422F4629DD013343
:10134000A168501C0139A1602060157062699A4241
:1013500016D0A389DB0701D50A2D11D03846F8BD78
:1013600000F06EFA0F4B9C42D4D17468D9E7B46890
:10137000D7E72146304600F023F838B92369D7E78C
:101380002146304600F032F90028E7D04FF0FF3711
:10139000E4E72146304600F029F90028F6D1012380
:1013A0002268CDE7D8FE0008B8FE000898FE0008C5
:1013B000024B0A4601461868FFF7A2BF000C002046
:1013C0003B4B70B51D6806460C460DB1AB69DBB1F1
:1013D000384B9C421ED0384B9C424AD0374B9C42E3
:1013E00008BFEC68B4F90C2093B2190718D520692E
:1013F00008B313F001022CD000226369A2605B42A3
:10140000A36160B3002070BD284600F019FA294B93
:101410009C42E0D16C68B4F90C2093B21907E6D471
:10142000DD063CD5580726D4206942F00803A38185
:101430009BB20028DDD103F42072B2F5007FD8D032
:101440003046214600F016FCA389206913F0010202
:10145000D2D1990758BF6269A2600028D2D1B4F9ED
:101460000C301A06CFD543F04003A3814FF0FF3074
:1014700070BDAC68B6E7616B51B104F144039942A9
:1014800004D03046FFF742F9B4F90C20002363631F
:101490000023206922F02402C4E90003C5E70923E0
:1014A00042F0400233604FF0FF30A28170BD00BFB8
:1014B000000C0020D8FE0008B8FE000898FE0008C6
:1014C0002DE9F0418F890C463A07804641D44B689C
:1014D000002B59DDE66A002E53D0002317F480520A
:1014E000D8F80050216AC8F8003051D10123404695
:1014F000B047431C5FD0A789E66A216A7F0705D5FC
:101500006268636B801A0BB1236CC01A0246002319
:101510004046B047461C45D1D8F80030B4F90C20FD
:10152000002B55D01D2B01D0162B5AD10022236938
:10153000C4E90032616BC8F8005011B304F14403F0
:10154000994202D04046FFF7E1F800206063BDE811
:10155000F0810E69AEB10D680E60B90714BF0023AB
:101560006369AD1BA3600AE02B463246A76A216A75
:101570004046B8470028A5EB000506440ADD002DCB
:10158000F2DC0020BDE8F0810B6C002BA2DCF8E758
:10159000606DB3E7A3894FF0FF3043F04003A381B0
:1015A000BDE8F081002322696360A3892260DA0428
:1015B000C0D56065BEE7D8F80030002B9BD01D2B4E
:1015C0000CD0162B0AD0A38943F04003A381D9E79E
:1015D0002169C4E90013D304ACD5EAE7C8F8005088
:1015E000CFE742F04002A281CCE700BF0B6923B3F2
:1015F00010B5044682B008B18369BBB1104B994263
:1016000012D0104B994216D00F4B994208BFE16897
:10161000B1F90C302BB1204602B0BDE81040FFF705
:101620004FBF002002B010BD6168F1E7019100F0EA
:1016300007F90199E2E7A168EAE70020704700BFD7
:10164000D8FE0008B8FE000898FE000820B1054B3F
:1016500001461868FFF7CABF034B0449186800F039
:10166000B3BA00BF000C002094FE0008ED1500087E
:1016700000207047014900F0A7BA00BFED1500082F
:101680000020704770B568254A1E05FB02F50E461E
:1016900005F17401FFF78EF8044640B100210C30CB
:1016A000666005F168022160A060FEF7DFFF20465A
:1016B00070BD00BF1E4B70B51D680646AB6943B3D5
:1016C0004835D5E90134013B05D51EE0013B5A1CE4
:1016D00004F1680419D0B4F90C20002AF6D10025D1
:1016E000144B6566C4E90055A560C4E90455A561BD
:1016F0002946E360082204F15C00FEF7B7FFC4E965
:101700000D55C4E91255204670BD2C682CB12546F4
:10171000D7E7284600F010F8D2E704213046FFF75B
:10172000B1FF044628600028F1D10C233360EAE7BA
:1017300094FE00080100FFFF2DE9F84F0023334A13
:10174000C0E9123312680365904208BF0123304993
:1017500008BF836181620546FFF7ACFF68602846D9
:10176000FFF7A8FFA86028460024FFF7A3FF042383
:101770006E68E8602146F3607466C6E90044B460B0
:10178000C6E90444B46106F15C000822FEF76EFF6E
:10179000DFF888B0AF68DFF888A0DFF88890DFF85E
:1017A00088801C4BC6E9086BC6E90AA9C6F83080D8
:1017B0002146FB6008227C66C7E90044BC60C7E99B
:1017C0000444BC6107F15C00FEF750FFEE68124B69
:1017D000C7E9087BC7E90AA9C7F830802146F3604A
:1017E0007466C6E90044B460C6E90444B46106F115
:1017F0005C000822FEF73AFF0123C6E9086BC6E940
:101800000AA9C6F83080AB61BDE8F88F94FE0008E5
:10181000751600080900010012000200AD1E000844
:10182000D51E0008151F0008351F0008024B03498C
:10183000186800F0C9B900BF94FE0008ED15000853
:10184000836903B978E77047704700BF704700BFEE
:10185000704700BF704700BF024B0349186800F093
:101860008FB900BF000C002071160008024B03491D
:10187000186800F085B900BF000C00208116000830
:101880009368002B00F0FC802DE9F04FB1F90C308B
:101890000C469BB2190783B0824690462BD522692D
:1018A0004AB313F00202D8F8006033D000273D4657
:1018B000D4F828B0216ADFF8C492C5B14D452B4653
:1018C0003A4628BF4B465046D847002840F3CE80C2
:1018D000D8F8083007441B1A2D1AC8F80830002B16
:1018E00000F0B380D4F828B0216A002DE6D1D6E903
:1018F00000750836E1E721465046FFF761FD0028F4
:1019000040F03781B4F90C30D8F800609BB213F086
:101910000202CBD113F0010940F0B4804D46A76814
:101920002068002D55D09A0540F1C080AF42BB46DB
:1019300000F2EE8013F4906F2FD0D4E9041707EB78
:101940004707A0EB010B07EBD777681C7F105844C3
:10195000B8423A4684BF07463A465B0540F1F080FC
:1019600011465046FEF726FF002800F0FC805A463C
:1019700021690190FEF704FEA289019B22F4906286
:1019800042F08002A281A7EB0B0203EB0B00676120
:10199000AB462F4623612060A2605A46494600F0BC
:1019A000F9F92368A2685B44AB460025D71BA76002
:1019B0002360D8F80870D944A7EB0B07C8F8087063
:1019C000002F42D0B4F90C30A7689BB22068002DDC
:1019D000A9D1D6E900950836A3E70BF1080353F81F
:1019E000047C9B4653F8086C0833002FF7D03A4626
:1019F0000A21304600F088F9002854D00130A0EBCD
:101A000006094B4620682169BB4228BF3B468842F5
:101A1000626903D9A5681544AB421ADC9A4200F307
:101A200081801346A56A3246216A5046A847051EA2
:101A30001CDDB9EB05096ED00120D8F808302E4422
:101A40005B1B7F1BC8F8083013BB002003B0BDE848
:101A5000F08F31462A4600F09DF9236821462B4439
:101A600023605046FFF7C2FD0028E2D0B4F90C30E5
:101A70004FF0FF3043F04003A38103B0BDE8F08F87
:101A80000020704733469146104617464E469B4607
:101A9000002FA2D00028B4D13A460A21304600F0E7
:101AA00033F90028AAD17B1C9946ABE7236983420E
:101AB00017D36269AA4214D82F4BA76A9D4294BFDC
:101AC0002B466FF0004393FBF2F3216A02FB03F312
:101AD00050464A46B847B0F1000BC7DDA5EB0B05F1
:101AE00067E7AF4228BF2F4649463A4600F052F911
:101AF000A3682268DB1B3A44BB46A3602260002B2C
:101B0000ECD121465046FFF771FD0028E6D0ADE745
:101B10002F46AB4641E721465046FFF767FD0028B8
:101B20008BD0A3E71A4631461D46019300F032F9E7
:101B3000A1682268019BC91A1344A160236078E759
:101B4000504600F08DF9034600287FF41CAF216950
:101B50005046FEF7DBFD0C22B4F90C30CAF8002029
:101B600023F0800384E70C22B4F90C30CAF800207B
:101B70007EE74FF0FF3069E7FEFFFF7F00FCFF7F4D
:101B80002DE9F04110F148071AD088460026D7E920
:101B90000154013D0ED4A389013D012B06D9B4F9AE
:101BA0000E30013302D02046C04706436B1C04F1BF
:101BB0006804F0D13F68002FE9D13046BDE8F081DC
:101BC0003E463046BDE8F0812DE9F84310F1480665
:101BD0001ED0884607464FF00009D6E90154013D62
:101BE00010D4A389013D012B08D9B4F90E3001337B
:101BF00004D021463846C04749EA00096B1C04F16D
:101C00006804EED13668002EE7D14846BDE8F88377
:101C1000B1464846BDE8F88370B50C46B1F90E10E0
:101C200096B0002916461D4613DB6A460CF04BF9A8
:101C300000280EDB019A4FF4806302F47042A2F593
:101C40000052B2FA82F2002052092A60336016B0C4
:101C500070BD0022A3892A601B0604D54023002002
:101C6000336016B070BD4FF480630020336016B04F
:101C700070BD00BF8A890B46920706D5012103F18A
:101C8000470259611A601A61704770B582B001ABA2
:101C90006A460C460646FFF7BFFF009905463046E8
:101CA000FEF788FDB4F90C3070B1164A0099B262A3
:101CB000019A43F08003A3812060C4E904018AB93A
:101CC0002B43A38102B070BD9A05FBD4012123F000
:101CD000030304F1470243F00203A3816161226020
:101CE0002261EFE73046B4F90E100CF0F8F810B9A5
:101CF000B4F90C30E4E7A38923F0030343F00103B4
:101D00001BB2DDE775160008830770B4CDB23DD075
:101D1000541E0AB30378AB421FD0431C05E014F1F4
:101D2000FF3419D30278AA4217D013F0030F1846D4
:101D300003F10103F3D1032C11D84CB30378AB4268
:101D40000BD00444431C02E00278AA4205D09C4216
:101D5000184603F10103F7D1002070BC704702461A
:101D60000E02B6B22E4346EA06461368104673408A
:101D7000A3F1013121EA030313F0803F02F10402D1
:101D8000DCD1043C032C1046EFD8D6E71446D2E74A
:101D90002046E2E78842F0B40DD98B1883420AD975
:101DA000841832B1224613F8014D994202F8014DD0
:101DB000F9D1F0BC70470F2A0ED80346541E002AF2
:101DC000F7D001340C44013B11F8012BA14203F878
:101DD000012FF9D1F0BC704740EA01039B073AD1CB
:101DE000A2F110073F0901F1200606EB071601F1E9
:101DF000100300F1100453F8105C103344F8105C29
:101E000053F81C5C103444F81C5C53F8185C44F81C
:101E1000185C53F8145CB34244F8145CEBD17B1C9F
:101E20001B0112F00C0F194402F00F05034415D0EA
:101E30000E46043DAD0803EB850C1C1F56F8047BD1
:101E400044F8047F6445F9D10135AD002B442944A1
:101E500002F00302B2E7541E0346B2E72A46ADE79A
:101E600009B3F8B51446CAB106460D4600F066F847
:101E7000A04202D32F463846F8BD21463046FEF731
:101E800099FC07460028F6D022462946FEF778FB43
:101E900030462946FEF73AFC3846F8BD2746FEF79D
:101EA00035FC3846F8BD1146FEF784BC10B50C462B
:101EB000B1F90E100BF0EFFF002803DB636D034454
:101EC000636510BDA38923F48053A38110BD00BFB7
:101ED000002070472DE9F041B1F90C409846E30528
:101EE0000D461746B1F90E10064609D424F4805465
:101EF000AC8143463A463046BDE8F0410BF0D2BFD4
:101F0000022300220BF0CCFFB5F90C40B5F90E10FE
:101F1000ECE700BF10B50C46B1F90E100BF0C0FF96
:101F2000A389421C0EBF23F4805343F480536065A1
:101F3000A38110BDB1F90E100BF0B6BF51F8043CEF
:101F4000181F002BBCBF0B58C01870470E4A002347
:101F5000114610B5147C84420FD11C225343CA1879
:101F6000906848B1CB58FF2818BF43434FF0010099
:101F700018BF5B000133536010BD0133042B02F125
:101F80001C02E7D10020F7E7E40D0020F0B50A4D70
:101F900000242E462F7C874207D11C2000FB0464BE
:101FA000012021766276A376F0BD0134042C05F180
:101FB0001C05EFD10020F7E7E40D0020094A30B5F9
:101FC00000231446157C854205D11C22012002FB0A
:101FD0000343996030BD0133042B02F11C02F1D19F
:101FE0000020F7E7E40D0020094A30B5002314462D
:101FF000157C854205D11C22012002FB0343596058
:1020000030BD0133042B02F11C02F1D10020F7E7AF
:10201000E40D002070B50B4C00232546267C86423B
:1020200009D11C204343E818E95000238260C360B3
:102030004374012070BD0133042B04F11C04EDD165
:102040000020F7E7E40D002070B500252E462B4C4C
:102050006368002B4FD0E06808BB637CB3FA83F35E
:102060005B09637409F076FFD4E900239342E060D2
:102070002BD266606674E66063690BB1207C98477A
:10208000207CFF2824D100221146104607F084FD51
:102090000135042D04F11C04DAD1012070BD09F0D2
:1020A0009FFF23689842D8D26368002BE4D0204673
:1020B00002F0E4FC0028EBD0637C207CB3B1FF2865
:1020C0000CD1A27E617E207EE0E79B1A6360EBE785
:1020D0000B28DDD800231A46194604E00B28D7D870
:1020E000A37E627E217E06F0DBFED1E7FF28CAD008
:1020F0000B28CDD8EFE76374E360C9E7E40D002057
:1021000007B543788DF8003083788DF80130C378B7
:102110008DF8023043798DF80330037968468DF8E5
:1021200004300DF01FFD03B05DF804FB08B5074B4C
:102130005A78032A07D8586809F052FFC72894BF75
:102140000020012008BD0020FCE700BFA40C0020F7
:10215000704708B5002280214FF080400CF043F812
:10216000FFF7F6FF00BF00BF00BF00BF00BF00BF0A
:1021700000BF00BF00BF00BF00BF00BF00BF00BF67
:1021800000BF00BF00BF00BF08BD08B501F010FBD5
:1021900008BD000008B5054C20780CF0DFFF207862
:1021A000FFF7F3FF05200AF066FEF5E7E0360020B2
:1021B00010B5084C236803F07142074B13432360AA
:1021C00009F0C8FE054B18602068BDE8104004F017
:1021D00070BB00BFE03600200001010E041000209B
:1021E00010B5064C0122204602210BF0FCFF022311
:1021F000A361BDE8104001F07FBB00BF00040040B8
:1022000001207047144B10B51C78BCB9134B1B78D8
:10221000042B13D104F03AFA04F04EFA04F000FA59
:1022200004F07AFA05F03CFC05F056FC204609F073
:102230002BFD2046BDE8104009F042BD0DF096FC94
:1022400048B10CF081FF0028FBD1BDE810404CF2F2
:1022500050300AF010BE10BDE0360020C439002016
:1022600038B500230D460B70074C30B109F072FEF3
:10227000002320602B70002038BD206809F0B0FEDC
:102280003228F3D8F7E700BF14100020084B9A78E3
:10229000012A07D0022A09D0064B1868B0FA80F04C
:1022A0004009704758780128F6D170470120FCE7B3
:1022B000A40C00207811002008B5054B9B78013B49
:1022C000012B02D9FFF7E2FF08BD0120FCE700BFA8
:1022D000A40C002008B509F03DFE014B986008BD34
:1022E000A40C00202DE9F0410C46154607460028B5
:1022F00037D0B1FA81F35B099BB1554E554A33781B
:10230000002C32D00221012B91610AD030460BF013
:1023100049FF30460BF00EFB4F48504B836009F0ED
:102320007FFCA74201D0FFF76DFF4D4E3378A342EB
:1023300000D11DB100224B4B9A619A83347024B1B5
:10234000631E042B747098BFB470306804F0B1FA47
:102350003378062B76D8DFE803F0731936404A54F9
:102360005E000B1C18BF0123C6E74FF40031042B9D
:102370009161D6D03C4BDFF8E0801C703B4B30467F
:10238000C8F808300AF0A2F84046C8E7312075B115
:102390000DF064FB52200DF061FB01200DF06AFB93
:1023A0004EF26E4143F22D400DF0BEFB51200DF078
:1023B00055FBFFF78FFF2A462146384601F0B8FE4D
:1023C0000120BDE8F0813220002DF0D00DF046FB59
:1023D00052200DF043FB0220E0E73320002DE6D031
:1023E0000DF03CFB52200DF039FB0320D6E73420E2
:1023F000002DDCD00DF032FB52200DF02FFB04201D
:10240000CCE73520002DD2D00DF028FB52200DF066
:1024100025FB0520C2E73020002DC8D00DF01EFBA3
:1024200013480DF04DFB13480DF064FB4EF26E4166
:1024300043F22D400DF078FB52200DF00FFBB5E775
:102440001120B4E711200DF009FBFFF7B1FEB0E752
:10245000C439002000040040D40F002001210008EE
:10246000E0360020640C00202827002091C50008D9
:1024700085FF000888FF0008002313B50DF1070150
:102480008DF80730FFF7ECFE044690B19DF8073059
:10249000013B032B0DD8DFE803F002060F120022E8
:1024A0001146094B02E00022074B99781878FFF794
:1024B00019FF204602B010BD00220621F1E7024BB1
:1024C00000225978F2E700BFE036002013B5124C25
:1024D00020460CF0CBFD0123A37704F0E7F90F4C65
:1024E000206008B9FFF764FEE37843F00103E3706E
:1024F00009F030FD0A4BFF22186000234FF4A87149
:1025000000930848084B0AF083FCFFF722FE0120E5
:10251000FFF7B2FF02B010BD640C0020E0360020CF
:1025200004100020181000209521000838B5124C26
:10253000054623782070637009F00CFD032D606060
:1025400019D10120FFF798FF38B90C4B1A785AB10E
:10255000597802460846FFF7C5FEFFF7BBFEBDE807
:10256000384053200DF07ABA054909780129F4D191
:1025700011465878EFE738BDA40C0020E036002063
:10258000C439002048B1074A1378013B012B07D812
:1025900093782BB90320FFF7C9BF0122024B1A70B1
:1025A000704700BFA40C002010100020014B1878C9
:1025B000704700BFA40C0020014B9870704700BF0B
:1025C000A40C0020014B9878704700BFA40C002099
:1025D000014BD870704700BFA40C00200122014BB2
:1025E0001A70704710100020F8B51C4C1C4DE27892
:1025F000A968C2F3420219B9FFF76CFE0020F8BDCA
:10260000184B53F8227023782BB9174B1B78042BE7
:1026100001D1FFF75FFE154E327892B1002333707F
:102620004FF080431B69E278DB0963F300022378F3
:10263000E27073B101F03CFF0028DFD101F0DCF85B
:10264000DDE7002FDAD0A86809F0CAFCB842E5D26D
:10265000D4E7054B1B78042BECD1CDE7E036002006
:10266000A40C002034FF0008C43900201010002002
:102670000C4B10B55A781946012A03D0022A08D00B
:10268000002005E09C78012C03D101F027F92046B9
:1026900010BD486809F0A4FCC728F1D9FFF7F6FD82
:1026A000F6E700BFA40C002008B5074BDB780BB1A0
:1026B000022B04D10220FFF739FF002008BD0320C0
:1026C000FFF734FF0120F9E7A40C002038B50A4DCC
:1026D0000024EB78033B012B08D80320FFF726FFEB
:1026E0002046AC7001F098F8012038BD0220FFF7B9
:1026F0001DFF2046F9E700BFA40C002010B50A4CCE
:10270000E378032B0AD3042B08D80320FFF70EFF2E
:102710000020A07001F0A0F8012010BD0220FFF7FA
:1027200005FF0020F9E700BFA40C002070B5884C1D
:10273000884D2068B8B109F053FCB0F5FA6F12D398
:102740000026552026600DF089F957200DF086F9F6
:1027500070200DF083F9287832460146B0FA80F0F7
:102760004009FFF7BFFD2B7823B17B4B93F8202066
:102770007A4B1A702368DBB9794E306809F030FC67
:1027800040F6B733984213D92B788BB10CF0DCFCB0
:1027900070B9714CA37F5BB109F0DCFB3060532052
:1027A0000DF05CF994F8213013B970200DF056F952
:1027B0004FF080431B69EA78DB096A4C63F300023F
:1027C0000020EA70FFF758FE2378032B1ED8DFE8BD
:1027D00003F002284F9EE36833B1984720B10120EF
:1027E000FFF7A4FE0023A370236933B1984720B1FB
:1027F0000120FFF79BFE0223A370636933B1984762
:1028000020B10120FFF792FE0123A3700DF020F804
:10281000554B1B78002B00F09980BDE8704002F00A
:1028200065BFA369002BF1D098470028EED002F0D5
:1028300057F94E4B187007F06DFF2A784C4B1A7001
:102840000022454B9A772A684A4B134063B94A4C99
:102850002378012B08D00222484B20469A610BF0C6
:10286000A1FC20460BF066F80220FFF75FFECDE7E3
:10287000E369002BCAD098470028C7D00022404BFC
:102880001A704FF080434FF400129A61A37843B35B
:10289000022B0BD86378022B08D0FFF7B3FC112072
:1028A0000DF0DCF80CF050FC0028FBD100F096FF96
:1028B0000023E3702E4B2A781B789A4208D12A68AD
:1028C0002C4B1340B3F1807F02D0A07800F060FC65
:1028D000A378012B18D0A3B1022B97D1FFF7F6FEF6
:1028E00094E71D4B5B7E002BE0D111200DF0B6F874
:1028F0000CF02AFC0028FBD147F230500AF0BBFA5A
:10290000D4E7FFF7D1FE81E7FFF7F8FE7EE7236A01
:10291000002B3FF47BAF984700283FF477AF0122AC
:102920000D4B9A77114B1B782BB14FF0804320222F
:102930009A6107F0DDFE002400F016FB104B1C70BE
:1029400000F040FFFFF7C6FC20468EE770BD00BFD9
:1029500004100020E0360020640C0020282700200E
:102960000C100020A40C00200910002000100020F2
:1029700008100020FF000001C439002000040040BE
:10298000101000200120704708B5FFF7FBFF08BDBD
:1029900037B504460D46FFF79DFC29462046FFF754
:1029A000F3FF60B1074B1A784AB1074B20461B78FA
:1029B000D9090091C3F30013A9780CF06DFF03B09F
:1029C00030BD00BFE0360020EE36002000B50B4BD6
:1029D0008FB093F821300A4A322101A804F017FF82
:1029E00001A808F06BFC0CF0ABFB08F067FC054895
:1029F00008F064FC0FB05DF804FB00BF640C00201D
:102A000054FF000863FF00082B4B13B51A780446E7
:102A10004AB12A4B01211B78DB09009300230CF0FB
:102A20003BFF02B010BD0028FBD0031FDBB2A02B80
:102A300012D8234B0146186809F07CF920B12046D2
:102A400003F0E6FD03F068FE204603F0D9FD02B076
:102A5000BDE8104003F060BE00F12003DBB2072B9D
:102A600007D800F007040120A040C0B203F0FEFD2B
:102A7000EDE700F15B03DBB2022B06D8114AD05C14
:102A800002B0BDE8104009F0FFB800F15803DBB216
:102A90001A2B07D80C4A32F8130002B0BDE81040D8
:102AA00009F00EB93334E4B2122CBAD8012102B0C5
:102AB000BDE8104002F000BFE0360020EE360020F6
:102AC000780E0020F8FE0008FCFE0008244B13B529
:102AD0001A7804464AB1234B1B78DB090093002384
:102AE00019460CF0D9FE02B010BD0028FBD0031F20
:102AF000DBB2A02B06D803F08BFD02B0BDE810407E
:102B000003F00ABE00F12003DBB2072B07D800F068
:102B100007040120A040C0B203F0B0FDEDE700F1D2
:102B20005B03DBB2022B05D8104602B0BDE81040B3
:102B300009F0AAB800F15803DBB21A2B05D81046E9
:102B400002B0BDE8104009F0BBB83334E4B2122C37
:102B5000C9D8114602B0BDE8104002F0ADBE00BFBA
:102B6000E0360020EE3600202DE9F3410546C0B1E5
:102B7000114E3278C2B10127DFF84080284602F0BA
:102B80002CFE044698F80030E030DB0900933278E0
:102B90000023012180B207FA04F40CF07DFEA54366
:102BA000ECD102B0BDE8F08103F060FD02B0BDE8F9
:102BB000F04103F0B1BD00BFE0360020EE3600204A
:102BC0002DE9F3410546C0B1114E3278C2B101275B
:102BD000DFF84080284602F000FE98F800300446F6
:102BE000DB0900930023E0303278194680B207FAFF
:102BF00004F40CF051FEA543ECD102B0BDE8F08125
:102C000003F03CFD02B0BDE8F04103F085BD00BF1C
:102C1000E0360020EE3600202DE9F3410546C0B134
:102C2000114E3278C2B10127DFF84080284602F009
:102C3000D4FD044698F80030E030DB090093327888
:102C40000023012180B207FA04F40CF025FEA5430D
:102C5000ECD102B0BDE8F08103F01EFD02B0BDE88A
:102C6000F04103F059BD00BFE0360020EE360020F1
:102C70002DE9F3410546C0B1114E3278C2B10127AA
:102C8000DFF84080284602F0A8FD98F8003004469E
:102C9000DB0900930023E0303278194680B207FA4E
:102CA00004F40CF0F9FDA543ECD102B0BDE8F081CD
:102CB00003F0FAFC02B0BDE8F04103F02DBD00BF07
:102CC000E0360020EE3600202DE9F04104460E46A5
:102CD00001F0F2FAE8B92378013B142B50D8DFE871
:102CE00003F00B1B4A646A747777777CCC82868CFE
:102CF000959EA1A4ADB6BF00002363700C23A37002
:102D0000624B31461B782046002B40F0BB8009F017
:102D100055FC0120BDE8F0816378013B032B2FD8DF
:102D2000DFE803F0020C0F2309F014F9030EA3707F
:102D3000030CE370030A23716071E1E707F08DFF74
:102D4000F4E72546A77804F11B08052FD8D8F8B278
:102D500004F036F9030CEB70030A2B71687103352C
:102D6000454507F10107F0D1CAE70023A370E370DE
:102D700023716371C4E76378022B04D0052B10D054
:102D8000FF232370BCE7E378A07840EA032023798F
:102D900040EA0340637940EA036000BA07F060FF4D
:102DA000AEE7A07807F086FFAAE7E278A17860781E
:102DB00008F07EFBBEE722796379A17843EA02231B
:102DC0006078E27808F08AFB9AE708F0D7FB97E78B
:102DD0003146204607F0E9FF92E7002007F020FF88
:102DE00007F049FF8CE708F053FC607088E708F0B3
:102DF00051FC030A6370A07082E76078A378221DFB
:102E0000E17843EA002008F048FC79E76078A3788D
:102E1000221DE17843EA002008F059FC70E708F031
:102E200069FC6DE708F038FBDFE76078A378221DC6
:102E3000E17843EA002008F0EBFB61E76078A378D3
:102E4000221DE17843EA002008F0F9FB58E7E27818
:102E5000A178003218BF0122607808F054FB69E7BE
:102E6000E27821796379003243EA012318BF012215
:102E7000A178607808F066FB42E70123044A63709A
:102E800013703DE70CF0CAFE43E700BFE0360020B8
:102E90000910002010B54378044613B1FF232370B6
:102EA00011E08378013B032BF8D8DFE803F0021A26
:102EB00028410378072B07D0082BEFD1294BDB786B
:102EC000C3F34203C37010BDC1780729FBD8BDE826
:102ED0001040244BDA7861F34302DA70186803F08B
:102EE000E8BC0378072B05D0082BD7D101F0F1FA05
:102EF000E070E8E7C078BDE8104001F0BBBB0378A4
:102F0000072B0AD0082BC9D142790179C07801F08A
:102F1000E2FAA071000AE071D5E7C27983790179FC
:102F200043EA0223BDE810404279C07801F0E9BAD3
:102F30000378072B0BD0082BB0D12379C078A21DC2
:102F4000617943EA0020BDE8104001F0EFBA23792F
:102F5000C078A21D617943EA0020BDE8104001F06D
:102F600000BB00BFE036002008B508F0F3FF014BBE
:102F7000186008BD68110020164B10B51C788CB97C
:102F8000154B1B78052B08D0022B06D008F0E2FF6A
:102F9000124B1860124B1C7010BD4FF080431B6920
:102FA0001B0603D4BDE81040FFF7DEBF0B4B1868CB
:102FB0000028F7D009F014F841F657339842EBD9BE
:102FC000FFF7D2FFBDE810400122054B1A70FFF752
:102FD00005BB00BFE0360020C43900206811002086
:102FE0006C110020F8B5124B1F7817B10124204650
:102FF000F8BD104D2B78052BF8D1B5F84C309B0758
:1030000002D50D4E347824B9FF2894BF0024012442
:10301000EDE7FFF7CBFA0328E8D83770FFF7A4FFF6
:1030200028460AF033FD284601F084F9DFE700BFA7
:10303000E0360020C43900206C11002070470000E9
:103040001A4B70B59C6C0F2644F4C0649C649B6C56
:10305000012301F003048B4021F0030101F18041C1
:1030600001F5A0518D68A400C0F38320A04006FAAA
:1030700004F425EA040528438860D8430C4912F07B
:10308000010F8C6814BF1C4304408C6012F0020FC7
:10309000CA6814BF1A430240CA60054A53611168E6
:1030A0000B43136053680340536070BD000C014034
:1030B000001800400F281FD8DFE800F0080C0F129E
:1030C0001518181818181B1B1B1B1B1B062108465C
:1030D0000AF01BBF06210720FAE706210820F7E7C0
:1030E00006210920F4E706210A20F1E70621102035
:1030F000EEE706212120EBE7704701207047000032
:1031000010B5FFF7FAFF002836D00C22032418214F
:103110001A4B12209C62DA62194AC2F890100022FF
:103120009A62DA62174A0121136C43F480731364C4
:103130004FF47062144B5A645A6C02F470625A6411
:103140000BF00CFF062123200AF0DFFE01220721ED
:103150004FF08040FFF774FF0720FFF7ABFFFFF74A
:1031600031FA48B9224609480621FFF769FFBDE850
:1031700010400620FFF79EBF10BD00BF00000140B9
:1031800000040140000C0140004C014000040040DC
:103190002DE9F0473023054683F31188FFF7B0FF90
:1031A00000264FF00108994FDFF8909257F8040B72
:1031B00095B1012D4CD148454AD120F00F0A00F0BD
:1031C0000F0008FA00F421460522504624040BF0B3
:1031D0000AF8CAF8184001E0441CEED10136122E5C
:1031E000E4D1062401278A4E56F8040B002D3BD06B
:1031F000012D40F0FD80B0F1804F40F0F98000F0EB
:103200000F01202207FA01F120F00F000AF0EBFF76
:1032100000BF00BF00BF00BF00BF00BF00BF00BFB6
:1032200000BF00BF00BF00BF00BF00BF00BF00BFA6
:1032300000BF00BF56F8040C022200F00F08414600
:1032400020F00F00FFF7FCFE4046FFF733FF0DE0D4
:10325000411CC3D000F00F01202208FA01F120F038
:103260000F000AF0C0FFB9E7421CC8D1013CBBD136
:10327000684B4FF40061DA6C674822F00802DA64A8
:103280002246DB6C0AF0AFFF00BF00BF00BF00BFEB
:1032900000BF00BF00BF00BF00BF00BF00BF00BF36
:1032A00000BF00BF00BF00BF00BF00BF03220B2153
:1032B0005948FFF7C5FE0B20FFF7FCFE84F3118889
:1032C00072B601202646554A136823F001031360A5
:1032D000534B544A5A610022B30003F1604303F593
:1032E0006143D3F80011D4B2012C94BF002101F046
:1032F000010109B1C3F880010132202AF1D1013660
:10330000082EE8D1484C494D636843F00073636070
:103310002B6803F009032B602B6843F46C3343F0F4
:1033200004032B6040F2B3332B62414B43F00103A3
:103330009847236943F00403236130BF3D4B0027C6
:1033400043F0010398472369344A23F004032361BF
:103350001368304C43F001031360E36943F08003CA
:10336000E361A36C43F40073A36409F053F90323EE
:10337000AB620C23304AEB62D2F8903023F0180392
:10338000C2F89030AF62EF62236C43F48073236421
:10339000236C43F00203236401236363E367E36662
:1033A0006661636943F004036361636943F0010389
:1033B000636103F039FE40F282324FF40061164837
:1033C0000AF011FFE36C43F00803E364E36CA36CC1
:1033D00043F48053A364A36CE36C43F01003E364F1
:1033E000E36CFFF72BFE87F3118862B6BDE8F08728
:1033F000431C3FF43BAF00F00F01402207FA01F1FC
:1034000020F00F000AF0EFFE30E700BFA4FF000835
:1034100048000108000C01400008004010E000E0F6
:1034200000180040FFFF070000ED00E00000014031
:1034300020000108ECFF00080004014009080040DA
:10344000012070470120704701238B40034210B5D3
:103450000C4613D00B2918D8DFE801F01517061712
:1034600017171711171717130420FFF7B1F8204685
:10347000FFF7E6FF10B12046FFF7E4FF10BD032081
:10348000F3E70220F1E70520EFE70120EDE7000078
:1034900008B50D4B5A69D20707D51A68002122F0EA
:1034A00001021A600120FFF7CFFF4022074BC3F84B
:1034B0008020BFF34F8FBFF36F8F0122024B5A6101
:1034C000BDE8084009F0CCBD0018004000E100E074
:1034D00008B50D4B586910F0020006D01A6801219A
:1034E00022F002021A60FFF7AFFF8022074BC3F8F9
:1034F0008020BFF34F8FBFF36F8F0222024B5A61C0
:10350000BDE8084009F0ACBD0018004000E100E053
:1035100008B50E4B586910F0040006D01A68022155
:1035200022F004021A60FFF78FFF4FF48072084BFD
:10353000C3F88020BFF34F8FBFF36F8F0422034B7C
:103540005A61BDE8084009F08BBD00BF001800407B
:1035500000E100E008B50E4B586910F0080006D0F5
:103560001A68032122F008021A60FFF76DFF4FF47A
:103570000072084BC3F88020BFF34F8FBFF36F8FEB
:103580000822034B5A61BDE8084009F069BD00BF3D
:103590000018004000E100E008B50E4B586910F03B
:1035A000100006D01A68042122F010021A60FFF7FA
:1035B0004BFF4FF48062084BC3F88020BFF34F8F5E
:1035C000BFF36F8F1022034B5A61BDE8084009F02A
:1035D00047BD00BF0018004000E100E038B5254BB2
:1035E0005C69A20604F4787507D51A68052122F0F3
:1035F00020021A602846FFF727FF600608D51D4AFB
:1036000006211368284623F040031360FFF71CFFD0
:10361000210608D5174A07211368284623F080039E
:103620001360FFF711FFE20508D5124A082113685D
:10363000284623F480731360FFF706FFA30508D51F
:103640000C4A09211368284623F400731360FFF71E
:10365000FBFE4FF48032084BC3F88020BFF34F8F3E
:10366000BFF36F8F4FF47872024B5A61BDE8384058
:1036700009F0F6BC0018004000E100E038B52A4B24
:103680005C69620504F47C4507D51A680A2122F4B6
:1036900080621A602846FFF7D7FE230508D5224A24
:1036A0000B211368284623F400631360FFF7CCFE58
:1036B000E00408D51C4A0C211368284623F48053E3
:1036C0001360FFF7C1FEA10408D5174A0D21136846
:1036D000284623F400531360FFF7B6FE620408D5B2
:1036E000114A0E211368284623F480431360FFF724
:1036F000ABFE230408D50C4A0F211368284623F497
:1037000000431360FFF7A0FE0222084BC3F8842099
:10371000BFF34F8FBFF36F8F4FF47C42024B5A6160
:10372000BDE8384009F09CBC0018004000E100E012
:1037300008B50E4B586910F4802006D01A68122183
:1037400022F480221A60FFF77FFE0822084BC3F89C
:103750008420BFF34F8FBFF36F8F4FF48022034B52
:103760005A61BDE8084009F07BBC00BF001800406A
:1037700000E100E010B5074C23784BB901F0BAF92D
:1037800002F049F808F052FA02F046F801232370DB
:10379000012010BD6E11002010B5044C23781BB120
:1037A00001F07CFA00232370012010BD6E1100206F
:1037B000024B1B780BB10CF01BB970477111002044
:1037C0000120704708B5044B1B780BB9FFF7D2FFF7
:1037D00001F0B6F908BD00BF6E11002008B5044B1A
:1037E0001B780BB1FFF7D8FFFFF7EAFF08BD00BF5A
:1037F0006E1100200120704708B5FFF7FBFF08BDE0
:10380000014B1878704700BF6F110020014B1870F2
:10381000704700BF6F110020014B1870704700BF48
:103820006F110020014B1878704700BF7011002005
:10383000084B10B50446187058B9FEF7B7FE0228B9
:1038400007D80320FEF772FE2046BDE81040FEF7C1
:10385000B3BE10BD70110020FFF7EABF024B18780D
:1038600080F00100FFF7E4BF701100200020FFF797
:10387000DFBFFFF7F3BF0000024B187880F00100B4
:10388000704700BF70110020084B1A78084B1B7856
:103890004BB982F00102A0F5A443203B1F2B8CBF43
:1038A0001046012070470022F5E700BF701100208C
:1038B0006F11002000231946064A93721360937516
:1038C000D360054A01330B2B917242F80C1BF9D1DE
:1038D000704700BF540E0020C80C002008B503F04C
:1038E00015FCFFF7E7FF0022014B1A6008BD00BF7F
:1038F000781100200120704708B5FFF73BFFFEF765
:10390000E5FD01F01BF948B1012220214FF0804074
:103910000AF069FC4FF0804320229A6108BD000044
:1039200000230D4A10B513700C4A4FF080441370F9
:103930000B4A136006F006FF01280AD006F0FAFED3
:103940004FF40013A36101F0A7FDBDE8104003F0A0
:1039500052B82023F6E700BF6D110020721100203D
:103960007411002008B503F00BF805F067FA02F0B7
:1039700096FF084B188060F07F001870188802F0DE
:1039800091FF01F009F918B1BDE80840FFF7C8BF81
:1039900008BD00BFEE36002037B504460D4601F0E5
:1039A00003FD002800F0BD80002D00F0BA8047F62E
:1039B00004639C4200F0858029D847F601639C424D
:1039C0005BD00AD847F603439C4200F0A780B4F5C9
:1039D000FC4F3CD0284603B030BD47F602639C4202
:1039E0005DD047F603639C42F4D100230DF107013B
:1039F00001208DF80730FEF733FC9DF80730042BCB
:103A000002D013F0FD0FE5D10122042130E047F68A
:103A100012639C427BD00BD847F605639C4263D06F
:103A200047F611639C42D5D10020FFF701FFD1E793
:103A300047F613639C426ED047F643639C42C9D15C
:103A40000122394B1A700022384B1A60C2E700235A
:103A50000DF1070101208DF80730FEF701FC9DF8FC
:103A60000730042B02D013F0FD0FB3D10122114611
:103A70002F4B1878FEF736FCACE700230DF1070159
:103A800001208DF80730FEF7EBFB9DF80730042B83
:103A900002D013F0FD0F9DD101220221E8E700239F
:103AA0000DF1070101208DF80730FEF7D9FB9DF8D5
:103AB0000730042B02D013F0FD0F8BD1012203211C
:103AC000D6E700230DF1070101208DF80730FEF73E
:103AD000C7FB9DF80730042B03D013F0FD0F7FF4D4
:103AE00079AF01220521C3E700230DF10701012071
:103AF0008DF80730FEF7B4FB9DF80730DA1E012A77
:103B000002D9002B7FF466AF01220621B0E7012223
:103B1000084B1A705EE7FFF7A1FE5BE7FFF722FF95
:103B200058E7054656E700BF7211002074110020C7
:103B3000E03600207011002070B5FEF7F7FD00257B
:103B400001261B4C206858B1A37A4BB908F048FAFB
:103B50006368984204D3A67201212089FFF71CFFF5
:103B60000C3415B30026134C206858B1A37A4BB916
:103B700008F036FA6368984204D3A57201212089BF
:103B8000FFF70AFF01360B2E04F10C04ECD10A4BAF
:103B90001A783AB100221A700BF0D6FA0028FBD13D
:103BA000FFF7E0FE00F0CEFF70BD0125CAE700BFC1
:103BB000540E0020C80C00208411002008B5064BCC
:103BC0001B780BB9FFF7D6FD4FF0804320229A6196
:103BD000BDE8084008F088B96E1100202DE9F743D0
:103BE0000D46BA4A897804461368E9B1032B00D818
:103BF0000133B74F1360FEF76DFB3889844217D04D
:103C0000B88A84420CD14FF0010995F802800C2645
:103C1000B8F1000F0FD008F09DF906FB09F6B85176
:103C2000AC4B0027984631E0002BE2D0013BE0E7A7
:103C30004FF00009E9E706FB09F607EB060999F8DA
:103C40000A300BB9BB51EBE74146FFF7A5FE89F8F7
:103C50000A8047F806800028E2D100209BE07E43DE
:103C600008EB0607BB7A13B948F806301CE0494652
:103C70002046FFF791FE87F80A9048F8069098B919
:103C8000EBE701370B2F03F10C030DD01A89944297
:103C9000F7D195F802900C26B9F1000FDFD008F0AB
:103CA00059F97E4348F8060029462046FFF7ECFD07
:103CB0000028D2D02946204601F09EF80028CCD01A
:103CC00047F604639C4200F0C8802CD8B4F5FC4F42
:103CD0006ED009D847F620039C4200F01C8147F6BD
:103CE00003439C42B9D02EE047F602639C42AB7876
:103CF00000F098807BD9002BAFD0774C2278042A33
:103D0000ABD000230DF1070101208DF80730FEF73D
:103D1000A7FA9DF80730042B02D013F0FD0F9CD1B9
:103D2000002204215FE047F640639C4225D01CD866
:103D300047F606639C4200F0D580C0F0AA8047F6A3
:103D400007639C4231D02946204600F0B3FC00288E
:103D500083D029462046FFF745F900283FF47DAF80
:103D600029462046FEF714FE15E047F642639C42C2
:103D700014D009D347F64363B3E7AB78002B3FF485
:103D80006CAFFEF723FE68E7A878544B10B1012210
:103D90001A7062E7187003B0BDE8F083AB78002BAF
:103DA0003FF45BAFFEF71AFC57E7AA784C4BEFE7FE
:103DB000AB78002B3FF451AF474C2278012A3FF4F7
:103DC0004CAF00230DF1070101208DF80730FEF7FD
:103DD00047FA9DF80730042B03D013F0FD0F7FF452
:103DE0003CAF002201212078FEF77CFA35E7002B5A
:103DF0003FF433AF384C2278022A3FF42EAF002331
:103E00000DF1070101208DF80730FEF729FA9DF822
:103E10000730042B03D013F0FD0F7FF41EAF0022F8
:103E20000221E0E7002B3FF418AF2B4C2278032A45
:103E30003FF413AF00230DF1070101208DF8073087
:103E4000FEF70EFA9DF80730042B03D013F0FD0F98
:103E50007FF403AF00220321C5E7AB78002B3FF4CA
:103E6000FCAE1D4C2278052A3FF4F7AE00230DF17D
:103E7000070101208DF80730FEF7F2F99DF80730B1
:103E8000042B03D013F0FD0F7FF4E7AE00220521D1
:103E9000A9E7AB78002B3FF4E0AE0F4C2278062A5E
:103EA0003FF4DBAE00230DF1070101208DF8073050
:103EB000FEF7D6F99DF80730DA1E012A02D9002B49
:103EC0007FF4CBAE002206218DE700BF78110020E1
:103ED000540E0020C80C0020E03600207111002094
:103EE0006D110020AB78002B3FF4B7AE114C227857
:103EF000002A3FF4B2AE00230DF1070101208DF836
:103F00000730FEF7ADF99DF80730012B3FF6A5AE5F
:103F10000022114667E7AB78002B3FF414AF06F0A0
:103F200011FC4FF0804318B14FF400129A610AE778
:103F30002022FBE7E0360020014B1878704700BFD5
:103F40007C110020012070472DE9F04105460C4608
:103F50005E4E5F4F21462846FFF7F4FF50B1062C16
:103F600008D8DFE804F0040963A0A0ADAD0000228A
:103F7000564B1A60BDE8F08132686ABB85B9554B73
:103F80001B78062B0CD8DFE803F02404171A1E1E3A
:103F900021009F23002211460020FDF7F7FF012298
:103FA0004FF4FA712846FEF735F82846FDF7CEFFA4
:103FB00007F0D0FF3060DDE700239F22EBE79F236F
:103FC00000221946E8E70023FF22FAE700239F2298
:103FD000F7E79F231A46F4E7104608F001F847F286
:103FE0002F53984203D905243B4B1C70B2E7394B41
:103FF0001B7853EA050814D1384B1B78042B0BD1DE
:104000000323354C404623709F231A461946FDF77B
:10401000BDFF454624789DE74046BDE8F041FDF7E9
:1040200095BF7A7E002A3BD00324DDE7306848BB89
:10403000002D9FD1274B1B78013B052B9AD8DFE839
:1040400003F003101519191D00229F231146104675
:10405000FDF79CFF0122C8210020FDF7DBFF0020B7
:10406000A4E79F22002311461846F1E79F23002270
:104070001946ECE70023FF211A46F5E700239F22AB
:104080001946F1E707F0ACFF47F22F53984201D9E8
:104090000624A9E77B7E0BB10424A5E70D4B1B7812
:1040A00053B12846B9E7FF224FF4FA612846FDF7DD
:1040B000B1FF2846FDF74AFF0022074B1A7059E767
:1040C0000022054B1A70FEF789FAEAE780110020FA
:1040D000640C0020E03600207C110020C439002050
:1040E000014B1978FFF730BF7C1100200120704789
:1040F00070B50D46002106460846FDF775FF10B95C
:104100000024204670BD29463046FFF7EFFF0446E5
:104110000028F5D00022044B29461D70034B304681
:104120001A60FFF711FFECE77C11002080110020DE
:1041300070B50E461546FEF763F8044650B126B139
:10414000074B5B7E53B9062E04D82DB10221002007
:10415000FFF7CEFF204670BD0121F8E71C46F9E7C6
:10416000640C0020094B1B787BB9094B1A7832B1DB
:10417000084A527E4AB959781046FEF7B3B8064B42
:104180001B78042B01D01146F6E770477C11002004
:10419000E0360020640C0020C43900207047000085
:1041A0002DE9FF473F4E07468846FFF7F7FFFFF729
:1041B000D9FF3478002C32D03B4D2B6813B907F06F
:1041C000C9FE2860286807F00BFF41F28733984248
:1041D00005D933780133337007F0BCFE286033789B
:1041E000013B032B17D8DFE803F0020C1014002268
:1041F0005020114605F0D0FC0024204604B0BDE854
:10420000F087002250211046F4E700215022084692
:10421000F0E75022F6E7002434702C60EDE7234BE2
:104220001B788BB941463846FFF764FB0028E3D082
:104230004146384600F0C6FC04460028DCD0414622
:104240003846FDF701FFD8E722462146204605F013
:10425000A3FCDFF85CA0DFF85C9001AE0A255146B4
:104260002A463046FCF78CF999F81F30E2B2B3FBCE
:10427000F5F59542A05D11D9312B03D900235022C9
:10428000194605E01D2B4FF00003F8D81A465021BF
:10429000013404F005FE0A2CE0D1C3E700231A46DE
:1042A000EEE700BF72110020741100206D11002094
:1042B00078FD0008640C002070B505460E46FEF738
:1042C00009F8FEF773F910B10320FEF72FF92B78E8
:1042D0000A2B0ED10124084B31461C70074B28468F
:1042E0001B781BB908F06AF9204670BD0BF096FCEC
:1042F000FAE70020F9E700BF84110020E036002033
:10430000012810B5044610D0022809D1FEF74EF955
:10431000032805D00320FEF709F90020FEF74CF929
:104320002046BDE8104007F0B9BD014B1870F7E713
:10433000D00F0020014808F09EBD00BFA0860100FC
:104340000D4BF0B51B688BB12422490002FB001015
:104350000A4901220E461D5A31F8027BD4B2AF42FF
:1043600005D104F0070236F812201A52F0BD0132CE
:10437000092AF1D10022F8E788110020D4030108AE
:104380002DE9F04385B004460E4606F06DFA4FF075
:1043900024084FF000092D4D2D4F6880E0B2864271
:1043A00050D92C4900230EE01CF801EBBEF1FF0FA1
:1043B00001D086451CD00132122AF5D10133062BDB
:1043C00001F112013CD08C460022EDE7012B08D10F
:1043D000012A06D16B88ADF804908DF8063001985B
:1043E00019E06B88ADF800108DF80230009812E0EB
:1043F000396829B308FB031333F8121033F812306D
:1044000049BADAB21B0AE1D1002AEAD1ADF8082094
:104410008DF80A20029804F01BF8C0F307238DF8EA
:104420000C00C0F307408DF80D308DF80E009DF89C
:104430000E309DF80D209DF80C10204604F030FD44
:104440000134ABE705B0BDE8F08300BF4C0D0020A0
:1044500088110020500D002041EA0203184310B4D7
:1044600005D10146D822094810BCFCF7FFB800244A
:1044700012230648013B13F0FF03017042702044F1
:10448000F8D12434D82CF3D110BC70478C11002003
:1044900010B5064A0B461478012C05D158780978D6
:1044A000FFF74EFF204610BD0020FCE74C0D00201A
:1044B000024B1878431E5842584170474C0D00205B
:1044C000122303FB0122D8235843223000EB420081
:1044D000704704207047032838B510D805290ED836
:1044E000112A0CD8FFF7ECFF054603F0DBFB04466E
:1044F000681C03F0D7FB44EA002080B238BD0020DE
:10450000FCE7032870B51C460FD805290DD8112AE1
:104510000BD8FFF7D5FF0546E1B203F02BFC210ACB
:10452000681CBDE8704003F025BC70BD2DE9F84360
:10453000002405460F461646A14600F12208BC425B
:1045400008EB040001D1BDE8F8832B19B3F5587FBF
:1045500004DA03F0A7FB30550134F0E706F80490C5
:10456000FAE72DE9F04105460E469046002400F199
:104570002207B44207EB040001D1BDE8F0812B19FA
:10458000B3F5587F03DA18F8041003F0F3FB013495
:10459000EFE70000032806D8D82202FB00F102480A
:1045A000223103F0CDBB70478C110020032838B5B1
:1045B0000CD8084A00231478012C07D15578A8425A
:1045C00006D11370FFF7E6FF204638BD0020FCE758
:1045D0001846FAE74C0D0020032806D8D82202FB23
:1045E00000F10248223103F0F3BB70478C11002028
:1045F000074B084A10B51A600023074C23706070FF
:1046000006F032F960806078BDE81040FFF7E4BF43
:10461000881100208C1100204C0D0020032808B5C3
:104620000CD8074A5070FFF7D7FF06F0B3F82D28D3
:1046300002D02D2006F0ABF8012000E0002008BDDC
:104640004C0D0020032810B510D8094B197869B912
:10465000012458701C70FFF7BFFF06F09BF82D284F
:1046600002D02D2006F093F8204600E0002010BD77
:104670004C0D0020032810B5044609D8FFF7ACFF05
:104680002046FFF793FF2046BDE81040FFF7C6BF66
:1046900010BD000008B5054802F01AF9BDE8084051
:1046A0004FF458722221024803F04ABB600001080F
:1046B0005608010808B50B4B0A461B78012B0CD194
:1046C000A0F5A44020381F2809D9887820B1507857
:1046D0000978FFF735FE002008BD0120FCE71846E9
:1046E000FAE700BF4C0D002070B504460078FF28A3
:1046F00001D106F04FF80C4900220D4611F8016B6C
:10470000D3B2864203D00132102AF7D11346227861
:10471000FF2A13BFFF22013303F00F032270E85C6E
:10472000BDE8704006F033B8F203010838B50B78E5
:104730000546FF2B0C4602D106F02CF820702846C7
:1047400038BD38B540F2863440F296352046002117
:10475000013403F0D2FAAC42F8D138BD10B506F0FE
:1047600019F80023054911F8014BDAB2844203D04D
:104770000133102BF7D11A46104610BDF203010881
:1047800010B50446FFF7EAFF2146BDE8104000F2ED
:10479000863003F0B2BA08B5FFF7E0FF00F28630CA
:1047A00003F080FA072888BF002008BD70B505F027
:1047B000F1FF0723124A12F8011B81421DD0013B71
:1047C00013F0FF03F7D10725FFF7E5FF0130B0FB3A
:1047D000F5F405FB14040B4B13F8145003EB4403DE
:1047E0005E7806F041F831460246284606F015F894
:1047F000E0B2BDE87040FFF7C3BF0625E4E700BFA5
:1048000002040108E403010838B5FFF76DFFFFF764
:10481000C2FF074B13F8104003EB40035D7806F02E
:1048200023F8294602462046BDE8384005F0F5BF8A
:10483000E40301082DE9FF411A4B1B780BB300225A
:104840001146104605F0A8F90024DFF86080164FE5
:1048500001AE0A2541462A463046FBF791FEFB7F12
:10486000E2B2B3FBF5F5954200D8AAB9312B305D21
:104870000BD9002350221946013404F011FB0A2CF5
:10488000E7D1012004B0BDE8F0811D2B4FF00003FB
:10489000F0D81A465021EFE70023305D1A4619463A
:1048A000EAE700BF64120020640C002082FD0008CB
:1048B00038B52A4B2A4DDB78044613F00103E97F13
:1048C000284A1ED0632914D90023274920460B60AB
:1048D000012111701A461946FDF758FBFF224FF4CB
:1048E00096712046FDF796FB2046BDE83840FDF75F
:1048F0002DBB00231C490B60012111701A46FF21BA
:10490000EAE70F29E0D8127802B31A46FF21FDF733
:104910003DFB0122FA212046FDF77CFBEB7F002BBB
:10492000E2D1114D2B6813B907F014FB28602868F9
:104930000028D9D007F054FB4EF660239842D3D913
:10494000002301202B60FEF761FFCDE711461346DF
:10495000FDF71CFBFF224FF4FA71DCE7E036002084
:10496000640C0020E00D00206812002070B5254E78
:1049700004463578042D32D8DFE805F0033E1F36B3
:104980003E0007F05BF9204BC0F34006187800F0BA
:1049900024FF022818BF1D4B314618BF1D78204642
:1049A00018BFC5F300152A460023FDF7EFFAFF22D2
:1049B00032212046FDF72EFB11E01023FF201A467E
:1049C0001946FDF7E3FA0322C821FF20FDF722FB79
:1049D000FF20FDF7BBFA01230D4A33701370204608
:1049E000BDE87040FDF7B2BAFF231A461946FDF73D
:1049F000CDFA0122C821DCE700233370FFF7B6FFB0
:104A0000EDE700BF6C1200207E120020EE36002081
:104A1000EC360020FF2810B504461CD10E4BDB6E8F
:104A200023F07F436E2B0CD100221146FDF7AEFA26
:104A300020460121FDF7C2FA2046BDE81040FDF7EF
:104A400085BAB3F5DC0F03D100236E221946EDE7DA
:104A50000022024B1A7010BDE40D0020EC3600203D
:104A600008B5054B00211870FB20FDF7BDFABDE825
:104A70000840FB20FFF77ABF6C12002008B5027CCB
:104A8000022A15D0FB2A24D0D2B9134B1B7803BBC2
:104A9000124A1278EAB9437C3BB1837E427E017EA2
:104AA000012004F0FDF9012008BD1A461946F7E778
:104AB000094B1B786BB9094B187880F00100F3E7BC
:104AC000064B1B782BB9FFF7F3FC80F00100C0B256
:104AD000EAE70020E8E700BF6C1200207612002011
:104AE000034B187810F0030018BF0120704700BF77
:104AF0002037002010B501224FF400714FF08040A4
:104B000009F071FB4FF080434FF400720A4C9A6138
:104B1000204601224FF4804109F065FB4FF48043A9
:104B2000A36104F5806420460122042109F05BFBA7
:104B300004230120A36110BD00080040012070473C
:104B40000120704710B5FDF731FD60B90F4C2068AA
:104B500007F046FAB0F57A7F05D907F0FBF9206037
:104B600053200AF07BFF0A4B1B7863B1094B1B787B
:104B70004BB90324002320461A461946013404F099
:104B80008FF90C2CF6D1012010BD00BF701200204F
:104B9000ED360020EC36002008B51023FF201A4621
:104BA0001946FDF7F3F90322FA21FF20FDF732FA47
:104BB000FF20FDF7CBF90120014B187008BD00BFA5
:104BC000EC3600201F4B70B51C7805460E4654B1DC
:104BD00010221146104604F0DFFF31462846FFF749
:104BE00029FE012070BD07F029F883070CD5FF23AB
:104BF00001201A46194604F053F9FF2320461A46AD
:104C0000194604F04DF9E8E70F4B104A19680A40BD
:104C1000B2F1807F0ED10E4A1278042A0AD1002305
:104C200001201A46194604F03BF900231A4619469A
:104C30001846E6E71B78002BCFD0064B5B7E002B97
:104C4000CBD0ECE776120020E0360020FF00000118
:104C5000C4390020640C002038B501224FF40071E3
:104C60004FF0804009F0BFFA4FF080454FF00073DD
:104C7000094CAB61204601224FF4804109F0B3FAA0
:104C8000A56104F5806401220421204609F0ABFAF5
:104C90004FF48023A36138BD0008004008B5FFF73A
:104CA000DBFF012008BD0000024B40F28230196892
:104CB00003F07CB8E8360020F7B505F06BFD01285D
:104CC000494C47D105F0ACFDC0F30723C0B27828AA
:104CD0008DF8053034D006D828280AD050282DD099
:104CE00090B3092306E0A0282CD0C828F8D10723C8
:104CF00000E00623237023783C4E0133237005F037
:104D00008FFD2378C0F307450A2B2FD12A46FF21B8
:104D1000002005F082FD0123354A3370D37843F03B
:104D20000103D370FFF7C0FF2378033B062B34D871
:104D3000DFE803F0434B2E3F4F4753000323D9E7EF
:104D40000823D7E70423D5E79DF80530002BC8D00A
:104D50000523CFE70C2805D00E2805D00528CAD199
:104D60000123C7E70023C5E70223C3E73278214FB9
:104D700062B100211E4B3170DA7861F30002DA7003
:104D8000FFF792FF387805F002FDCDE7F85CFAE70F
:104D90002A46FF21002005F040FD05F0FBFC052818
:104DA0001FD12A46FF21002003B0BDE8F04005F0E6
:104DB00034BD2A46FF212820EDE72A46FF21502056
:104DC000E9E72A46FF217820E5E72A46FF21A020CF
:104DD000E1E72A46FF21C820DDE700212A460846F0
:104DE000D9E703B0F0BD00BF74120020ED360020FB
:104DF000E83600206C0E002070B5B34D04462B78C9
:104E00000E463BB18B782BB10022114610462A701A
:104E100004F0C2FE47F601639C4200F0298169D884
:104E200047F621039C4200F0348232D845F2022337
:104E30009C4200F010820BD8E72C00F07B81B4F587
:104E4000A44F00F0D881E32C00F05D810124D7E06D
:104E500045F223239C4200F0848247F213039C42D4
:104E600000F03C8145F221239C42EFD1B378002B26
:104E7000ECD1FFF71DFB0028E8D0944B1A7832B133
:104E80000022314645F221201A70FFF701FB012470
:104E900064E247F629039C4200F0848110D847F66B
:104EA00027039C4200F08B8100F2938147F6230395
:104EB0009C42CBD1B378002BC8D0FFF777FC92E0AF
:104EC000B4F5F84F00F05681B4F5FC4F00F0C28005
:104ED00047F62A039C42B9D1B378002BB6D005F02F
:104EE00051FD3328B2D80220FFF7BAFD332005F078
:104EF00041FD78E047F61D639C4200F09B802AD874
:104F000047F607639C4200F02C8115D847F60563ED
:104F10009C4200F0CC8000F2B78047F602639C42CE
:104F200094D1FFF7C5FA00285DD1B378002B8DD05E
:104F3000674B1B78032B98E047F61B639C424DD0D0
:104F400060D847F609639C4280D1B378002B4AD0E1
:104F5000FFF7B2FE47E047F64C639C4200F0E68163
:104F600012D847F64A639C4200F0AC8100F2CC8133
:104F700047F61F639C427FF469AFB4789CBBA820BE
:104F800000F014FBA82052E047F654639C4200F066
:104F9000FA8047F655639C4200F0FC8047F6536365
:104FA0009C427FF453AFB378EBB105F0F3FB2D28AF
:104FB00019D1FFF77DFA0446464B587800F00F00F0
:104FC000002C40F0C581FFF73DFB204622462146DC
:104FD000FFF742FA0320FFF743FD11E0B4783E4BA0
:104FE0001CB101221A7000240AE01B78002BFAD0B1
:104FF000384BDB78990754BFA820282000F012FB1B
:10500000204670BD334BB478DB7803F0020344B123
:105010001BB1DA20FDF7F8FCE5E7A92000F0C6FA9D
:10502000E1E71BB1DA20FDF751FDE9E7A92000F027
:10503000D3FAE5E7274BB478DD7805F0020524B113
:105040000DB1D920E6E7AA20E8E70DB1D920EAE7BB
:10505000AA20ECE7FFF72CFA0028C4D1B378002B84
:105060003FF4F4AE1A4B1B78012B7FF4EFAE18E03F
:10507000FFF71EFA0028B6D1B378002B3FF4E6AE56
:10508000134B1B78022BF0E7FFF712FA0028AAD186
:10509000B378002B3FF4DAAE0D4B1B78002B7FF476
:1050A000D5AEFEF749FF041C18BF0124A8E7FFF79F
:1050B000FFF9002897D1B378002B3FF4C7AE044B1B
:1050C0001B78062BD1E700BF761200207512002056
:1050D000E0360020E8360020E5360020B478002CC9
:1050E0003FF4B4AE00236E211A46FF20FCF74EFFBA
:1050F0000121FF20FCF762FFFF20FCF727FF0122C0
:10510000A24B1A707CE7A24B187800F066FB0228CD
:105110007FF49CAE9F4B1B78DA067FF597AEFFF7C6
:10512000C7F900287FF492AEE320B478B4B100F060
:105130003DFA65E7964B187800F04FFB02287FF4A4
:1051400085AE944B1B78DB067FF580AEFFF7B0F998
:1051500000287FF47BAEB478E720E7E700F03CFA64
:1051600074E68D4B1B7803B1B3788C4A03F00103CE
:10517000137038E7B478002C3FF468AE01F0DCFE21
:1051800006F046FF3CE7B378002B3FF42CAF012339
:105190002B7028E7B378002B3FF425AF62200AF08C
:1051A0005DFC20E7B378002B3FF450AE05F0EAFB3E
:1051B000FF287FF44BAE0220FFF752FC46E6B3789F
:1051C000002B3FF443AE05F04FFB3F287FF63EAE89
:1051D000F1E7B478002C3FF439AE05F045FB102818
:1051E0003FF634AE0220FFF73BFC0022114610468A
:1051F00004F0D2FC04E7B378002B3FF4F4AE0021B6
:105200000846FCF7F1FE00236E211A461846FCF70B
:10521000BDFE5F4C0322FA210020FCF7FBFE0020BC
:10522000FCF794FE207800F0D8FA02287FF4DBAE79
:10523000207800F0D2FA30B9022000F03FFA0020C6
:1052400000F029FECFE6207800F0C7FA02287FF4AC
:10525000CAAE0020F1E7B378002B3FF4C4AE0021C2
:105260000846FCF7C1FE00236E2218461146FCF7E3
:105270008DFE474C0322FA210020FCF7CBFE0020D4
:10528000FCF764FE207800F0A8FA02283FF4ABAEE9
:10529000CEE7B3789BB1424C0020FFF7E1FB60788A
:1052A00000F00F00FFF798F9607800F00F00FFF7AB
:1052B0007DF900223B4BA01C1A70FFF7A5FAFFF7FF
:1052C000F3FC90E6B378002B3FF48DAE344C60785D
:1052D00000F00F00FFF780F9607800F00F00FFF793
:1052E00065F90020A11CFFF721FA637860F303033E
:1052F0006370FFF7D9FC607800F00F00FFF78EF9BC
:105300000020FFF7ADFB6EE6B378002B3FF46BAEE9
:10531000234C607800F00F00FFF75EF9607800F032
:105320000F00FFF743F9A11C0120DCE7B378002B45
:105330003FF459AE1A4C607800F00F00FFF74CF9BB
:10534000607800F00F00FFF731F9A11C0220CAE7D6
:10535000FFF72CF90020FFF783FB0024114B1C7092
:105360004EE6B378002B7FF471ADFFF7A1F800286B
:105370003FF46CAD0B4B1A78002A3FF488AD002245
:1053800031461A7045F223207FE500BFEC3600203D
:105390007E120020EE360020E0360020641200204D
:1053A000E83600207512002047F61B63984210B5BE
:1053B0001DD047F61F6398423BD109B9002411E084
:1053C0001D4B1A681D4B1340B3F1807F0CD11C4B51
:1053D0001B78042B08D1FEF74FFA04460028EDD1C4
:1053E000FEF744FA204610BDFEF743FAE6E700292F
:1053F000E4D000241349144B1C70CB7883F00202D4
:10540000C2F3400262F34103CB70FFF74DFC10235F
:10541000FF201A461946FCF7B9FD0322FA21FF20A6
:10542000FCF7F8FDFF20FCF791FD0122074B1A70F5
:10543000D8E70124D6E700BFE0360020FF000001D6
:10544000C4390020E8360020E5360020EC36002084
:1054500010B50020FFF704FB0C4A0024138823F446
:10546000706323F0010343F001031380FF23937063
:10547000074B1C70FFF765F9064B2246214618784A
:10548000FCF730FFBDE81040FFF70EBCE836002007
:1054900075120020E036002010B540F2823002F094
:1054A0001FFC104C206008B9FFF7D2FFE37860784A
:1054B0000D4AC3F3000300F00F001370FFF798F8D4
:1054C000FF22C8210220FCF7A5FD0220FCF73EFDCB
:1054D000FF22C821FB20FCF79DFDFB20FCF736FDD9
:1054E000012010BDE8360020ED3600200520704771
:1054F00004280DD805290BD8112A09D86C23434359
:10550000122000FB0131034B114433F811007047A6
:10551000012070471E04010805207047042808D8A0
:1055200039B9054B82F0010202EB400233F8120058
:1055300070470120704700BF0A040108A0F580737E
:10554000B3F5F85F10B526D210F4805F00F4007454
:1055500000F4807300F4806100F400620DD0002B31
:105560000CBF002010200CB140F0200009B140F029
:1055700040000AB140F0800010BD181C18BF012087
:105580000CB140F0020009B140F00400002AF3D051
:1055900040F00800F0E70020EEE710B50C46FFF7FA
:1055A000CDFF2346BDE8104018470000A0F1E003FE
:1055B000072B10B5044600D940B920460449FFF72F
:1055C000ECFFE0B2BDE81040FDF71EBA0149F6E776
:1055D000692B0008192C000810B50446C0B2FDF76D
:1055E00075FAA4F1E003072B00D92CB90349204632
:1055F000BDE81040FFF7D1BF0149F8E7C12B000813
:10560000712C000838B505460C46FFF7CFFF1CB9D2
:105610002846FFF7E1FF38BD6420013C07F02BFC72
:10562000A4B2F4E708B539280CBF50210A21FFF7CE
:10563000E9FF08BD01207047704708B5FFF7FCFF80
:1056400008BD000013B502AB03E903000F4B1B7844
:10565000B3B99DF80230009873B16AB100F0CEFC86
:1056600004460146009800F089FC2046009902B0EB
:10567000BDE8104001F04EBB00F0A0FC0446F4E78A
:10568000009800F0BBFC0099F1E700BF7D120020FC
:10569000034610B400885C880A4640EA04409988B2
:1056A00010BCFFF7CFBF0120704710B504460021A2
:1056B000FFF7EEFF2146FFF7C0FF10BD10B5012434
:1056C0008440E4B2204601F0E6F82046BDE81040F0
:1056D00000F0B5BB704708B500F04CFBFFF7FAFFD0
:1056E000BDE8084046F2A81007F0C5BB08B5FFF7B3
:1056F000F2FFBDE8084006F08BBC08B5FFF7EBFFF2
:10570000BDE8084006F0ACBC38B501210546FFF7FE
:10571000BFFF2946044605F0CFFA08B9002038BD7E
:1057200029462046FEF75AFA0028F7D02946204697
:1057300006F0C6F80028F1D02946204605F054FCB2
:105740000028EBD02946204606F038F80028E5D09E
:105750002946204605F05EF90028DFD0294620467C
:1057600006F0FCF80028D9D0AB785BB147F60343CC
:105770009C421DD00AD8B4F5F84F16D047F6014325
:105780009C4217D02846FFF755FFC8E747F65B4312
:105790009C4215D047F65C439C420ED047F65A43D4
:1057A0009C42EFD101F052F8ECE7FFF79FFFB5E71D
:1057B00001F053F8FFF7A1FFB0E701F03BF8E1E794
:1057C00001F047F8DEE708B500F02EF8002004F0FD
:1057D00059FFBDE80840FEF7F1B903091CBF1846A0
:1057E000042382081EBF10460233DBB242081CBFEE
:1057F0000133DBB21846704770470120704770478D
:1058000038B50546FFF7F9FF044610B12846FFF703
:10581000F6FF204638BD704710B50446FFF7ECFF91
:105820002046FFF7EDFF10BD08B506F0FFF9FFF7C2
:10583000F3FF08BD10B506F0F9F9074B04461A78D6
:10584000824207D0187006F085FB044B1860204692
:10585000FFF7E2FF10BD00BF7C120020781200208D
:1058600010B586B06C4684E803009DF802300BB199
:1058700000F022FF0023ADF8163094E80300ADF8E5
:10588000141089B20490ADF80C0004AC29B994E866
:10589000030000F049FE06B010BD4FF6FF73BDF8DF
:1058A0000C209A42F3D02046FFF7FDFE0028EED1EF
:1058B000F1E7008800F0C4BB08B529B102F01CF87C
:1058C000BDE8084002F0ECB802F074F8F8E738B52B
:1058D00005460C46FDF798F81CB92846FDF7F6F882
:1058E00038BD6420013C07F0C6FAA4B2F4E708B55D
:1058F00039280CBF50210A21FFF7E9FF08BD00003D
:105900002DE9F047877981460C46857800F09EFEA8
:105910003F09804600B3A846F5B1C4F3072303F05E
:10592000F002402A09D004F12002D2B2072A25D978
:105930001FB903F0E003202B23D0AC4B93F8018078
:1059400018F0040808D0022000F040FF00F07EFEAE
:1059500080F001005FFA80F8C4F303330B2B41D8C9
:10596000DFE813F01100110062006200CE00E400D5
:1059700040004000E9004601560156014FF0000882
:10598000EAE7B846E8E7C4F30723C4F3032613F0B5
:10599000F00F18BF3601E7B295B156B107F12003F9
:1059A000DBB2072B304600D93FB900F05FFE00F0B4
:1059B000B3FE3846FDF728F814E000F06DFEF6E778
:1059C0003846FDF783F86EB107F12003DBB2072BF1
:1059D000304600D917B900F051FE01E000F064FE36
:1059E00000F09AFEC4F30334083C032C03D806F0FD
:1059F0001DF9FFF711FFB8F1000F00F0618100F011
:105A00001DFE10F0010040F05B8189F8020000F0FB
:105A10000DFE00F047FA484600F068F900F006FE77
:105A2000BDE8F04700F04ABAC4F3072303F0F003DF
:105A3000C4F30326202B5FFA84FA18BF3601BAF1AB
:105A4000000F0FD0BAF1010F41D0002D49D0002F27
:105A500040D099F80630DA0741D56FF3071389F87B
:105A6000063037E0614B5B7859070FD43DB126B162
:105A7000304600F0FBFD00F04FFE00209AE728467C
:105A8000FDF724F8002EADD03046A4E785B137B934
:105A900000F018FE3043C0B2FDF766F8A2E7012F10
:105AA000F6D100F00FFE3043C0B200F017FE99E7C8
:105AB0002FB900F025FE3046FDF782F892E7012F5E
:105AC00090D03046FDF77CF800F01AFE8AE71DB151
:105AD000052F87D83046DFE7042F83D8EBE7504601
