:020000040800F2
:1000000000040020B9010008BB010008BB01000882
:10001000BB010008BB010008BB010008BB010008D0
:10002000BB010008BB010008BB0100089DCD000812
:10003000BB010008BB010008BB010008D7DF0008B6
:10004000BB010008BB010008BB010008BB010008A0
:10005000BB010008BB010008F1350008313600087B
:1000600071360008B5360008F9360008BB010008F3
:10007000BB010008BB010008A1E60008BB010008A5
:100080003D370008BB010008BB010008BB010008A8
:10009000BB010008BB010008BB010008BB01000850
:1000A000BB010008BB0100088DE20008A1E20008C6
:1000B000BB010008BB010008BB010008BB01000830
:1000C000F5DF0008DD370008BB01000891380008A3
:1000D000BB010008BB010008BB010008BB01000810
:1000E00072B6264880F30888254880F30988254899
:1000F00025490860022080F31488BFF36F8F0CF04D
:1001000067FB0CF043F94FF0553020491B4A9142F0
:100110003CBF41F8040BFAE71D49194A91423CBF24
:1001200041F8040BFAE71B491B4A1C4B9A423EBF9D
:1001300051F8040B42F8040BF8E700201849194A5B
:1001400091423CBF41F8040BFAE70CF045FB0CF080
:1001500040FB154C154DAC4203DA54F8041B88479C
:10016000F9E707F089F8124C124DAC4203DA54F863
:10017000041B8847F9E70CF02DBB000000040020A9
:10018000000C00200000000808ED00E00000002046
:1001900000040020B00E0108000C002034100020E4
:1001A0003810002048390020E0000008E000000876
:1001B000E0000008E000000892E700F000F8FEE729
:1001C0002DE9F04FC1F80CD0C3689D46BDE8F08F13
:1001D000002383F311882846A04700200CF012FD6D
:1001E000FEE70CF043FC00DFFEE7000053B94AB91C
:1001F000002908BF00281CBF4FF0FF314FF0FF302F
:1002000000F076B9ADF1080C6DE904CE00F006F807
:10021000DDF804E0DDE9022304B070472DE9F04782
:10022000089E0D4604468846002B4DD18A429446CE
:1002300068D9B2FA82F252B101FA02F3C2F1200196
:1002400020FA01F10CFA02FC41EA030894404FEA5B
:100250001C41B8FBF1F71FFA8CFE01FB178807FB66
:100260000EF0230C43EA084398420AD91CEB03031F
:1002700007F1FF3580F01E81984240F21B81023F5A
:1002800063441B1AB3FBF1F001FB103300FB0EFEBD
:10029000A4B244EA0344A6450AD91CEB040400F1C5
:1002A000FF3380F00981A64540F20681644402389C
:1002B0000021A4EB0E0440EA07401EB10023D44005
:1002C000C6E90043BDE8F0878B4208D9002E00F054
:1002D000EE800021C6E900050846BDE8F087B3FAC4
:1002E00083F100294AD1AB4202D3824200F2FC8062
:1002F000841A65EB030301209846002EE2D0C6E97C
:100300000048DFE702B9FFDEB2FA82F2002A40F0CD
:100310009180A1EB0C0001214FEA1C471FFA8CFED3
:10032000B0FBF7F307FB1300250C45EA00450EFB75
:1003300003F0A84208D91CEB050503F1FF3802D2EF
:10034000A84200F2CE8043462D1AB5FBF7F007FB1A
:1003500010550EFB00FEA4B244EA0544A64508D998
:100360001CEB040400F1FF3502D2A64500F2B68072
:100370002846A4EB0E0440EA03409EE7C1F12007A3
:100380008B4022FA07FC4CEA030C25FA07FA4FEAE5
:100390001C49BAFBF9F820FA07F309FB18AA8D40AB
:1003A0001FFA8CFE1D4300FA01F308FB0EF02C0C23
:1003B00044EA0A44A04202FA01F20BD91CEB0404FD
:1003C00008F1FF3A80F08880A04240F28580A8F1D1
:1003D00002086444241AB4FBF9F009FB104400FB42
:1003E0000EFEADB245EA0444A64508D91CEB040450
:1003F00000F1FF356CD2A6456AD90238644440EA60
:100400000840A0FB0295A4EB0E04AC42C846AE46E1
:1004100056D353D0002E69D0B3EB080264EB0E0420
:1004200022FA01F304FA07F71F43CC40C6E900742F
:10043000002147E70CFA02FCC2F1200125FA01F382
:100440004FEA1C4720FA01F195400D43B3FBF7F149
:1004500007FB11331FFA8CFE280C40EA034001FB16
:100460000EF3834204FA02F408D91CEB000001F1F8
:10047000FF382FD283422DD902396044C01AB0FB15
:10048000F7F307FB1300ADB245EA004503FB0EF09E
:10049000A84208D91CEB050503F1FF3816D2A84283
:1004A00014D9023B6544281A43EA014138E7314632
:1004B000304607E72F46E4E61846F9E64B45A9D251
:1004C000B9EB020865EB0C0E0138A3E74346EAE7F7
:1004D000284694E74146D1E7D0467BE7644402389A
:1004E00047E7023B65442FE7084606E73146E9E661
:1004F000704700BF062008B500F0E0FA01200DF0BB
:10050000B3FB00BF024B0146186800F06DB900BF95
:10051000000C0020024B0146186800F0FFB800BF35
:10052000000C0020032A10B516D940EA010C1CF07B
:10053000030F04460B4622D119462046D1F800E0AD
:10054000D0F800C00433F44504F1040417D1043A90
:10055000032A20461946EFD8541EA2B100F1FF3CF1
:10056000013901E0C3180CD01CF801EF11F8012F7C
:10057000A4EB0C039645F5D0AEEB020010BD541E63
:10058000ECE7184610BD104610BD00BF844641EA96
:10059000000313F0030349D1403A23D30B680360EF
:1005A0004B6843608B688360CB68C3600B690361F1
:1005B0004B6943618B698361CB69C3610B6A0362D9
:1005C0004B6A43628B6A8362CB6AC3620B6B0363C1
:1005D0004B6B43638B6B8363CB6BC36340304031A6
:1005E000403ADBD230320BD30B6803604B68436078
:1005F0008B688360CB68C36010301031103AF3D23F
:100600000C3205D351F8043B40F8043B043AF9D2CC
:10061000043208D0D2071CBF11F8013B00F8013B9F
:1006200001D30B8803806046704700BF082A13D3AC
:100630008B07B1D010F00303AED0C3F10403D21A7C
:10064000DB071CBF11F8013B00F8013BA4D331F8D4
:10065000023B20F8023B9FE7043AD9D3013A11F854
:10066000013B00F8013BF9D20B7803704B784370E3
:100670008B78837060467047830730B548D0541E2E
:10068000002A3FD00346CAB201E0013C3AD303F846
:10069000012B9D07F9D1032C2DD9CDB245EA0525B3
:1006A0000F2C45EA054536D9A4F1100222F00F0CB3
:1006B00003F1200EE6444FEA121C03F1100242E956
:1006C000045542E9025510327245F8D10CF101028D
:1006D00014F00C0F03EB021204F00F0C13D0ACF16A
:1006E000040323F003030433134442F8045B9342EE
:1006F000FBD10CF003042CB1CAB21C4403F8012B4B
:100700009C42FBD130BD64461346002CF4D1F9E77E
:1007100003461446BFE71A46A446E0E7002952D034
:1007200038B551F8043C0C1F002BB8BFE41805463F
:1007300000F0F0FA2B4A1368002B45D0A3420CD9E5
:1007400021686018834228D0636028461460BDE8A1
:10075000384000F0E1BAA3420FD81A465B68002B7C
:10076000F9D11168501884421DD034D363605460AD
:100770002846BDE8384000F0CFBA11685018A042B2
:1007800015D028D8216860188342EFD118685B68BB
:100790000144C4E900135460EAE718685B68014447
:1007A000C4E90013D1E7236819441160E0E7206829
:1007B0000144501883421160DAD1D3E900030144A7
:1007C000C2E90013D4E77047284663601460BDE8AF
:1007D000384000F0A1BA0C2328462B60BDE8384011
:1007E00000F09ABA38100020F8B5CD1C25F00305AA
:1007F00008350C2D38BF0C25002D064623DBA942F9
:1008000021D8264F00F086FA3A6822B3144603E056
:1008100063682246FBB11C4623685B1BF8D40B2B94
:1008200015D8636894420CBF3B605360304600F0BB
:1008300073FA04F10B00231D20F00700C21A01D047
:100840001B1AA350F8BD0C2300203360F8BD2360B1
:100850001C442560EAE77968D1B1294630460DF09D
:10086000E7F9431C01460CD0C41C24F00304A04249
:1008700005D03046611A0DF0DBF9013001D025605A
:10088000D4E70C233046336000F046FA0020F8BD70
:1008900030460DF0CDF97860DFE700BF381000205A
:1008A00038B5124B04461D68AA6B1AB10023C2E981
:1008B000044338BD1820FFF725FE0246A86378B12F
:1008C00000210B2301209381C2E90401084B09494F
:1008D000094DC2E9011300231560C2E9044338BD84
:1008E0004221064B064800F0CDF900BF000C002065
:1008F000ECDE050034126DE60E33CDABE00D0108E1
:10090000F80D010838B5194B1C68A26B8AB1136940
:100910001749546903FB01F1164800FB0411A3FBBE
:100920000030013341EB0001C2E9043121F0004005
:1009300038BD1820FFF7E6FD0246A06388B1012408
:1009400000250B230A480C49C2E904451160014601
:100950000A4D0B4C93810B4BC2E90154C2E904319F
:1009600038BD4E21084B094800F08CF9000C0020DE
:100970002DF451582D7F954C0E33CDAB34126DE6CE
:10098000ECDE05002E7F954CE00D0108F80D010806
:1009900038B5446C0CB1002038BD80210546FFF706
:1009A00023FF0246686430B1031F7C3243F8044FD2
:1009B0009342FBD1EFE74FF0FF3038BD1F29F8B568
:1009C000054608D8466C0C4617464EB156F824002A
:1009D00046F82470F8BD16234FF0FF302B60F8BDA9
:1009E0008021FFF701FF0646686440B10021031F24
:1009F00000F17C0543F8041F9D42FBD1E6E74FF070
:100A0000FF30F8BD1F2938B5054620D8426C0C468A
:100A10006AB152F8213053B1012B16D0591C10D0B5
:100A20000025204642F824509847284638BD2846DD
:100A300000F0F8F8224601462846BDE8384000F0AC
:100A4000DDB8162301202B6038BD002038BD1623E9
:100A50004FF0FF302B6038BD1F292BD8426C38B5C2
:100A60000C46054682B152F8243002EB84024BB1A9
:100A7000591C1AD0012B16D0002520461560984726
:100A8000284638BD012038BD8021FFF7ADFE024663
:100A9000686460B10020131F02F17C0143F8040F69
:100AA0009942FBD1DFE7032038BD022038BD4FF06B
:100AB000FF3038BD4FF0FF30704700BF38B5144BE2
:100AC0001F281D681FD86A6C044662B152F8203096
:100AD0004BB1012B15D0591C0FD0002542F82050E6
:100AE0009847284638BD284600F09CF82246014623
:100AF0002846BDE8384000F081B8162301202B605D
:100B000038BD002038BD16234FF0FF302B6038BDB4
:100B1000000C0020124B1F2870B51E6808D80D4627
:100B2000716C044649B151F8240041F8245070BD5D
:100B300016234FF0FF30336070BD80213046FFF741
:100B400053FE0146706440B10022031F00F17C0C8B
:100B500043F8042F6345FBD1E5E74FF0FF3070BD4C
:100B6000000C002038B50B4B1D686C6C0CB10020DC
:100B700038BD80212846FFF737FE686438B1031F6F
:100B800000F17C0243F8044F9342FBD1EFE74FF0B2
:100B9000FF3038BD000C002038B5174B1F281D68EA
:100BA00027D86A6C044682B152F8243002EB8402E2
:100BB0004BB1591C1BD0012B17D0002520461560C6
:100BC0009847284638BD012038BD80212846FFF7C8
:100BD0000BFE0246686460B10020131F02F17C0125
:100BE00043F8040F8B42FBD1DEE7032038BD02201F
:100BF00038BD4FF0FF3038BD000C002070B5002626
:100C0000074D0446084611462E600DF035F8431C8A
:100C100000D070BD2B68002BFBD0236070BD00BFDF
:100C2000401000200DF030B820F0030110F0030058
:100C3000C0F1000051F8043B00F1040C4FEACC0C69
:100C40006FF000021CBF22FA0CF213434FF0010CAC
:100C50004CEA0C2C4CEA0C4CA3EB0C0222EA0302EB
:100C600012EACC1204BF51F8043B0430F4D0C2F1B4
:100C7000000102EA0102B2FA82F2C2F11F0200EBA5
:100C8000D2007047144600B51A460A4B0D461B6841
:100C900085B0DE6803464CB10749019130460749EB
:100CA0000294009500F022F8FFF724FC04490C465A
:100CB000F3E700BF000C00202C0E01083C0E0108D9
:100CC000380E010808B513460022FFF7DBFF00BF0E
:100CD0000CB400B583B004AB53F8042B019300F0BF
:100CE00057F803B05DF804EB02B070470EB400B5DE
:100CF000074A82B003AB0146106853F8042B0193F6
:100D000000F046F802B05DF804EB03B0704700BF96
:100D1000000C0020704700BF704700BF9368013B84
:100D2000002B936005DAD2F818C0634507DB0A2967
:100D300005D01368581C106008461970704700F001
:100D400069BB00BF9BB1F8B5134406460F46541E5D
:100D50005D1E01E0AC4208D03A46304614F8011F4F
:100D6000FFF7DCFF431CF5D1F8BD0020F8BD0020E3
:100D7000704700BF936810B5144613B91846536006
:100D800010BD00F031FE0023C4E9013310BD00BFE7
:100D90002DE9F04F0E4692461C4607469FB018B10B
:100DA0008369002B00F0A880954B9E4200F0AA803A
:100DB000944B9E4200F0B580934B9E4208BFFE6864
:100DC000B389180740F1A3803369002B00F09F809E
:100DD000002320220B9330239AF80010059401255C
:100DE0008A4C8DF831208DF8323000297DD0D146E3
:100DF0000B4604E019F8013F002B00F09480252BEE
:100E0000F8D1B9EB0A0B40F0918099F80030002B33
:100E10006BD000234FF0FF3209F10109CDE9072320
:100E2000069309938DF85B301C9304E0001B05FAD0
:100E300000F018430690CA460522204619F8011B07
:100E400001F01CF8069B0028F0D1D90644BF2022EF
:100E50008DF85B201A0748BF2B229AF8001048BF74
:100E60008DF85B202A2972D1059A11680432002975
:100E70000592C0F2A08009919AF801100AF1010AC6
:100E80002E2976D0DFF888910322484600F0F6FF3D
:100E900048B14022069BA0EB090002FA00F0034390
:100EA0000AF1010A06931AF8011B062259488DF827
:100EB000301000F0E3FF002800F08380564B002B39
:100EC0006CD005A9009132463846544B06A9AFF3C1
:100ED00000800390039B013307D00B9B039A9AF881
:100EE000001013440B93002981D1B3895B0615D4FC
:100EF0000B981FB0BDE8F08F00F056FD404B9E42AE
:100F00007FF456AF7E68B38918073FF55DAF314671
:100F1000384600F0E1FA00283FF45AAF4FF0FF30B6
:100F2000E7E7BE684CE7B9EB0A0BDED0D046CAF162
:100F3000010A03E0934538D918F8011F32463846B4
:100F4000FFF7ECFE01300AEB0802F3D1CDE7A1F187
:100F50003002092A94D8099B1AF8011F03EB830376
:100F600002EB4303A1F13002092AF5D92E29099396
:100F700088D19AF801102A292DD1059B0AF1020087
:100F80001A680433002A0593B8BF4FF0FF339AF86C
:100F9000021007928246B8BF079373E7059B073399
:100FA00023F007030833059397E70B9A99F800306D
:100FB0005A440B922BE7494243F0020309910693EE
:100FC0005AE705A9009132463846144B06A900F0AD
:100FD000CBF803907EE70023A1F13002092A0AF141
:100FE000010A07933FF64EAF1AF8011F03EB830384
:100FF00002EB4303A1F13002092AF5D9079341E737
:10100000A8FB000888FB000868FB00086C0E0108BC
:10101000740E0108780E010800000000450D00085C
:101020008C4600B586461346034A714610685DF843
:1010300004EB6246FFF7ACBE000C00202DE9F04740
:1010400091461E460A698B680C469A42B8BF1A46FA
:10105000C9F8002091F843300546DDF8208013B12F
:101060000132C9F80020226891065DD5D9F8003018
:101070000233C9F80030226812F0060F11461ED163
:10108000E168CB1A002BD8BF114618DD002704F108
:10109000190A06E0D9F80030E268A2EB030CBC455F
:1010A0000CDD0123524631462846C047013007F186
:1010B0000107EFD14FF0FF30BDE8F087216894F8C9
:1010C0004330003B18BF01238A060AD53021E218BD
:1010D00082F8431094F845105A1C2244023382F8D7
:1010E00043103146284604F14302C0470130E1D0A5
:1010F000236803F00603042B1DD0A36822699342E2
:1011000025DD00279B1A1F4404F11A09002401E081
:10111000BC421CDA01234A4631462846C04701300A
:1011200004F10104F4D1C5E712F0060F12D0003B20
:1011300018BF0123D5E7D9F80030E1682269C91A40
:10114000A36821EAE1779342DCDC0029DCDC0020A3
:10115000BDE8F087E168D9F80030CB1A002BD8BF82
:10116000114693DCABE700BF2DE9F04317460A7E3A
:1011700085B00C46064698460C9D01F1430C002AAA
:1011800033D0A2F15803D9B2202967D8202B65D8D3
:10119000DFE813F0DD0064006400640064006400B4
:1011A00064006400640064006400A3006E006400D6
:1011B0006400640064006E00640064006400640005
:1011C00021007F00BF0064006400AE0064007F0067
:1011D00064006400E40023681A0640F102812B6871
:1011E0006269191D29601B681A600023E1462361AA
:1011F0003B4621463046CDF8008003AAFFF71EFF8C
:10120000013020D04A46394630462369C047013074
:1012100019D02368E0689B07039919D5431A002B5E
:1012200016DD002504F1190904E0E0680399431A6A
:10123000AB420DDD01234A4639463046C0470130F6
:1012400005F10105F1D14FF0FF3005B0BDE8F083A5
:101250008842B8BF084605B0BDE8F083012384F892
:10126000422004F142092361002384F84330BFE7A0
:101270002368190602D45A0600F1BF8029680A685B
:10128000043129601146002A6ADB0A25DFF87CE177
:1012900010E02368180640F19A802B68191D296018
:1012A00019686F2A0CBF08250A25DFF860E10023C2
:1012B00084F843306268002AA2607DDB236823F053
:1012C00004032360002959D1002A77D1E146082D73
:1012D00063D0ACEB090323618AE701222B6804F198
:1012E0004209196804332B6084F842102261BBE77D
:1012F0002B6800211A1D2A60D3F8009062684846C6
:1013000000F0BCFD00287FD0A0EB090060602061E8
:10131000AAE7236843F0200323607822DFF8F0E097
:1013200084F845202A68111D2960190642D45D06FB
:1013300040D51188D80744BF43F02003236000291B
:1013400043D12368102523F020032360AFE75823FF
:10135000DFF8B8E084F845302368E3E72368DCE78A
:101360002D2284F8432062684942002AA26002DBF1
:1013700023F0040323600A25DFF890E0E146B1FB87
:10138000F5F30A4605FB131019461EF80030AA4271
:1013900009F8013DF3D2082D9BD12368D90798D5D0
:1013A000626823699A4294DC302309F1FF3989F895
:1013B00000308EE71168BDE70029DFD19EF80030CC
:1013C00004F1420984F8423081E710256FE713F0F9
:1013D000400F2B6803F1040129600CBF19681988BC
:1013E0005FE713F0400F2B68626903F10401296085
:1013F0001B6814BF1A801A60F7E62A68B2F9001059
:1014000004322A600A463EE7606880E7800E0108E1
:10141000940E0108F8B506460D46144608B18369D6
:1014200043B3254B9C422AD0244B9C4229D0244BC9
:101430009C4208BFF468A269A389A2601A0722D55A
:10144000236903B322686169D31AEDB299422F462A
:1014500029DD0133A1680139A160511C216015709B
:1014600062699A4216D0A389DB0701D50A2D11D0F3
:101470003846F8BD00F098FA0F4B9C42D4D17468FE
:10148000D9E7B468D7E72146304600F025F838B9E7
:101490002369D7E72146304600F024F90028E7D039
:1014A0004FF0FF37E4E72146304600F01BF90028F3
:1014B000F6D101232268CDE7A8FB000888FB0008CD
:1014C00068FB000803460A46024908681946FFF708
:1014D000A1BF00BF000C00203C4B70B51D68064644
:1014E0000C460DB1AB69E3B1394B9C421FD0394B6F
:1014F0009C424DD0384B9C4208BFEC68B4F90C308C
:1015000018079AB219D5216911B312F001002FD032
:1015100000256069A5604042A06100292ED000200E
:1015200070BD284600F040FA294B9C42DFD16C6820
:10153000B4F90C3018079AB2E5D4D1063ED552075B
:1015400028D4216943F00803A3819AB20029DCD191
:1015500002F42070B0F5007FD7D02146304600F06D
:10156000FFFBB4F90C3021699AB212F00100CFD11F
:10157000950758BF6069A0600029D0D1120658BFF6
:101580000846CDD543F040034FF0FF30A38170BD36
:10159000AC68B3E7616B51B104F14402914204D0ED
:1015A0003046FFF7BBF8B4F90C300022626300222A
:1015B000216923F02403C4E90012C3E7092243F0A0
:1015C000400332604FF0FF30A38170BD000C00205B
:1015D000A8FB000888FB000868FB0008F8B58B89A9
:1015E0000C46190707463BD46268002A55DDE66AB7
:1015F000002E50D000223D683A6013F4805250D142
:1016000001233846216AB047421C5CD0A389E66AB0
:101610005B0705D56368C01A636B0BB1236CC01AF6
:101620000246216A00233846B047411C3BD13B6843
:10163000002B38D01D2B01D0162B4BD10023226953
:10164000C4E90023616B3D6029B304F1440399426E
:1016500002D03846FFF762F8002318466363F8BDEE
:101660002669C6B19A0718BF0023256808BF6369B9
:101670002660AD1BA3600CE02B463246D4F828C090
:101680003846216AE047B0F1000CA5EB0C05664432
:1016900012DD002DF0DC0020F8BD226C002AA6DC53
:1016A000F9E7606DB4E70022236962602360A389D3
:1016B000DB04C7D56065C5E7A3894FF0FF3043F071
:1016C0004003A381F8BD3B68002B9FD01D2B06D0A3
:1016D000162B04D0A38943F04003A381F8BD00205A
:1016E0003D60F8BD38B50B69BBB10C46054608B185
:1016F0008369B3B10D4B9C4211D00D4B9C4213D06A
:101700000C4B9C4208BFEC68B4F90C302BB121465D
:101710002846BDE83840FFF761BF002038BD6C683F
:10172000F2E700F041F9E5E7AC68EDE7A8FB000857
:1017300088FB000868FB000838B540B3036904461D
:10174000E3B1174B1D680DB1AB69CBB1154B9C4292
:101750000FD0154B9C4221D0144B9C4208BFEC6823
:10176000B4F90C3053B121462846BDE83840FFF7A4
:1017700035BF6C68B4F90C30002BF4D1002038BDB3
:10178000284600F011F9074B9C42E2D1F1E7084BE3
:1017900008491868BDE8384000F0BEBAAC68DFE719
:1017A000000C0020A8FB000888FB000868FB00086C
:1017B00064FB0008E516000800207047014900F0AE
:1017C000ABBA00BFE516000800207047682270B56C
:1017D0004D1E02FB05F50E4605F17401FFF704F8F6
:1017E000044640B100210C30C4E9016005F16802F3
:1017F0002160FEF741FF204670BD00BF274B2DE959
:10180000F0411E680746B36953B34FF004084836E9
:10181000D6E90134013B04D51EE05A1C04F16804EA
:101820001AD0B4F90C50013B002DF6D11C4B082204
:101830002946C4E90055C4E90253C4E90455656664
:10184000A56104F15C00FEF717FFC4E90D55C4E97A
:1018500012552046BDE8F08135682DB12E46D7E7F8
:10186000304600F01FF8D0E74FF4D6713846FEF747
:10187000BBFF044668B1056029460546C0F80480F0
:101880000C304FF4D072A060FEF7F6FE34602E46A6
:10189000BEE70C2330603B60DBE700BF64FB000861
:1018A0000100FFFF0023334A2DE9F0471268C0E929
:1018B00012339042036508BF01232F4908BF83619B
:1018C00081620546FFF79AFF034628466B60FFF7E3
:1018D00095FFA86028460024FFF790FF04236E6858
:1018E000DFF898A0DFF89890DFF89880264FE8603E
:1018F0000822F3602146C6E90044C6E90444746640
:10190000B460B46106F15C00FEF7B6FE1F4BC6E999
:10191000086AC6E90A983763AE680822F360214670
:10192000C6E90044C6E904447466B460B46106F1D3
:101930005C00FEF7A1FE164BC6E9086AC6E90A98E4
:101940003763EE682146F3600822C6E90044C6E921
:1019500004447466B460B46106F15C00FEF78CFE6A
:101960000123C6E9086AC6E90B87C6F82890AB616F
:10197000BDE8F08764FB0008BD170008552000088B
:101980007D200008BD200008DD20000809000100BE
:1019900012000200024B0349186800F0BDB900BFF5
:1019A00064FB0008E5160008836903B97AE770470D
:1019B000704700BF704700BF704700BF704700BF4F
:1019C000024B0349186800F087B900BF000C0020E3
:1019D000B9170008024B0349186800F07DB900BF31
:1019E000000C0020C91700089368002B00F0B78096
:1019F0002DE9F04FB1F90C300C4619078046174617
:101A000083B098B225D523691BB310F002033D685B
:101A10002DD04FF0000B5E46DFF8B8A2002E00F08C
:101A20008B80564533465A4628BF53464046216A66
:101A3000D4F828C0E047002840F38780BB6883447F
:101A40001B1A361ABB60002BE8D1002003B0BDE89A
:101A5000F08F21464046FFF73FFD002840F03681D9
:101A6000B4F90C303D6898B210F00203D1D110F0F7
:101A7000010976D14E46002E5AD08205D4F808B01E
:101A800040F1B580B3455A4600F2CD8010F4906F16
:101A900000F0CB8023682169A3EB010B636903EBA2
:101AA000430A0AEBDA7A0BF101034FEA6A0A33447C
:101AB0005345524684BF9A465246430540F1EA8058
:101AC00011464046FEF790FE002800F0F9805A4685
:101AD00021690190FEF75AFDA289019B22F49062D0
:101AE00042F08002A28103EB0B0023613246AAEB95
:101AF0000B03B346C4F814A0A3602060B2460026CE
:101B00004946019200F002FAA3682168019AA3EB0A
:101B10000B030A44A3602260B868D144A0EB0A001A
:101B2000B860002891D0B4F90C0080B2002EA4D186
:101B3000D5E9009608359EE7D5E900B608356DE78A
:101B400021464046FFF7CEFD80B3B4F90C304FF08C
:101B5000FF3043F04003A38103B0BDE8F08F0020C5
:101B600070471E46AA46994618461D4656B3002899
:101B700032D04A4620682169B24228BF32468842A4
:101B8000636904D9A16803EB010B5A4574DC9342E5
:101B900065DC2A464046216AD4F828C0E047B0F107
:101BA000000BD2DDB9EB0B09CAD00120BB685D4444
:101BB000A3EB0B03A6EB0B06BB60002B3FF445AF7A
:101BC000002ED4D10AF1080353F8046C9A4653F856
:101BD000085C0833002EF7D032460A21284600F070
:101BE0004DF9002869D00130A0EB0509C1E7206854
:101BF000236998421BD86369B34218D86FF0004C30
:101C0000B44528BFB4469CFBF3FC4A4603FB0CF3E7
:101C10004046216AD4F828C0E047B0F1000A94DDBC
:101C2000A6EB0A0678E7B3463246206866E7B34576
:101C3000DA4628BFB2464946524600F067F9A36823
:101C40002268A3EB0A035244A3602260002BE7D171
:101C500021464046FFF746FD0028E1D075E72946BA
:101C60009346019200F052F9A368019A9B1AA3606F
:101C700023681A44226095E729465A4600F046F93F
:101C8000236821465B4440462360FFF72BFD002874
:101C900088D05AE7404600F0B5F9034600287FF4A3
:101CA00022AF40462169FEF739FD0C22B4F90C3011
:101CB000C8F8002023F0800349E7721C914659E7D9
:101CC0000C22B4F90C30C8F8002040E74FF0FF3088
:101CD000BCE600BF00FCFF7F2DE9F04100268846EE
:101CE00000F14807D7E90154013D0ED4A389013D15
:101CF000012B06D9B4F90E30013302D02046C0477B
:101D000006436B1C04F16804F0D13F68002FE9D151
:101D10003046BDE8F08100BF2DE9F8434FF00009DF
:101D20000746884600F14806D6E90154013D10D423
:101D3000A389013D012B08D9B4F90E30013304D039
:101D400021463846C04749EA00096B1C04F1680483
:101D5000EED13668002EE7D14846BDE8F88300BFD3
:101D6000F0B58B890C46990797B007D5012204F18D
:101D70004703C4E90432236017B0F0BDB4F90E1074
:101D8000054600292DDB6A460BF05FFF002827DBA4
:101D9000019E4FF4806706F47046A6F50056B6FA29
:101DA00086F6394628467609FEF71EFD30B3A3892C
:101DB0001A4A43F08003AA62C4E90407A3812060A1
:101DC000002ED9D02846B4F90E100BF04AFF002897
:101DD000D2D0A38923F0030343F00103A381CBE70F
:101DE000A38913F0800F14BF40274FF48067284663
:101DF00039460026FEF7F8FC0028D8D1B4F90C309B
:101E00009A05B9D4012123F0030304F1470243F0FA
:101E10000203C4E90421A3812260ADE7BD170008D5
:101E200070B50C46B1F90E10164600291D4696B045
:101E300013DB6A460BF009FF00280EDB01994FF413
:101E4000806301F47041A1F50051B1FA81F10020E5
:101E500049092960336016B070BD0022B4F90C3016
:101E60002A601B0604D540230020336016B070BDE5
:101E70004FF480630020336016B070BD5FFA81FCC0
:101E8000810710D00346511E2AB90AE09A07184666
:101E90000AD0013905D3184613F8012B6245F5D154
:101EA000704700207047114603290CD80029F8D04C
:101EB0000346014401E08B42F3D0184613F8012B8E
:101EC0006245F8D1ECE7024610B54CEA0C2444EA2E
:101ED00004441046036804326340A3F1013E2EEA35
:101EE000030313F0803F04D1043903291046F0D8CE
:101EF00051B10346014401E08B4205D0184613F866
:101F0000012B6245F8D110BD002010BD88420DD9CB
:101F10008B1883420AD900EB020CBAB1624613F85F
:101F200001CD994202F801CDF9D170470F2A0ED8A0
:101F3000034602F1FF3C4AB10CF1010C013B8C4419
:101F400011F8012B614503F8012FF9D1704740EAE0
:101F500001039B074FD1A2F1100370B501F1200CD2
:101F600023F00F0501F1100E00F11004AC441B0921
:101F70005EF8105C0EF1100E44F8105C5EF81C5C0C
:101F8000103444F81C5C5EF8185C44F8185C5EF889
:101F9000145CE64544F8145CEAD1013312F00C0FEE
:101FA00001EB031102F00F0400EB031327D08E4660
:101FB000043C24F003064FEA940C1E441C1F5EF8F8
:101FC000045B44F8045FB442F9D10CF1010402F05F
:101FD000030203EB840301EB840102F1FF3C4AB1ED
:101FE0000CF1010C013B8C4411F8012B614503F805
:101FF000012FF9D170BD034602F1FF3C9CE7224658
:10200000EBE700BFF8B51446F9B1CAB106460D4674
:1020100000F068F8A04202D32F463846F8BD2146AA
:102020003046FEF7E1FB07460028F6D02246294657
:10203000FEF7ACFA30462946FEF770FB3846F8BD8D
:102040002746FEF76BFB3846F8BD1146BDE8F84061
:10205000FEF7CABB10B50C46B1F90E100BF0DDFD52
:10206000002803DB636D0344636510BDA38923F47B
:102070008053A38110BD00BF002070472DE9F041BF
:102080000C46B1F90C101F46CB05054616460BD47D
:1020900021F48051A1813B4632462846B4F90E1006
:1020A000BDE8F0410BF0C0BDB4F90E1002230022D0
:1020B0000BF0B8FDB4F90C10EAE700BF10B50C4600
:1020C000B1F90E100BF0AEFDA389421C0EBF23F434
:1020D000805343F480536065A38110BDB1F90E10A5
:1020E0000BF0A4BD51F8040C0028A0F10400BCBF03
:1020F0000B58C018704700BF0F4A0023114610B597
:10210000147C844211D11C225343CA18906858B1E0
:10211000CB58FF281FBF58434000013050604FF09C
:10212000010004BF0133536010BD0133092B02F1DC
:102130001C02E5D10020F7E7B00D0020F0B50A4EF3
:1021400000253446377C874207D11C2000FB054020
:102150004176027683760120F0BD0135092D06F126
:102160001C06EFD10020F7E7B00D0020094A30B57A
:1021700000231446157C854205D11C22012002FB58
:102180000343996030BD0133092B02F11C02F1D1E8
:102190000020F7E7B00D0020094A30B500231446AF
:1021A000157C854205D11C22012002FB03435960A6
:1021B00030BD0133092B02F11C02F1D10020F7E7F9
:1021C000B00D002070B50B4C00232546267C8642BE
:1021D00009D11C204343E818E95000238260C36002
:1021E0004374012070BD0133092B04F11C04EDD1AF
:1021F0000020F7E7B00D002070B500252E462B4CCF
:102200006368002B4FD0E06808BB637CB3FA83F3AC
:102210005B09637409F06AFDD4E900239342E0602E
:102220002BD266606674E66063690BB1207C9847C8
:10223000207CFF2824D100221146104607F0D0FC54
:1022400007353F2D04F11C04DAD1012070BD09F0DF
:1022500091FD23689842D8D26368002BE4D02046D1
:1022600002F068FC0028EBD0637C207CB3B1FF282F
:102270000CD1A27E217E607EE0E79B1A6360EBE7D3
:102280000528DDD800231A46194604E00528D7D8CA
:10229000A37E227E617E06F045FED1E7FF28CAD0EC
:1022A0000528CDD8EFE76374E360C9E7B00D0020DF
:1022B00007B543788DF8003083788DF80130C37806
:1022C0008DF8023043798DF80330037968468DF834
:1022D00004300DF0B3FA03B05DF804FB08B5074B0A
:1022E0005A78032A07D8586809F044FDC72894BFD4
:1022F0000020012008BD0020FCE700BFA40C002046
:102300007047002280214FF0804008B50BF02DFE71
:10231000FFF7F6FF00BF00BF00BF00BF00BF00BF58
:1023200000BF00BF00BF00BF00BF00BF00BF00BFB5
:1023300000BF00BF00BF00BF08BD08B501F018FB1B
:1023400008BD000008B5054C20780CF06FFD207822
:10235000FFF7F3FF05200AF05AFCF5E740360020AE
:1023600010B5084C236803F07142074B13432360F8
:1023700009F0BCFC054B18602068BDE8104004F073
:10238000DCBA00BF403600200001010E48100020DA
:1023900010B5064C0122204602210BF0E6FD022377
:1023A000A361BDE8104001F087BB00BF00040040FE
:1023B00001207047144B10B51C78BCB9134B1B7827
:1023C000042B13D104F0A6F904F0BAF904F06CF967
:1023D00004F0E6F905F0C0FB05F0DAFB204609F051
:1023E0001BFB2046BDE8104009F032BB0DF02AFA75
:1023F00048B10CF011FD0028FBD1BDE810404CF2B3
:1024000050300AF004BC10BD40360020F4380020E3
:1024100038B500230C46084D0B7030B109F066FC4E
:10242000002328602370002038BD286809F0A2FC32
:102430003228F3D8F7E700BF58100020084B9A78ED
:10244000012A07D0022A09D0064B1868B0FA80F09A
:102450004009704758780128F6D170470120FCE701
:10246000A40C0020C011002008B5054B9B78013B4F
:10247000012B02D9FFF7E2FF08BD0120FCE700BFF6
:10248000A40C002008B509F031FC014B986008BD90
:10249000A40C002010B5094C23782070637009F05B
:1024A00025FC6060FFF7EEFF00F056FEBDE810402F
:1024B0000022034B53201A700DF040B9A40C0020E9
:1024C00054100020F8B50C461546074660B30029A5
:1024D0003FD0884201D0FFF76DFF584E3378013B63
:1024E000012B04D80320FFF7D5FF0023B370544E0F
:1024F0003378A34200D11DB10022524B9A619A83D6
:10250000347024B1631E042B747098BFB4703068AB
:1025100004F013FA3378062B00F28980DFE803F029
:10252000852A46505A646E000029D6D00222464BB6
:10253000464E9A613378012BCDD030460BF0F4FC37
:1025400030460BF0BFF84248424B836009F034FA42
:10255000C1E74FF400323C4B3C489A610378042BAE
:10256000B9D03D4B3A4E19703C4BB36009F068FE50
:102570003046EBE7312075B10DF0E0F852200DF058
:10258000DDF801200DF0E6F84EF2B34143F22D40A4
:102590000DF036F951200DF0D1F8FFF773FF2A4600
:1025A0002146384601F086FE0120F8BD3220002D7C
:1025B000F1D00DF0C3F852200DF0C0F80220E1E791
:1025C0003320002DE7D00DF0B9F852200DF0B6F809
:1025D0000320D7E73420002DDDD00DF0AFF85220D6
:1025E0000DF0ACF80420CDE73520002DD3D00DF050
:1025F000A5F852200DF0A2F80520C3E73020002DE9
:10260000C9D00DF09BF8142115480DF0C9F816211A
:1026100014480DF0DDF84EF2B34143F22D400DF0B9
:10262000EFF852200DF08AF8B4E71120B3E711203B
:102630000DF084F8FFF794FEAFE700BFA40C002074
:1026400040360020640C002000040040F4380020D4
:1026500014100020B12200088826002005C30008BD
:10266000C8FB0008DCFB0008002313B50DF10701CF
:102670008DF80730FFF7CCFE044690B19DF8073087
:10268000013B032B0DD8DFE803F002060F120022F6
:102690001146094B02E00022074B99781878FFF7A2
:1026A00011FF204602B010BD00220621F1E7024BC7
:1026B00000225978F2E700BF4036002013B5124CD3
:1026C00020460CF03BFB0123A37704F033F90F4CB9
:1026D000206008B9FFF744FEE37843F00103E3709C
:1026E00009F004FB0A4BFF22186000234FF4A87185
:1026F00000930848084B0AF057FAFFF702FE012042
:10270000FFF7B2FF02B010BD640C0020403600207D
:1027100048100020601000204523000848B1074AF7
:102720001378013B012B07D893782BB90320FFF7CF
:10273000B1BE0122024B1A70704700BFA40C0020EA
:1027400054100020014B1878704700BFA40C0020E3
:10275000014B9870704700BFA40C0020014BD8704B
:10276000704700BFA40C00200122014B1A70704773
:1027700054100020F8B51C4C1C4EE378B268C3F32B
:1027800042031AB9FFF77EFE0020F8BD184A52F83E
:10279000235023782BB9174B1B78042B01D1FFF75B
:1027A00071FE154F3B7893B100233B704FF080438F
:1027B0001B69E278DB0963F300022378E27073B1EE
:1027C00001F048FF0028DFD101F006F9DDE7002D18
:1027D000DAD0B06809F0CEFAA842E5D2D4E7054BCA
:1027E0001B78042BECD1CDE740360020A40C002050
:1027F0008CFC0008F43800205410002010B50B4B5E
:102800005A78012A03D0022A08D0002005E09C78DB
:10281000012C03D101F042F9204610BD586809F09F
:10282000A9FAC728F1D9FFF709FEF6E7A40C0020A2
:1028300010B5074BD87810F0FD0404D10220FFF743
:1028400029FE204610BD0320FFF724FE0120F9E7F2
:10285000A40C002038B50A4D0024EB78033B012B73
:1028600008D80320FFF716FE2046AC7001F0C4F82C
:10287000012038BD0220FFF70DFE2046F9E700BF1A
:10288000A40C002038B50A4D0024EB78033B012B43
:1028900008D80320FFF7FEFD2046AC7001F0CCF80D
:1028A000012038BD0220FFF7F5FD2046F9E700BF03
:1028B000A40C002070B59D4C9D4D2068B0B109F06E
:1028C00059FAB0F5FA6F11D30026552026600CF0A6
:1028D00035FF57200CF032FF70200CF02FFF2978C5
:1028E0003246B1FA81F04009FFF7ECFD2B7823B1B5
:1028F000904B93F82020904B1A702368DBB98F4ED1
:10290000306809F037FA40F6B733984213D92B787C
:102910008BB10CF081FA70B9864CA37F5BB109F0E2
:10292000E5F9306053200CF009FF94F8213013B919
:1029300070200CF003FF4FF080431B69EA78DB093D
:102940007F4C63F300020020EA70FFF78DFE2378CE
:10295000032B1ED8DFE803F002284FA6E36833B14B
:10296000984720B10120FFF795FD0023A37023694C
:1029700033B1984720B10120FFF78CFD0223A370EB
:10298000636933B1984720B10120FFF783FD01232C
:10299000A3700CF0CDFD6B4B1B78002B00F0C580B5
:1029A000BDE8704002F0F7BEA369002BF1D0984754
:1029B0000028EED002F0DAF8634B187007F0CCFE76
:1029C0002A78624B1A7000225A4B9A772A68604B19
:1029D000134063B95F4C2378012B08D002225E4B71
:1029E00020469A610BF0A0FA20460AF06BFE022006
:1029F000FFF750FDCDE7E369002BCAD098470028C8
:102A0000C7D00022554B1A704FF080434FF400128C
:102A10009A612A684E4B1340B3F1807F10D0A3789F
:102A200053B3013B012B0BD86378022B08D0FFF77F
:102A3000C1FC11200CF082FE0CF0EEF90028FBD155
:102A400000F0B4FF0023E370404B2A781B789A42D1
:102A500008D12A683E4B1340B3F1807F02D0A078A2
:102A600000F06AFCA378012B19D0022B14D0002BA4
:102A70008FD1FFF7DDFE8CE72E4B5B7E002BDFD185
:102A800011200CF05BFE0CF0C7F90028FBD147F2D7
:102A900030500AF0BCF8D3E7FFF7DCFE79E7FFF728
:102AA000F1FE76E7236A002B3FF473AF98470028C6
:102AB0003FF46FAF01221F4B9A77234B1B782BB14A
:102AC0004FF0804320229A6107F034FE0120FFF787
:102AD000CBFD30B92A780AB3697802460846FFF779
:102AE000F1FC00241D4B1C701D4BD3F8902042F4C8
:102AF0000072C3F89020D3F8902022F40072C3F83B
:102B0000902000F047FFFFF7BDFC00F025FB2046BA
:102B1000FFF7C0FC53200CF011FE3AE70D4B1B7879
:102B2000012BDED111466878D9E770BD481000202E
:102B300040360020640C0020882600205010002021
:102B4000A40C00204D100020441000204C10002048
:102B5000FF000001F4380020000400405410002061
:102B6000000C01400120704708B5FFF7FBFF08BDCE
:102B700037B504460D46FFF785FC29462046FFF78A
:102B8000F3FF60B1074B1A784AB1074B20461B7818
:102B9000D9090091C3F30013A9780CF0EDFC03B040
:102BA00030BD00BF403600204C36002000B50B4B36
:102BB0008FB0322193F82130094A01A804F083FE36
:102BC00001A808F08BFB0CF023F908F087FB0548FF
:102BD00008F084FB0FB05DF804FB00BF640C00201C
:102BE000F2FB000803FC00082B4B13B51A780446CF
:102BF0004AB12A4B01211B78DB09009300230CF01A
:102C0000BBFC02B010BD0028FBD0031FDBB2A02B21
:102C100012D8234B0146186808F054FF20B1204613
:102C200003F03AFD03F0BCFD204603F02DFD02B099
:102C3000BDE8104003F0B4BD00F12003DBB2072B68
:102C400007D800F007040120A040C0B203F052FDF5
:102C5000EDE700F15B03DBB2022B06D8243880B22B
:102C600002B0BDE8104008F0D7BE00F15803DBB257
:102C70001A2B07D80B4A32F8130002B0BDE81040F7
:102C800008F0E6BE3334E4B2122CBAD8012102B007
:102C9000BDE8104002F07EBE403600204C360020D9
:102CA000B80E002054FC0008244B13B51A780446D3
:102CB0004AB1234B1B78DB090093002319460CF023
:102CC0005BFC02B010BD0028FBD0031FDBB2A02BC1
:102CD00006D803F0E1FC02B0BDE8104003F060BD8F
:102CE00000F12003DBB2072B07D800F00704012016
:102CF000A040C0B203F006FDEDE700F15B03DBB2DC
:102D0000022B05D8104602B0BDE8104008F084BE82
:102D100000F15803DBB21A2B05D8104602B0BDE80B
:102D2000104008F095BE3334E4B2122CC9D81146D5
:102D300002B0BDE8104002F02DBE00BF40360020BA
:102D40004C3600202DE9F3410446C0B1114E3378D2
:102D5000C3B10127DFF84080204602F093FD05460D
:102D600098F80030E030DB0900930121002332782D
:102D700080B207FA05F50CF0FFFBAC43ECD102B0D2
:102D8000BDE8F08103F0B6FC02B0BDE8F04103F00D
:102D900007BD00BF403600204C3600202DE9F3412E
:102DA0000446C0B1114E3378C3B10127DFF840802B
:102DB000204602F067FD98F800300546DB090093D5
:102DC0000023E0301946327880B207FA05F50CF09E
:102DD000D3FBAC43ECD102B0BDE8F08103F092FC30
:102DE00002B0BDE8F04103F0DBBC00BF403600207C
:102DF0004C3600202DE9F3410446C0B1114E337822
:102E0000C3B10127DFF84080204602F03BFD0546B4
:102E100098F80030E030DB0900930121002332787C
:102E200080B207FA05F50CF0A7FBAC43ECD102B079
:102E3000BDE8F08103F074FC02B0BDE8F04103F09E
:102E4000AFBC00BF403600204C3600202DE9F341D6
:102E50000446C0B1114E3378C3B10127DFF840807A
:102E6000204602F00FFD98F800300546DB0900937C
:102E70000023E0301946327880B207FA05F50CF0ED
:102E80007BFBAC43ECD102B0BDE8F08103F050FC19
:102E900002B0BDE8F04103F083BC00BF4036002023
:102EA0004C3600202DE9F04104460D4601F0E2FACF
:102EB00000284AD12378013B202B54D8DFE803F0C7
:102EC00011164E686E7A7D7D7D53BE82868C97A2E8
:102ED000A5A8B353535353535353535353535353BB
:102EE000C300002363700C23A37025E06378013BCB
:102EF000032B38D8DFE803F0020C0F2C08F0F6FEA5
:102F0000030EA370030CE370030A2371607113E0D6
:102F100007F0C5FEF4E72646A77804F11C08042F45
:102F20000AD8F8B204F072F8030AF370307102366E
:102F3000B04507F10107F2D14D4B29461B782046D9
:102F4000002B40F0918009F0F3F90120BDE8F081F9
:102F50000023A370E37023716371EDE76378022BA4
:102F600004D0052B10D0FF232370E5E7E378A07889
:102F700040EA0320237940EA0340637940EA036092
:102F800000BA07F093FED7E7A07807F0B9FED3E7C1
:102F9000E278A178607808F0B0F9B5E76279237932
:102FA000A17843EA02235BBAE27860789BB208F02A
:102FB000BAF9C1E708F0CCF9BEE72946204607F088
:102FC0001AFFB9E708F02AFA6070B5E708F028FAA6
:102FD000030A6370A070AFE76078A378E17840EAF5
:102FE000032040BA221D80B208F01DFAA4E76078E1
:102FF000A378E17840EA032040BA221D80B208F0AD
:103000002EFA99E708F040FA96E708F06AF9DBE74C
:103010006078A378E17840EA032040BA221D80B2AC
:1030200008F0BEF988E76078A378E17840EA0320E9
:1030300040BA221D80B208F0CFF97DE701230D4A86
:103040006370137078E762780B4B4AB1A1781A78F5
:1030500019B142F080021A706EE761F3C712FAE705
:103060001B78C3F3C0133FE70CF044FC6DE700BFCF
:10307000403600204D1000204C36002010B543781B
:10308000044613B1FF23237011E08378013B032B27
:10309000F8D8DFE803F0021A28410378072B07D09D
:1030A000082BEFD12B4BDB78C3F34203C37010BD69
:1030B000C1780729FBD8BDE81040264BDA7861F3C8
:1030C0004302DA70186803F038BC0378072B05D088
:1030D000082BD7D101F0CFFAE070E8E7C078BDE85F
:1030E000104001F097BB0378072B0AD0082BC9D1F9
:1030F00042790179C07801F0C0FAA071000AE0714C
:10310000D5E7C2798379017943EA0223BDE810400B
:103110004279C07801F0C7BA0378072B0DD0082B8D
:10312000B0D12379C078617940EA032040BAA21D6A
:1031300080B2BDE8104001F0CBBA2379C078617944
:1031400040EA032040BAA21D80B2BDE8104001F061
:10315000DABA00BF4036002008B508F0C7FD014BC1
:10316000186008BDB0110020164B10B51C788CB942
:10317000154B1B78052B08D0022B06D008F0B6FDA6
:10318000124B1860124B1C7010BD4FF080431B692E
:103190001B0603D4BDE81040FFF7DEBF0B4B1868D9
:1031A0000028F7D008F0E6FD41F657339842EBD9F6
:1031B000FFF7D2FFBDE810400122054B1A70FFF760
:1031C000D3BA00BF40360020F4380020B0110020F0
:1031D000B41100202DE9F0411B4C064625781DB1A5
:1031E00001242046BDE8F081FFF7ACFA0138012840
:1031F00005D80320FFF74EF92846FFF7A9FA94F8FF
:103200000080B8F1000FEBD1104D2B78052BE7D1E2
:10321000B5F84C309B0702D50D4F3C7824B9FF2EF2
:1032200094BF00240124DCE7FFF78CFA0328D7D8E9
:1032300087F80080FFF790FF28460AF0EFFA28464B
:1032400001F058F9CDE700BF40360020F4380020E7
:10325000B4110020704700001A4B70B59C6C0F260B
:1032600044F4C0649C649B6C012301F003048B4014
:1032700021F0030101F1804101F5A0518D68A40006
:10328000C0F38320A04006FA04F425EA040528438D
:103290008860D8430C4912F0010F8C6814BF1C439E
:1032A00004408C6012F0020FCA6814BF1A43024037
:1032B000CA60054A536111680B43136053680340A9
:1032C000536070BD000C0140001800400F281FD84B
:1032D000DFE800F0080C0F121518181818181B1B3F
:1032E0001B1B1B1B062108460AF0D1BC0621072028
:1032F000FAE706210820F7E706210920F4E706216E
:103300000A20F1E706211020EEE706212120EBE755
:1033100070470120704708B5FFF7FBFF50B14FF031
:10332000804001220721FFF797FFBDE808400720F2
:10333000FFF7CCBF08BD00002DE9F047302305465C
:1033400083F31188FFF7E7FF4FF000090127874E4D
:10335000DFF81C8256F8043B95B1012D4FD143454F
:103360004DD123F00F0A03F00F0307FA03F42146AF
:103370000522504624040AF0F8FDCAF8184001E07E
:10338000581CEED109F10109B9F10F0FE2D1052462
:103390000127784EDFF8E09156F8040B002D3AD063
:1033A000012D40F0D580484540F0D28000F00F015B
:1033B000202207FA01F120F00F000AF0D6FD00BF2D
:1033C00000BF00BF00BF00BF00BF00BF00BF00BF05
:1033D00000BF00BF00BF00BF00BF00BF00BF00BFF5
:1033E00000BF56F8040C032200F00F08414620F0FD
:1033F0000F00FFF731FF4046FFF768FF0DE0591C53
:10340000C0D003F00F01202207FA01F123F00F00D2
:103410000AF0ABFDB6E7421CC8D1013CBCD1224644
:103420004FF4006155480AF0A0FD00BF00BF00BF87
:1034300000BF00BF00BF00BF00BF00BF00BF00BF94
:1034400000BF00BF00BF00BF00BF00BF00BF03221E
:103450000B214A48FFF700FF0B20FFF737FF84F3EB
:10346000118872B64FF0E0220120136923F00103A6
:103470001361434B434A5A610022A30003F16043A6
:1034800003F56143D3F80011D5B2012D94BF00219B
:1034900001F0010109B1C3F880010132202AF1D104
:1034A0000134082CE8D1384C636843F00073636042
:1034B000364B1A6802F009021A601A6842F46C323C
:1034C00042F004021A6040F2B3321A62304B43F009
:1034D00001039847236943F00403236130BF2D4B58
:1034E00043F0010398474FF0E022236923F00403DF
:1034F00023611369284C43F001031361E36943F02E
:103500008003E361A36C43F40073A36408F03EFFFF
:1035100003F0B0FD40F282324FF4006117480AF028
:1035200024FDE36C43F00803E364E36CA36C43F411
:103530008053A364A36CE36C43F01003E364E36C77
:10354000FFF788FE002383F3118862B6BDE8F08799
:10355000431C3FF462AF00F00F01402207FA01F173
:1035600020F00F000AF001FD57E700BFACFC000897
:103570000308004044FD000804000040000800402B
:1035800000180040FFFF070000ED00E000000140D0
:103590001CFD0008E8FC0008000C014001207047F9
:1035A000012070470B2810B5044615D005D8042813
:1035B00014D007280ED0012002E01228FBD10420ED
:1035C000FFF7CCF82046FFF7E9FF10B12046FFF7E0
:1035D000E7FF10BD0320F3E70220F1E70520EFE746
:1035E00001238B40034202D00846FFF7DBBF704740
:1035F00008B50D4B5A69D20706D51A68002022F08B
:1036000001021A60FFF7CEFF4022084BC3F880206A
:10361000BFF34F8FBFF36F8F0122034B5A61BDE899
:10362000084009F0E9BB00BF0018004000E100E0DD
:1036300008B50D4B586910F0020006D01A68012138
:1036400022F002021A60FFF7CBFF8022074BC3F87B
:103650008020BFF34F8FBFF36F8F0222024B5A615E
:10366000BDE8084009F0C8BB0018004000E100E0D8
:1036700008B50E4B586910F0040006D01A680221F4
:1036800022F004021A60FFF7ABFF4FF48072084B80
:10369000C3F88020BFF34F8FBFF36F8F0422034B1B
:1036A0005A61BDE8084009F0A7BB00BF0018004000
:1036B00000E100E008B50E4B586910F0080006D094
:1036C0001A68032122F008021A60FFF789FF4FF4FD
:1036D0000072084BC3F88020BFF34F8FBFF36F8F8A
:1036E0000822034B5A61BDE8084009F085BB00BFC2
:1036F0000018004000E100E008B50E4B586910F0DA
:10370000100006D01A68042122F010021A60FFF798
:1037100067FF4FF48062084BC3F88020BFF34F8FE0
:10372000BFF36F8F1022034B5A61BDE8084009F0C8
:1037300063BB00BF0018004000E100E038B5254B36
:103740005C69A20604F4787507D51A68052122F091
:10375000200228461A60FFF743FF600608D51D4A7D
:1037600006211368284623F040031360FFF738FF53
:10377000210608D5174A07211368284623F080033D
:103780001360FFF72DFFE20508D5124A08211368E0
:10379000284623F480731360FFF722FFA30508D5A2
:1037A0000C4A09211368284623F400731360FFF7BD
:1037B00017FF4FF48032084BC3F88020BFF34F8FC0
:1037C000BFF36F8F4FF47872024B5A61BDE83840F7
:1037D00009F012BB0018004000E100E038B52A4BA8
:1037E0005C69620504F47C4507D51A680A2122F455
:1037F000806228461A60FFF7F3FE230508D5224AA7
:103800000B211368284623F400631360FFF7E8FEDA
:10381000E00408D51C4A0C211368284623F4805381
:103820001360FFF7DDFEA10408D5174A0D211368C8
:10383000284623F400531360FFF7D2FE620408D534
:10384000114A0E211368284623F480431360FFF7C2
:10385000C7FE230408D50C4A0F211368284623F419
:1038600000431360FFF7BCFE0222084BC3F884201C
:10387000BFF34F8FBFF36F8F4FF47C42024B5A61FF
:10388000BDE8384009F0B8BA0018004000E100E097
:1038900008B50E4B586910F4802006D01A68122122
:1038A00022F480221A60FFF79BFE0822084BC3F81F
:1038B0008420BFF34F8FBFF36F8F4FF48022034BF1
:1038C0005A61BDE8084009F097BA00BF00180040EF
:1038D00000E100E010B5074C23784BB901F057F92F
:1038E00002F007F808F06EF802F004F801232370E4
:1038F000012010BDB711002010B5044C23781BB176
:1039000001F03EF900232370012010BDB711002003
:1039100038B5154C00252378032B22D8DFE803F0B7
:10392000020B131B0A2311488370C57008F06AF854
:103930000123237038BDF6230C48C370857008F04E
:1039400061F80223F5E7F62308488370C57008F094
:1039500059F80323EDE70A2304488570C37008F083
:1039600051F82570E6E700BFB5110020CC1100200A
:10397000054B1B7833B1054B1B780BB9FFF7C8BF5C
:103980000BF0A6BE704700BFBA11002040360020E1
:103990000120704708B5044B1B780BB9FFF79AFF5D
:1039A00001F018F908BD00BFB711002008B5064B9B
:1039B0001B780BB1FFF7A0FF0023044A1370044AE1
:1039C0001360FFF7E5FF08BDB7110020C411002008
:1039D000C81100200120704708B5FFF7FBFF08BDA4
:1039E000014B1878704700BFB8110020014B1870C8
:1039F000704700BFB8110020014B1870704700BF1E
:103A0000B8110020014B1878704700BFB911002091
:103A1000084B10B50446187058B9FEF793FE0228FB
:103A200007D80320FEF736FD2046BDE81040FEF71C
:103A30008FBE10BDB9110020FFF7EABF024B187806
:103A400080F00100FFF7E4BFB9110020084B1A789D
:103A5000084B1B784BB982F00102A0F5A443203B30
:103A60001F2B8CBF1046012070470022F5E700BFD6
:103A7000B9110020B811002000231946054A93729D
:103A80001360054A0333212B917242F80C1BF9D1C4
:103A9000704700BFAC0E0020C80C002008B503F032
:103AA00059FBFFF7E9FF0022014B1A6008BD00BF78
:103AB000C01100200120704708B5FFF70BFFFEF78B
:103AC000FDFD01F06BF848B1012220214FF080404C
:103AD0000AF04BFA4FF0804320229A6108BD0000A3
:103AE00000230D4A10B513700C4A4FF08044137038
:103AF0000B4A136006F048FE01280AD006F03CFE8F
:103B00004FF40013A36101F0CFFCBDE8104002F0B8
:103B1000AABF2023F6E700BFB6110020BB1100208A
:103B2000BC11002008B502F06FFF05F0C9F902F0E2
:103B3000FAFE084B188060F07F001870188802F0B9
:103B4000F5FE01F07BF818B1BDE80840FFF7C8BFEB
:103B500008BD00BF4C36002037B504460D4601F0C5
:103B6000F7FC002800F0D280002D00F0CF8047F64F
:103B700015639C423ED8B4F5FC4F07D247F6034389
:103B80009C4200F0C080284603B030BDA4F5FC4440
:103B9000152CF8D801A353F824F000BF0B3C000803
:103BA000373C00085B3C00087F3C0008A53C00084F
:103BB000CB3C0008873B0008873B0008873B000898
:103BC000873B0008873B0008873B0008873B0008CD
:103BD000873B0008873B0008873B0008873B0008BD
:103BE000873B0008873B0008F13C0008F93C0008CF
:103BF000013D000847F643639C42C4D10122444B77
:103C00001A700022434B1A60BDE7002301200DF11A
:103C100007018DF80730FEF7FBFB9DF80730042BFA
:103C200002D013F0FD0FAED1012211463A4B1878A5
:103C3000FEF748FCA7E7002301200DF107018DF8EE
:103C40000730FEF7E5FB9DF80730042B02D013F098
:103C5000FD0F98D101220221E8E7002301200DF198
:103C600007018DF80730FEF7D3FB9DF80730042BD2
:103C700002D013F0FD0F86D101220321D6E70023E5
:103C800001200DF107018DF80730FEF7C1FB9DF80B
:103C90000730042B03D013F0FD0F7FF474AF012223
:103CA0000421C3E7002301200DF107018DF807303F
:103CB000FEF7AEFB9DF80730042B03D013F0FD0F89
:103CC0007FF461AF01220521B0E7002301200DF14F
:103CD00007018DF80730FEF79BFB9DF80730DA1ED1
:103CE000012A02D9002B7FF44EAF012206219DE765
:103CF0000020FFF78DFE46E70122084B1A7042E7CD
:103D0000FFF79CFE3FE7FFF70DFF3CE705463AE76C
:103D1000BB110020BC11002040360020B91100204A
:103D200070B51A4CFEF7C6FD206858B1A37A4BB99E
:103D300008F020F86368984204D301212089A17219
:103D4000FFF70AFF00250126114C206858B1A37A1D
:103D50004BB908F00FF86368984204D30121208919
:103D6000A672FFF7F9FE0335212D04F10C04ECD106
:103D7000084B1A783AB100221A700BF04DF800285F
:103D8000FBD1FFF7CFFE00F027FF70BDAC0E002087
:103D9000C80C0020D211002008B5064B1B780BB9C7
:103DA000FFF798FD4FF0804320229A61BDE808405C
:103DB00007F066BFB71100202DE9F7430D46B04A62
:103DC00089780446136891B1032B00D80133AD4EB6
:103DD0001360FEF757FB33899C4204D1AF7857B18B
:103DE00007F084FF3060A84B00261F462CE0002B14
:103DF000EDD0013BEBE7B37A0BB93360F3E739461B
:103E00002046FFF7A9FEB77237600028EBD10020EB
:103E100003B0BDE8F08309FB06F607EB060999F845
:103E20000A300BB9BB511EE041462046FFF794FE15
:103E300089F80A8047F806800028E8D013E00136A8
:103E40000B2E03F10C030ED01A899442F7D195F88A
:103E500002804FF00C09B8F1000FDCD007F046FFEC
:103E600009FB06F6B85129462046FFF7EFFD00286A
:103E7000CDD02946204600F0D3FF0028C7D047F612
:103E800007639C422DD8B4F5FC4F1BD247F62003A4
:103E90009C4200F0198147F603439C42B7D0294663
:103EA000204600F0D7FC0028B1D029462046FFF775
:103EB00091F90028ABD02946204603B0BDE8F04375
:103EC000FEF756BEA4F5FC44013CAB78062C32D874
:103ED000DFE814F04F006A008500A000BB00E2009C
:103EE0002E00A4F5FC43403B9AB2032AD7D8032BFB
:103EF000D5D801A252F823F0093F0008173F000867
:103F0000233F00080F3E0008AB78002B3FF47FAF43
:103F1000FEF74CFE7BE7AA785C4B02B101221A70D7
:103F200075E7AB78002B3FF472AFFEF71DFC6EE730
:103F3000574A13706BE7002B3FF469AF554C237859
:103F4000012B3FF464AF002301200DF107018DF830
:103F50000730FEF75DFA9DF80730042B03D013F00D
:103F6000FD0F7FF454AF002201212078FEF7AAFA5A
:103F70004DE7002B3FF44BAF464C2378022B3FF428
:103F800046AF002301200DF107018DF80730FEF741
:103F90003FFA9DF80730042B03D013F0FD0F7FF498
:103FA00036AF00220221E0E7002B3FF430AF394C5E
:103FB0002378032B3FF42BAF002301200DF10701E1
:103FC0008DF80730FEF724FA9DF80730042B03D054
:103FD00013F0FD0F7FF41BAF00220321C5E7002B78
:103FE0003FF415AF2B4C2378042B3FF410AF002384
:103FF00001200DF107018DF80730FEF709FA9DF851
:104000000730042B03D013F0FD0F7FF400AF002224
:104010000421AAE7002B3FF4FAAE1E4C2378052BAF
:104020003FF4F5AE002301200DF107018DF80730B4
:10403000FEF7EEF99DF80730042B03D013F0FD0FC7
:104040007FF4E5AE002205218FE7002B3FF4DFAEC1
:10405000104C2378062B3FF4DAAE002301200DF13B
:1040600007018DF80730FEF7D3F99DF80730DA1E07
:10407000012A02D9002B7FF4CAAE0022062174E780
:10408000C0110020AC0E0020C80C0020BA11002086
:10409000B611002040360020002B3FF4B8AE124C81
:1040A0002378002B3FF4B3AE002501200DF107016A
:1040B0008DF80750FEF7ACF99DF80730012B3FF65D
:1040C000A6AE2A46294650E7AB78002B3FF4E7AE70
:1040D00006F05AFB4FF0804318B14FF400129A617A
:1040E000DDE62022FBE700BF40360020014B1878B8
:1040F000704700BFC411002001207047F8B5054685
:104100000C464B4E4B4F21462846FFF7F5FF50B16A
:10411000062C08D8DFE804F004084B79798686007D
:104120000022434B1A60F8BD326842BBAB1E032B22
:104130000AD8DFE803F01F1A15020022FF231146F8
:104140000520FDF7FBFF01224FF4FA712846FEF728
:1041500039F82846FDF7D0FF07F0C8FD3060E2E7E8
:104160000022FF2311460420EBE70022FF23114623
:104170000320E6E70023FF2219460220E1E710466C
:1041800007F0F8FD47F22F53984203D905242A4B34
:104190001C70B8E77B7E0BB10324F8E7274B1B7834
:1041A000002B3BD02846BDE8F840FDF7A5BF30689E
:1041B000F0B9AB1E032BB6D8DFE803F015100B02E5
:1041C0000022FF2311460520FDF7B8FF0122C82178
:1041D000BCE70022FF2311460420F5E70022FF235D
:1041E00011460320F0E70023FF2219460220EBE7E7
:1041F00007F0C0FD47F22F53984201D90624C6E7C5
:104200007B7E002BCAD00424C1E7FF2240F6B831E0
:104210002846FDF7D7FF2846FDF76EFF0022064B24
:104220001A7080E70022044B1A70FEF79DFAB9E776
:10423000C8110020640C0020C4110020403600206A
:10424000014B1978FFF75ABFC411002001207047B5
:1042500070B506460D4605200021FDF79DFF10B9FB
:104260000024204670BD00210420FDF795FF0028A2
:10427000F6D000210320FDF78FFF0028F0D00021A9
:104280000220FDF789FF0028EAD029463046FFF7D3
:10429000DDFF04460028E3D00022044B29461D70B0
:1042A000034B30461A60FFF729FFDAE7C4110020FC
:1042B000C811002070B50C461546FEF779F8064681
:1042C00080B17CB1134B5B7E13BB013C052C09D83C
:1042D000DFE804F0030C120808182DB102210520B4
:1042E000FFF7B6FF304670BD0121F8E715B1022196
:1042F0000420F5E70121FBE715B102210320EFE7D8
:104300000121FBE715B102210220E9E70121FBE7CA
:104310001E46E7E7640C002008B5094B1B786BB913
:10432000FEF710FA50B9074B1A783AB1064A527E96
:1043300022B95978BDE80840FEF7C4B808BD00BFEF
:10434000C411002040360020640C0020704700009B
:104350002DE9FF47424F05460E46FFF7F7FFFFF7EF
:10436000DBFF3C78002C32D03E4D2B6813B907F0B0
:10437000BDFC2860286807F0FDFC41F287339842B5
:1043800005D93B7801333B7007F0B0FC28603B78DF
:10439000013B032B17D8DFE803F0020C10140022B6
:1043A000E620114605F01CFC0024204604B0BDE8C0
:1043B000F0870022E6211046F4E70021E6220846B5
:1043C000F0E7E622F6E700243C702C60EDE7264B90
:1043D0001B788BB931462846FFF76CFB0028E3D0E9
:1043E0003146284600F03EFC04460028DCD0314629
:1043F0002846FDF701FFD8E722462146204601AFB7
:1044000005F0EEFBB946DFF864A0DFF86480062211
:1044100051464846FCF7BAF80A2198F81F200023B5
:10442000B2FBF1F1E0B28142ADF80A30ADF80C30E8
:1044300012D9272A387809D9FF221946013404F005
:1044400071FD0A2C07F10107E1D1C3E7132A8CBFE4
:10445000FF221A46FF21F1E71A4619463878EDE7A0
:10446000BB110020BC110020B611002050FA00083A
:10447000640C002070B505460E46FEF703F8FEF703
:1044800061F910B10320FEF705F82B780A2B0ED145
:104490000124084B31461C70074B28461B781BB97A
:1044A00007F046FF204670BD0BF024FAFAE7002023
:1044B000F9E700BFD211002040360020012810B5D6
:1044C000044611D002280AD1FEF73CF90138012830
:1044D00005D80320FDF7DEFF0020FEF739F920465E
:1044E000BDE8104007F0A6BB014B1870F7E700BF0E
:1044F00010100020014808F08ABB00BFA086010010
:104500000E4BF0B51B6893B11E2202FB00300C4A23
:104510000123164630F8115032F8027BDCB2AF426C
:1045200006D104F0070336F8133020F81130F0BD3F
:104530000133092BF0D10023F7E700BFD41100208D
:10454000C4FF00082DE9F74304460D4606F098F92C
:1045500000274FF01E092D4EDFF8B4807080E0B2C6
:10456000854250D900232B4A0FE01CF801EBBEF125
:10457000FF0F01D070451BD001310F29F5D1013358
:10458000DBB2052B02F10F023BD094460021ECE791
:10459000012A07D1012B05D173888DF800708DF8A1
:1045A000017016E08DF801308DF80010738810E06E
:1045B000D8F800202AB309FB032333F81120110A8D
:1045C000D3B2120AE4D1002BECD18DF800308DF873
:1045D00001308DF80230009803F08AFFC0F3072302
:1045E0008DF80400C0F307408DF805308DF8060003
:1045F0009DF8063020469DF804209DF8051004F033
:1046000091FC0134ABE703B0BDE8F0834C0D002012
:10461000D4110020500D002070B40D461143014309
:1046200004D170BC96220A48FCF726B800241E2646
:104630000F2306FB04F10648013B13F0FF0305704E
:1046400042700844F8D10134052CF1D170BC704798
:10465000D8110020024B1878431E58425841704729
:104660004C0D002096235843C1EB01111144223018
:1046700000EB4100704704207047032838B510D87C
:1046800004290ED80E2A0CD8FFF7ECFF054603F0DC
:1046900065FB0446681C03F061FB44EA002080B21D
:1046A00038BD0020FCE7032870B51C460FD804294C
:1046B0000DD80E2A0BD8FFF7D5FF0546E1B203F05F
:1046C000B5FB210A681CBDE8704003F0AFBB70BDAC
:1046D0002DE9F843002405460F461646A14600F191
:1046E0002208BC4208EB040001D1BDE8F8832B1975
:1046F000B3F5167F04DA03F031FB30550134F0E7EF
:1047000006F80490FAE72DE9F04105460E461746F3
:10471000002400F12208B44208EB040001D1BDE8F6
:10472000F0812B19B3F5167F02DA395D03F07EFBB9
:104730000134F0E7032806D89622504300F1220105
:10474000014803F059BB7047D8110020032838B541
:104750000CD8084900230C78012C07D14D78A842C9
:1047600006D10B70FFF7E6FF204638BD0020FCE7BE
:104770001846FAE74C0D0020032806D8962250432D
:1047800000F12201014803F07FBB7047D8110020DF
:10479000074B084A10B51A600023074C237060705D
:1047A00006F06EF860806078BDE81040FFF7E4BF67
:1047B000D4110020D81100204C0D0020032808B58A
:1047C0000CD8074A5070FFF7D7FF06F007F82D28DE
:1047D00002D02D2005F0FFFF012000E0002008BDE1
:1047E0004C0D0020032810B510D8094A117869B97A
:1047F000012450701470FFF7BFFF05F0EFFF2D2864
:1048000002D02D2005F0E7FF204600E0002010BD7B
:104810004C0D0020032810B5044609D8FFF7ACFF63
:104820002046FFF793FF2046BDE81040FFF7C6BFC4
:1048300010BD000008B5054802F08EF8BDE808403C
:104840004FF416722221024803F0D6BA58FD000830
:104850004005010808B50A460949034608780128B9
:104860000CD1A3F5A443203B1F2B06D9907820B18F
:1048700050781178FFF744FE002008BD0120FCE7C6
:104880004C0D002070B504460078FF2801D105F0DA
:10489000A5FF0D4900220D4611F8016BD3B28642E7
:1048A00003D00132102AF7D113462278FF2A12BF13
:1048B000FF22013303F00F03E85C18BF2270BDE84C
:1048C000704005F088BF00BFE2FF000838B50B78E4
:1048D0000546FF2B0C4602D105F080FF20702846CC
:1048E00038BD38B540F27E2440F28E2520460021A6
:1048F000013403F05EFAAC42F8D138BD10B505F0D2
:104900006DFF00230246054911F8014BD8B29442CD
:1049100003D00133102BF7D1184610BDE2FF000879
:1049200010B50446FFF7EAFF2146BDE8104000F24B
:104930007E2003F03EBA08B5FFF7E0FF00F27E20CC
:1049400003F00CFA082828BF002008BD70B505F058
:1049500045FF0723124A12F8011B81421DD0013B7B
:1049600013F0FF03F7D10724FFF7E5FF0130B0FB99
:10497000F4F304FB13040B4B13F8145003EB440340
:104980005E7805F07DFF31460246284605F069FF56
:10499000E0B2BDE87040FFF7C3BF0624E4E700BF04
:1049A000F2FF0008D4FF000838B5FFF76BFFFFF7F0
:1049B000C2FF074B13F8104003EB40035D7805F08E
:1049C0005FFF294602462046BDE8384005F049BF52
:1049D000D4FF000838B52A4B0446DB78294A13F087
:1049E00001031ED0284B1B78A3B100232749204682
:1049F0000B60012111701A461946FDF79FFBFF223B
:104A00004FF496712046FDF7DDFB2046BDE83840A7
:104A1000FDF772BB1D490B60012111701A46FF2181
:104A2000EBE71B4DE97F0F29DFD8127802B31A4656
:104A3000FF21FDF783FB0122FA212046FDF7C2FB8F
:104A4000EB7F002BE1D1114D2B6813B907F04EF924
:104A5000286028680028D8D007F08CF947F2305336
:104A60009842D2D9002301202B60FEF7BFFFCCE78C
:104A700011461346FDF762FBFF224FF4FA71DCE7A3
:104A800040360020AD0D00206E1200207012002074
:104A9000640C002013B51F4B04461A78042A0ED864
:104AA000DFE802F00333131D330000231A461946D2
:104AB000FDF744FBFF2232212046FDF783FB204611
:104AC00002B0BDE81040FDF717BB01221A70FF23AA
:104AD0001A461946FDF732FB0322C821ECE70023F2
:104AE000ADF8043005F0CCFE8DF80600019803F017
:104AF000FFFCC2B2C0F30721C0F307432046FDF715
:104B00001DFB01224FF4FA71D6E700221A70FFF75D
:104B1000C1FFD4E77612002008B5054B00211870BC
:104B2000FB20FDF739FBBDE80840FB20FFF7B2BFD3
:104B30007612002008B5037CFA2B07D0FB2B07D197
:104B4000084B1B78012B01D1FFF784FD002008E002
:104B5000054B1B78002BF9D1FFF77CFD80F001009D
:104B6000C0B208BD761200207D120020034B1878D9
:104B700010F0030018BF0120704700BF643600200A
:104B80004FF080434FF0007201209A6170474FF060
:104B900080434FF4007201209A61704710B54FF0C6
:104BA000804420224FF400414FF0804009F0DDF9AD
:104BB0002369074AC3F3C033204613704FF40071D2
:104BC000012209F0D2F94FF400730120A36110BD56
:104BD0006E120020012070474FF080431B6970B5B2
:104BE000124DC3F3C0332B70FDF7ACFD104C78B9F8
:104BF000104E306807F0BEF8B0F57A7F08D907F09C
:104C000075F8306053200AF099FD20780AF096FD7F
:104C1000094BDB78DB0707D52B781BB16623012016
:104C2000237070BD6423FAE76523F8E76E12002055
:104C300075120020781200204036002008B5FDF7DC
:104C40008FFB00236E211A46FF20FDF777FA03221F
:104C5000FA21FF20FDF7B6FAFF20FDF74DFA0120FB
:104C600008BD0000664B13B51B78C3B104238DF853
:104C7000043050238DF80530E6238DF80630019876
:104C800003F036FC5F4BC0F30742C0F307241870F3
:104C90009A70C1B2D2B2E0B25C7004F0A1FF5A4B7C
:104CA0001C78002C00F088800024002320461A463F
:104CB0001946013404F036F9062CF6D1534BDB7F4C
:104CC000A3F15102132A20D80023FF221946052000
:104CD00004F028F90023FF221946042004F022F9E9
:104CE0000023FF221946032004F01CF90023FF22B1
:104CF0001946022004F016F90023FF22194601206C
:104D000004F010F9012002B010BDA3F13D02132AF6
:104D10001AD80023FF221946052004F003F90023C6
:104D2000FF221946042004F0FDF80023FF22194653
:104D3000032004F0F7F80023FF221946022004F0B4
:104D4000F1F800231A46D9E7A3F12902132A14D84F
:104D50000023FF221946052004F0E4F80023FF2277
:104D60001946042004F0DEF80023FF221946032030
:104D700004F0D8F800231A46DFE7A3F11502132A3E
:104D80000ED8FF2200231146052004F0CBF8FF22A5
:104D900000231146042004F0C5F800231A46E5E775
:104DA000142BAFD80023FF211A46052004F0BAF8CF
:104DB00000231A461946EDE72346224621460520E0
:104DC00004F0B0F8234622462146042004F0AAF855
:104DD000234622462146032004F0A4F82346224617
:104DE0002146022004F09EF8234622462146012057
:104DF00004F098F8234622462146204680E700BF6B
:104E00007D1200204436002074120020640C002023
:104E1000024B40F27A20196803F024B8483600208B
:104E200070B5C14D04462B780E463BB18B782BB143
:104E30000022114610462A7004F0D2FE47F617638E
:104E40009C4200F2A580B4F5FC4F17D247F62A0326
:104E50009C4200F2908047F620039C4246D845F2DF
:104E600006239C4274D8B4F5A44F5BD2E32C00F027
:104E70008681E72C00F0A0810124A2E0A4F5FC4487
:104E8000172CF9D801A353F824F000BF17500008DD
:104E90005B5000089B500008794E0008794E0008CE
:104EA0003D510008DB500008B34F000817520008BE
:104EB00025520008794E0008794E0008794E000806
:104EC000794E0008794E0008794E0008794E0008A6
:104ED000794E0008794E0008794E0008794E000896
:104EE000794E0008794E0008F3510008A4F5F0440B
:104EF000213C092CC0D801A353F824F05D530008CD
:104F0000794E000809520008794E0008794E0008D1
:104F1000794E00086F52000883520008355200088D
:104F20004F520008A4F5A444062CA5D801A353F8B9
:104F300024F000BFA7520008794E0008E55200088F
:104F4000794E000809530008794E00082D530008D7
:104F500047F213039C428FD1B478002C8CD00023ED
:104F60006E211A46FF20FDF7E9F80121FF20FDF729
:104F7000FDF8FF206EE0B4F5F84F7FF47DAFB47814
:104F8000002C3FF479AF01F0FBFF06F00BFF18E0B7
:104F9000A4F5FC444A3CA3B2042B3FF66DAF042CAD
:104FA0003FF66AAFDFE814F0F001120224023E027D
:104FB0000F00B4785D4B1CB101221A70002400E090
:104FC0001C70204670BDB378002BF7D0584C208859
:104FD00000F067FC022811D0208800F062FC811FDD
:104FE00048424841534D2870208800F05AFC38B997
:104FF0002B78002B40F0AB810420A9E10120F1E7E0
:10500000208800F04EFC0228F2D02B78002B00F014
:10501000608102209CE1FFF71DFB04460028CDD1F2
:10502000B378002B3FF428AF434B1B78012B7FF460
:1050300023AFFFF75BF800287FF41EAF6E23052037
:105040001A461946FDF77AF8022296210520FDF747
:10505000B9F80520FDF750F8B3E7FFF7FBFA04466F
:105060000028ABD1B378002B3FF406AF324B1D784C
:10507000022D7FF401AFFFF739F800287FF4FCAE72
:105080006E2304201A461946FDF758F82A46962141
:105090000420FDF797F80420DCE7FFF7DBFA04466D
:1050A00000288BD1B378002B3FF4E6AE224B1D785D
:1050B000032D7FF4E1AEFFF719F800287FF4DCAE92
:1050C0006E2328461A461946FDF738F80222962123
:1050D0002846FDF777F82846BCE7FFF7BBFA0546F8
:1050E00000287FF46BAFB478002C3FF4C5AE0146C6
:1050F0000520FDF751F829460420FDF74DF8294613
:105100000320FDF749F829460220FDF745F82B4614
:105110002A46FF210120FDF711F80322FA21012080
:10512000FDF750F8012095E77D1200207412002051
:10513000861200207C12002040360020FFF78AFAF9
:10514000044600287FF43AAFB378002B3FF494AEC6
:10515000B04B1B78062B7FF48FAEFEF7C7FF0028FD
:105160007FF48AAE6E2302201A461946FCF7E6FF4A
:10517000022296211046FDF725F802206AE7A64C88
:10518000208800F08EFB02280FD1A44B1B78DA0692
:105190007FF572AEFFF75EFA00287FF46DAEE32074
:1051A000B4781CB300F070FA0BE7208800F079FBAC
:1051B00006287FF461AEE8E7974C208800F071FB89
:1051C00002280CD1954B1B78DB067FF555AEFFF717
:1051D00041FA00287FF450AEE720B478E1E7208858
:1051E00000F05FFB06287FF447AEEBE700F062FAC1
:1051F00042E6B478002C7FF4E1AEA82000F044FA37
:10520000A82000F057FADCE6B378002B3FF434AE68
:10521000FFF79CFBD2E6B378002B3FF4CFAE01231F
:105220002B70CBE6B378002B3FF4C8AE62200AF0B7
:1052300085FAC3E6B378002B3FF41EAE05F0A6FB5B
:10524000FF287FF419AE0220FFF766FC14E6B3785E
:10525000002B3FF411AE05F099FB33283FF60CAE5E
:105260000220FFF759FC332005F088FBA6E6B3784F
:10527000002B3FF401AE05F003FBB7287FF6FCAD31
:10528000E1E7B478002C3FF4F7AD05F0F9FA2E28E9
:105290003FF6F2AD0220FFF73FFC00221146104618
:1052A00004F09EFC8DE6B378002B3FF487AE5A4C99
:1052B000208800F0F6FA02280DD1208800F0F1FADB
:1052C00000283FF4A6AE208800F0EBFA02287FF415
:1052D00075AE00203CE0208800F0E3FA06287FF459
:1052E0006DAEEAE7B378002B3FF468AE4A4C2088F5
:1052F00000F0D7FA02283FF461AE208800F0D1FA1E
:1053000006283FF45BAED8E7B378002B3FF456AEE7
:10531000414C208800F0C5FA02283FF46DAE208889
:1053200000F0BFFA06287FF449AE65E6B378002B9B
:105330003FF444AE384C208800F0B3FA02283FF422
:105340003DAE208800F0ADFA06283FF437AE0620C7
:1053500000F00AFA002000F00AFE2FE6B37883B1CD
:105360002F4C0020FFF7D8FB607800F00F00FFF70C
:1053700003FA607800F00F00FFF7E8F9A01CFFF7D0
:1053800013FBFFF745FD19E6B378002B3FF416AE8B
:10539000234C607800F00F00FFF7EEF9607800F022
:1053A0000F00FFF7D3F90020A11CFFF78FFA6378F5
:1053B00060F303036370FFF72BFD607800F00F00CC
:1053C000FFF7FCF90020FFF7A7FBF7E5B378002B08
:1053D0003FF4F4AD124C607800F00F00FFF7CCF909
:1053E000607800F00F00FFF7B1F90120A11CDCE7A5
:1053F000B378002B3FF4E2AD094C607800F00F0069
:10540000FFF7BAF9607800F00F00FFF79FF902206C
:10541000A11CCAE740360020861200204C3600202E
:1054200048360020B378002B3FF4C8AD05F0D6F91C
:105430002D287FF4C3ADFFF70DF90446094B5878CA
:1054400000F00F0054B9FFF7CDF92046224621465F
:10545000FFF7E2F80320FFF75FFBB2E5FFF776F90D
:10546000B0E700BF4836002008B50020FFF754FB26
:105470000B4A138823F4706323F0010343F0010304
:105480001380FF239370FFF72CFA0022054B11467F
:105490001878FDF717F8BDE80840FFF7B9BC00BF62
:1054A000483600204036002010B54FF080442022BE
:1054B0004FF400414FF0804008F057FD2369164A31
:1054C000C3F3C033204613704FF40071012208F07B
:1054D0004CFD4FF4007340F27A20A36102F05CFCB3
:1054E0000E4C206008B9FFF7BFFF607800F00F0096
:1054F000FFF74EF9FF22C821FA20FCF763FEFA20DD
:10550000FCF7FAFDFF22C821FB20FCF75BFEFB2025
:10551000FCF7F2FD012010BD6E120020483600207D
:10552000F8B504460D4616461F460021FCF734FE2A
:105530003B46324629462046FCF700FE2046032221
:10554000FA21FCF73FFE2046BDE8F840FCF7D4BD49
:1055500038B547F6186398423BD1002939D0214C21
:10556000214D208800F09DF980B9208800F099F93C
:1055700002280CBF012300232B701ED0FF23002024
:105580001A461946FFF7CCFF02201DE0208800F0E4
:1055900088F90228E9D0208800F083F902280CBF9E
:1055A000012300232B704FF0FF0314D1002210467B
:1055B0001146FFF7B5FF042006E00022FF23104646
:1055C0001146FFF7ADFF002000F0CEF8002000F0FC
:1055D000CEFC012038BD00201A461946FFF7A0FF77
:1055E0000620F1E7861200207C1200200920704777
:1055F00008280DD804290BD80E2A09D84B23C1EB53
:10560000011103FB0011034B0A4433F812007047E9
:1056100001207047FAFF0008A0F58073B3F5F85F2A
:1056200010B526D210F4805F00F4807300F400748B
:1056300000F4806100F400620DD0002B0CBF00204C
:1056400010200CB140F0200009B140F040000AB138
:1056500040F0800010BD181E18BF01200CB140F0B2
:10566000020009B140F00400002AF3D040F0080025
:10567000F0E70020EEE710B50C46FFF7CDFF23461C
:10568000BDE8104018470000A0F1E003072B10B55B
:10569000044600D940B920460449FFF7ECFFE0B2C8
:1056A000BDE81040FDF7A0BA0149F6E7452D000816
:1056B000F52D000810B50446C0B2FDF7F5FAA4F1C7
:1056C000E003072B00D92CB903492046BDE8104060
:1056D000FFF7D1BF0149F8E79D2D00084D2E0008C6
:1056E00001207047704708B5FFF7FCFF08BD0000B8
:1056F00013B502AB03E903000F4B1B78B3B99DF858
:10570000023073B16AB100F0D5FC0446014600983E
:1057100000F09CFC2046009902B0BDE8104001F06A
:105720002DBB009800F0AEFC0446F3E7009800F0B3
:10573000C1FC0099F0E700BF85120020034610B4B9
:1057400000885C880A4640EA0440998810BCFFF74C
:10575000CFBF0120704710B504460021FFF7EEFFD0
:105760002146FFF7C0FF10BD10B501248440E0B210
:1057700001F0D5F8A0B2BDE8104000F0CCBB7047F6
:1057800008B500F06BFBFFF7FAFFBDE8084046F2F2
:10579000A81007F03CBA08B5FFF7F2FFBDE80840D3
:1057A00006F000BB08B5FFF7EBFFBDE8084006F0C8
:1057B0001FBB38B501210546FFF7C0FF2946044647
:1057C00005F0A0FA08B9002038BD29462046FEF7AA
:1057D000F3FA0028F7D02946204605F03FFF0028BD
:1057E000F1D02946204605F00FFC0028EBD02946D1
:1057F000204605F0B1FE0028E5D02946204605F0F8
:105800000DF90028DFD02946204605F075FF002855
:10581000D9D0AB787BB147F65A439C4222D00ED800
:1058200047F601439C421AD047F603439C4214D0EA
:10583000B4F5F84F0ED02846FFF752FFC4E747F6FD
:105840005B439C4211D047F65C439C42F3D101F08C
:1058500035F8F0E7FFF79FFFB5E701F042F8FFF7F3
:10586000A1FFB0E701F036F8E5E701F036F8E2E72E
:1058700008B500F047F8002004F046FFBDE80840F6
:10588000FEF78ABA034600091CBF034604209A08A3
:105890001EBF13460230C0B25B081CBF0130C0B24D
:1058A0007047020A002A03460BBF03461346002036
:1058B00008201A0918BF1346C3F38F0218BF04301B
:1058C00012B113460230C0B2C3F34F030BB1013023
:1058D000C0B27047704701207047704738B5054621
:1058E000FFF7F9FF044610B12846FFF7F6FF204600
:1058F00038BD704710B50446FFF7ECFF2046FFF7B0
:10590000EDFF10BD08B506F05DF8FFF7F3FF08BD29
:1059100010B506F057F8074B04461A78824207D0B4
:10592000187006F0E3F9044B18602046FFF7E2FF19
:1059300010BD00BF841200208012002010B586B078
:105940006C4684E803009DF802300BB100F0F8FECD
:105950000023ADF8163094E80300ADF81410BDF83C
:105960001430049004AC94E8030002904BB14FF65D
:10597000FF73BDF808209A4203D02046FFF7E9FEE6
:1059800018B194E8030000F015FE06B010BD0088C1
:1059900000F0B2BB08B529B102F00AF8BDE8084032
:1059A00002F0DAB802F062F8F8E738B505460C46BE
:1059B000FDF71AF91CB92846FDF776F938BD6420C1
:1059C000013C07F024F9A4B2F4E708B539280CBF6C
:1059D00050210A21FFF7E9FF08BD00002DE9F0473B
:1059E000877981460C46857800F074FE3F090646AB
:1059F000F0B12E46E5B1C4F3072303F0F002402ACC
:105A000009D004F12002D2B2072A24D91FB903F029
:105A1000E003202B21D0A94B5E7816F0040607D0B6
:105A2000022000F017FF00F055FE80F00106F6B2EC
:105A3000C4F3033ABAF10B0F3ED8DFE81AF01000B6
:105A400010005E005E00CB00E3003D003D00E8007A
:105A50004A015A015A010026EAE73E46E8E7C4F344
:105A60000723C4F3032713F0F00F18BF3F01E4B27C
:105A700085B157B104F12003DBB2072B384600D9BA
:105A80002CB900F037FE00F08BFE20465EE000F0FF
:105A900047FEF8E72046FDF707F96FB104F1200350
:105AA000DBB2072B384600D914B900F02BFE01E019
:105AB00000F03EFE00F074FEAAF1080ABAF1030FEE
:105AC00003D805F07FFFFFF715FF002E00F06B8174
:105AD00000F0F8FD10F0010040F0658189F8020047
