:020000040800F2
:1000000000040020B9010008BB010008BB01000882
:10001000BB010008BB010008BB010008BB010008D0
:10002000BB010008BB010008BB01000849D1000862
:10003000BB010008BB010008BB01000899E30008F0
:10004000BB010008BB010008BB010008BB010008A0
:10005000BB010008BB0100088D340008CD34000846
:100060000D3500085135000895350008BB01000822
:10007000BB010008BB01000869EA0008BB010008D9
:10008000D9350008BB010008BB010008BB0100080E
:10009000BB010008BB010008BB010008BB01000850
:1000A000BB010008BB01000855E6000869E600082E
:1000B000BB010008BB010008BB010008BB01000830
:1000C000B9E3000879360008BB0100082D370008A5
:1000D000BB010008BB010008BB010008BB01000810
:1000E00072B6264880F30888254880F30988254899
:1000F00025490860022080F31488BFF36F8F0CF04D
:100100004FFD0CF029FB4FF0553020491B4A91421E
:100110003CBF41F8040BFAE71D49194A91423CBF24
:1001200041F8040BFAE71B491B4A1C4B9A423EBF9D
:1001300051F8040B42F8040BF8E700201849194A5B
:1001400091423CBF41F8040BFAE70CF02DFD0CF096
:1001500028FD154C154DAC4203DA54F8041B8847B2
:10016000F9E707F033F9124C124DAC4203DA54F8B8
:10017000041B8847F9E70CF015BD000000040020BF
:10018000000C00200000000808ED00E00000002046
:100190000004002080120108000C00200410002040
:1001A0000810002044390020E0000008E0000008AA
:1001B000E0000008E000000892E700F000F8FEE729
:1001C0002DE9F04FC1F80CD0C3689D46BDE8F08F13
:1001D000002383F311882846A04700200CF0E8FE96
:1001E000FEE70CF01BFE00DFFEE7000053B94AB942
:1001F000002908BF00281CBF4FF0FF314FF0FF302F
:1002000000F074B9ADF1080C6DE904CE00F006F809
:10021000DDF804E0DDE9022304B070472DE9F04782
:100220008C460446089E002B40F086808A42154684
:1002300048D9B2FA82F24AB1C2F1200701FA02F3B8
:1002400020FA07F7954047EA030C94404FEA154E11
:10025000BCFBFEF71FFA85F80EFB17C307FB08F976
:10026000210C41EA0343994509D9EB1807F1FF3105
:1002700080F0E180994540F2DE80023F2B44A3EB01
:100280000903B3FBFEF00EFB103300FB08F1A4B230
:1002900044EA0344A14209D92C1900F1FF3380F04C
:1002A000C880A14240F2C58002382C4440EA074091
:1002B0000027641A1EB10023D440C6E90043394622
:1002C000BDE8F087002A54D0B2FA82F2002A40F04A
:1002D000B4800127491B4FEA15481FFA85F9B1FB85
:1002E000F8FE08FB1E1109FB0EF04FEA144C4CEA15
:1002F0000143984207D9EB180EF1FF3102D2984220
:1003000000F2EB808E461B1AB3FBF8F008FB1033AB
:1003100009FB00F9A4B244EA0344A14507D92C190A
:1003200000F1FF3302D2A14500F2DB801846A4EBB6
:10033000090440EA0E40BDE78B4208D9002E75D073
:100340000027C6E9000138463946BDE8F087B3FA10
:1003500083F77FB98B4202D3824200F2BC80841AB9
:1003600061EB030301209C46002EA8D0C6E9004C97
:10037000A5E7FFDEC7F12005BB4022FA05FC4CEAE9
:10038000030C21FA05F44FEA1C4EB4FBFEF91FFAE8
:100390008CF80EFB194420FA05F3B94009FB08FA62
:1003A00019430B0C43EA0444A24502FA07F200FA8F
:1003B00007F30BD91CEB040409F1FF3080F08980AE
:1003C000A24540F28680A9F102096444A4EB0A0424
:1003D000B4FBFEF00EFB104400FB08FA89B241EAC0
:1003E0000444A24508D91CEB040400F1FF316CD28F
:1003F000A2456AD90238644440EA0940A0FB028958
:10040000A4EB0A044C454146CE4655D352D0002EAB
:100410006AD05A1A64EB0E0404FA05F522FA07F3BF
:10042000FC401D43C6E90054002748E737463046E4
:1004300045E718463AE70F4621E79540C2F1200309
:1004400021FA03F04FEA1548B0FBF8F71FFA85F9D7
:1004500008FB170E24FA03FC914007FB09FA4CEA4B
:100460000101080C40EA0E40824504FA02F407D963
:10047000281807F1FF332AD2824528D9023F2844A1
:10048000A0EB0A00B0FBF8FC08FB1C000CFB09F316
:1004900089B241EA00418B4208D969180CF1FF305A
:1004A00011D28B420FD9ACF1020C2944C91A4CEA83
:1004B000074714E74345AAD2B8EB020169EB0C02E7
:1004C00001389646A3E78446F0E7084694E71F46BE
:1004D000D6E781467AE7384646E7AEF1020E2B446E
:1004E00011E702382C4422E73746E8E6704700BFA0
:1004F00008B5062000F0C2FA01200DF095FD00BFFE
:10050000024B0146186800F055B900BF000C0020EE
:10051000024B0146186800F0F9B800BF000C00203B
:10052000032A70B412D940EA0105AD0704460B4610
:1005300020D11946204653F8045B54F8046BAE42B0
:1005400018D1043A032A20461946F2D8541E72B133
:1005500003780A789A4208BF241806D00CE010F8F5
:10056000013F11F8012F934206D1A042F7D100209C
:1005700070BC7047541EEBE7981A70BC704700BF00
:10058000844641EA000313F0030349D1403A23D3E0
:100590000B6803604B6843608B688360CB68C36003
:1005A0000B6903614B6943618B698361CB69C361EB
:1005B0000B6A03624B6A43628B6A8362CB6AC362D3
:1005C0000B6B03634B6B43638B6B8363CB6BC363BB
:1005D00040304031403ADBD230320BD30B680360FD
:1005E0004B6843608B688360CB68C3601030103108
:1005F000103AF3D20C3205D351F8043B40F8043BD7
:10060000043AF9D2043208D0D2071CBF11F8013BDA
:1006100000F8013B01D30B8803806046704700BFA0
:10062000082A13D38B07B1D010F00303AED0C3F167
:100630000403D21ADB071CBF11F8013B00F8013B91
:10064000A4D331F8023B20F8023B9FE7043AD9D308
:10065000013A11F8013B00F8013BF9D20B78037025
:100660004B7843708B78837060467047F0B4860790
:1006700046D0541E002A3CD0CAB2034602E014F110
:10068000FF3436D303F8012B9D07F8D1032C29D969
:10069000CDB245EA05250F2C45EA054533D9A4F12D
:1006A0001006360903F1200707EB061703F11002C5
:1006B00042E9045542E902551032BA42F8D1721C9F
:1006C00014F00C0F03EB021204F00F0613D0331FCB
:1006D00023F003030433134442F8045B9342FBD139
:1006E00006F003042CB1C9B21C4403F8011B9C4260
:1006F000FBD1F0BC704734461346002CF3D1F8E729
:1007000014460346C2E71A462646E0E700293AD0D7
:1007100038B551F8043C0C1F002BB8BFE41805464F
:1007200000F05AFA224B1A682AB1A2420DD9216868
:100730006018824221D0626028461C60BDE83840C3
:1007400000F04CBAA34203D81A465368002BF9D1E3
:1007500011685018A04217D022D82168601883422F
:1007600003BFD3E900030918C4E9001363605460B0
:100770002846BDE8384000F031BAD2E90002014411
:10078000C4E90012D8E7704720680144501883423A
:100790001160EDD1D3E900030144C2E90013E7E79A
:1007A0000C2328462B60BDE8384000F017BA00BF84
:1007B00008100020F8B5CD1C25F0030508350C2DD8
:1007C00038BF0C25002D064633DBA94231D82A4F0D
:1007D00000F002FA3A6852B113685B1B04D43FE0A0
:1007E00023685B1B29D522465468002CF8D1796810
:1007F00000293BD0294630460DF0FAFB431C28D097
:10080000C41C24F00304A04205D0211A30460DF088
:10081000EFFB01301DD02560304600F0DFF904F118
:100820000B0020F00700231DC21A01D01B1AA35091
:10083000F8BD0C2200203260F8BD0B2B05D8A24277
:10084000636811D05360E7E7144623601C442560B9
:10085000E2E70C233046336000F0C0F90020F8BD19
:100860000B2BF1D8144653683B60D5E730460DF0AA
:10087000BFFB7860BEE700BF0810002038B5124B00
:1008800005461C68A06B18B10023C0E9045338BDAD
:100890001820FFF735FEA06378B101220023C0E9DC
:1008A00004230A4B0B24836000230949094A8481ED
:1008B000C0E90012C0E9045338BD0246064B42218C
:1008C000064800F041F900BF000C0020ECDE0500F6
:1008D0000E33CDAB34126DE6B0110108C81101081A
:1008E00038B51A4B1C68A26B92B114691849536948
:1008F00001FB04F1174800FB0313A4FB0045611C36
:100900001D4445F1000323F00040C2E9041338BD43
:100910001820FFF7F5FD0246A06388B101240025E9
:100920000B21C0E904450C4B0948136003460B4DED
:100930000B4C91810B49C2E90154C2E9041338BD43
:10094000094B4E21094800F0FFF800BF000C0020C1
:100950002DF451582D7F954C0E33CDAB34126DE6EE
:10096000ECDE05002E7F954CB0110108C81101087E
:1009700010B580210446FFF71DFF606440B10022DE
:10098000031F7C3043F8042F8342FBD1002010BDAD
:100990004FF0FF3010BD00BF436C0BB1002070471B
:1009A000E6E700BF1F2970B5054608D8436C164618
:1009B0000C464BB153F8240043F8246070BD162256
:1009C0004FF0FF302A6070BDFFF7D2FF08B96B6CA3
:1009D000F0E74FF0FF3070BD1F2938B5054620D82D
:1009E000426C0C466AB152F8213053B1012B16D03B
:1009F000591C10D00025204642F82450984728461C
:100A000038BD284600F070F8224601462846BDE869
:100A1000384000F055B8162301202B6038BD002067
:100A200038BD16234FF0FF302B6038BD1F2921D869
:100A300038B5436C05460C4683B153F8242003EBCC
:100A400084034AB1511C10D0012A0CD00025204645
:100A50001D609047284638BD012038BDFFF788FF4C
:100A600028B96B6CE9E7032038BD022038BD4FF090
:100A7000FF3038BD4FF0FF30704700BF024B0146DA
:100A80001868FFF7A9BF00BF000C0020024B0A4600
:100A900001461868FFF786BF000C0020034B18685A
:100AA000436C0BB10020704762E700BF000C0020D0
:100AB000024B01461868FFF7B9BF00BF000C0020C9
:100AC00070B50D460023074C0646114628462360A4
:100AD0000DF0B2FA431C00D070BD2368002BFBD090
:100AE000336070BD403900200DF0AEBA20F0030134
:100AF00010F00300C0F1000051F8043B00F1040CB9
:100B00004FEACC0C6FF000021CBF22FA0CF2134328
:100B10004FF0010C4CEA0C2C4CEA0C4CA3EB0C02F1
:100B200022EA030212EACC1204BF51F8043B04305B
:100B3000F4D0C2F1000102EA0102B2FA82F2C2F17B
:100B40001F0200EBD200704700B50A4C0546206832
:100B500085B01C46C06852B1074BCDE90132009107
:100B60002B462246054900F023F8FFF7C1FC044B51
:100B70001A46F2E7000C0020FC1101080C120108D3
:100B80000812010808B513460022FFF7DDFF00BF79
:100B90000CB410B582B004AC54F8042B2346019475
:100BA00000F060F802B0BDE8104002B0704700BF2E
:100BB0000EB430B582B005AC54F8042B054D014697
:100BC00023462868019400F04DF802B0BDE830409B
:100BD00003B07047000C0020704700BF704700BF93
:100BE0009368013B002B93600FDA10B49469A34221
:100BF00008DB0A2906D01368581C106019700846D3
:100C000010BC704710BC00F07BBB1368581C106010
:100C100019700846704700BF9BB1F8B513440F46E2
:100C200006465D1E541E01E0AC4208D03A4614F858
:100C3000011F3046FFF7D4FF431CF5D1F8BD00205B
:100C4000F8BD0020704700BF936810B5144613B973
:100C50005360184610BD00F013FE0023C4E90133B1
:100C600010BD00BF2DE9F04F9FB08B4690461C464B
:100C7000039018B18369002B00F0B980A34B9B450A
:100C800000F0BB80A24B9B4500F0C980A14B9B4567
:100C900004BF039BD3F80CB0BBF80C30180740F12D
:100CA000B480DBF81030002B00F0AF80302300213F
:100CB00020228DF8323098F8003005940B918DF891
:100CC0003120954E0127002B00F08980252B00F064
:100CD0001781454603E0252B00F0A58025466B785B
:100CE0006C1C002BF7D1B4EB080A78D0424653466F
:100CF00059460398FFF790FF013070D00B9B6A783C
:100D000053440B93002A6AD000234FF0FF32013482
:100D10000693CDE908338DF85B301C93079206E00B
:100D20002C46069B801B07FA00F0184306902546C8
:100D3000052215F8011B304600F0E6FFAA46002800
:100D4000EED1069BD90644BF20228DF85B201A07FE
:100D500048BF2B22217848BF8DF85B202A2967D114
:100D6000059A1168043200290592C0F29E8009910B
:100D70006178A51C2E2974D0684C0322204600F00F
:100D8000C3FF002800F087804022069B001B02FA68
:100D900000F00343069305F101082B78062219465B
:100DA0005F488DF8303000F0AFFF002800F08380FE
:100DB0005C4B002B72D005AB00935A465A4B06A9E8
:100DC0000398AFF300808146B9F1FF3F07D00B9B3A
:100DD0004B440B9398F80030002B7FF477AFBBF8AF
:100DE0000C305B0618D40B981FB0BDE8F08F00F0F4
:100DF00027FD464B9B457FF445AF039BD3F804B0DA
:100E0000BBF80C3018073FF54CAF5946039800F07B
:100E1000D7FA00283FF44AAF4FF0FF30E4E7039BD6
:100E2000D3F808B038E7B4EB080A3FF46DAF5DE7DC
:100E3000A1F13002092A88BFA2469BD8099B01E094
:100E40002C460135297803EB830302EB4303A1F120
:100E50003002092AAA46F3D92E2904F10205099382
:100E60008AD19AF801102A292FD1059B0AF1020094
:100E70001A680433002A079205939AF802100AF1BF
:100E8000030538DB254C82460322204600F03CFF58
:100E900000287FF479AFA84655467EE7059B0733C7
:100EA00023F007030833059391E7494243F0020317
:100EB000099106935CE705AB00935A461A4B06A9C5
:100EC000039800F0D3F881467EE70023A1F13002B9
:100ED000092A079301D915E05546697803EB830386
:100EE00002EB4303A1F13002092A05F1010AF3D90B
:100EF0000235079340E74FF0FF33824607933BE705
:100F0000444601E7AA46013536E700BF1C00010848
:100F1000FCFF0008DCFF00083C1201084412010835
:100F20004812010800000000190C000810B4044C1D
:100F300013460A460146206810BCFFF793BE00BF67
:100F4000000C00202DE9F0470C460969A568914680
:100F50008D42B8BF0D46156094F8431006461F46F3
:100F6000DDF8208011B16A1CC9F8002023689906B9
:100F70005CD5D9F800200232C9F80020236813F0AC
:100F8000060F19461DD1E1688A1A002AD8BF1946F2
:100F900017DD002504F1190A05E0E368D9F80020FF
:100FA0009B1AAB420CDD0123524639463046C047FE
:100FB000013005F10105F0D14FF0FF30BDE8F087B9
:100FC000216894F84330003318BF01238A060AD5FC
:100FD0003021E21882F8431094F845105A1C22443C
:100FE00082F84310023304F1430239463046C047C9
:100FF0000130E1D02368A26803F00603042B2169C5
:101000001DD08A4226DD4FF00009521A9144002576
:101010001A3401E04D451DDA012322463946304697
:10102000C047013005F10105F4D1C5E713F0060F03
:1010300013D094F84330003318BF0123D3E7D9F815
:101040000000E3688A42A3EB000323EAE379DCDCD7
:10105000002BDCDC0020BDE8F087E168D9F8002037
:101060008A1A002AD8BF194693DCAAE72DE9F04373
:101070000C46097E85B06E2906461746984604F14F
:10108000430C0C986DD039D9732900F0F48044D901
:10109000752900F00281782940F00F8178232268B9
:1010A000DFF854E284F845300168150651F8043B36
:1010B000016040F1A180D10744BF42F020022260CC
:1010C000002B00F093801022002184F84310606808
:1010D0000028A060C0F2C680216821F004012160D0
:1010E000002B40F0A280002840F0BE806546082A10
:1010F00000F0AB80ACEB0503236141E0632900F015
:10110000E3801AD8002938D0582940F0D68084F8D6
:1011100045102268DFF8E4E1C6E76F2900F0BD80E2
:10112000702940F0CA8078232268DFF8CCE142F0D1
:101130002002226084F84530B6E7642902D069298C
:1011400040F0BB8022680368110603F1040557D5FF
:10115000196805600B46002959DB0A22DFF89CE17B
:10116000B5E7036822681D1D6169056015061B68E7
:1011700002D4500600F1BB8019600023654623614C
:10118000CDF800803B4603AA21463046FFF7DAFE41
:10119000013020D02A46236939463046C047013005
:1011A00019D0226803989207E36819D51A1A002A01
:1011B00016DD002504F1190904E0E36803981A1A02
:1011C000AA420DDD01234A4639463046C047013068
:1011D00005F10105F1D14FF0FF3005B0BDE8F08316
:1011E0009842B8BF184605B0BDE8F08321681022C8
:1011F00021F02001216067E7500648BF9BB25AE703
:101200005106A5D5B3F9003005601946A3E72D2096
:1012100061685B42002984F84300A16002DB22F090
:10122000040222600A22DFF8D4E0654600E00B46A3
:10123000B3FBF2F102FB11301EF80000934205F8F7
:10124000010DF4D2082A7FF455AF2368DB077FF540
:1012500051AF626823699A423FF74CAF3023013D9A
:101260002B7047E7002BE0D19EF8003004F14205D7
:1012700084F842303BE703686268191D01601D680D
:101280000021284600F040FD002832D0401B60605D
:101290002061002384F8433072E72268036812F06B
:1012A000800F03F104051AD01B6805606F290CBF7D
:1012B00008220A22DFF844E006E7012384F84210FE
:1012C000236104F14205E4E70122036804F14205C9
:1012D000191D1B68016084F842302261D9E712F0C1
:1012E000400F0DBF1B6805601B880560DEE7198095
:1012F00043E76068CCE700BF6412010850120108A0
:10130000F8B50D461446064608B1836943B3254B2C
:101310009C422AD0244B9C4229D0244B9C4208BF9B
:10132000F468A269A389A2601A0722D5236903B3CE
:1013300022686169D31AEDB299422F4629DD013343
:10134000A168501C0139A1602060157062699A4241
:1013500016D0A389DB0701D50A2D11D03846F8BD78
:1013600000F06EFA0F4B9C42D4D17468D9E7B46890
:10137000D7E72146304600F023F838B92369D7E78C
:101380002146304600F032F90028E7D04FF0FF3711
:10139000E4E72146304600F029F90028F6D1012380
:1013A0002268CDE71C000108FCFF0008DCFF0008F4
:1013B000024B0A4601461868FFF7A2BF000C002046
:1013C0003B4B70B51D6806460C460DB1AB69DBB1F1
:1013D000384B9C421ED0384B9C424AD0374B9C42E3
:1013E00008BFEC68B4F90C2093B2190718D520692E
:1013F00008B313F001022CD000226369A2605B42A3
:10140000A36160B3002070BD284600F019FA294B93
:101410009C42E0D16C68B4F90C2093B21907E6D471
:10142000DD063CD5580726D4206942F00803A38185
:101430009BB20028DDD103F42072B2F5007FD8D032
:101440003046214600F016FCA389206913F0010202
:10145000D2D1990758BF6269A2600028D2D1B4F9ED
:101460000C301A06CFD543F04003A3814FF0FF3074
:1014700070BDAC68B6E7616B51B104F144039942A9
:1014800004D03046FFF742F9B4F90C20002363631F
:101490000023206922F02402C4E90003C5E70923E0
:1014A00042F0400233604FF0FF30A28170BD00BFB8
:1014B000000C00201C000108FCFF0008DCFF0008F5
:1014C0002DE9F0418F890C463A07804641D44B689C
:1014D000002B59DDE66A002E53D0002317F480520A
:1014E000D8F80050216AC8F8003051D10123404695
:1014F000B047431C5FD0A789E66A216A7F0705D5FC
:101500006268636B801A0BB1236CC01A0246002319
:101510004046B047461C45D1D8F80030B4F90C20FD
:10152000002B55D01D2B01D0162B5AD10022236938
:10153000C4E90032616BC8F8005011B304F14403F0
:10154000994202D04046FFF7E1F800206063BDE811
:10155000F0810E69AEB10D680E60B90714BF0023AB
:101560006369AD1BA3600AE02B463246A76A216A75
:101570004046B8470028A5EB000506440ADD002DCB
:10158000F2DC0020BDE8F0810B6C002BA2DCF8E758
:10159000606DB3E7A3894FF0FF3043F04003A381B0
:1015A000BDE8F081002322696360A3892260DA0428
:1015B000C0D56065BEE7D8F80030002B9BD01D2B4E
:1015C0000CD0162B0AD0A38943F04003A381D9E79E
:1015D0002169C4E90013D304ACD5EAE7C8F8005088
:1015E000CFE742F04002A281CCE700BF0B6923B3F2
:1015F00010B5044682B008B18369BBB1104B994263
:1016000012D0104B994216D00F4B994208BFE16897
:10161000B1F90C302BB1204602B0BDE81040FFF705
:101620004FBF002002B010BD6168F1E7019100F0EA
:1016300007F90199E2E7A168EAE70020704700BFD7
:101640001C000108FCFF0008DCFF000820B1054B6E
:1016500001461868FFF7CABF034B0449186800F039
:10166000B3BA00BF000C0020D8FF0008ED15000839
:1016700000207047014900F0A7BA00BFED1500082F
:101680000020704770B568254A1E05FB02F50E461E
:1016900005F17401FFF78EF8044640B100210C30CB
:1016A000666005F168022160A060FEF7DFFF20465A
:1016B00070BD00BF1E4B70B51D680646AB6943B3D5
:1016C0004835D5E90134013B05D51EE0013B5A1CE4
:1016D00004F1680419D0B4F90C20002AF6D10025D1
:1016E000144B6566C4E90055A560C4E90455A561BD
:1016F0002946E360082204F15C00FEF7B7FFC4E965
:101700000D55C4E91255204670BD2C682CB12546F4
:10171000D7E7284600F010F8D2E704213046FFF75B
:10172000B1FF044628600028F1D10C233360EAE7BA
:10173000D8FF00080100FFFF2DE9F84F0023334ACE
:10174000C0E9123312680365904208BF0123304993
:1017500008BF836181620546FFF7ACFF68602846D9
:10176000FFF7A8FFA86028460024FFF7A3FF042383
:101770006E68E8602146F3607466C6E90044B460B0
:10178000C6E90444B46106F15C000822FEF76EFF6E
:10179000DFF888B0AF68DFF888A0DFF88890DFF85E
:1017A00088801C4BC6E9086BC6E90AA9C6F83080D8
:1017B0002146FB6008227C66C7E90044BC60C7E99B
:1017C0000444BC6107F15C00FEF750FFEE68124B69
:1017D000C7E9087BC7E90AA9C7F830802146F3604A
:1017E0007466C6E90044B460C6E90444B46106F115
:1017F0005C000822FEF73AFF0123C6E9086BC6E940
:101800000AA9C6F83080AB61BDE8F88FD8FF0008A0
:10181000751600080900010012000200AD1E000844
:10182000D51E0008151F0008351F0008024B03498C
:10183000186800F0C9B900BFD8FF0008ED1500080E
:10184000836903B978E77047704700BF704700BFEE
:10185000704700BF704700BF024B0349186800F093
:101860008FB900BF000C002071160008024B03491D
:10187000186800F085B900BF000C00208116000830
:101880009368002B00F0FC802DE9F04FB1F90C308B
:101890000C469BB2190783B0824690462BD522692D
:1018A0004AB313F00202D8F8006033D000273D4657
:1018B000D4F828B0216ADFF8C492C5B14D452B4653
:1018C0003A4628BF4B465046D847002840F3CE80C2
:1018D000D8F8083007441B1A2D1AC8F80830002B16
:1018E00000F0B380D4F828B0216A002DE6D1D6E903
:1018F00000750836E1E721465046FFF761FD0028F4
:1019000040F03781B4F90C30D8F800609BB213F086
:101910000202CBD113F0010940F0B4804D46A76814
:101920002068002D55D09A0540F1C080AF42BB46DB
:1019300000F2EE8013F4906F2FD0D4E9041707EB78
:101940004707A0EB010B07EBD777681C7F105844C3
:10195000B8423A4684BF07463A465B0540F1F080FC
:1019600011465046FEF726FF002800F0FC805A463C
:1019700021690190FEF704FEA289019B22F4906286
:1019800042F08002A281A7EB0B0203EB0B00676120
:10199000AB462F4623612060A2605A46494600F0BC
:1019A000F9F92368A2685B44AB460025D71BA76002
:1019B0002360D8F80870D944A7EB0B07C8F8087063
:1019C000002F42D0B4F90C30A7689BB22068002DDC
:1019D000A9D1D6E900950836A3E70BF1080353F81F
:1019E000047C9B4653F8086C0833002FF7D03A4626
:1019F0000A21304600F088F9002854D00130A0EBCD
:101A000006094B4620682169BB4228BF3B468842F5
:101A1000626903D9A5681544AB421ADC9A4200F307
:101A200081801346A56A3246216A5046A847051EA2
:101A30001CDDB9EB05096ED00120D8F808302E4422
:101A40005B1B7F1BC8F8083013BB002003B0BDE848
:101A5000F08F31462A4600F09DF9236821462B4439
:101A600023605046FFF7C2FD0028E2D0B4F90C30E5
:101A70004FF0FF3043F04003A38103B0BDE8F08F87
:101A80000020704733469146104617464E469B4607
:101A9000002FA2D00028B4D13A460A21304600F0E7
:101AA00033F90028AAD17B1C9946ABE7236983420E
:101AB00017D36269AA4214D82F4BA76A9D4294BFDC
:101AC0002B466FF0004393FBF2F3216A02FB03F312
:101AD00050464A46B847B0F1000BC7DDA5EB0B05F1
:101AE00067E7AF4228BF2F4649463A4600F052F911
:101AF000A3682268DB1B3A44BB46A3602260002B2C
:101B0000ECD121465046FFF771FD0028E6D0ADE745
:101B10002F46AB4641E721465046FFF767FD0028B8
:101B20008BD0A3E71A4631461D46019300F032F9E7
:101B3000A1682268019BC91A1344A160236078E759
:101B4000504600F08DF9034600287FF41CAF216950
:101B50005046FEF7DBFD0C22B4F90C30CAF8002029
:101B600023F0800384E70C22B4F90C30CAF800207B
:101B70007EE74FF0FF3069E7FEFFFF7F00FCFF7F4D
:101B80002DE9F04110F148071AD088460026D7E920
:101B90000154013D0ED4A389013D012B06D9B4F9AE
:101BA0000E30013302D02046C04706436B1C04F1BF
:101BB0006804F0D13F68002FE9D13046BDE8F081DC
:101BC0003E463046BDE8F0812DE9F84310F1480665
:101BD0001ED0884607464FF00009D6E90154013D62
:101BE00010D4A389013D012B08D9B4F90E3001337B
:101BF00004D021463846C04749EA00096B1C04F16D
:101C00006804EED13668002EE7D14846BDE8F88377
:101C1000B1464846BDE8F88370B50C46B1F90E10E0
:101C200096B0002916461D4613DB6A460CF0EDF906
:101C300000280EDB019A4FF4806302F47042A2F593
:101C40000052B2FA82F2002052092A60336016B0C4
:101C500070BD0022A3892A601B0604D54023002002
:101C6000336016B070BD4FF480630020336016B04F
:101C700070BD00BF8A890B46920706D5012103F18A
:101C8000470259611A601A61704770B582B001ABA2
:101C90006A460C460646FFF7BFFF009905463046E8
:101CA000FEF788FDB4F90C3070B1164A0099B262A3
:101CB000019A43F08003A3812060C4E904018AB93A
:101CC0002B43A38102B070BD9A05FBD4012123F000
:101CD000030304F1470243F00203A3816161226020
:101CE0002261EFE73046B4F90E100CF09AF910B902
:101CF000B4F90C30E4E7A38923F0030343F00103B4
:101D00001BB2DDE775160008830770B4CDB23DD075
:101D1000541E0AB30378AB421FD0431C05E014F1F4
:101D2000FF3419D30278AA4217D013F0030F1846D4
:101D300003F10103F3D1032C11D84CB30378AB4268
:101D40000BD00444431C02E00278AA4205D09C4216
:101D5000184603F10103F7D1002070BC704702461A
:101D60000E02B6B22E4346EA06461368104673408A
:101D7000A3F1013121EA030313F0803F02F10402D1
:101D8000DCD1043C032C1046EFD8D6E71446D2E74A
:101D90002046E2E78842F0B40DD98B1883420AD975
:101DA000841832B1224613F8014D994202F8014DD0
:101DB000F9D1F0BC70470F2A0ED80346541E002AF2
:101DC000F7D001340C44013B11F8012BA14203F878
:101DD000012FF9D1F0BC704740EA01039B073AD1CB
:101DE000A2F110073F0901F1200606EB071601F1E9
:101DF000100300F1100453F8105C103344F8105C29
:101E000053F81C5C103444F81C5C53F8185C44F81C
:101E1000185C53F8145CB34244F8145CEBD17B1C9F
:101E20001B0112F00C0F194402F00F05034415D0EA
:101E30000E46043DAD0803EB850C1C1F56F8047BD1
:101E400044F8047F6445F9D10135AD002B442944A1
:101E500002F00302B2E7541E0346B2E72A46ADE79A
:101E600009B3F8B51446CAB106460D4600F066F847
:101E7000A04202D32F463846F8BD21463046FEF731
:101E800099FC07460028F6D022462946FEF778FB43
:101E900030462946FEF73AFC3846F8BD2746FEF79D
:101EA00035FC3846F8BD1146FEF784BC10B50C462B
:101EB000B1F90E100CF091F8002803DB636D0344B8
:101EC000636510BDA38923F48053A38110BD00BFB7
:101ED000002070472DE9F041B1F90C409846E30528
:101EE0000D461746B1F90E10064609D424F4805465
:101EF000AC8143463A463046BDE8F0410CF074B838
:101F0000022300220CF06EF8B5F90C40B5F90E1062
:101F1000ECE700BF10B50C46B1F90E100CF062F8FA
:101F2000A389421C0EBF23F4805343F480536065A1
:101F3000A38110BDB1F90E100CF058B851F8043C53
:101F4000181F002BBCBF0B58C01870470E4A002347
:101F5000114610B5147C84420FD11C225343CA1879
:101F6000906848B1CB58FF2818BF43434FF0010099
:101F700018BF5B000133536010BD0133062B02F123
:101F80001C02E7D10020F7E7BC0D0020F0B50A4D98
:101F900000242E462F7C874207D11C2000FB0464BE
:101FA000012021766276A376F0BD0134062C05F17E
:101FB0001C05EFD10020F7E7BC0D0020094A30B521
:101FC00000231446157C854205D11C22012002FB0A
:101FD0000343996030BD0133062B02F11C02F1D19D
:101FE0000020F7E7BC0D0020094A30B50023144655
:101FF000157C854205D11C22012002FB0343596058
:1020000030BD0133062B02F11C02F1D10020F7E7AD
:10201000BC0D002070B50B4C00232546267C864263
:1020200009D11C204343E818E95000238260C360B3
:102030004374012070BD0133062B04F11C04EDD163
:102040000020F7E7BC0D002070B500252E462B4C74
:102050006368002B4FD0E06808BB637CB3FA83F35E
:102060005B0963740AF018F8D4E900239342E06036
:102070002BD266606674E66063690BB1207C98477A
:10208000207CFF2824D100221146104607F030FEA4
:102090000135062D04F11C04DAD1012070BD0AF0CF
:1020A00041F823689842D8D26368002BE4D02046D8
:1020B00002F0E2FC0028EBD0637C207CB3B1FF2867
:1020C0000CD1A27E617E207EE0E79B1A6360EBE785
:1020D0000728DDD800231A46194604E00728D7D878
:1020E000A37E627E217E06F099FFD1E7FF28CAD049
:1020F0000728CDD8EFE76374E360C9E7BC0D002083
:1021000007B543788DF8003083788DF80130C378B7
:102110008DF8023043798DF80330037968468DF8E5
:1021200004300DF0C1FD03B05DF804FB08B5074BAA
:102130005A78032A07D8586809F0F4FFC72894BFD3
:102140000020012008BD0020FCE700BFA40C0020F7
:10215000704708B5002280214FF080400CF0E5F870
:10216000FFF7F6FF00BF00BF00BF00BF00BF00BF0A
:1021700000BF00BF00BF00BF00BF00BF00BF00BF67
:1021800000BF00BF00BF00BF08BD08B501F00EFBD7
:1021900008BD000008B5054C20780DF081F82078C6
:1021A000FFF7F3FF05200AF008FFF5E738360020B7
:1021B00010B5084C236803F07142074B13432360AA
:1021C00009F06AFF054B18602068BDE8104004F074
:1021D00042BC00BF383600200001010E1410002060
:1021E00010B5064C0122204602210CF09EF8022375
:1021F000A361BDE8104001F07DBB00BF00040040BA
:1022000001207047144B10B51C78BCB9134B1B78D8
:10221000042B13D104F00CFB04F020FB04F0D2FAE1
:1022200004F04CFB05F00AFD05F024FD204609F002
:10223000CDFD2046BDE8104009F0E4BD0DF038FDAD
:1022400048B10DF023F80028FBD1BDE810404CF256
:1022500050300AF0B2BE10BD38360020EC380020F5
:1022600038B500230D460B70074C30B109F014FF50
:10227000002320602B70002038BD206809F052FF39
:102280003228F3D8F7E700BF24100020084B9A78D3
:10229000012A07D0022A09D0064B1868B0FA80F04C
:1022A0004009704758780128F6D170470120FCE7B3
:1022B000A40C00208811002008B5054B9B78013B39
:1022C000012B02D9FFF7E2FF08BD0120FCE700BFA8
:1022D000A40C002008B509F0DFFE014B986008BD92
:1022E000A40C00202DE9F0410C46154607460028B5
:1022F00037D0B1FA81F35B099BB1554E554A33781B
:10230000002C32D00221012B91610AD030460BF013
:10231000EBFF30460BF0B0FB4F48504B836009F0A9
:1023200021FDA74201D0FFF76DFF4D4E3378A34248
:1023300000D11DB100224B4B9A619A83347024B1B5
:10234000631E042B747098BFB470306804F083FB74
:102350003378062B76D8DFE803F0731936404A54F9
:102360005E000B1C18BF0123C6E74FF40031042B9D
:102370009161D6D03C4BDFF8E0801C703B4B30467F
:10238000C8F808300AF044F94046C8E7312075B172
:102390000DF006FC52200DF003FC01200DF00CFCAA
:1023A0004EF26C4143F22D400DF060FC51200DF0D7
:1023B000F7FBFFF78FFF2A462146384601F0B4FEAF
:1023C0000120BDE8F0813220002DF0D00DF0E8FBB7
:1023D00052200DF0E5FB0220E0E73320002DE6D08F
:1023E0000DF0DEFB52200DF0DBFB0320D6E734209E
:1023F000002DDCD00DF0D4FB52200DF0D1FB0420D9
:10240000CCE73520002DD2D00DF0CAFB52200DF0C4
:10241000C7FB0520C2E73020002DC8D00DF0C0FB5F
:1024200013480DF0EFFB13480DF006FC4EF26C4123
:1024300043F22D400DF01AFC52200DF0B1FBB5E730
:102440001120B4E711200DF0ABFBFFF7B1FEB0E7B0
:10245000EC38002000040040E40F002001210008B7
:1024600038360020640C002080260020D5C60008E5
:10247000C9000108CC000108002313B50DF10701C4
:102480008DF80730FFF7ECFE044690B19DF8073059
:10249000013B032B0DD8DFE803F002060F120022E8
:1024A0001146094B02E00022074B99781878FFF794
:1024B00019FF204602B010BD00220621F1E7024BB1
:1024C00000225978F2E700BF3836002013B5124CCD
:1024D00020460CF06DFE0123A37704F0B9FA0F4CEF
:1024E000206008B9FFF764FEE37843F00103E3706E
:1024F00009F0D2FD0A4BFF22186000234FF4A871A7
:1025000000930848084B0AF025FDFFF722FE012042
:10251000FFF7B2FF02B010BD640C00203836002077
:1025200014100020281000209521000838B5124C06
:10253000054623782070637009F0AEFD032D6060BE
:1025400019D10120FFF798FF38B90C4B1A785AB10E
:10255000597802460846FFF7C5FEFFF7BBFEBDE807
:10256000384053200DF01CBB054909780129F4D1EE
:1025700011465878EFE738BDA40C0020383600200B
:10258000EC38002048B1074A1378013B012B07D8EB
:1025900093782BB90320FFF7C9BF0122024B1A70B1
:1025A000704700BFA40C002020100020014B1878B9
:1025B000704700BFA40C0020014B9870704700BF0B
:1025C000A40C0020014B9878704700BFA40C002099
:1025D000014BD870704700BFA40C00200122014BB2
:1025E0001A70704720100020F8B51C4C1C4DE27882
:1025F000A968C2F3420219B9FFF76CFE0020F8BDCA
:10260000184B53F8227023782BB9174B1B78042BE7
:1026100001D1FFF75FFE154E327892B1002333707F
:102620004FF080431B69E278DB0963F300022378F3
:10263000E27073B101F034FF0028DFD101F0DAF865
:10264000DDE7002FDAD0A86809F06CFDB842E5D2CA
:10265000D4E7054B1B78042BECD1CDE738360020AE
:10266000A40C002078000108EC3800202010002085
:102670000C4B10B55A781946012A03D0022A08D00B
:10268000002005E09C78012C03D101F025F92046BB
:1026900010BD486809F046FDC728F1D9FFF7F6FDDF
:1026A000F6E700BFA40C002008B5074BDB780BB1A0
:1026B000022B04D10220FFF739FF002008BD0320C0
:1026C000FFF734FF0120F9E7A40C002038B50A4DCC
:1026D0000024EB78033B012B08D80320FFF726FFEB
:1026E0002046AC7001F096F8012038BD0220FFF7BB
:1026F0001DFF2046F9E700BFA40C002010B50A4CCE
:10270000E378032B0AD3042B08D80320FFF70EFF2E
:102710000020A07001F09EF8012010BD0220FFF7FC
:1027200005FF0020F9E700BFA40C002070B5884C1D
:10273000884D2068B8B109F0F5FCB0F5FA6F12D3F6
:102740000026552026600DF02BFA57200DF028FAB0
:1027500070200DF025FA287832460146B0FA80F054
:102760004009FFF7BFFD2B7823B17B4B93F8202066
:102770007A4B1A702368DBB9794E306809F0D2FCC5
:1027800040F6B733984213D92B788BB10CF07EFD0D
:1027900070B9714CA37F5BB109F07EFC30605320AF
:1027A0000DF0FEF994F8213013B970200DF0F8F90E
:1027B0004FF080431B69EA78DB096A4C63F300023F
:1027C0000020EA70FFF758FE2378032B1ED8DFE8BD
:1027D00003F002284F9EE36833B1984720B10120EF
:1027E000FFF7A4FE0023A370236933B1984720B1FB
:1027F0000120FFF79BFE0223A370636933B1984762
:1028000020B10120FFF792FE0123A3700DF0C2F862
:10281000554B1B78002B00F09980BDE8704003F009
:102820003BB8A369002BF1D098470028EED002F006
:102830004DF94E4B187008F013F82A784C4B1A706B
:102840000022454B9A772A684A4B134063B94A4C99
:102850002378012B08D00222484B20469A610BF0C6
:1028600043FD20460BF008F90220FFF75FFECDE79D
:10287000E369002BCAD098470028C7D00022404BFC
:102880001A704FF080434FF400129A61A37843B35B
:10289000022B0BD86378022B08D0FFF7B3FC112072
:1028A0000DF07EF90CF0F2FC0028FBD100F094FF53
:1028B0000023E3702E4B2A781B789A4208D12A68AD
:1028C0002C4B1340B3F1807F02D0A07800F05EFC67
:1028D000A378012B18D0A3B1022B97D1FFF7F6FEF6
:1028E00094E71D4B5B7E002BE0D111200DF058F9D1
:1028F0000CF0CCFC0028FBD147F230500AF05DFB15
:10290000D4E7FFF7D1FE81E7FFF7F8FE7EE7236A01
:10291000002B3FF47BAF984700283FF477AF0122AC
:102920000D4B9A77114B1B782BB14FF0804320222F
:102930009A6107F083FF002400F014FB104B1C7019
:1029400000F03EFFFFF7C6FC20468EE770BD00BFDB
:102950001410002038360020640C0020802600204F
:102960001C100020A40C00201910002010100020C2
:1029700018100020FF000001EC3800200004004087
:10298000201000200120704708B5FFF7FBFF08BDAD
:1029900037B504460D46FFF79DFC29462046FFF754
:1029A000F3FF60B1074B1A784AB1074B20461B78FA
:1029B000D9090091C3F30013A9780DF00FF803B003
:1029C00030BD00BF383600204236002000B50B4B2A
:1029D0008FB093F821300A4A322101A804F0E5FFB4
:1029E00001A808F00FFD0CF04DFC08F00BFD0548A8
:1029F00008F008FD0FB05DF804FB00BF640C002078
:102A000098000108A70001082B4B13B51A7804465B
:102A10004AB12A4B01211B78DB09009300230CF0FB
:102A2000DDFF02B010BD0028FBD0031FDBB2A02BDE
:102A300012D8234B0146186809F01EFA20B120462F
:102A400003F0B8FE03F03AFF204603F0ABFE02B0FD
:102A5000BDE8104003F032BF00F12003DBB2072BCA
:102A600007D800F007040120A040C0B203F0D0FE58
:102A7000EDE700F15B03DBB2022B06D8114AD05C14
:102A800002B0BDE8104009F0A1B900F15803DBB273
:102A90001A2B07D80C4A32F8130002B0BDE81040D8
:102AA00009F0B0B93334E4B2122CBAD8012102B023
:102AB000BDE8104002F0D6BF383600204236002074
:102AC000880E00203C00010840000108244B13B58B
:102AD0001A7804464AB1234B1B78DB090093002384
:102AE00019460CF07BFF02B010BD0028FBD0031F7D
:102AF000DBB2A02B06D803F05DFE02B0BDE81040AB
:102B000003F0DCBE00F12003DBB2072B07D800F096
:102B100007040120A040C0B203F082FEEDE700F1FF
:102B20005B03DBB2022B05D8104602B0BDE81040B3
:102B300009F04CB900F15803DBB21A2B05D8104646
:102B400002B0BDE8104009F05DB93334E4B2122C94
:102B5000C9D8114602B0BDE8104002F083BF00BFE3
:102B600038360020423600202DE9F3410546C0B139
:102B7000114E3278C2B10127DFF84080284602F0BA
:102B800002FF044698F80030E030DB090093327809
:102B90000023012180B207FA04F40CF01FFFA543C3
:102BA000ECD102B0BDE8F08103F032FE02B0BDE826
:102BB000F04103F083BE00BF3836002042360020CB
:102BC0002DE9F3410546C0B1114E3278C2B101275B
:102BD000DFF84080284602F0D6FE98F80030044620
:102BE000DB0900930023E0303278194680B207FAFF
:102BF00004F40CF0F3FEA543ECD102B0BDE8F08183
:102C000003F00EFE02B0BDE8F04103F057BE00BF76
:102C100038360020423600202DE9F3410546C0B188
:102C2000114E3278C2B10127DFF84080284602F009
:102C3000AAFE044698F80030E030DB0900933278B1
:102C40000023012180B207FA04F40CF0C7FEA5436B
:102C5000ECD102B0BDE8F08103F0F0FD02B0BDE8B8
:102C6000F04103F02BBE00BF383600204236002072
:102C70002DE9F3410546C0B1114E3278C2B10127AA
:102C8000DFF84080284602F07EFE98F800300446C7
:102C9000DB0900930023E0303278194680B207FA4E
:102CA00004F40CF09BFEA543ECD102B0BDE8F0812A
:102CB00003F0CCFD02B0BDE8F04103F0FFBD00BF62
:102CC00038360020423600202DE9F04104460E46F9
:102CD00001F0EEFAE8B92378013B142B4ED8DFE877
:102CE00003F00B1B486268727575757ACA80848A16
:102CF000939C9FA2ABB4BD00002363700C23A37010
:102D0000614B31461B782046002B40F0B98009F01A
:102D1000F7FC0120BDE8F0816378013B032B2DD83F
:102D2000DFE803F0020C0F2109F0B6F9030EA370DF
:102D3000030CE370030A23716071E1E708F033F8D4
:102D4000F4E72546A77804F11C08042FD8D8F8B278
:102D500004F008FA030AEB7028710235454507F1C3
:102D60000107F2D1CCE70023A370E37023716371F4
:102D7000C6E76378022B04D0052B10D0FF23237005
:102D8000BEE7E378A07840EA0320237940EA0340D5
:102D9000637940EA036000BA08F008F8B0E7A07869
:102DA00008F02EF8ACE7E278A178607808F023FC10
:102DB000C0E722796379A17843EA02236078E27858
:102DC00008F02FFC9CE708F07CFC99E73146204690
:102DD00008F091F894E7002007F0C8FF07F0F1FF32
:102DE0008EE708F0F8FC60708AE708F0F6FC030A4A
:102DF0006370A07084E76078A378221DE17843EACD
:102E0000002008F0EDFC7BE76078A378221DE178D4
:102E100043EA002008F0FEFC72E708F00EFD6FE7C1
:102E200008F0DEFBDFE76078A378221DE17843EA53
:102E3000002008F090FC63E76078A378221DE17819
:102E400043EA002008F09EFC5AE7E278A1780032BD
:102E500018BF0122607808F0F9FB6BE7E27821796E
:102E60006379003243EA012318BF0122A178607818
:102E700008F00BFC44E70123044A637013703FE73A
:102E80000CF06EFF45E700BF383600201910002017
:102E900010B54378044613B1FF23237011E0837803
:102EA000013B032BF8D8DFE803F0021A284103782E
:102EB000072B07D0082BEFD1294BDB78C3F3420354
:102EC000C37010BDC1780729FBD8BDE81040244B62
:102ED000DA7861F34302DA70186803F0BCBD037856
:102EE000072B05D0082BD7D101F0EAFAE070E8E70C
:102EF000C078BDE8104001F0B3BB0378072B0AD0BF
:102F0000082BC9D142790179C07801F0DBFAA071B0
:102F1000000AE071D5E7C2798379017943EA022397
:102F2000BDE810404279C07801F0E2BA0378072B7F
:102F30000BD0082BB0D12379C078A21D617943EA68
:102F40000020BDE8104001F0E8BA2379C078A21D46
:102F5000617943EA0020BDE8104001F0F9BA00BFF2
:102F60003836002008B509F097F8014B186008BD05
:102F700078110020164B10B51C788CB9154B1B78B6
:102F8000052B08D0022B06D009F086F8124B1860EA
:102F9000124B1C7010BD4FF080431B691B0603D4FD
:102FA000BDE81040FFF7DEBF0B4B18680028F7D0D4
:102FB00009F0B8F841F657339842EBD9FFF7D2FF42
:102FC000BDE810400122054B1A70FFF707BB00BF98
:102FD00038360020EC380020781100207C110020C9
:102FE000F8B5124B1F7817B101242046F8BD104DDB
:102FF0002B78052BF8D1B5F84C309B0702D50D4E38
:10300000347824B9FF2894BF00240124EDE7FFF7AA
:10301000CDFA0328E8D83770FFF7A4FF28460AF056
:10302000D7FD284601F082F9DFE700BF38360020DF
:10303000EC3800207C110020704700001A4B70B55E
:103040009C6C0F2644F4C0649C649B6C012301F0CB
:1030500003048B4021F0030101F1804101F5A051EF
:103060008D68A400C0F38320A04006FA04F425EA8A
:10307000040528438860D8430C4912F0010F8C687E
:1030800014BF1C4304408C6012F0020FCA6814BFC6
:103090001A430240CA60054A536111680B4313602A
:1030A00053680340536070BD000C0140001800409D
:1030B0000F281FD8DFE800F0080C0F121518181899
:1030C00018181B1B1B1B1B1B062108460AF0BFBF41
:1030D00006210720FAE706210820F7E70621092044
:1030E000F4E706210A20F1E706211020EEE7062189
:1030F0002120EBE7704701207047000010B5FFF773
:10310000FAFF002836D00C22032418211A4B122073
:103110009C62DA62194AC2F8901000229A62DA625E
:10312000174A0121136C43F4807313644FF47062E7
:10313000144B5A645A6C02F470625A640BF0B0FF7C
:10314000062123200AF083FF012207214FF080404F
:10315000FFF774FF0720FFF7ABFFFFF733FA48B91B
:10316000224609480621FFF769FFBDE81040062006
:10317000FFF79EBF10BD00BF0000014000040140EA
:10318000000C0140004C0140000400402DE9F047D4
:103190003023054683F31188FFF7B0FF00264FF078
:1031A0000108994FDFF86C9257F8040B95B1012D87
:1031B0004DD148454BD120F00F0A00F00F0008FA1E
:1031C00000F421460522504624040BF0AEF8CAF85C
:1031D000184001E0441CEED10136102EE4D1052444
:1031E00001278A4EDFF8509256F8040B002D3AD092
:1031F000012D40F0FC80484540F0F98000F00F01BF
:10320000202207FA01F120F00F000BF08EF800BF2A
:1032100000BF00BF00BF00BF00BF00BF00BF00BFB6
:1032200000BF00BF00BF00BF00BF00BF00BF00BFA6
:1032300000BF56F8040C022200F00F08414620F0AF
:103240000F00FFF7FBFE4046FFF732FF0DE0411C89
:10325000C2D000F00F01202208FA01F120F00F0087
:103260000BF063F8B8E7421CC8D1013CBCD1684BF5
:103270004FF40061DA6C674822F00802DA642246F3
:10328000DB6C0BF052F800BF00BF00BF00BF00BFF7
:1032900000BF00BF00BF00BF00BF00BF00BF00BF36
:1032A00000BF00BF00BF00BF00BF03220B21594871
:1032B000FFF7C4FE0B20FFF7FBFE84F3118872B604
:1032C00001202646544A136823F001031360534B30
:1032D000534A5A610022B30003F1604303F561438E
:1032E000D3F80011D4B2012C94BF002101F00101E8
:1032F00009B1C3F880010132202AF1D10136082E2C
:10330000E8D1484C484D636843F0007363602B6814
:1033100003F009032B602B6843F46C3343F0040380
:103320002B6040F2B3332B62404B43F001039847CC
:10333000236943F00403236130BF3D4B002743F072
:10334000010398472369344A23F004032361136877
:103350002F4C43F001031360E36943F08003E36102
:10336000A36C43F40073A36409F0F6F90323AB6282
:103370000C23304AEB62D2F8903023F01803C2F8E5
:103380009030AF62EF62236C43F480732364236C4C
:1033900043F00203236401236363E367E36666612A
:1033A000636943F004036361636943F0010363618C
:1033B00003F00CFF40F282324FF4006115480AF02E
:1033C000B4FFE36C43F00803E364E36CA36C43F4E1
:1033D0008053A364A36CE36C43F01003E364E36CD9
:1033E000FFF72AFE87F3118862B6BDE8F087431C19
:1033F0003FF43BAF00F00F01402207FA01F120F04B
:103400000F000AF092FF30E7E8000108840101088C
:10341000000C01400008004010E000E000180040EF
:10342000FFFF070000ED00E0000001405C01010823
:1034300028010108000401400100004001207047FC
:103440000120704701238B40034210B50C4614D075
:103450004B1E0A2B18D8DFE803F0150617171717AD
:103460001117171713000420FFF7B2F82046FFF7D3
:10347000E5FF10B12046FFF7E3FF10BD0320F3E79F
:103480000220F1E70520EFE70120EDE708B50D4B3D
:103490005A69D20707D51A68002122F001021A6082
:1034A0000120FFF7CFFF4022074BC3F88020BFF376
:1034B0004F8FBFF36F8F0122024B5A61BDE8084066
:1034C00009F070BE0018004000E100E008B50D4BA7
:1034D000586910F0020006D01A68012122F0020299
:1034E0001A60FFF7AFFF8022074BC3F88020BFF3BD
:1034F0004F8FBFF36F8F0222024B5A61BDE8084025
:1035000009F050BE0018004000E100E008B50E4B85
:10351000586910F0040006D01A68022122F0040253
:103520001A60FFF78FFF4FF48072084BC3F88020BA
:10353000BFF34F8FBFF36F8F0422034B5A61BDE877
:10354000084009F02FBE00BF0018004000E100E075
:1035500008B50E4B586910F0080006D01A68032110
:1035600022F008021A60FFF76DFF4FF40072084B5B
:10357000C3F88020BFF34F8FBFF36F8F0822034B38
:103580005A61BDE8084009F00DBE00BF00180040B8
:1035900000E100E008B50E4B586910F0100006D0AD
:1035A0001A68042122F010021A60FFF74BFF4FF453
:1035B0008062084BC3F88020BFF34F8FBFF36F8F3B
:1035C0001022034B5A61BDE8084009F0EBBD00BF73
:1035D0000018004000E100E038B5254B5C69A20608
:1035E00004F4787507D51A68052122F020021A60C4
:1035F0002846FFF727FF600608D51D4A06211368F5
:10360000284623F040031360FFF71CFF210608D56E
:10361000174A07211368284623F080031360FFF739
:1036200011FFE20508D5124A08211368284623F441
:1036300080731360FFF706FFA30508D50C4A092124
:103640001368284623F400731360FFF7FBFE4FF462
:103650008032084BC3F88020BFF34F8FBFF36F8FCA
:103660004FF47872024B5A61BDE8384009F09ABDB8
:103670000018004000E100E038B52A4B5C696205A3
:1036800004F47C4507D51A680A2122F480621A6086
:103690002846FFF7D7FE230508D5224A0B211368D9
:1036A000284623F400631360FFF7CCFEE00408D53E
:1036B0001C4A0C211368284623F480531360FFF73B
:1036C000C1FEA10408D5174A0D211368284623F42A
:1036D00000531360FFF7B6FE620408D5114A0E21AD
:1036E0001368284623F480431360FFF7ABFE2304DE
:1036F00008D50C4A0F211368284623F400431360B1
:10370000FFF7A0FE0222084BC3F88420BFF34F8FBF
:10371000BFF36F8F4FF47C42024B5A61BDE83840D3
:1037200009F040BD0018004000E100E008B50E4B74
:10373000586910F4802006D01A68122122F48022E1
:103740001A60FFF77FFE0822084BC3F88420BFF3FE
:103750004F8FBFF36F8F4FF48022034B5A61BDE848
:10376000084009F01FBD00BF0018004000E100E064
:1037700010B5074C23784BB901F0B2F902F021F9EA
:1037800008F0F6FA02F01EF901232370012010BDA3
:103790007E11002010B5044C23781BB101F060FAB3
:1037A00000232370012010BD7E110020024B1B78E6
:1037B0000BB10CF0BFB97047811100200120704798
:1037C00008B5044B1B780BB9FFF7D2FF01F0A4F941
:1037D00008BD00BF7E11002008B5044B1B780BB15B
:1037E000FFF7D8FFFFF7EAFF08BD00BF7E110020FA
:1037F0000120704708B5FFF7FBFF08BD014B1878A3
:10380000704700BF7F110020014B1870704700BF48
:103810007F110020014B1870704700BF7F110020FE
:10382000014B1878704700BF80110020084B10B57D
:103830000446187058B9FEF7B9FE022807D80320CD
:10384000FEF774FE2046BDE81040FEF7B5BE10BD81
:1038500080110020FFF7EABF024B187880F00100CA
:10386000FFF7E4BF801100200020FFF7DFBFFFF764
:10387000F3BF0000024B187880F00100704700BFD2
:1038800080110020084B1A78084B1B784BB982F046
:103890000102A0F5A443203B1F2B8CBF1046012042
:1038A00070470022F5E700BF801100207F11002043
:1038B00000231946064A937213609375D360054A34
:1038C00001330B2B917242F80C1BF9D1704700BFEA
:1038D000640E0020C80C002008B503F0E9FCFFF7D7
:1038E000E7FF0022014B1A6008BD00BF88110020CD
:1038F0000120704708B5FFF73BFFFEF7E7FD01F039
:1039000009F948B1012220214FF080400AF00DFD55
:103910004FF0804320229A6108BD000000230D4A29
:1039200010B513700C4A4FF0804413700B4A1360AB
:1039300006F0AEFF01280AD006F0A2FF4FF40013F4
:10394000A36101F07FFEBDE8104003F026B92023FB
:10395000F6E700BF7D1100208211002084110020B5
:1039600008B503F0DFF805F029FB03F06AF8084B0F
:10397000188060F07F001870188803F065F801F077
:10398000F7F818B1BDE80840FFF7C8BF08BD00BF91
:103990004236002037B504460D4601F0DFFD002811
:1039A00000F0BD80002D00F0BA8047F604639C4211
:1039B00000F0858029D847F601639C425BD00AD885
:1039C00047F603439C4200F0A780B4F5FC4F3CD07F
:1039D000284603B030BD47F602639C425DD047F6EF
:1039E00003639C42F4D100230DF1070101208DF8FF
:1039F0000730FEF735FC9DF80730042B02D013F09A
:103A0000FD0FE5D10122042130E047F612639C420C
:103A10007BD00BD847F605639C4263D047F6116311
:103A20009C42D5D10020FFF701FFD1E747F6136391
:103A30009C426ED047F643639C42C9D10122394B68
:103A40001A700022384B1A60C2E700230DF10701FB
:103A500001208DF80730FEF703FC9DF80730042B9A
:103A600002D013F0FD0FB3D1012211462F4B18786D
:103A7000FEF738FCACE700230DF1070101208DF8BB
:103A80000730FEF7EDFB9DF80730042B02D013F052
:103A9000FD0F9DD101220221E8E700230DF107016E
:103AA00001208DF80730FEF7DBFB9DF80730042B73
:103AB00002D013F0FD0F8BD101220321D6E70023A2
:103AC0000DF1070101208DF80730FEF7C9FB9DF8C5
:103AD0000730042B03D013F0FD0F7FF479AF0122E0
:103AE0000521C3E700230DF1070101208DF8073000
:103AF000FEF7B6FB9DF80730DA1E012A02D9002B2B
:103B00007FF466AF01220621B0E70122084B1A704C
:103B10005EE7FFF7A1FE5BE7FFF722FF58E70546E8
:103B200056E700BF821100208411002038360020A3
:103B30008011002070B5FEF7F9FD002501261B4C11
:103B4000206858B1A37A4BB908F0ECFA6368984240
:103B500004D3A67201212089FFF71CFF0C3415B392
:103B60000026134C206858B1A37A4BB908F0DAFA52
:103B70006368984204D3A57201212089FFF70AFFE8
:103B800001360B2E04F10C04ECD10A4B1A783AB131
:103B900000221A700BF07AFB0028FBD1FFF7E0FE41
:103BA00000F0BCFF70BD0125CAE700BF640E002015
:103BB000C80C00209411002008B5064B1B780BB9E7
:103BC000FFF7D6FD4FF0804320229A61BDE8084000
:103BD00008F02CBA7E1100202DE9F7430D46BA4AB1
:103BE000897804461368E9B1032B00D80133B74F35
:103BF0001360FEF76FFB3889844217D0B88A84427D
:103C00000CD14FF0010995F802800C26B8F1000F95
:103C10000FD008F041FA06FB09F6B851AC4B00276B
:103C2000984631E0002BE2D0013BE0E74FF000097D
:103C3000E9E706FB09F607EB060999F80A300BB924
:103C4000BB51EBE74146FFF7A5FE89F80A8047F82C
:103C500006800028E2D100209BE07E4308EB0607A7
:103C6000BB7A13B948F806301CE049462046FFF7F6
:103C700091FE87F80A9048F8069098B9EBE701376B
:103C80000B2F03F10C030DD01A899442F7D195F84C
:103C900002900C26B9F1000FDFD008F0FDF97E4349
:103CA00048F8060029462046FFF7ECFD0028D2D050
:103CB0002946204601F080F80028CCD047F604635E
:103CC0009C4200F0C8802CD8B4F5FC4F6ED009D8C7
:103CD00047F620039C4200F01C8147F603439C42B8
:103CE000B9D02EE047F602639C42AB7800F0988092
:103CF0007BD9002BAFD0774C2278042AABD000239D
:103D00000DF1070101208DF80730FEF7A9FA9DF8A3
:103D10000730042B02D013F0FD0F9CD100220421A8
:103D20005FE047F640639C4225D01CD847F6066307
:103D30009C4200F0D580C0F0AA8047F607639C4201
:103D400031D02946204600F0ABFC002883D029461C
:103D50002046FFF745F900283FF47DAF294620466D
:103D6000FEF716FE15E047F642639C4214D009D3D5
:103D700047F64363B3E7AB78002B3FF46CAFFEF735
:103D800025FE68E7A878544B10B101221A7062E74B
:103D9000187003B0BDE8F083AB78002B3FF45BAF45
:103DA000FEF71CFC57E7AA784C4BEFE7AB78002BEB
:103DB0003FF451AF474C2278012A3FF44CAF002327
:103DC0000DF1070101208DF80730FEF749FA9DF843
:103DD0000730042B03D013F0FD0F7FF43CAF00221B
:103DE00001212078FEF77EFA35E7002B3FF433AF50
:103DF000384C2278022A3FF42EAF00230DF1070140
:103E000001208DF80730FEF72BFA9DF80730042BC0
:103E100003D013F0FD0F7FF41EAF00220221E0E774
:103E2000002B3FF418AF2B4C2278032A3FF413AF3A
:103E300000230DF1070101208DF80730FEF710FA7D
:103E40009DF80730042B03D013F0FD0F7FF403AF70
:103E500000220321C5E7AB78002B3FF4FCAE1D4CDC
:103E60002278052A3FF4F7AE00230DF10701012067
:103E70008DF80730FEF7F4F99DF80730042B03D0D6
:103E800013F0FD0F7FF4E7AE00220521A9E7AB7820
:103E9000002B3FF4E0AE0F4C2278062A3FF4DBAE55
:103EA00000230DF1070101208DF80730FEF7D8F946
:103EB0009DF80730DA1E012A02D9002B7FF4CBAE21
:103EC000002206218DE700BF88110020640E00202B
:103ED000C80C002038360020811100207D11002000
:103EE000AB78002B3FF4B7AE114C2278002A3FF498
:103EF000B2AE00230DF1070101208DF80730FEF767
:103F0000AFF99DF80730012B3FF6A5AE0022114610
:103F100067E7AB78002B3FF414AF06F0B9FC4FF025
:103F2000804318B14FF400129A610AE72022FBE7A0
:103F300038360020014B1878704700BF8C110020E4
:103F4000012070472DE9F04105460C465D4E5E4F5D
:103F500021462846FFF7F4FF50B1062C08D8DFE8C9
:103F600004F00409629E9EABAB000022554B1A6020
:103F7000BDE8F081326862BB85B9544B1B78062BD3
:103F80000CD8DFE803F02304171B1F1F1F000022BB
:103F9000FF2311460020FDF7F9FF01224FF4FA71CB
:103FA0002846FEF737F82846FDF7D0FF08F074F8EA
:103FB0003060DDE700238022FF21EBE7FF230022B2
:103FC0007A21E7E70023FF221946E3E7FF231A4699
:103FD000FAE7104608F0A6F847F22F53984203D9A3
:103FE00005243B4B1C70B3E7384B1B7853EA05089C
:103FF00014D1384B1B78042B0BD10323344C40468F
:104000002370FF231A461946FDF7C0FF4546247862
:104010009EE74046BDE8F041FDF798BF7A7E002A52
:104020003AD00324DDE7306840BB002DA0D1274BF8
:104030001B78013B052B9BD8DFE803F00310151913
:10404000191C0022FF2311461046FDF79FFF012295
:10405000C8210020FDF7DEFF0020A5E70023802215
:10406000FF211846F1E7FF2300227A21ECE7002325
:104070001A46F5E70023FF221946F2E708F052F846
:1040800047F22F53984201D90624AAE77B7E0BB151
:104090000424A6E70D4B1B7853B12846BAE7FF224C
:1040A0004FF4FA612846FDF7B5FF2846FDF74EFFAD
:1040B0000022074B1A705BE70022054B1A70FEF7CF
:1040C0008DFAEAE790110020640C002038360020B9
:1040D0008C110020EC380020014B1978FFF732BF1B
:1040E0008C1100200120704770B50D460021064656
:1040F0000846FDF779FF10B90024204670BD294617
:104100003046FFF7EFFF04460028F5D00022044BAD
:1041100029461D70034B30461A60FFF713FFECE78A
:104120008C1100209011002070B50E461546FEF748
:1041300067F8044650B126B1074B5B7E53B9062E93
:1041400004D82DB102210020FFF7CEFF204670BD1C
:104150000121F8E71C46F9E7640C0020094B1B78A5
:104160007BB9094B1A7832B1084A527E4AB959785C
:104170001046FEF7B7B8064B1B78042B01D011464A
:10418000F6E770478C11002038360020640C0020C0
:10419000EC380020704700002DE9FF473F4E0746EE
:1041A0008846FFF7F7FFFFF7D9FF3478002C32D0AD
:1041B0003B4D2B6813B907F06FFF2860286807F0A4
:1041C000B1FF41F28733984205D933780133337018
:1041D00007F062FF28603378013B032B17D8DFE834
:1041E00003F0020C101400225020114605F080FD4F
:1041F0000024204604B0BDE8F0870022502110467C
:10420000F4E7002150220846F0E75022F6E70024A8
:1042100034702C60EDE7234B1B788BB94146384650
:10422000FFF766FB0028E3D04146384600F0B8FCB3
:1042300004460028DCD041463846FDF705FFD8E7A4
:1042400022462146204605F053FDDFF85CA0DFF84A
:104250005C9001AE0A2551462A463046FCF790F99B
:1042600099F81F30E2B2B3FBF5F59542A05D11D984
:10427000312B03D900235022194605E01D2B4FF0A6
:104280000003F8D81A465021013404F0C7FE0A2C66
:10429000E0D1C3E700231A46EEE700BF82110020F9
:1042A000841100207D110020BCFE0008640C002059
:1042B00070B505460E46FEF70DF8FEF777F910B11A
:1042C0000320FEF733F92B780A2B0ED10124084B7B
:1042D00031461C70074B28461B781BB908F010FAB2
:1042E000204670BD0BF03CFDFAE70020F9E700BF67
:1042F0009411002038360020012810B5044610D053
:10430000022809D1FEF752F9032805D00320FEF751
:104310000DF90020FEF750F92046BDE8104007F0E7
:104320005FBE014B1870F7E7E00F0020014808F06E
:1043300044BE00BFA08601000D4BF0B51B6883B1E1
:10434000490001EB40100B4901220E461D5A31F87D
:10435000027BD4B2AF4205D104F0070236F8122036
:104360001A52F0BD0132092AF1D10022F8E700BF4C
:10437000981100202C0401082DE9FF4104460E4647
:1043800006F018FB4FF000082C4D2D4F6880E0B26E
:10439000864250D92B4B00210EE01CF801EBBEF1F8
:1043A000FF0F01D086451CD00132102AF5D1013112
:1043B000052903F110033CD09C460022EDE7012BB8
:1043C00008D1012A06D16B88ADF804808DF806303B
:1043D000019819E06B88ADF800108DF80230009854
:1043E00012E03B682BB303EB411333F8121033F8A0
:1043F000123049BADAB21B0AE1D1002AEAD1ADF88B
:1044000008208DF80A20029804F0F2F8C0F3072380
:104410008DF80C00C0F307408DF80D308DF80E00BC
:104420009DF80E309DF80D209DF80C10204604F0EC
:10443000F5FD0134ABE704B0BDE8F0814C0D002080
:1044400098110020500D002041EA0203184310B4D7
:1044500005D10146A022094810BCFCF707B9002489
:1044600010230648013B13F0FF0301704270204403
:10447000F8D12034A02CF3D110BC70479C1100203F
:1044800010B5064A0B461478012C05D158780978E6
:10449000FFF752FF204610BD0020FCE74C0D002026
:1044A000024B1878431E5842584170474C0D00206B
:1044B000A023584302EB0112223000EB4200704768
:1044C00004207047032838B510D804290ED80F2AC5
:1044D0000CD8FFF7EDFF054603F0B2FC0446681C5C
:1044E00003F0AEFC44EA002080B238BD0020FCE7B7
:1044F000032870B51C460FD804290DD80F2A0BD8F5
:10450000FFF7D6FF0546E1B203F002FD210A681C61
:10451000BDE8704003F0FCBC70BD2DE9F8430024F9
:1045200005460F461646A14600F12208BC4208EB9C
:10453000040001D1BDE8F8832B19B3F5207F04DA1C
:1045400003F07EFC30550134F0E706F80490FAE7FA
:104550002DE9F04105460E469046002400F1220761
:10456000B44207EB040001D1BDE8F0812B19B3F58B
:10457000207F03DA18F8041003F0CAFC0134EFE7D7
:10458000032806D8A02202FB00F10248223103F0E2
:10459000A5BC70479C110020032838B50CD8084AE8
:1045A00000231478012C07D15578A84206D1137046
:1045B000FFF7E6FF204638BD0020FCE71846FAE783
:1045C0004C0D0020032806D8A02202FB00F102486F
:1045D000223103F0CBBC70479C110020074B084AE6
:1045E00010B51A600023074C2370607006F0E2F9E2
:1045F00060806078BDE81040FFF7E4BF98110020AC
:104600009C1100204C0D0020032808B50CD8074A47
:104610005070FFF7D7FF06F063F92D2802D02D2048
:1046200006F05BF9012000E0002008BD4C0D0020E1
:10463000032810B510D8094B197869B901245870AE
:104640001C70FFF7BFFF06F04BF92D2802D02D207C
:1046500006F043F9204600E0002010BD4C0D00207C
:10466000032810B5044609D8FFF7ACFF2046FFF732
:1046700093FF2046BDE81040FFF7C6BF10BD000005
:1046800008B5054802F0F6F9BDE808404FF420727D
:104690002221024803F022BC98010108DE0801082B
:1046A00008B50B4B0A461B78012B0CD1A0F5A44092
:1046B00020381F2809D9887820B150780978FFF769
:1046C0003BFE002008BD0120FCE71846FAE700BFCA
:1046D0004C0D002070B504460078FF2801D106F08B
:1046E000FFF80C4900220D4611F8016BD3B2864247
:1046F00003D00132102AF7D113462278FF2A13BFC4
:10470000FF22013303F00F032270E85CBDE8704024
:1047100006F0E3B84A04010838B50B780546FF2BCC
:104720000C4602D106F0DCF82070284638BD38B5BA
:1047300040F2A62440F2B62520460021013403F0C1
:10474000AAFBAC42F8D138BD10B506F0C9F8002379
:10475000054911F8014BDAB2844203D00133102B22
:10476000F7D11A46104610BD4A04010810B5044698
:10477000FFF7EAFF2146BDE8104000F2A62003F053
:104780008ABB08B5FFF7E0FF00F2A62003F058FB54
:10479000072888BF002008BD70B506F0A1F80723E0
:1047A000124A12F8011B81421DD0013B13F0FF0396
:1047B000F7D10725FFF7E5FF0130B0FBF5F405FB66
:1047C00014040B4B13F8145003EB44035E7806F00B
:1047D000F1F831460246284606F0C5F8E0B2BDE8D9
:1047E0007040FFF7C3BF0625E4E700BF5A04010885
:1047F0003C04010838B5FFF76DFFFFF7C2FF074B18
:1048000013F8104003EB40035D7806F0D3F8294617
:1048100002462046BDE8384006F0A5B83C04010831
:104820002DE9FF411A4B1B780BB3002211461046AD
:1048300005F05EFA0024DFF86080164F01AE0A250D
:1048400041462A463046FBF79BFEFB7FE2B2B3FBB4
:10485000F5F5954200D8AAB9312B305D0BD900236C
:1048600050221946013404F0D9FB0A2CE7D101206B
:1048700004B0BDE8F0811D2B4FF00003F0D81A46BC
:104880005021EFE70023305D1A461946EAE700BFE2
:104890003C120020640C0020C6FE0008FF2810B562
:1048A000044611D10E4BD3F8A43023F07F436E2B76
:1048B0000ED100221146FDF769FB01212046FDF7CC
:1048C0007DFB2046FDF742FB0022064B1A7010BD0F
:1048D000B3F5DC0FF8D100236E221946EBE700BFD9
:1048E000BC0D0020403600202D4B70B51B780446CF
:1048F0007BB100231A461946FDF748FBFF224FF40F
:1049000096712046FDF786FB2046BDE87040FDF716
:104910001DBB2449244DC978EE7F11F00101234AC3
:1049200011D0632E08D90023214920460B600121B4
:1049300011701A461946DFE71D490B6001211170FD
:104940001A46FF21D8E70F2EEDD8137813B30A4685
:104950000B46FF21FDF71AFB01224FF4FA712046A6
:10496000FDF758FBEB7F002BCED1114D2B6813B90F
:1049700007F092FB286028680028C5D007F0D2FB1A
:104980004EF660239842BFD9002301202B60FEF72A
:104990003BFFB9E71A461946FDF7F8FAFF22DCE7B4
:1049A0004136002038360020640C0020B80D00206D
:1049B0004012002070B5254E04463578042D32D8BB
:1049C000DFE805F0033E1F363E0007F0D9F9204B23
:1049D000C0F34006187800F0D6FF032818BF1D4B1F
:1049E000314618BF1D78204618BFC5F300152A466A
:1049F0000023FDF7CBFAFF2232212046FDF70AFB08
:104A000011E01023FF201A461946FDF7BFFA0322D2
:104A1000C821FF20FDF7FEFAFF20FDF797FA0123DA
:104A20000D4A337013702046BDE87040FDF78EBA12
:104A3000FF231A461946FDF7A9FA0122C821DCE72F
:104A400000233370FFF7B6FFEDE700BF44120020EC
:104A50005A120020423600204036002008B5054B8F
:104A600000211870FB20FDF7BFFABDE80840FB20CD
:104A7000FFF7A0BF4412002008B5037C022B0FD023
:104A8000FB2B1CD093B9437C3BB1837E427E017EDD
:104A9000012004F0C3FA012008BD1A461946F7E7C1
:104AA000084B1878B0FA80F04009F5E7064B1B7800
:104AB0002BB9FFF7F5FC80F00100C0B2ECE7002055
:104AC000EAE700BF441200204F120020034B187881
:104AD00010F0030018BF0120704700BF58360020B7
:104AE00010B501224FF400714FF0804009F01DFC19
:104AF0004FF080434FF40072054C9A61204601222A
:104B0000042109F012FC04230120A36110BD00BFA1
:104B1000000C0040012070470120704710B5FDF7E0
:104B200045FD60B90F4C206807F0FCFAB0F57A7FBC
:104B300005D907F0B1FA206053200BF031F80A4B89
:104B40001B7863B1094B1B784BB903240023204623
:104B50001A461946013404F061FA082CF6D10120F6
:104B600010BD00BF481200204C120020403600202B
:104B700008B5FDF71DFB1023FF201A461946FDF767
:104B800005FA0322FA21FF20FDF744FAFF20FDF782
:104B9000DDF90120014B187008BD00BF4036002030
:104BA00038B51D4B04461B780D4623B11022114623
:104BB000104605F09DF807F0E3F8830711D5FF23B1
:104BC00001201A46194604F029FAFF231A4619460D
:104BD000002004F023FA29462046FFF721FE012099
:104BE00038BD0E4B0E4A19680A40B2F1807F0BD1D6
:104BF0000C4A1278042A07D1002301201A461946CC
:104C000004F00CFA0023E1E71B78002BE3D0064BFD
:104C10005B7E002BDFD0EFE74F12002038360020FC
:104C2000FF000001EC380020640C002010B50122C8
:104C30004FF400714FF0804009F077FB4FF0804354
:104C40004FF00072054C9A6104210122204609F0C0
:104C50006CFB4FF48023A36110BD00BF000C00402B
:104C600008B5FFF7E3FF012008BD0000024B40F24A
:104C7000A220196803F068B93C360020F7B505F0AA
:104C80002FFE0128484C46D105F070FEC0F30723E3
:104C900010F0FF008DF8053026D1DBB25BB30523A1
:104CA00023702378414E0133237005F05FFE237893
:104CB000C0F307450A2B3AD12A46FF21002005F010
:104CC00052FE01233A4A3370D37843F00403D37081
:104CD000FFF7CCFF2378033B062B3FD8DFE803F038
:104CE0004E56394A5A525E00782810D005D82828E6
:104CF00009D0502809D00923D2E7A02809D0C82814
:104D0000F9D10723CCE70623CAE70323C8E7082322
:104D1000C6E70423C4E70C2805D00E2805D00528D3
:104D2000BFD10123BCE70023BAE70223B8E73278FA
:104D3000204F62B100211E4B3170DA7861F382029C
:104D4000DA70FFF793FF387805F0C7FDC2E7F85C2B
:104D5000FAE72A46FF21002005F005FE05F0C0FD18
:104D600005281FD12A46FF21002003B0BDE8F040EE
:104D700005F0F9BD2A46FF212820EDE72A46FF214C
:104D80005020E9E72A46FF217820E5E72A46FF215F
:104D9000A020E1E72A46FF21C820DDE700212A46BE
:104DA0000846D9E703B0F0BD4D1200204C12002098
:104DB0003C3600207C0E0020F8B5BF4C0646237818
:104DC0000D463BB18B782BB1002211461046227064
:104DD00004F08EFF47F629039E4200F0DD8200F2C8
:104DE000BE80E32E00F09A8234D8222E00F0C281D9
:104DF00014D81F2E00F0AE8104D81E2E00F09E8124
:104E00000124DAE1202E00F0AD81212EF8D1AB4B48
:104E1000DB789907F4D5AC783D2096E1252E00F09B
:104E2000B9810BD8232E00F0AD81242EE8D1A34BFD
:104E3000DB789F07E4D5AC78402086E1262E00F091
:104E4000B181272EDCD19D4BDB789807D8D5AC7883
:104E500043207AE145F224239E4200F05F833AD852
:104E6000B6F5A44F00F0BC8212D8E72EC8D1944BFF
:104E7000187800F088FD0328C2D1924B1B78DB061E
:104E8000BED5FFF70DFB0028BAD1AC78E72058E279
:104E900045F203239E4200F0C08245F221239E4248
:104EA000AED1AE78002E40F02C83FFF7F9FA50B166
:104EB000854C23782BB1294645F221202670FFF737
:104EC000DFFA012323707E4B187800F05CFD032885
:104ED00040F09C82B7E247F623039E4200F04582F1
:104EE00021D847F213039E4200F0058247F62103C2
:104EF0009E4285D1AB78002B00F070816F4C002072
:104F0000FFF7ACFD607800F00F00FFF75BFB607807
:104F100000F00F00FFF740FB00226B4BA01C1A7043
:104F2000FFF768FC5AE147F627039E4200F04E82E5
:104F300047F628039E427FF463AFAC78002C3FF421
:104F40005FAF05F037FD10283FF65AAF0220FFF79C
:104F500085FD00221146104604F0CAFE2DE147F6F9
:104F60001C639E4200F04A8100F2858047F602638E
:104F70009E4200F0918144D8B6F5F84F00F0FC81D4
:104F800014D847F62A039E427FF43AAFAB78002B41
:104F90003FF436AF05F09CFD33283FF631AF0220D9
:104FA000FFF75CFD332005F08BFD05E1B6F5FC4F06
:104FB00000F0528147F601639E427FF421AFFFF774
:104FC0006FFA0446002840F0F780AB78002B3FF4DE
:104FD00017AF3E4B1D78022D7FF412AFFEF7AAFFEC
:104FE00000287FF40DAF23468022FF21FCF7CEFF7F
:104FF000022296212046FDF70DF82046FCF7A6FF79
:10500000DBE047F607639E4200F09E8121D847F619
:1050100005639E4200F0578147F606639E427FF487
:10502000EFAEFFF73DFA0446002840F0C580AB78AC
:10503000002B3FF4E5AE254B1B78002B7FF4E0AE50
:10504000FEF778FF00287FF4DBAEFF231A461946EF
:10505000CCE747F609639E4200F0AC8047F61B633D
:105060009E427FF4CDAEAC78194B002C00F0B98095
:1050700001221A70A1E047F64A639E4200F0E881DF
:105080002AD847F61E639E4200F09C80C0F0CC8078
:1050900047F620639E4200F05F8147F621639E42FF
:1050A0007FF4AEAEAC78002C00F08780094A13780C
:1050B00083F0010313707FE04F1200203C36002084
:1050C0005A120020423600204E12002038360020AE
:1050D000501200204136002047F653639E4200F0F4
:1050E000EB811AD847F64B639E4200F0D38147F616
:1050F0004C639E427FF484AEAB78002B5CD0AD4C09
:10510000607800F00F00FFF75DFA607800F00F00A4
:10511000FFF742FAA11C0220ABE147F654639E421E
:1051200000F0338147F655639E427FF469AEAB7859
:10513000002B41D062200AF033FD3DE09D4BDB782F
:105140009E077FF55DAE3A20AC78002C65D0FDF768
:105150005BFC31E0974BDB789C077FF551AEAC7878
:105160003B20F2E7934BDB7898077FF549AEAC78AC
:105170003C20EAE78F4BDB789A077FF541AEAC78AD
:105180003E20E2E78B4BDB789B077FF539AEAC78AE
:105190003F20DAE7874BDB789E077FF531AEAC78AE
:1051A0004120D2E7834BDB789C077FF529AEAC78B2
:1051B0004220CAE7AB7813B900242046F8BDFFF7B8
:1051C0005DFDF9E7AB78002BF6D07A49CB7883F018
:1051D0000202C2F3400262F34103CB70FFF746FDC7
:1051E000EAE71C78002C3FF40BAE724BDB78D90752
:1051F00054BFA820282000F0EBFADEE76D4BAC7816
:10520000DD7805F0010534B10DB1DA209FE7A92062
:1052100000F0A2FAD0E71DB1DA20FDF757FCCCE789
:10522000A92000F0AFFAC8E7624BAC78DB7803F056
:10523000010344B11BB1D920FDF7E6FBBDE7AA206D
:1052400000F08AFAB9E71BB1D920FDF73FFCD7E59A
:10525000AA2000F097FAD3E5FFF722F904460028C8
:10526000AAD1AB78002B3FF4CBAD534B1B78012B6D
:105270007FF4C6ADFEF75EFE054600287FF4C0ADA4
:10528000FF2302462946FCF781FE0222962128468A
:10529000FCF7C0FE2846B1E6FFF702F904460028F5
:1052A0008AD1AB78002B3FF4ABAD434B1B78032B7B
:1052B0007FF4A6ADFEF73EFE00287FF4A1ADFF23EC
:1052C00022467A2192E6FFF7EBF8044600287FF4A5
:1052D00073AFAB78002B3FF493AD374B1B78062BA5
:1052E0007FF48EADFEF726FE054600287FF488ADDC
:1052F0000346FF22C6E7AC78002C3FF481AD0023C3
:105300006E211A46FF20FCF741FE0121FF20FCF729
:1053100055FEFF20FCF71AFE284BA9E6284B18780B
:1053200000F031FB03287FF46BAD264B1B78DA06C7
:105330007FF566ADFFF7B4F800287FF461AD304625
:10534000AC78002C85D07BE71B4B1B7803B1AB7886
:1053500003F001031C4AADE6AC78002C7FF42CAFBF
:10536000A82000F0F9F9A8205BE7AB78002B3FF408
:1053700047ADFFF711FA1FE7AC78002C3FF440ADC2
:1053800001F0ACFE06F0E6FE17E7AB78002B3FF429
:1053900013AF012323700FE7AB78002B3FF430AD40
:1053A00005F096FBFF287FF42BAD0220FFF756FB9C
:1053B00026E500BF3C36002038360020403600206D
:1053C0005A120020423600203C120020AB78002BFD
:1053D0003FF416AD05F0EEFA3F287FF611ADE4E795
:1053E000AB78002B3FF4E8AE00210846FCF7FCFD4B
:1053F0000023FF211A461846FCF7C8FD0322FA21B4
:105400000020FCF707FE0020FCF7A0FD002000F0C4
:105410002BFA002000F015FECEE6AB78002B3FF40F
:10542000CBAE00210846FCF7DFFD0023FF22184623
:105430001146FCF7ABFD0322FA210020FCF7EAFD40
:105440000020FCF783FD032000F00EFA0320E1E7C3
:10545000AB78002B3FF4B0AE3E4C607800F00F000C
:10546000FFF7B0F8607800F00F00FFF795F8002024
:10547000A11CFFF751F9637860F303036370FFF732
:10548000F5FB607800F00F00FFF7BEF80020FFF793
:10549000E5FA91E6AB78002B3FF48EAE2D4C6078A8
:1054A00000F00F00FFF78EF8607800F00F00FFF7B4
:1054B00073F8A11C0120DCE7AB78002B3FF47CAE35
:1054C00005F00EFA2D287FF477AEFEF7E9FF0446CB
:1054D000204B587800F00F0054B9FFF7A9F80022CC
:1054E00010461146FEF7B0FF0320FFF7B7FA64E657
:1054F0000024FFF751F80020FFF7B0FA164B1C709C
:105500005BE6144BDC7814F002047FF479AC0220E3
:1055100000F0AAF9022000F094FD4EE6AF786FB9D2
:10552000FEF7BEFF00283FF4CEAC0B4C2378002BD7
:105530003FF4C7AC277029463046C0E4054BDC7801
:1055400014F002047FF45CAC052000F08DF9052016
:10555000E1E700BF3C3600204E12002047F61B63F7
:10556000984210B51DD047F62063984238D109B94A
:10557000002411E01B4B1A681B4B1340B3F1807FD2
:105580000CD11A4B1B78042B08D1FEF773F9044693
:105590000028EDD1FEF768F9204610BDFEF767F947
:1055A000E6E70029E4D00024114A124B1C70D3789E
:1055B000D94361F30003D370FFF758FB1023FF209A
:1055C0001A461946FCF7E2FC0322FA21FF20FCF7F9
:1055D00021FDFF20FCF7BAFC0122074B1A70DBE724
:1055E0000124D9E738360020FF000001EC38002004
:1055F0003C360020501200204036002010B500201C
:10560000FFF72CFA0C4A0024138823F4706323F06C
:10561000010343F001031380FF239370074B1C70B9
:10562000FFF785F8064B224621461878FCF75AFE0C
:10563000BDE81040FFF71ABB3C3600204E12002098
:105640003836002010B540F2A22002F017FC104CB2
:10565000206008B9FFF7D2FF607800F00F00FEF776
:10566000BDFFE3780B4AC3F380031370C821FF2208
:105670000220FCF7CFFC0220FCF768FCFF22C821C7
:10568000FB20FCF7C7FCFB20FCF760FC012010BDF1
:105690003C3600204C1200200720704706280CD80A
:1056A00004290AD80F2A08D800EB80000844044BCC
:1056B00002EB001033F8100070470120704700BF64
:1056C0007E04010807207047062808D839B9054B21
:1056D00082F0010202EB400233F812007047012011
:1056E000704700BF62040108A0F58073B3F5F85F4E
:1056F00010B526D210F4805F00F4007400F48073BB
:1057000000F4806100F400620DD0002B0CBF00207B
:1057100010200CB140F0200009B140F040000AB167
:1057200040F0800010BD181C18BF01200CB140F0E3
:10573000020009B140F00400002AF3D040F0080054
:10574000F0E70020EEE710B50C46FFF7CDFF23464B
:10575000BDE8104018470000A0F1E003072B10B58A
:10576000044600D940B920460449FFF7ECFFE0B2F7
:10577000BDE81040FDF748B90149F6E7692B00087C
:10578000192C000810B50446C0B2FDF79FF9A4F12A
:10579000E003072B00D92CB903492046BDE810408F
:1057A000FFF7D1BF0149F8E7C12B0008712C0008B1
:1057B00038B505460C46FFF7CFFF1CB92846FFF762
:1057C000E1FF38BD6420013C07F0F7FBA4B2F4E729
:1057D00008B539280CBF50210A21FFF7E9FF08BDA1
:1057E00001207047704708B5FFF7FCFF08BD0000B7
:1057F00013B502AB03E903000F4B1B78B3B99DF857
:105800000230009873B16AB100F0CAFC0446014648
:10581000009800F089FC2046009902B0BDE81040D5
:1058200001F04ABB00F09EFC0446F4E7009800F04B
:10583000B7FC0099F1E700BF59120020034610B4ED
:1058400000885C880A4640EA0440998810BCFFF74B
:10585000CFBF0120704710B504460021FFF7EEFFCF
:105860002146FFF7C0FF10BD10B501248440E4B20B
:10587000204601F0E2F82046BDE8104000F0B5BB3C
:10588000704708B500F04CFBFFF7FAFFBDE8084091
:1058900046F2A81007F091BB08B5FFF7F2FFBDE88C
:1058A000084006F057BC08B5FFF7EBFFBDE808401D
:1058B00006F078BC38B501210546FFF7BFFF294641
:1058C000044605F09FFA08B9002038BD2946204655
:1058D000FEF782F90028F7D02946204606F092F814
:1058E0000028F1D02946204605F022FC0028EBD004
:1058F0002946204606F004F80028E5D0294620462F
:1059000005F02EF90028DFD02946204606F0C8F819
:105910000028D9D0AB785BB147F603439C421DD039
:105920000AD8B4F5F84F16D047F601439C4217D079
:105930002846FFF755FFC8E747F65B439C4215D062
:1059400047F65C439C420ED047F65A439C42EFD147
:1059500001F04EF8ECE7FFF79FFFB5E701F04FF8D5
:10596000FFF7A1FFB0E701F037F8E1E701F043F8F6
:10597000DEE708B500F02EF8002004F029FFBDE8AE
:105980000840FEF719B903091CBF18460423820812
:105990001EBF10460233DBB242081CBF0133DBB22C
:1059A00018467047704701207047704738B5054664
:1059B000FFF7F9FF044610B12846FFF7F6FF20462F
:1059C00038BD704710B50446FFF7ECFF2046FFF7DF
:1059D000EDFF10BD08B506F0CBF9FFF7F3FF08BDEA
:1059E00010B506F0C5F9074B04461A78824207D075
:1059F000187006F051FB044B18602046FFF7E2FFD9
:105A000010BD00BF581200205412002010B586B0FF
:105A10006C4684E803009DF802300BB100F01EFFD5
:105A20000023ADF8163094E80300ADF8141089B2E5
:105A30000490ADF80C0004AC29B994E8030000F020
:105A400045FE06B010BD4FF6FF73BDF80C209A421C
:105A5000F3D02046FFF7FDFE0028EED1F1E70088E5
:105A600000F0C0BB08B529B102F014F8BDE8084049
:105A700002F0E4B802F06CF8F8E738B505460C46D9
:105A8000FCF7C2FF1CB92846FDF720F838BD64209A
:105A9000013C07F092FAA4B2F4E708B539280CBF2C
:105AA00050210A21FFF7E9FF08BD00002DE9F0476A
:105AB000877981460C46857800F09AFE3F0980463A
:105AC00000B3A846F5B1C4F3072303F0F002402A5F
:105AD00009D004F12002D2B2072A25D91FB903F058
