:020000040800F2
:1000000000040020B9010008BB010008BB01000882
:10001000BB010008BB010008BB010008BB010008D0
:10002000BB010008BB010008BB01000805D60008A1
:10003000BB010008BB010008BB01000855E800082F
:10004000BB010008BB010008BB010008BB010008A0
:10005000BB010008BB01000881360008C13600085A
:10006000013700084537000889370008BB01000840
:10007000BB010008BB01000825EF0008BB01000818
:10008000CD370008BB010008BB010008BB01000818
:10009000BB010008BB010008BB010008BB01000850
:1000A000BB010008BB01000811EB000825EB0008AC
:1000B000BB010008BB010008BB010008BB01000830
:1000C00075E800086D380008BB01000821390008F8
:1000D000BB010008BB010008BB010008BB01000810
:1000E00072B6264880F30888254880F30988254899
:1000F00025490860022080F31488BFF36F8F0CF04D
:10010000ADFF0CF087FD4FF0553020491B4A91425E
:100110003CBF41F8040BFAE71D49194A91423CBF24
:1001200041F8040BFAE71B491B4A1C4B9A423EBF9D
:1001300051F8040B42F8040BF8E700201849194A5B
:1001400091423CBF41F8040BFAE70CF08BFF0CF036
:1001500086FF154C154DAC4203DA54F8041B884752
:10016000F9E707F073FB124C124DAC4203DA54F876
:10017000041B8847F9E70CF073BF0000000400205F
:10018000000C00200000000808ED00E00000002046
:1001900000040020C01D0108000C002034100020C5
:1001A000381000200C3A0020E0000008E0000008B1
:1001B000E0000008E000000892E700F000F8FEE729
:1001C0002DE9F04FC1F80CD0C3689D46BDE8F08F13
:1001D000002383F311882846A04700200DF046F93C
:1001E000FEE70DF079F800DFFEE7000053B94AB9E9
:1001F000002908BF00281CBF4FF0FF314FF0FF302F
:1002000000F074B9ADF1080C6DE904CE00F006F809
:10021000DDF804E0DDE9022304B070472DE9F04782
:100220008C460446089E002B40F086808A42154684
:1002300048D9B2FA82F24AB1C2F1200701FA02F3B8
:1002400020FA07F7954047EA030C94404FEA154E11
:10025000BCFBFEF71FFA85F80EFB17C307FB08F976
:10026000210C41EA0343994509D9EB1807F1FF3105
:1002700080F0E180994540F2DE80023F2B44A3EB01
:100280000903B3FBFEF00EFB103300FB08F1A4B230
:1002900044EA0344A14209D92C1900F1FF3380F04C
:1002A000C880A14240F2C58002382C4440EA074091
:1002B0000027641A1EB10023D440C6E90043394622
:1002C000BDE8F087002A54D0B2FA82F2002A40F04A
:1002D000B4800127491B4FEA15481FFA85F9B1FB85
:1002E000F8FE08FB1E1109FB0EF04FEA144C4CEA15
:1002F0000143984207D9EB180EF1FF3102D2984220
:1003000000F2EB808E461B1AB3FBF8F008FB1033AB
:1003100009FB00F9A4B244EA0344A14507D92C190A
:1003200000F1FF3302D2A14500F2DB801846A4EBB6
:10033000090440EA0E40BDE78B4208D9002E75D073
:100340000027C6E9000138463946BDE8F087B3FA10
:1003500083F77FB98B4202D3824200F2BC80841AB9
:1003600061EB030301209C46002EA8D0C6E9004C97
:10037000A5E7FFDEC7F12005BB4022FA05FC4CEAE9
:10038000030C21FA05F44FEA1C4EB4FBFEF91FFAE8
:100390008CF80EFB194420FA05F3B94009FB08FA62
:1003A00019430B0C43EA0444A24502FA07F200FA8F
:1003B00007F30BD91CEB040409F1FF3080F08980AE
:1003C000A24540F28680A9F102096444A4EB0A0424
:1003D000B4FBFEF00EFB104400FB08FA89B241EAC0
:1003E0000444A24508D91CEB040400F1FF316CD28F
:1003F000A2456AD90238644440EA0940A0FB028958
:10040000A4EB0A044C454146CE4655D352D0002EAB
:100410006AD05A1A64EB0E0404FA05F522FA07F3BF
:10042000FC401D43C6E90054002748E737463046E4
:1004300045E718463AE70F4621E79540C2F1200309
:1004400021FA03F04FEA1548B0FBF8F71FFA85F9D7
:1004500008FB170E24FA03FC914007FB09FA4CEA4B
:100460000101080C40EA0E40824504FA02F407D963
:10047000281807F1FF332AD2824528D9023F2844A1
:10048000A0EB0A00B0FBF8FC08FB1C000CFB09F316
:1004900089B241EA00418B4208D969180CF1FF305A
:1004A00011D28B420FD9ACF1020C2944C91A4CEA83
:1004B000074714E74345AAD2B8EB020169EB0C02E7
:1004C00001389646A3E78446F0E7084694E71F46BE
:1004D000D6E781467AE7384646E7AEF1020E2B446E
:1004E00011E702382C4422E73746E8E6704700BFA0
:1004F00008B5062000F0C2FA01200DF0F3FF00BF9E
:10050000024B0146186800F055B900BF000C0020EE
:10051000024B0146186800F0F9B800BF000C00203B
:10052000032A70B412D940EA0105AD0704460B4610
:1005300020D11946204653F8045B54F8046BAE42B0
:1005400018D1043A032A20461946F2D8541E72B133
:1005500003780A789A4208BF241806D00CE010F8F5
:10056000013F11F8012F934206D1A042F7D100209C
:1005700070BC7047541EEBE7981A70BC704700BF00
:10058000844641EA000313F0030349D1403A23D3E0
:100590000B6803604B6843608B688360CB68C36003
:1005A0000B6903614B6943618B698361CB69C361EB
:1005B0000B6A03624B6A43628B6A8362CB6AC362D3
:1005C0000B6B03634B6B43638B6B8363CB6BC363BB
:1005D00040304031403ADBD230320BD30B680360FD
:1005E0004B6843608B688360CB68C3601030103108
:1005F000103AF3D20C3205D351F8043B40F8043BD7
:10060000043AF9D2043208D0D2071CBF11F8013BDA
:1006100000F8013B01D30B8803806046704700BFA0
:10062000082A13D38B07B1D010F00303AED0C3F167
:100630000403D21ADB071CBF11F8013B00F8013B91
:10064000A4D331F8023B20F8023B9FE7043AD9D308
:10065000013A11F8013B00F8013BF9D20B78037025
:100660004B7843708B78837060467047F0B4860790
:1006700046D0541E002A3CD0CAB2034602E014F110
:10068000FF3436D303F8012B9D07F8D1032C29D969
:10069000CDB245EA05250F2C45EA054533D9A4F12D
:1006A0001006360903F1200707EB061703F11002C5
:1006B00042E9045542E902551032BA42F8D1721C9F
:1006C00014F00C0F03EB021204F00F0613D0331FCB
:1006D00023F003030433134442F8045B9342FBD139
:1006E00006F003042CB1C9B21C4403F8011B9C4260
:1006F000FBD1F0BC704734461346002CF3D1F8E729
:1007000014460346C2E71A462646E0E700293AD0D7
:1007100038B551F8043C0C1F002BB8BFE41805464F
:1007200000F05AFA224B1A682AB1A2420DD9216868
:100730006018824221D0626028461C60BDE83840C3
:1007400000F04CBAA34203D81A465368002BF9D1E3
:1007500011685018A04217D022D82168601883422F
:1007600003BFD3E900030918C4E9001363605460B0
:100770002846BDE8384000F031BAD2E90002014411
:10078000C4E90012D8E7704720680144501883423A
:100790001160EDD1D3E900030144C2E90013E7E79A
:1007A0000C2328462B60BDE8384000F017BA00BF84
:1007B00038100020F8B5CD1C25F0030508350C2DA8
:1007C00038BF0C25002D064633DBA94231D82A4F0D
:1007D00000F002FA3A6852B113685B1B04D43FE0A0
:1007E00023685B1B29D522465468002CF8D1796810
:1007F00000293BD0294630460DF058FE431C28D036
:10080000C41C24F00304A04205D0211A30460DF088
:100810004DFE01301DD02560304600F0DFF904F1B7
:100820000B0020F00700231DC21A01D01B1AA35091
:10083000F8BD0C2200203260F8BD0B2B05D8A24277
:10084000636811D05360E7E7144623601C442560B9
:10085000E2E70C233046336000F0C0F90020F8BD19
:100860000B2BF1D8144653683B60D5E730460DF0AA
:100870001DFE7860BEE700BF3810002038B5124B6F
:1008800005461C68A06B18B10023C0E9045338BDAD
:100890001820FFF735FEA06378B101220023C0E9DC
:1008A00004230A4B0B24836000230949094A8481ED
:1008B000C0E90012C0E9045338BD0246064B42218C
:1008C000064800F041F900BF000C0020ECDE0500F6
:1008D0000E33CDAB34126DE6F01C0108081D010883
:1008E00038B51A4B1C68A26B92B114691849536948
:1008F00001FB04F1174800FB0313A4FB0045611C36
:100900001D4445F1000323F00040C2E9041338BD43
:100910001820FFF7F5FD0246A06388B101240025E9
:100920000B21C0E904450C4B0948136003460B4DED
:100930000B4C91810B49C2E90154C2E9041338BD43
:10094000094B4E21094800F0FFF800BF000C0020C1
:100950002DF451582D7F954C0E33CDAB34126DE6EE
:10096000ECDE05002E7F954CF01C0108081D0108E7
:1009700010B580210446FFF71DFF606440B10022DE
:10098000031F7C3043F8042F8342FBD1002010BDAD
:100990004FF0FF3010BD00BF436C0BB1002070471B
:1009A000E6E700BF1F2970B5054608D8436C164618
:1009B0000C464BB153F8240043F8246070BD162256
:1009C0004FF0FF302A6070BDFFF7D2FF08B96B6CA3
:1009D000F0E74FF0FF3070BD1F2938B5054620D82D
:1009E000426C0C466AB152F8213053B1012B16D03B
:1009F000591C10D00025204642F82450984728461C
:100A000038BD284600F070F8224601462846BDE869
:100A1000384000F055B8162301202B6038BD002067
:100A200038BD16234FF0FF302B6038BD1F2921D869
:100A300038B5436C05460C4683B153F8242003EBCC
:100A400084034AB1511C10D0012A0CD00025204645
:100A50001D609047284638BD012038BDFFF788FF4C
:100A600028B96B6CE9E7032038BD022038BD4FF090
:100A7000FF3038BD4FF0FF30704700BF024B0146DA
:100A80001868FFF7A9BF00BF000C0020024B0A4600
:100A900001461868FFF786BF000C0020034B18685A
:100AA000436C0BB10020704762E700BF000C0020D0
:100AB000024B01461868FFF7B9BF00BF000C0020C9
:100AC00070B50D460023074C0646114628462360A4
:100AD0000DF010FD431C00D070BD2368002BFBD02F
:100AE000336070BD083A00200DF00CBD20F003010A
:100AF00010F00300C0F1000051F8043B00F1040CB9
:100B00004FEACC0C6FF000021CBF22FA0CF2134328
:100B10004FF0010C4CEA0C2C4CEA0C4CA3EB0C02F1
:100B200022EA030212EACC1204BF51F8043B04305B
:100B3000F4D0C2F1000102EA0102B2FA82F2C2F17B
:100B40001F0200EBD200704700B50A4C0546206832
:100B500085B01C46C06852B1074BCDE90132009107
:100B60002B462246054900F023F8FFF7C1FC044B51
:100B70001A46F2E7000C00203C1D01084C1D01083C
:100B8000481D010808B513460022FFF7DDFF00BF2E
:100B90000CB410B582B004AC54F8042B2346019475
:100BA00000F060F802B0BDE8104002B0704700BF2E
:100BB0000EB430B582B005AC54F8042B054D014697
:100BC00023462868019400F04DF802B0BDE830409B
:100BD00003B07047000C0020704700BF704700BF93
:100BE0009368013B002B93600FDA10B49469A34221
:100BF00008DB0A2906D01368581C106019700846D3
:100C000010BC704710BC00F07BBB1368581C106010
:100C100019700846704700BF9BB1F8B513440F46E2
:100C200006465D1E541E01E0AC4208D03A4614F858
:100C3000011F3046FFF7D4FF431CF5D1F8BD00205B
:100C4000F8BD0020704700BF936810B5144613B973
:100C50005360184610BD00F013FE0023C4E90133B1
:100C600010BD00BF2DE9F04F9FB08B4690461C464B
:100C7000039018B18369002B00F0B980A34B9B450A
:100C800000F0BB80A24B9B4500F0C980A14B9B4567
:100C900004BF039BD3F80CB0BBF80C30180740F12D
:100CA000B480DBF81030002B00F0AF80302300213F
:100CB00020228DF8323098F8003005940B918DF891
:100CC0003120954E0127002B00F08980252B00F064
:100CD0001781454603E0252B00F0A58025466B785B
:100CE0006C1C002BF7D1B4EB080A78D0424653466F
:100CF00059460398FFF790FF013070D00B9B6A783C
:100D000053440B93002A6AD000234FF0FF32013482
:100D10000693CDE908338DF85B301C93079206E00B
:100D20002C46069B801B07FA00F0184306902546C8
:100D3000052215F8011B304600F0E6FFAA46002800
:100D4000EED1069BD90644BF20228DF85B201A07FE
:100D500048BF2B22217848BF8DF85B202A2967D114
:100D6000059A1168043200290592C0F29E8009910B
:100D70006178A51C2E2974D0684C0322204600F00F
:100D8000C3FF002800F087804022069B001B02FA68
:100D900000F00343069305F101082B78062219465B
:100DA0005F488DF8303000F0AFFF002800F08380FE
:100DB0005C4B002B72D005AB00935A465A4B06A9E8
:100DC0000398AFF300808146B9F1FF3F07D00B9B3A
:100DD0004B440B9398F80030002B7FF477AFBBF8AF
:100DE0000C305B0618D40B981FB0BDE8F08F00F0F4
:100DF00027FD464B9B457FF445AF039BD3F804B0DA
:100E0000BBF80C3018073FF54CAF5946039800F07B
:100E1000D7FA00283FF44AAF4FF0FF30E4E7039BD6
:100E2000D3F808B038E7B4EB080A3FF46DAF5DE7DC
:100E3000A1F13002092A88BFA2469BD8099B01E094
:100E40002C460135297803EB830302EB4303A1F120
:100E50003002092AAA46F3D92E2904F10205099382
:100E60008AD19AF801102A292FD1059B0AF1020094
:100E70001A680433002A079205939AF802100AF1BF
:100E8000030538DB254C82460322204600F03CFF58
:100E900000287FF479AFA84655467EE7059B0733C7
:100EA00023F007030833059391E7494243F0020317
:100EB000099106935CE705AB00935A461A4B06A9C5
:100EC000039800F0D3F881467EE70023A1F13002B9
:100ED000092A079301D915E05546697803EB830386
:100EE00002EB4303A1F13002092A05F1010AF3D90B
:100EF0000235079340E74FF0FF33824607933BE705
:100F0000444601E7AA46013536E700BFD804010888
:100F1000B8040108980401087C1D0108841D01081B
:100F2000881D010800000000190C000810B4044CD2
:100F300013460A460146206810BCFFF793BE00BF67
:100F4000000C00202DE9F0470C460969A568914680
:100F50008D42B8BF0D46156094F8431006461F46F3
:100F6000DDF8208011B16A1CC9F8002023689906B9
:100F70005CD5D9F800200232C9F80020236813F0AC
:100F8000060F19461DD1E1688A1A002AD8BF1946F2
:100F900017DD002504F1190A05E0E368D9F80020FF
:100FA0009B1AAB420CDD0123524639463046C047FE
:100FB000013005F10105F0D14FF0FF30BDE8F087B9
:100FC000216894F84330003318BF01238A060AD5FC
:100FD0003021E21882F8431094F845105A1C22443C
:100FE00082F84310023304F1430239463046C047C9
:100FF0000130E1D02368A26803F00603042B2169C5
:101000001DD08A4226DD4FF00009521A9144002576
:101010001A3401E04D451DDA012322463946304697
:10102000C047013005F10105F4D1C5E713F0060F03
:1010300013D094F84330003318BF0123D3E7D9F815
:101040000000E3688A42A3EB000323EAE379DCDCD7
:10105000002BDCDC0020BDE8F087E168D9F8002037
:101060008A1A002AD8BF194693DCAAE72DE9F04373
:101070000C46097E85B06E2906461746984604F14F
:10108000430C0C986DD039D9732900F0F48044D901
:10109000752900F00281782940F00F8178232268B9
:1010A000DFF854E284F845300168150651F8043B36
:1010B000016040F1A180D10744BF42F020022260CC
:1010C000002B00F093801022002184F84310606808
:1010D0000028A060C0F2C680216821F004012160D0
:1010E000002B40F0A280002840F0BE806546082A10
:1010F00000F0AB80ACEB0503236141E0632900F015
:10110000E3801AD8002938D0582940F0D68084F8D6
:1011100045102268DFF8E4E1C6E76F2900F0BD80E2
:10112000702940F0CA8078232268DFF8CCE142F0D1
:101130002002226084F84530B6E7642902D069298C
:1011400040F0BB8022680368110603F1040557D5FF
:10115000196805600B46002959DB0A22DFF89CE17B
:10116000B5E7036822681D1D6169056015061B68E7
:1011700002D4500600F1BB8019600023654623614C
:10118000CDF800803B4603AA21463046FFF7DAFE41
:10119000013020D02A46236939463046C047013005
:1011A00019D0226803989207E36819D51A1A002A01
:1011B00016DD002504F1190904E0E36803981A1A02
:1011C000AA420DDD01234A4639463046C047013068
:1011D00005F10105F1D14FF0FF3005B0BDE8F08316
:1011E0009842B8BF184605B0BDE8F08321681022C8
:1011F00021F02001216067E7500648BF9BB25AE703
:101200005106A5D5B3F9003005601946A3E72D2096
:1012100061685B42002984F84300A16002DB22F090
:10122000040222600A22DFF8D4E0654600E00B46A3
:10123000B3FBF2F102FB11301EF80000934205F8F7
:10124000010DF4D2082A7FF455AF2368DB077FF540
:1012500051AF626823699A423FF74CAF3023013D9A
:101260002B7047E7002BE0D19EF8003004F14205D7
:1012700084F842303BE703686268191D01601D680D
:101280000021284600F040FD002832D0401B60605D
:101290002061002384F8433072E72268036812F06B
:1012A000800F03F104051AD01B6805606F290CBF7D
:1012B00008220A22DFF844E006E7012384F84210FE
:1012C000236104F14205E4E70122036804F14205C9
:1012D000191D1B68016084F842302261D9E712F0C1
:1012E000400F0DBF1B6805601B880560DEE7198095
:1012F00043E76068CCE700BFA41D0108901D01080A
:10130000F8B50D461446064608B1836943B3254B2C
:101310009C422AD0244B9C4229D0244B9C4208BF9B
:10132000F468A269A389A2601A0722D5236903B3CE
:1013300022686169D31AEDB299422F4629DD013343
:10134000A168501C0139A1602060157062699A4241
:1013500016D0A389DB0701D50A2D11D03846F8BD78
:1013600000F06EFA0F4B9C42D4D17468D9E7B46890
:10137000D7E72146304600F023F838B92369D7E78C
:101380002146304600F032F90028E7D04FF0FF3711
:10139000E4E72146304600F029F90028F6D1012380
:1013A0002268CDE7D8040108B804010898040108B0
:1013B000024B0A4601461868FFF7A2BF000C002046
:1013C0003B4B70B51D6806460C460DB1AB69DBB1F1
:1013D000384B9C421ED0384B9C424AD0374B9C42E3
:1013E00008BFEC68B4F90C2093B2190718D520692E
:1013F00008B313F001022CD000226369A2605B42A3
:10140000A36160B3002070BD284600F019FA294B93
:101410009C42E0D16C68B4F90C2093B21907E6D471
:10142000DD063CD5580726D4206942F00803A38185
:101430009BB20028DDD103F42072B2F5007FD8D032
:101440003046214600F016FCA389206913F0010202
:10145000D2D1990758BF6269A2600028D2D1B4F9ED
:101460000C301A06CFD543F04003A3814FF0FF3074
:1014700070BDAC68B6E7616B51B104F144039942A9
:1014800004D03046FFF742F9B4F90C20002363631F
:101490000023206922F02402C4E90003C5E70923E0
:1014A00042F0400233604FF0FF30A28170BD00BFB8
:1014B000000C0020D8040108B804010898040108B1
:1014C0002DE9F0418F890C463A07804641D44B689C
:1014D000002B59DDE66A002E53D0002317F480520A
:1014E000D8F80050216AC8F8003051D10123404695
:1014F000B047431C5FD0A789E66A216A7F0705D5FC
:101500006268636B801A0BB1236CC01A0246002319
:101510004046B047461C45D1D8F80030B4F90C20FD
:10152000002B55D01D2B01D0162B5AD10022236938
:10153000C4E90032616BC8F8005011B304F14403F0
:10154000994202D04046FFF7E1F800206063BDE811
:10155000F0810E69AEB10D680E60B90714BF0023AB
:101560006369AD1BA3600AE02B463246A76A216A75
:101570004046B8470028A5EB000506440ADD002DCB
:10158000F2DC0020BDE8F0810B6C002BA2DCF8E758
:10159000606DB3E7A3894FF0FF3043F04003A381B0
:1015A000BDE8F081002322696360A3892260DA0428
:1015B000C0D56065BEE7D8F80030002B9BD01D2B4E
:1015C0000CD0162B0AD0A38943F04003A381D9E79E
:1015D0002169C4E90013D304ACD5EAE7C8F8005088
:1015E000CFE742F04002A281CCE700BF0B6923B3F2
:1015F00010B5044682B008B18369BBB1104B994263
:1016000012D0104B994216D00F4B994208BFE16897
:10161000B1F90C302BB1204602B0BDE81040FFF705
:101620004FBF002002B010BD6168F1E7019100F0EA
:1016300007F90199E2E7A168EAE70020704700BFD7
:10164000D8040108B80401089804010820B1054B2A
:1016500001461868FFF7CABF034B0449186800F039
:10166000B3BA00BF000C002094040108ED15000877
:1016700000207047014900F0A7BA00BFED1500082F
:101680000020704770B568254A1E05FB02F50E461E
:1016900005F17401FFF78EF8044640B100210C30CB
:1016A000666005F168022160A060FEF7DFFF20465A
:1016B00070BD00BF1E4B70B51D680646AB6943B3D5
:1016C0004835D5E90134013B05D51EE0013B5A1CE4
:1016D00004F1680419D0B4F90C20002AF6D10025D1
:1016E000144B6566C4E90055A560C4E90455A561BD
:1016F0002946E360082204F15C00FEF7B7FFC4E965
:101700000D55C4E91255204670BD2C682CB12546F4
:10171000D7E7284600F010F8D2E704213046FFF75B
:10172000B1FF044628600028F1D10C233360EAE7BA
:10173000940401080100FFFF2DE9F84F0023334A0C
:10174000C0E9123312680365904208BF0123304993
:1017500008BF836181620546FFF7ACFF68602846D9
:10176000FFF7A8FFA86028460024FFF7A3FF042383
:101770006E68E8602146F3607466C6E90044B460B0
:10178000C6E90444B46106F15C000822FEF76EFF6E
:10179000DFF888B0AF68DFF888A0DFF88890DFF85E
:1017A00088801C4BC6E9086BC6E90AA9C6F83080D8
:1017B0002146FB6008227C66C7E90044BC60C7E99B
:1017C0000444BC6107F15C00FEF750FFEE68124B69
:1017D000C7E9087BC7E90AA9C7F830802146F3604A
:1017E0007466C6E90044B460C6E90444B46106F115
:1017F0005C000822FEF73AFF0123C6E9086BC6E940
:101800000AA9C6F83080AB61BDE8F88F94040108DE
:10181000751600080900010012000200AD1E000844
:10182000D51E0008151F0008351F0008024B03498C
:10183000186800F0C9B900BF94040108ED1500084C
:10184000836903B978E77047704700BF704700BFEE
:10185000704700BF704700BF024B0349186800F093
:101860008FB900BF000C002071160008024B03491D
:10187000186800F085B900BF000C00208116000830
:101880009368002B00F0FC802DE9F04FB1F90C308B
:101890000C469BB2190783B0824690462BD522692D
:1018A0004AB313F00202D8F8006033D000273D4657
:1018B000D4F828B0216ADFF8C492C5B14D452B4653
:1018C0003A4628BF4B465046D847002840F3CE80C2
:1018D000D8F8083007441B1A2D1AC8F80830002B16
:1018E00000F0B380D4F828B0216A002DE6D1D6E903
:1018F00000750836E1E721465046FFF761FD0028F4
:1019000040F03781B4F90C30D8F800609BB213F086
:101910000202CBD113F0010940F0B4804D46A76814
:101920002068002D55D09A0540F1C080AF42BB46DB
:1019300000F2EE8013F4906F2FD0D4E9041707EB78
:101940004707A0EB010B07EBD777681C7F105844C3
:10195000B8423A4684BF07463A465B0540F1F080FC
:1019600011465046FEF726FF002800F0FC805A463C
:1019700021690190FEF704FEA289019B22F4906286
:1019800042F08002A281A7EB0B0203EB0B00676120
:10199000AB462F4623612060A2605A46494600F0BC
:1019A000F9F92368A2685B44AB460025D71BA76002
:1019B0002360D8F80870D944A7EB0B07C8F8087063
:1019C000002F42D0B4F90C30A7689BB22068002DDC
:1019D000A9D1D6E900950836A3E70BF1080353F81F
:1019E000047C9B4653F8086C0833002FF7D03A4626
:1019F0000A21304600F088F9002854D00130A0EBCD
:101A000006094B4620682169BB4228BF3B468842F5
:101A1000626903D9A5681544AB421ADC9A4200F307
:101A200081801346A56A3246216A5046A847051EA2
:101A30001CDDB9EB05096ED00120D8F808302E4422
:101A40005B1B7F1BC8F8083013BB002003B0BDE848
:101A5000F08F31462A4600F09DF9236821462B4439
:101A600023605046FFF7C2FD0028E2D0B4F90C30E5
:101A70004FF0FF3043F04003A38103B0BDE8F08F87
:101A80000020704733469146104617464E469B4607
:101A9000002FA2D00028B4D13A460A21304600F0E7
:101AA00033F90028AAD17B1C9946ABE7236983420E
:101AB00017D36269AA4214D82F4BA76A9D4294BFDC
:101AC0002B466FF0004393FBF2F3216A02FB03F312
:101AD00050464A46B847B0F1000BC7DDA5EB0B05F1
:101AE00067E7AF4228BF2F4649463A4600F052F911
:101AF000A3682268DB1B3A44BB46A3602260002B2C
:101B0000ECD121465046FFF771FD0028E6D0ADE745
:101B10002F46AB4641E721465046FFF767FD0028B8
:101B20008BD0A3E71A4631461D46019300F032F9E7
:101B3000A1682268019BC91A1344A160236078E759
:101B4000504600F08DF9034600287FF41CAF216950
:101B50005046FEF7DBFD0C22B4F90C30CAF8002029
:101B600023F0800384E70C22B4F90C30CAF800207B
:101B70007EE74FF0FF3069E7FEFFFF7F00FCFF7F4D
:101B80002DE9F04110F148071AD088460026D7E920
:101B90000154013D0ED4A389013D012B06D9B4F9AE
:101BA0000E30013302D02046C04706436B1C04F1BF
:101BB0006804F0D13F68002FE9D13046BDE8F081DC
:101BC0003E463046BDE8F0812DE9F84310F1480665
:101BD0001ED0884607464FF00009D6E90154013D62
:101BE00010D4A389013D012B08D9B4F90E3001337B
:101BF00004D021463846C04749EA00096B1C04F16D
:101C00006804EED13668002EE7D14846BDE8F88377
:101C1000B1464846BDE8F88370B50C46B1F90E10E0
:101C200096B0002916461D4613DB6A460CF04BFCA5
:101C300000280EDB019A4FF4806302F47042A2F593
:101C40000052B2FA82F2002052092A60336016B0C4
:101C500070BD0022A3892A601B0604D54023002002
:101C6000336016B070BD4FF480630020336016B04F
:101C700070BD00BF8A890B46920706D5012103F18A
:101C8000470259611A601A61704770B582B001ABA2
:101C90006A460C460646FFF7BFFF009905463046E8
:101CA000FEF788FDB4F90C3070B1164A0099B262A3
:101CB000019A43F08003A3812060C4E904018AB93A
:101CC0002B43A38102B070BD9A05FBD4012123F000
:101CD000030304F1470243F00203A3816161226020
:101CE0002261EFE73046B4F90E100CF0F8FB10B9A2
:101CF000B4F90C30E4E7A38923F0030343F00103B4
:101D00001BB2DDE775160008830770B4CDB23DD075
:101D1000541E0AB30378AB421FD0431C05E014F1F4
:101D2000FF3419D30278AA4217D013F0030F1846D4
:101D300003F10103F3D1032C11D84CB30378AB4268
:101D40000BD00444431C02E00278AA4205D09C4216
:101D5000184603F10103F7D1002070BC704702461A
:101D60000E02B6B22E4346EA06461368104673408A
:101D7000A3F1013121EA030313F0803F02F10402D1
:101D8000DCD1043C032C1046EFD8D6E71446D2E74A
:101D90002046E2E78842F0B40DD98B1883420AD975
:101DA000841832B1224613F8014D994202F8014DD0
:101DB000F9D1F0BC70470F2A0ED80346541E002AF2
:101DC000F7D001340C44013B11F8012BA14203F878
:101DD000012FF9D1F0BC704740EA01039B073AD1CB
:101DE000A2F110073F0901F1200606EB071601F1E9
:101DF000100300F1100453F8105C103344F8105C29
:101E000053F81C5C103444F81C5C53F8185C44F81C
:101E1000185C53F8145CB34244F8145CEBD17B1C9F
:101E20001B0112F00C0F194402F00F05034415D0EA
:101E30000E46043DAD0803EB850C1C1F56F8047BD1
:101E400044F8047F6445F9D10135AD002B442944A1
:101E500002F00302B2E7541E0346B2E72A46ADE79A
:101E600009B3F8B51446CAB106460D4600F066F847
:101E7000A04202D32F463846F8BD21463046FEF731
:101E800099FC07460028F6D022462946FEF778FB43
:101E900030462946FEF73AFC3846F8BD2746FEF79D
:101EA00035FC3846F8BD1146FEF784BC10B50C462B
:101EB000B1F90E100CF0EFFA002803DB636D034458
:101EC000636510BDA38923F48053A38110BD00BFB7
:101ED000002070472DE9F041B1F90C409846E30528
:101EE0000D461746B1F90E10064609D424F4805465
:101EF000AC8143463A463046BDE8F0410CF0D2BAD8
:101F0000022300220CF0CCFAB5F90C40B5F90E1002
:101F1000ECE700BF10B50C46B1F90E100CF0C0FA9A
:101F2000A389421C0EBF23F4805343F480536065A1
:101F3000A38110BDB1F90E100CF0B6BA51F8043CF3
:101F4000181F002BBCBF0B58C01870470E4A002347
:101F5000114610B5147C84420FD11C225343CA1879
:101F6000906848B1CB58FF2818BF43434FF0010099
:101F700018BF5B000133536010BD0133042B02F125
:101F80001C02E7D10020F7E7240E0020F0B50A4D2F
:101F900000242E462F7C874207D11C2000FB0464BE
:101FA000012021766276A376F0BD0134042C05F180
:101FB0001C05EFD10020F7E7240E0020094A30B5B8
:101FC00000231446157C854205D11C22012002FB0A
:101FD0000343996030BD0133042B02F11C02F1D19F
:101FE0000020F7E7240E0020094A30B500231446EC
:101FF000157C854205D11C22012002FB0343596058
:1020000030BD0133042B02F11C02F1D10020F7E7AF
:10201000240E002070B50B4C00232546267C8642FA
:1020200009D11C204343E818E95000238260C360B3
:102030004374012070BD0133042B04F11C04EDD165
:102040000020F7E7240E002070B500252E462B4C0B
:102050006368002B4FD0E06808BB637CB3FA83F35E
:102060005B0963740AF076FAD4E900239342E060D6
:102070002BD266606674E66063690BB1207C98477A
:10208000207CFF2824D100221146104608F082F857
:102090000135042D04F11C04DAD1012070BD0AF0D1
:1020A0009FFA23689842D8D26368002BE4D0204678
:1020B00003F000F80028EBD0637C207CB3B1FF284C
:1020C0000CD1A27E617E207EE0E79B1A6360EBE785
:1020D0000C28DDD800231A46194604E00C28D7D86E
:1020E000A37E627E217E07F0D9F9D1E7FF28CAD00E
:1020F0000C28CDD8EFE76374E360C9E7240E002015
:1021000007B543788DF8003083788DF80130C378B7
:102110008DF8023043798DF80330037968468DF8E5
:1021200004300EF01FF803B05DF804FB08B5074B50
:102130005A78032A07D858680AF052FAC72894BF79
:102140000020012008BD0020FCE700BFA40C0020F7
:10215000704708B5002280214FF080400CF043FB0F
:10216000FFF7F6FF00BF00BF00BF00BF00BF00BF0A
:1021700000BF00BF00BF00BF00BF00BF00BF00BF67
:1021800000BF00BF00BF00BF08BD08B501F008FCDC
:1021900008BD000008B5054C20780DF0DFFA207866
:1021A000FFF7F3FF05200BF066F9F5E7E8360020AE
:1021B00010B5084C236803F07142074B13432360AA
:1021C0000AF0C8F9054B18602068BDE8104004F01B
:1021D00084BE00BFE83600200001010E441000203C
:1021E00010B5064C0122204602210CF0FCFA022315
:1021F000A361BDE8104001F07BBC00BF00040040BB
:1022000001207047144B10B51C78BCB9134B1B78D8
:10221000042B13D104F04EFD04F062FD04F014FD14
:1022200004F08EFD05F04AFF05F064FF20460AF039
:102230002BF82046BDE810400AF042B80DF096FF9A
:1022400048B10DF081FA0028FBD1BDE810404CF2F6
:1022500050300BF010B910BDE8360020B439002022
:1022600038B500230D460B70074C30B10AF072F9F7
:10227000002320602B70002038BD20680AF0B0F9E0
:102280003228F3D8F7E700BF541000200B4B10B5ED
:102290009A78012A0CD0022A0ED0094C226812B971
:1022A000084802F0A1FB2068B0FA80F0400902E083
:1022B00058780128F1D110BD0120FCE7A40C0020C2
:1022C000B81100209905010808B5054B9B78013B22
:1022D000012B02D9FFF7DAFF08BD0120FCE700BFA0
:1022E000A40C002008B50AF035F9014B986008BD30
:1022F000A40C00202DE9F0410C46154607460028A5
:1023000037D0B1FA81F35B099BB1554E554A33780A
:10231000002C32D00221012B91610AD030460CF002
:1023200041FA30460BF006FE4F48504B836009F0EF
:1023300077FFA74201D0FFF765FF4D4E3378A342E8
:1023400000D11DB100224B4B9A619A83347024B1A5
:10235000631E042B747098BFB470306804F0BDFD28
:102360003378062B76D8DFE803F0731936404A54E9
:102370005E000B1C18BF0123C6E74FF40031042B8D
:102380009161D6D03C4BDFF8E0801C703B4B30466F
:10239000C8F808300AF09AFB4046C8E7312075B10A
:1023A0000DF05CFE52200DF059FE01200DF062FE92
:1023B0004EF26D4143F22D400DF0B6FE51200DF06E
:1023C0004DFEFFF78FFF2A462146384601F0C4FF35
:1023D0000120BDE8F0813220002DF0D00DF03EFE4E
:1023E00052200DF03BFE0220E0E73320002DE6D026
:1023F0000DF034FE52200DF031FE0320D6E73420DC
:10240000002DDCD00DF02AFE52200DF027FE042016
:10241000CCE73520002DD2D00DF020FE52200DF05B
:102420001DFE0520C2E73020002DC8D00DF016FE9D
:1024300013480DF045FE13480DF05CFE4EF26D4161
:1024400043F22D400DF070FE52200DF007FEB5E76F
:102450001120B4E711200DF001FEFFF7A9FEB0E74F
:10246000B4390020000400401410002001210008AD
:10247000E8360020640C00203427002091CB0008AF
:10248000990601089C060108002313B50DF1070108
:102490008DF80730FFF7E4FE044690B19DF8073051
:1024A000013B032B0DD8DFE803F002060F120022D8
:1024B0001146094B02E00022074B99781878FFF784
:1024C00019FF204602B010BD00220621F1E7024BA1
:1024D00000225978F2E700BFE836002013B5154C0A
:1024E00015480AF0C8FF02F04CFA20460DF0BEF87D
:1024F0000123A37704F0EEFC104C206008B9FFF72D
:1025000057FEE37843F00103E3700AF023F80C4B25
:10251000FF22186000234FF4A871009309480A4B6A
:102520000AF076FFFFF715FE0120FFF7ADFF02B0BE
:1025300010BD00BF640C0020E0930400E8360020CA
:1025400044100020581000209521000838B51C4C7C
:10255000054623782070637009F0FCFF032D60604E
:1025600010D10120FFF790FF38B9164B1A78FAB155
:10257000597802460846FFF7BDFEFFF7B3FE532029
:102580000DF06CFD104802F02FFA104D63781048E2
:1025900055F8231002F028FA23780E4855F8231036
:1025A00002F022FA61680C48BDE8384002F01CBA1B
:1025B0000A4909780129E0D111465878DBE700BFC4
:1025C000A40C0020E836002039060108D40C0020B5
:1025D000500601086406010874060108B439002099
:1025E000014B1878704700BFA40C002010B5074CB1
:1025F000A070074802F0F8F9A278064B064853F895
:102600002210BDE8104002F0EFB900BFA40C00207A
:1026100005060108C80C00201C060108014B98782B
:10262000704700BFA40C0020014BD870704700BF5A
:10263000A40C00200122024B02481A7002F0D4B907
:10264000501000208706010808B570B1094A1378B8
:10265000013B012B04D8937813B90320FFF776FFD1
:102660000548BDE8084002F0BFB9FFF7E3FF0348A3
:10267000F7E700BFA40C0020B3050108C30501085B
:10268000F8B51F4C1F4EE278B168C2F3420219B987
:10269000FFF728FE0020F8BD1B4B53F8227023786B
:1026A0002BB91A4B1B78042B01D1FFF71BFE184DD9
:1026B0002B78BBB13A462978164802F095F90023E9
:1026C0002B704FF080431B69E278DB0963F3000253
:1026D0002378E27073B102F005F80028DAD101F036
:1026E00083F9D8E7002FD5D0B06809F079FFB84258
:1026F000E0D2CFE7054B1B78042BECD1C8E700BF35
:10270000E8360020A40C002034050108B43900206C
:1027100050100020650501080D4B10B55A78194678
:10272000012A03D0022A0BD0002008E09C78012C5B
:1027300006D101F0CFF9074802F056F9204610BD46
:10274000486809F04DFFC728EED9FFF79FFDF6E76F
:10275000A40C00205405010808B5074BDB780BB129
:10276000022B04D10220FFF7F1FE002008BD032058
:10277000FFF7ECFE0120F9E7A40C002008B50A4B96
:10278000DB78033B012B0AD80320FFF7DFFE002094
:10279000FFF72CFF002001F037F9012008BD0220CF
:1027A000FFF7D4FE0020F9E7A40C002008B50B4B7E
:1027B000DB78032B0CD3042B0AD80320FFF7C6FECB
:1027C0000020FFF713FF002001F03EF9012008BDB3
:1027D0000220FFF7BBFE0020F9E700BFA40C002099
:1027E00070B5A54CA54D2068B8B109F0F9FEB0F55B
:1027F000FA6F12D30026552026600DF02FFC5720CB
:102800000DF02CFC70200DF029FC28783246014692
:10281000B0FA80F04009FFF76DFD2B7823B1984B9B
:1028200093F82020974B1A702368DBB9964E3068D6
:1028300009F0D6FE40F6B733984213D92B788BB106
:102840000CF082FF70B98E4CA37F5BB109F082FE61
:10285000306053200DF002FC94F8213013B9702041
:102860000DF0FCFB4FF080431B69EA78DB09874CD5
:1028700063F300020020EA70FFF706FE2378032BC3
:1028800023D8DFE813F004002D005700D500E368DB
:102890003BB1984728B10120FFF758FE0020FFF711
:1028A000A5FE23693BB1984728B10120FFF74EFEF2
:1028B0000220FFF79BFE63693BB1984728B10120D6
:1028C000FFF744FE0120FFF791FE0DF0C1FA704BB7
:1028D0001B78002B00F0CE80BDE8704003F01EBADC
:1028E000A369002BF1D098470028EED002F014FC29
:1028F000684B187008F012FA2A78674B1A70002299
:102900005F4B9A772A68654B13407BB9644C2378F8
:10291000012B0BD00222634B20469A610BF042FF41
:1029200020460BF007FB604802F05EF80220FFF73C
:102930000DFECAE7E369002BC7D098470028C4D032
:1029400000225A4B5A481A704FF400124FF080433D
:102950009A6102F049F8574E6378574856F82310A9
:1029600002F042F82378554856F8231002F03CF85C
:102970006168534802F038F8524BA278524853F835
:10298000221002F031F8A378002B36D0022B0BD89E
:102990006378022B08D0FFF735FC11200DF05EFBA9
:1029A0000CF0D2FE0028FBD101F010F80023E370F8
:1029B000394B2A781B789A420BD12A68374B13403F
:1029C000B3F1807F05D0414802F00EF8A07800F006
:1029D000D9FC3F4802F008F83E4BE2783E4853F8F5
:1029E000221002F001F8A378012B1ED0ABB1022B0C
:1029F00018D03A4801F0F8FF67E7214B5B7E002BC7
:102A0000D2D111200DF02AFB0CF09EFE0028FBD144
:102A100047F230500AF02FFDC6E7FFF79DFE002871
:102A2000E7D152E7FFF7AAFEF9E7FFF7BFFEF6E7A7
:102A3000236A002B3FF449AF984700283FF445AF85
:102A400001220F4B26489A7701F0CEFF114B1B78DD
:102A50002BB14FF0804320229A6108F04DF90024F9
:102A600000F030FB114B1C7000F0A4FFFFF73AFCA4
:102A700020465CE770BD00BF44100020E83600200F
:102A8000640C0020342700204C100020A40C0020EF
:102A9000491000204010002048100020FF000001D5
:102AA000B439002000040040A506010850100020A1
:102AB000C5060108D40C0020500601086406010870
:102AC00074060108C80C0020D4060108E9060108B4
:102AD000F6060108E40C00200107010813070108AD
:102AE000270701080120704708B5FFF7FBFF08BD65
:102AF00037B504460D46FFF7F5FB29462046FFF79C
:102B0000F3FF60B1074B1A784AB1074B20461B7898
:102B1000D9090091C3F30013A9780DF0BDF903B0F2
:102B200030BD00BFE8360020F636002000B50B4B64
:102B30008FB093F821300A4A322101A805F075F9C7
:102B400001A808F0BDFE0CF0FBFD08F0B9FE054839
:102B500008F0B6FE0FB05DF804FB00BF640C002067
:102B6000D4050108E30501082B4B13B51A78044678
:102B70004AB12A4B01211B78DB09009300230DF099
:102B80008BF902B010BD0028FBD0031FDBB2A02BD5
:102B900012D8234B0146186809F0CCFB20B120461F
:102BA00004F04AF804F0CCF8204604F03DF802B0F6
:102BB000BDE8104004F0C4B800F12003DBB2072BDD
:102BC00007D800F007040120A040C0B204F062F86A
:102BD000EDE700F15B03DBB2022B06D8114AD05CB3
:102BE00002B0BDE8104009F04FBB00F15803DBB262
:102BF0001A2B07D80C4A32F8130002B0BDE8104077
:102C000009F05EBB3334E4B2122CBAD8012102B011
:102C1000BDE8104003F068B9E8360020F636002021
:102C2000B80E0020F8040108FC040108244B13B579
:102C30001A7804464AB1234B1B78DB090093002322
:102C400019460DF029F902B010BD0028FBD0031F72
:102C5000DBB2A02B06D803F0EFFF02B0BDE81040B6
:102C600004F06EB800F12003DBB2072B07D800F0A8
:102C700007040120A040C0B204F014F8EDE700F111
:102C80005B03DBB2022B05D8104602B0BDE8104052
:102C900009F0FABA00F15803DBB21A2B05D8104636
:102CA00002B0BDE8104009F00BBB3334E4B2122C83
:102CB000C9D8114602B0BDE8104003F015B900BFF5
:102CC000E8360020F63600202DE9F3410546C0B174
:102CD000114E3278C2B10127DFF84080284603F058
:102CE00094F8044698F80030E030DB09009332781D
:102CF0000023012180B207FA04F40DF0CDF8A543BA
:102D0000ECD102B0BDE8F08103F0C4FF02B0BDE831
:102D1000F04104F015B800BFE8360020F636002078
:102D20002DE9F3410546C0B1114E3278C2B10127F9
:102D3000DFF84080284603F068F898F80030044631
:102D4000DB0900930023E0303278194680B207FA9D
:102D500004F40DF0A1F8A543ECD102B0BDE8F08178
:102D600003F0A0FF02B0BDE8F04103F0E9BF00BFEF
:102D7000E8360020F63600202DE9F3410546C0B1C3
:102D8000114E3278C2B10127DFF84080284603F0A7
:102D90003CF8044698F80030E030DB0900933278C4
:102DA0000023012180B207FA04F40DF075F8A54361
:102DB000ECD102B0BDE8F08103F082FF02B0BDE8C3
:102DC000F04103F0BDBF00BFE8360020F63600201A
:102DD0002DE9F3410546C0B1114E3278C2B1012749
:102DE000DFF84080284603F010F898F800300446D9
:102DF000DB0900930023E0303278194680B207FAED
:102E000004F40DF049F8A543ECD102B0BDE8F0811F
:102E100003F05EFF02B0BDE8F04103F091BF00BFD8
:102E2000E8360020F63600202DE9F04104460E4633
:102E300001F056FBE8B92378013B142B4ED8DFE8AC
:102E400003F00B1B486268727575757ACA80848AB4
:102E5000939C9FA2ABB4BD00002363700C23A370AE
:102E6000614B31461B782046002B40F0B98009F0B9
:102E7000A5FE0120BDE8F0816378013B032B2DD82E
:102E8000DFE803F0020C0F2109F064FB030EA370CE
:102E9000030CE370030A23716071E1E708F0E1F9C4
:102EA000F4E72546A77804F11C08052FD8D8F8B216
:102EB00004F09AFB030AEB7028710235454507F1CF
:102EC0000107F2D1CCE70023A370E3702371637193
:102ED000C6E76378022B04D0052B10D0FF232370A4
:102EE000BEE7E378A07840EA0320237940EA034074
:102EF000637940EA036000BA08F0B6F9B0E7A07859
:102F000008F0DCF9ACE7E278A178607808F0D1FD50
:102F1000C0E722796379A17843EA02236078E278F6
:102F200008F0DDFD9CE708F02AFE99E731462046CF
:102F300008F03FFA94E7002008F076F908F09FF9CE
:102F40008EE708F0A6FE60708AE708F0A4FE030A88
:102F50006370A07084E76078A378221DE17843EA6B
:102F6000002008F09BFE7BE76078A378221DE178C3
:102F700043EA002008F0ACFE72E708F0BCFE6FE701
:102F800008F08CFDDFE76078A378221DE17843EA42
:102F9000002008F03EFE63E76078A378221DE17808
:102FA00043EA002008F04CFE5AE7E278A1780032AC
:102FB00018BF0122607808F0A7FD6BE7E27821795D
:102FC0006379003243EA012318BF0122A1786078B7
:102FD00008F0B9FD44E70123044A637013703FE72A
:102FE0000DF01CF945E700BFE8360020491000202D
:102FF00010B54378044613B1FF23237011E08378A2
:10300000013B032BF8D8DFE803F0021A28410378CC
:10301000072B07D0082BEFD1294BDB78C3F34203F2
:10302000C37010BDC1780729FBD8BDE81040244B00
:10303000DA7861F34302DA70186803F04EBF037860
:10304000072B05D0082BD7D101F05CFBE070E8E737
:10305000C078BDE8104001F025BC0378072B0AD0EA
:10306000082BC9D142790179C07801F04DFBA071DC
:10307000000AE071D5E7C2798379017943EA022336
:10308000BDE810404279C07801F054BB0378072BAB
:103090000BD0082BB0D12379C078A21D617943EA07
:1030A0000020BDE8104001F05ABB2379C078A21D72
:1030B000617943EA0020BDE8104001F06BBB00BF1E
:1030C000E836002008B509F045FA054B1860054BB5
:1030D0001B7823B9BDE80840034801F085BC08BD52
:1030E000A8110020E83600201C090108044B0549FE
:1030F0001870054B002808BF1946044801F074BC3D
:10310000AC1100203D0901084209010848090108E5
:10311000194B10B51C78DCB9184B1B78052B08D05F
:10312000022B06D009F016FA154B1860154B1C70CF
:1031300010BD4FF080431B691B0606D4FFF7C2FF8A
:10314000BDE81040104801F04FBC0D4B186818B98D
:10315000BDE81040FFF7B6BF09F042FA41F6573319
:103160009842E5D9FFF7AEFF0120FFF7BFFFBDE8AA
:103170001040FFF75FBA00BFE8360020B4390020E6
:10318000A8110020AC1100204F0801081F4B2DE9A9
:10319000F0411E7880461EB101252846BDE8F08129
:1031A0001B4C2378052BF7D11A4D1B4B29781B4A52
:1031B0001B48002908BF1A46B4F84C1001F014FC53
:1031C000B4F84C102F468B0701D52D785DB9B8F1B6
:1031D000FF0FE1D8134801F007FC3978124801F0DD
:1031E00003FC0025D9E7FFF7FBF90328D4D83046C4
:1031F000FFF77CFFFFF766FF20460AF047FF2046F7
:1032000001F0B6F9094801F0EFFBC6E7E836002007
:10321000B4390020AC110020420901083D09010821
:103220006D080108C1080108E20801080209010847
:10323000704700001A4B70B59C6C0F2644F4C064B4
:103240009C649B6C012301F003048B4021F003017B
:1032500001F1804101F5A0518D68A400C0F38320E5
:10326000A04006FA04F425EA040528438860D84300
:103270000C4912F0010F8C6814BF1C4304408C6091
:1032800012F0020FCA6814BF1A430240CA60054A0E
:10329000536111680B43136053680340536070BD62
:1032A000000C0140001800400F281FD8DFE800F094
:1032B000080C0F121518181818181B1B1B1B1B1BAA
:1032C000062108460BF021B906210720FAE706215E
:1032D0000820F7E706210920F4E706210A20F1E794
:1032E00006211020EEE706212120EBE770470120A0
:1032F0007047000010B5FFF7FAFF002836D00C2207
:10330000032418211A4B12209C62DA62194AC2F86F
:10331000901000229A62DA62174A0121136C43F47A
:10332000807313644FF47062144B5A645A6C02F445
:1033300070625A640CF012F9062123200BF0E5F8B4
:10334000012207214FF08040FFF774FF0720FFF7AD
:10335000ABFFFFF763F948B9224609480621FFF79A
:1033600069FFBDE810400620FFF79EBF10BD00BFFB
:103370000000014000040140000C0140004C0140ED
:10338000000400402DE9F0473023054683F31188FF
:10339000FFF7B0FF00264FF00108994FDFF86C925D
:1033A00057F8040B95B1012D4CD148454AD120F076
:1033B0000F0A00F00F0008FA00F4214605225046DB
:1033C00024040BF010FACAF8184001E0441CEED1B6
:1033D0000136102EE4D1062401278A4E56F8040B3C
:1033E000002D3BD0012D40F0FD80B0F1804F40F02A
:1033F000F98000F00F01202207FA01F120F00F0000
:103400000BF0F1F900BF00BF00BF00BF00BF00BF5D
:1034100000BF00BF00BF00BF00BF00BF00BF00BFB4
:1034200000BF00BF00BF00BF56F8040C022200F02E
:103430000F08414620F00F00FFF7FCFE4046FFF763
:1034400033FF0DE0411CC3D000F00F01202208FA29
:1034500001F120F00F000BF0C6F9B9E7421CC8D10A
:10346000013CBBD1684B4FF40061DA6C674822F035
:103470000802DA642246DB6C0BF0B5F900BF00BF2E
:1034800000BF00BF00BF00BF00BF00BF00BF00BF44
:1034900000BF00BF00BF00BF00BF00BF00BF00BF34
:1034A00003220B215948FFF7C5FE0B20FFF7FCFE56
:1034B00084F3118872B601202646554A136823F01A
:1034C00001031360534B544A5A610022B30003F1C5
:1034D000604303F56143D3F80011D4B2012C94BFCB
:1034E000002101F0010109B1C3F880010132202A55
:1034F000F1D10136082EE8D1484C494D636843F0BC
:10350000007363602B6803F009032B602B6843F49E
:103510006C3343F004032B6040F2B3332B62414B16
:1035200043F001039847236943F00403236130BF4C
:103530003D4B002743F0010398472369344A23F0A9
:10354000040323611368304C43F001031360E36903
:1035500043F08003E361A36C43F40073A36409F0B8
:1035600059FB0323AB620C23304AEB62D2F8903054
:1035700023F01803C2F89030AF62EF62236C43F47B
:1035800080732364236C43F0020323640123636389
:10359000E367E3666661636943F00403636163693B
:1035A00043F00103636104F053F840F282324FF4B8
:1035B000006116480BF017F9E36C43F00803E3646D
:1035C000E36CA36C43F48053A364A36CE36C43F0FB
:1035D0001003E364E36CFFF72BFE87F3118862B6F8
:1035E000BDE8F087431C3FF43BAF00F00F014022E1
:1035F00007FA01F120F00F000BF0F5F830E700BFFB
:10360000700901080C0A0108000C01400008004084
:1036100010E000E000180040FFFF070000ED00E0B0
:1036200000000140E4090108B0090108000401405C
:10363000012070470120704701238B40034210B5E1
:103640000C4613D00B2918D8DFE801F01517061720
:1036500017171711171717130420FEF7E5FF204659
:10366000FFF7E6FF10B12046FFF7E4FF10BD03208F
:10367000F3E70220F1E70520EFE70120EDE7000086
:1036800008B50D4B5A69D20707D51A68002122F0F8
:1036900001021A600120FFF7CFFF4022074BC3F859
:1036A0008020BFF34F8FBFF36F8F0122024B5A610F
:1036B000BDE8084009F0D4BF0018004000E100E078
:1036C00008B50D4B586910F0020006D01A680121A8
:1036D00022F002021A60FFF7AFFF8022074BC3F807
:1036E0008020BFF34F8FBFF36F8F0222024B5A61CE
:1036F000BDE8084009F0B4BF0018004000E100E058
:1037000008B50E4B586910F0040006D01A68022163
:1037100022F004021A60FFF78FFF4FF48072084B0B
:10372000C3F88020BFF34F8FBFF36F8F0422034B8A
:103730005A61BDE8084009F093BF00BF001800407F
:1037400000E100E008B50E4B586910F0080006D003
:103750001A68032122F008021A60FFF76DFF4FF488
:103760000072084BC3F88020BFF34F8FBFF36F8FF9
:103770000822034B5A61BDE8084009F071BF00BF41
:103780000018004000E100E008B50E4B586910F049
:10379000100006D01A68042122F010021A60FFF708
:1037A0004BFF4FF48062084BC3F88020BFF34F8F6C
:1037B000BFF36F8F1022034B5A61BDE8084009F038
:1037C0004FBF00BF0018004000E100E038B5254BB6
:1037D0005C69A20604F4787507D51A68052122F001
:1037E00020021A602846FFF727FF600608D51D4A09
:1037F00006211368284623F040031360FFF71CFFDF
:10380000210608D5174A07211368284623F08003AC
:103810001360FFF711FFE20508D5124A082113686B
:10382000284623F480731360FFF706FFA30508D52D
:103830000C4A09211368284623F400731360FFF72C
:10384000FBFE4FF48032084BC3F88020BFF34F8F4C
:10385000BFF36F8F4FF47872024B5A61BDE8384066
:1038600009F0FEBE0018004000E100E038B52A4B28
:103870005C69620504F47C4507D51A680A2122F4C4
:1038800080621A602846FFF7D7FE230508D5224A32
:103890000B211368284623F400631360FFF7CCFE66
:1038A000E00408D51C4A0C211368284623F48053F1
:1038B0001360FFF7C1FEA10408D5174A0D21136854
:1038C000284623F400531360FFF7B6FE620408D5C0
:1038D000114A0E211368284623F480431360FFF732
:1038E000ABFE230408D50C4A0F211368284623F4A5
:1038F00000431360FFF7A0FE0222084BC3F88420A8
:10390000BFF34F8FBFF36F8F4FF47C42024B5A616E
:10391000BDE8384009F0A4BE0018004000E100E016
:1039200008B50E4B586910F4802006D01A68122191
:1039300022F480221A60FFF77FFE0822084BC3F8AA
:103940008420BFF34F8FBFF36F8F4FF48022034B60
:103950005A61BDE8084009F083BE00BF001800406E
:1039600000E100E010B5074C23784BB901F0DEFB15
:1039700002F069FA08F05AFC02F066FA012323709B
:10398000012010BDAE11002010B5044C23781BB1EE
:1039900001F09CFC00232370012010BDAE1100201B
:1039A000024B1B780BB10CF023BB7047B111002008
:1039B0000120704708B5044B1B780BB9FFF7D2FF05
:1039C00001F0DCFB08BD00BFAE11002008B5044BC0
:1039D0001B780BB1FFF7D8FFFFF7EAFF08BD00BF68
:1039E000AE1100200120704708B5FFF7FBFF08BDAE
:1039F000014B1878704700BFAF110020014B1870C1
:103A0000704700BFAF110020014B1870704700BF16
:103A1000AF110020014B1878704700BFB011002093
:103A2000084B10B50446187058B9FEF7D9FD0228A6
:103A300007D80320FEF78AFD2046BDE81040FEF7B8
:103A4000D5BD10BDB0110020FFF7EABF024B1878BA
:103A500080F00100FFF7E4BFB01100200020FFF765
:103A6000DFBFFFF7F3BF0000024B187880F00100C2
:103A7000704700BFB0110020084B1A78084B1B7824
:103A80004BB982F00102A0F5A443203B1F2B8CBF51
:103A90001046012070470022F5E700BFB01100205A
:103AA000AF11002000231946074A937213609375E3
:103AB000D360064A01330B2B917242F80C1BF9D1EB
:103AC000034800F091BF00BF940E0020040D0020B9
:103AD000240A010808B503F02DFEFFF7E3FF0022DA
:103AE000014B1A6008BD00BFB811002001207047CB
:103AF00008B5FFF737FFFEF7F1FC01F03DFB48B1D9
:103B0000012220214FF080400AF06DFE4FF08043EB
:103B100020229A6108BD000000230D4A10B51370E1
:103B20000C4A4FF0804413700B4A136007F00EF9F3
:103B300001280AD007F002F94FF40013A36101F045
:103B4000C7FFBDE8104003F06ABA2023F6E700BFC4
:103B5000AD110020B2110020B411002008B503F00F
:103B600023FA05F06BFC03F0AEF9084B188060F007
:103B70007F001870188803F0A9F901F02BFB18B129
:103B8000BDE80840FFF7C8BF08BD00BFF6360020FB
:103B900037B504460D4601F023FF002800F0BD8034
:103BA000002D00F0BA8047F604639C4200F0858047
:103BB00029D847F601639C425BD00AD847F60343F5
:103BC0009C4200F0A780B4F5FC4F3CD0284603B0DF
:103BD00030BD47F602639C425DD047F603639C42CA
:103BE000F4D100230DF1070101208DF80730FEF715
:103BF00037FB9DF80730042B02D013F0FD0FE5D101
:103C00000122042130E047F612639C427BD00BD89E
:103C100047F605639C4263D047F611639C42D5D1B9
:103C20000020FFF7FDFED1E747F613639C426ED0FC
:103C300047F643639C42C9D10122394B1A700022D6
:103C4000384B1A60C2E700230DF1070101208DF8FF
:103C50000730FEF705FB9DF80730042B02D013F068
:103C6000FD0FB3D1012211462F4B1878FEF742FB0E
:103C7000ACE700230DF1070101208DF80730FEF7B6
:103C8000EFFA9DF80730042B02D013F0FD0F9DD101
:103C900001220221E8E700230DF1070101208DF840
:103CA0000730FEF7DDFA9DF80730042B02D013F041
:103CB000FD0F8BD101220321D6E700230DF107016F
:103CC00001208DF80730FEF7CBFA9DF80730042B62
:103CD00003D013F0FD0F7FF479AF01220521C3E774
:103CE00000230DF1070101208DF80730FEF7B8FA27
:103CF0009DF80730DA1E012A02D9002B7FF466AF47
:103D000001220621B0E70122084B1A705EE7FFF797
:103D10009DFE5BE7FFF722FF58E7054656E700BF29
:103D2000B2110020B4110020E8360020B0110020AC
:103D300070B5FEF755FD002501261B4C206858B1D3
:103D4000A37A4BB908F04CFC6368984204D3A6727E
:103D500001212089FFF71CFF0C3415B30026134CFA
:103D6000206858B1A37A4BB908F03AFC63689842CE
:103D700004D3A57201212089FFF70AFF01360B2E1B
:103D800004F10C04ECD10A4B1A783AB100221A70F3
:103D90000BF0DAFC0028FBD1FFF7E0FE01F0F0F9B0
:103DA00070BD0125CAE700BF940E0020040D00205D
:103DB000C411002008B5064B1B780BB9FFF7D2FDE4
:103DC0004FF0804320229A61BDE8084008F08CBB88
:103DD000AE1100202DE9F0430D46B94BAA7885B00D
:103DE000044619681AB3032900D801311960B54F88
:103DF0002B786A780094B44800F0F6FDFEF772FA6A
:103E00003889844217D0B88A84420CD14FF0010916
:103E100095F802800C26B8F1000F0FD008F09AFB3D
:103E200006FB09F6B851A94B0027984638E000294F
:103E3000DCD00139DAE74FF00009E9E706FB09F6C3
:103E400007EB060999F80A300BB9BB51EBE741467D
:103E5000FFF79EFE89F80A8047F806800028E2D125
:103E60009B4800F0C1FD0026304605B0BDE8F08358
:103E70007E4308EB0607BB7A13B948F806301DE00D
:103E800049462046FFF784FE87F80A9048F80690D6
:103E90000028E5D012E001370B2F03F10C030DD001
:103EA0001A899442F7D195F802900C26B9F1000FC7
:103EB000DED008F04FFB7E4348F806002946204636
:103EC000FFF7DAFD064618B9824800F08DFDCBE712
:103ED0002946204601F0ACFA90B147F604639C42B3
:103EE00000F0B6802DD8B4F5FC4F61D00AD847F663
:103EF00020039C4200F0138147F603439C4230D1DB
:103F00007548AEE747F602639C42AB7800F08580C7
:103F10006AD9002BF4D0714C2278042AF0D0002307
:103F20000DF10F0101208DF80F30FEF799F99DF882
:103F30000F30042B02D013F0FD0FE1D10022042139
:103F40004EE047F640639C421DD014D847F6066306
:103F50009C4200F0CB80C0F0978047F607639C42FC
:103F600023D02946204600F0BDFC0646002840F03C
:103F7000E5805B48A9E747F642639C420FD008D32F
:103F800047F64363BAE7AB78002BB9D0FEF7CEFD16
:103F9000B6E7AA78534B02B101221A70B0E7AB78AA
:103FA000002BADD0FEF746FBAAE7AA784E4BF4E70C
:103FB000AB78002BA4D0494C2278012AA0D0002352
:103FC0000DF10F0101208DF80F30FEF749F99DF832
:103FD0000F30042B02D013F0FD0F91D100220121EC
:103FE0002078FEF787F98BE7002B89D03B4C2278AD
:103FF000022A85D000230DF10F0101208DF80F302A
:10400000FEF72EF99DF80F30042B03D013F0FD0FAF
:104010007FF476AF00220221E2E7002B3FF470AF7D
:104020002E4C2278032A3FF46BAF00230DF10F01D1
:1040300001208DF80F30FEF713F99DF80F30042B97
:1040400003D013F0FD0F7FF45BAF00220321C7E71D
:10405000AB78002B3FF454AF204C2278052A3FF474
:104060004FAF00230DF10F0101208DF80F30FEF747
:10407000F7F89DF80F30042B03D013F0FD0F7FF4F9
:104080003FAF00220521ABE7AB78002B3FF438AF00
:10409000124C2278062A3FF433AF00230DF10F01B2
:1040A00001208DF80F30FEF7DBF89DF80F30DA1E97
:1040B000012A02D9002B7FF423AF002206218FE7CB
:1040C000B8110020940E0020530A0108040D0020AE
:1040D000890A0108AF0A0108D40A0108E83600205D
:1040E000F80A0108B1110020AD110020AB78002BB7
:1040F0003FF406AF184C2278002A3FF401AF0023AA
:104100000DF10F0101208DF80F30FEF7A9F89DF891
:104110000F30012B3FF6F4AE0022114660E7AB787A
:10412000002B3FF41EAF06F011FE4FF0804318B194
:104130004FF400129A6114E72022FBE7294620463B
:10414000FFF724F8064608B90448BEE6294620468B
:10415000FEF7CEFC064687E6E83600201B0B01087A
:10416000014B1878704700BFBC1100200120704738
:104170002DE9F04105460C465E4E5F4F214628462C
:10418000FFF7F4FF50B1062C08D8DFE804F004096B
:1041900063A0A0ADAD000022564B1A60BDE8F081CF
:1041A00032686ABB85B9554B1B78062B0CD8DFE803
:1041B00003F02404171A1E1E21009F23002211461B
:1041C0000020FDF7E3FE01224FF4FA712846FDF7C7
:1041D00021FF2846FDF7BAFE08F0BCF93060DDE7A4
:1041E00000239F22EBE79F2300221946E8E70023E4
:1041F000FF22FAE700239F22F7E79F231A46F4E7FE
:10420000104608F0EDF947F22F53984203D90524E0
:104210003B4B1C70B2E7394B1B7853EA050814D1AD
:10422000384B1B78042B0BD10323354C40462370AD
:104230009F231A461946FDF7A9FE454624789DE7B7
:104240004046BDE8F041FDF781BE7A7E002A3BD0B2
:104250000324DDE7306848BB002D9FD1274B1B7836
:10426000013B052B9AD8DFE803F003101519191D3F
:1042700000229F2311461046FDF788FE0122C82127
:104280000020FDF7C7FE0020A4E79F22002311466F
:104290001846F1E79F2300221946ECE70023FF218F
:1042A0001A46F5E700239F221946F1E708F098F92E
:1042B00047F22F53984201D90624A9E77B7E0BB120
:1042C0000424A5E70D4B1B7853B12846B9E7FF221C
:1042D0004FF4FA612846FDF79DFE2846FDF736FEAD
:1042E0000022074B1A7059E70022054B1A70FEF79F
:1042F000A1F9EAE7C0110020640C0020E836002094
:10430000BC110020B4390020014B1978FFF730BFF1
:10431000BC1100200120704770B50D4600210646F3
:104320000846FDF761FE10B90024204670BD2946FD
:104330003046FFF7EFFF04460028F5D00022044B7B
:1043400029461D70034B30461A60FFF711FFECE75A
:10435000BC110020C011002070B50E461546FDF7B7
:104360004FFF044650B126B1074B5B7E53B9062E72
:1043700004D82DB102210020FFF7CEFF204670BDEA
:104380000121F8E71C46F9E7640C0020094B1B7873
:104390007BB9094B1A7832B1084A527E4AB959782A
:1043A0001046FDF7A7BF064B1B78042B01D0114622
:1043B000F6E77047BC110020E8360020640C0020AE
:1043C000B4390020704700002DE9FF473F4E0746F3
:1043D0008846FFF7F7FFFFF7D9FF3478002C32D07B
:1043E0003B4D2B6813B908F0B5F82860286808F031
:1043F000F7F841F28733984205D9337801333370A7
:1044000008F0A8F828603378013B032B17D8DFE8C1
:1044100003F0020C101400225020114605F0BAFEE1
:104420000024204604B0BDE8F08700225021104649
:10443000F4E7002150220846F0E75022F6E7002476
:1044400034702C60EDE7234B1B788BB9414638461E
:10445000FFF74CFB0028E3D04146384600F0D2FE7F
:1044600004460028DCD041463846FDF7EDFDD8E78C
:1044700022462146204605F08DFEDFF85CA0DFF8DD
:104480005C9001AE0A2551462A463046FCF778F882
:1044900099F81F30E2B2B3FBF5F59542A05D11D952
:1044A000312B03D900235022194605E01D2B4FF074
:1044B0000003F8D81A465021013404F0EFFF0A2C0B
:1044C000E0D1C3E700231A46EEE700BFB211002097
:1044D000B4110020AD11002078030108640C002005
:1044E00070B505460E46FDF7FDFEFEF779F810B1F2
:1044F0000320FEF72BF82B780A2B0ED10124084B52
:1045000031461C70074B28461B781BB908F056FB38
:10451000204670BD0BF082FEFAE70020F9E700BFED
:10452000C4110020E8360020012810B5044616D03A
:10453000022809D1FEF754F8032805D00320FEF71E
:1045400005F80020FEF752F8064B074853F82410F0
:1045500000F04AFA2046BDE8104007F09FBF034B29
:104560001870F1E7880D0020380A010810100020AB
:10457000014808F080BF00BFA08601000D4BF0B5D8
:104580001B6883B1490001EB40100B4901220E4624
:104590001D5A31F8027BD4B2AF4205D104F00702B4
:1045A00036F812201A52F0BD0132092AF1D1002248
:1045B000F8E700BFC8110020BE0E01082DE9FF4139
:1045C00004460E4606F054FC4FF000082C4D2D4FCB
:1045D0006880E0B2864250D92B4B00210EE01CF8D7
:1045E00001EBBEF1FF0F01D086451CD00132102A2D
:1045F000F5D10131062903F110033CD09C4600227D
:10460000EDE7012B08D1012A06D16B88ADF80480B3
:104610008DF80630019819E06B88ADF800108DF820
:104620000230009812E03B682BB303EB411333F8E0
:10463000121033F8123049BADAB21B0AE1D1002A5B
:10464000EAD1ADF808208DF80A20029804F010FA9B
:10465000C0F307238DF80C00C0F307408DF80D3030
:104660008DF80E009DF80E309DF80D209DF80C1071
:10467000204604F013FF0134ABE704B0BDE8F0813D
:10468000980D0020C81100209C0D002041EA020373
:10469000184310B405D10146C022094810BCFBF7ED
:1046A000E5BF002410230648013B13F0FF0301700F
:1046B00042702044F8D12034C02CF3D110BC704794
:1046C000CC11002010B5064A0B461478012C05D1F8
:1046D00058780978FFF752FF204610BD0020FCE70C
:1046E000980D0020024B1878431E584258417047DD
:1046F000980D0020C023584302EB0112223000EB3A
:104700004200704704207047032838B510D80529A7
:104710000ED80F2A0CD8FFF7EDFF054603F0D0FDA9
:104720000446681C03F0CCFD44EA002080B238BD8A
:104730000020FCE7032870B51C460FD805290DD8CA
:104740000F2A0BD8FFF7D6FF0546E1B203F020FE93
:10475000210A681CBDE8704003F01ABE70BD2DE947
:10476000F843002405460F461646A14600F12208EC
:10477000BC4208EB040001D1BDE8F8832B19B3F566
:10478000407F04DA03F09CFD30550134F0E706F871
:104790000490FAE72DE9F04105460E4690460024C4
:1047A00000F12207B44207EB040001D1BDE8F0811B
:1047B0002B19B3F5407F03DA18F8041003F0E8FD75
:1047C0000134EFE7032806D8C02202FB00F10248BB
:1047D000223103F0C3BD7047CC110020032838B547
:1047E0000CD8084A00231478012C07D15578A84228
:1047F00006D11370FFF7E6FF204638BD0020FCE726
:104800001846FAE7980D0020032806D8C02202FBBC
:1048100000F10248223103F0E9BD7047CC110020BD
:10482000074B084A10B51A600023074C23706070CC
:1048300006F01EFB60806078BDE81040FFF7E4BF23
:10484000C8110020CC110020980D0020032808B5C5
:104850000CD8074A5070FFF7D7FF06F09FFA2D28B3
:1048600002D02D2006F097FA012000E0002008BDBC
:10487000980D0020032810B510D8094B197869B994
:10488000012458701C70FFF7BFFF06F087FA2D282F
:1048900002D02D2006F07FFA204600E0002010BD57
:1048A000980D0020032810B5044609D8FFF7ACFF87
:1048B0002046FFF793FF2046BDE81040FFF7C6BF34
:1048C00010BD000008B5054802F016FBBDE8084021
:1048D0004FF440722221024803F040BDA90B0108A9
:1048E0009A13010808B50B4B0A461B78012B0CD113
:1048F000A0F5A44020381F2809D9887820B1507825
:104900000978FFF73BFE002008BD0120FCE71846B0
:10491000FAE700BF980D0020F0B500F10B04234624
:104920000D46B1FBF2F102FB115707F13006392EAB
:10493000C8BF07F13706954203F8016DF0D2E41ABB
:10494000421E191913F8015B994202F8015FF9D16F
:104950002044F0BD1B23013B00D1704700BF00BFC6
:1049600000BF00BF00BF00BF00BF00BF00BF00BF4F
:1049700000BF00BF00BF00BF00BF00BF00BF00BF3F
:10498000E9E708B501224FF400514FF0804009F0EB
:104990002AFF4FF080434FF400529A6108BD38B5AA
:1049A000302383F311884FF080424FF0005494611C
:1049B000FFF7D0FF4FF40055002140FA01F3DB0769
:1049C0004CBF95619461FFF7C5FF01310829F4D10F
:1049D0004FF080434FF400529A61FFF7BBFF002372
:1049E00083F3118838BD00000FB42DE9F04F002685
:1049F00085B00EAC54F8043B00941D4615F8010B2D
:104A0000002839D0252803D0FFF7C9FF013615E16A
:104A10005A782D2A08BF9D1C2B780CBF4FF0010837
:104A20004FF000082B2B08BF01352F780CBF4FF03B
:104A3000010C4FF0000C302F08BF01352B7818BF48
:104A400020272A2B1ED154F804BB6B7802352E2B5D
:104A500046D12B7883B12A2B23D00022681CA3F1E6
:104A60003001C9B2092905461FD80A2303FB0212E7
:104A700010F8013B002BF2D1304605B0BDE8F04FF5
:104A800004B070474FF0000B15F8013B002BF3D03A
:104A9000A3F13002D2B2092AD9D80A2303FB0B2B87
:104AA000F2E754F8042B6B78023503F0DF014C2950
:104AB00018D12B78002BDFD0632B05F1010500F016
:104AC0008A8000F2CD804F2B00F0A28000F2BF80E0
:104AD000442B20D0492B1ED08DF80430A24680E014
:104AE0000022E2E7A3F14100C0B219288CBF4FF0C9
:104AF000000E4FF0010E632B6DD046D84F2B00F007
:104B000089803AD8442B01D0492BE5D1A2461928F7
:104B10005AF8041B02D8A2465AF8041B002964DA8A
:104B20002D2249428DF804200DF105000A22FFF7DD
:104B3000F3FE01ACA0EB0409ABEB090121EAE17B38
:104B4000B8F1000F7CD10029CBF1000813DD2078EB
:104B50002D2801D02B2807D1302F05D1013609F19E
:104B6000FF390134FFF71BFF3846FFF718FF18F134
:104B70000108F9D15E44CB4655E0552B3ED0582B69
:104B800001D0502BA8D1102239E0702BFBD005D8D2
:104B9000692BBBD06F2B3DD0642BB6E7752B2DD086
:104BA000782BF0D0732B97D1A246364B5AF8044B92
:104BB00047F6FF71002C08BF1C46002A08BF0A46B2
:104BC00021462244084611F8017B17B1571A002FDD
:104BD000F8DA2027AEE7A24620275AF8042B8DF8F2
:104BE000042001AC0DF10500A4E7BCF1000F03D0D7
:104BF0002B228DF8042097E701A897E70A22216865
:104C0000BEF1000F08D0A2465AF8041B01A88EE797
:104C10004FF0010E0822F2E704F1040AF6E714F857
:104C2000010BFFF7BCFEBBF1010BF8D5B9F1000F8A
:104C3000A8BF4E4444462CB9544646442B46DCE6B5
:104C4000D84698E73846FFF7AAFE013CF3E7552B14
:104C500015D0582B02D0502B7FF43EAF1022D2E754
:104C6000702BFBD006D8692B3FF455AF6F2BCFD0FC
:104C7000642B30E7752B02D0782B93D1EEE70A2214
:104C8000C1E700BFCE0E010870B505460078FF28C9
:104C900001D106F083F80E4A0024164612F8011BD3
:104CA000E3B2814206D00134102CF7D10948FFF756
:104CB0009BFE23462A78FF2A13BFFF22013303F00D
:104CC0000F032A70F05CBDE8704006F064B800BFC6
:104CD0007F0F01083C0F010838B50B780546FF2B04
:104CE0000C4602D106F05AF82070284638BD38B577
:104CF00040F2263440F2363520460021013403F0DC
:104D00000AFBAC42F8D138BD38B5002406F046F8AD
:104D1000094B13F8012BE5B2824206D00134102C66
:104D2000F7D10648FFF760FE254629460448FFF7FD
:104D30005BFE284638BD00BF7F0F0108D50E010875
:104D4000640F010810B50446FFF7DEFF2146BDE8F9
:104D5000104000F2263003F0DEBA000038B5FFF74D
:104D6000D3FF054600F2263003F0AAFA04460146B6
:104D70002A460548FFF738FE072C03D90348FFF7FA
:104D800033FE0024204638BD080F01081F0F01081C
:104D900070B506F003F80723134A12F8011B81428D
:104DA00008D0013B13F0FF03F7D11048FFF71CFEBA
:104DB000072500E00625FFF7D1FF0130B0FBF5F431
:104DC00005FB14040A4B13F8145003EB44035E78FC
:104DD00006F04EF831460246284606F022F8E0B2C8
:104DE000BDE87040FFF7AEBF8F0F0108F00E01085D
:104DF000710F010838B5FFF747FFFFF7AFFF044613
:104E000001460948FFF7F0FD084810F8145000EB80
:104E10004400447806F02CF8214602462846BDE8B6
:104E2000384005F0FEBF00BF5C0F0108710F01089C
:104E30002DE9FF411A4B1B780BB300221146104697
:104E400005F0A8F90024DFF86080164F01AE0A25AE
:104E500041462A463046FBF793FBFB7FE2B2B3FBA9
:104E6000F5F5954200D8AAB9312B305D0BD9002356
:104E700050221946013404F011FB0A2CE7D101201D
:104E800004B0BDE8F0811D2B4FF00003F0D81A46A6
:104E90005021EFE70023305D1A461946EAE700BFCC
:104EA0008C120020640C00208203010838B52A4BC4
:104EB0002A4DDB78044613F00103E97F284A1ED00F
:104EC000632914D90023274920460B600121117062
:104ED0001A461946FDF75AF8FF224FF496712046FC
:104EE000FDF798F82046BDE83840FDF72FB80023BD
:104EF0001C490B60012111701A46FF21EAE70F29B6
:104F0000E0D8127802B31A46FF21FDF73FF80122DC
:104F1000FA212046FDF77EF8EB7F002BE2D1114D00
:104F20002B6813B907F016FB286028680028D9D031
:104F300007F056FB4EF660239842D3D90023012098
:104F40002B60FEF75BFDCDE711461346FDF71EF81B
:104F5000FF224FF4FA71DCE7E8360020640C0020F1
:104F6000230E00209012002070B5284E044635789C
:104F7000042D22D8DFE805F003442639440007F069
:104F80005DF9234BC0F34006187800F03EFF02287D
:104F900018BF204B314618BF1D78204618BFC5F3F7
:104FA000001500232A46FCF7F1FFFF22322120469C
:104FB000FDF730F80022184B1A702046BDE870400B
:104FC000FCF7C4BF1023FF201A461946FCF7DEFF8A
:104FD0000322C821FF20FDF71DF8FF20FCF7B6FFD4
:104FE00001230D4A33701370E7E7FF231A46194671
:104FF000FCF7CCFF0122C8212046FDF70BF8DCE7C7
:1050000000233370FFF7B0FFD7E700BF94120020F2
:10501000A6120020F6360020F4360020FF2808B53E
:105020002ED1184BDB6E23F07F436E2B13D1002261
:105030001146FCF7ABFF10B91348FFF7D5FC01216F
:10504000FF20FCF7BBFFFF20FCF780FF0F48BDE807
:105050000840FFF7C9BCB3F5DC0F11D100236E2265
:105060001946FCF793FF10B90948FFF7BDFC012171
:10507000FF20FCF7A3FFFF20FCF768FF0548E6E7E9
:1050800008BD00BF240E00206A1301087A1301082E
:10509000821301089313010808B5054B002118700D
:1050A000FB20FCF7A1FFBDE80840FB20FFF75CBF39
:1050B0009412002008B5027C022A15D0FB2A24D0C5
:1050C000D2B9134B1B7803BB124A1278EAB9437C5E
:1050D0003BB1837E427E017E012004F0DFF9012096
:1050E00008BD1A461946F7E7094B1B786BB9094BFF
:1050F000187880F00100F3E7064B1B782BB9FFF717
:10510000F1FA80F00100C0B2EAE70020E8E700BF52
:10511000941200209E120020034B187810F0030018
:1051200018BF0120704700BF1037002010B50122C2
:105130004FF400714FF0804009F055FB4FF0804371
:105140004FF400720B4C9A6120460122042109F0B1
:105150004AFB0423A4F58064C4F8183401222046D5
:105160004FF4804109F03FFB4FF480430120A361DD
:1051700010BD00BF000C00400120704701207047A7
:1051800010B5FDF72DFA60B90F4C206807F028FA2A
:10519000B0F57A7F05D907F0DDF9206053200AF0D9
:1051A0005DFF0A4BDB78DB070CD5094B1B784BB94D
:1051B0000324002320461A461946013404F06EF9F0
:1051C0000D2CF6D1012010BD98120020F0360020E1
:1051D000F436002008B5FCF7EBFF1023FF201A4639
:1051E0001946FCF7D3FE0322FA21FF20FCF712FF39
:1051F000FF20FCF7ABFE0120014B187008BD00BF7B
:10520000F43600201F4B70B51C7805460E4654B18D
:1052100010221146104604F0BDFF31462846FFF724
:1052200007FE012070BD07F009F883070CD5FF23A6
:1052300001201A46194604F031F9FF2320461A4688
:10524000194604F02BF9E8E70F4B104A19680A4099
:10525000B2F1807F0ED10E4A1278042A0AD10023BF
:1052600001201A46194604F019F900231A46194676
:105270001846E6E71B78002BCFD0064B5B7E002B51
:10528000CBD0ECE79E120020E8360020FF000001A2
:10529000B4390020640C002010B501224FF40071D5
:1052A0004FF0804009F09FFA4FF080434FF00072BA
:1052B000054C9A6104210122204609F094FA4FF42A
:1052C0008023A36110BD00BF000C004010B5074C47
:1052D000FFF7E2FF204601224FF4804109F083FAF4
:1052E0004FF080430120A36110BD00BF00080040C3
:1052F000024B40F22230196803F066B8F036002005
:10530000F7B505F04BFD0128464C43D105F08CFD67
:10531000C0F3072310F0FF008DF8053023D1DBB276
:1053200043B30523237023783F4E0133237005F0E8
:105330007BFD2278C0F307450A2A37D12A46FF2190
:10534000002005F06EFDF37843F00103F370FFF7E2
:10535000CFFF2378033B062B3DD8DFE803F04C5406
:10536000374858505C00782810D005D8282809D034
:10537000502809D00923D5E7A02809D0C828F9D199
:105380000723CFE70623CDE70323CBE70823C9E7AD
:105390000423C7E70C2805D00E2805D00528C2D164
:1053A0000123BFE70023BDE70223BBE7F3781F4FCC
:1053B00013F0010F08D06FF30003F370FFF798FFAD
:1053C000387805F0E8FCC4E7B85CFAE72A46FF2124
:1053D000002005F026FD05F0E1FC05281FD12A4636
:1053E000FF21002003B0BDE8F04005F01ABD2A46B9
:1053F000FF212820EDE72A46FF215020E9E72A4631
:10540000FF217820E5E72A46FF21A020E1E72A4690
:10541000FF21C820DDE700212A460846D9E703B06E
:10542000F0BD00BF9C120020F0360020AC0E002022
:1054300070B5B34D04462B780E463BB18B782BB13B
:105440000022114610462A7004F0A4FE47F60163BC
:105450009C4200F0298169D847F621039C4200F064
:10546000348232D845F202239C4200F010820BD8DD
:10547000E72C00F07B81B4F5A44F00F0D881E32C39
:1054800000F05D810124D7E045F223239C4200F027
:10549000848247F213039C4200F03C8145F22123B1
:1054A0009C42EFD1B378002BECD1FFF71BF9002819
:1054B000E8D0944B1A7832B10022314645F22120CF
:1054C0001A70FFF7FFF8012464E247F629039C42B3
:1054D00000F0848110D847F627039C4200F08B81AE
:1054E00000F2938147F623039C42CBD1B378002B83
:1054F000C8D0FFF74DFC92E0B4F5F84F00F05681AC
:10550000B4F5FC4F00F0C28047F62A039C42B9D1A3
:10551000B378002BB6D005F039FD3328B2D802207D
:10552000FFF7BAFD332005F029FD78E047F61D634B
:105530009C4200F09B802AD847F607639C4200F00B
:105540002C8115D847F605639C4200F0CC8000F210
:10555000B78047F602639C4294D1FFF7C3F8002856
:105560005DD1B378002B8DD0674B1B78032B98E06F
:1055700047F61B639C424DD060D847F609639C42B6
:1055800080D1B378002B4AD0FFF7BAFE47E047F648
:105590004C639C4200F0E68112D847F64A639C4275
:1055A00000F0AC8100F2CC8147F61F639C427FF48F
:1055B00069AFB4789CBBA82000F010FBA82052E093
:1055C00047F654639C4200F0FA8047F655639C42CC
:1055D00000F0FC8047F653639C427FF453AFB378EE
:1055E000EBB105F0DBFB2D2819D1FFF77BF8044662
:1055F000464B587800F00F00002C40F0C581FFF7B3
:1056000039F9204622462146FFF740F80320FFF7EC
:1056100043FD11E0B4783E4B1CB101221A70002406
:105620000AE01B78002BFAD0384BDB78990754BF7F
:10563000A820282000F00EFB204670BD334BB47824
:10564000DB7803F0020344B11BB1DA20FDF78CFADA
:10565000E5E7A92000F0C2FAE1E71BB1DA20FDF787
:10566000E5FAE9E7A92000F0CFFAE5E7274BB4789F
:10567000DD7805F0020524B10DB1D920E6E7AA20B6
:10568000E8E70DB1D920EAE7AA20ECE7FFF72AF80E
:105690000028C4D1B378002B3FF4F4AE1A4B1B782A
:1056A000012B7FF4EFAE18E0FFF71CF80028B6D10D
:1056B000B378002B3FF4E6AE134B1B78022BF0E7D8
:1056C000FFF710F80028AAD1B378002B3FF4DAAE28
:1056D0000D4B1B78002B7FF4D5AEFEF741FD041C6B
:1056E00018BF0124A8E7FEF7FDFF002897D1B37883
:1056F000002B3FF4C7AE044B1B78062BD1E700BF4D
:105700009E1200209D120020E8360020F036002076
:10571000ED360020B478002C3FF4B4AE00236E21A7
:105720001A46FF20FCF732FC0121FF20FCF746FC63
:10573000FF20FCF70BFC0122A24B1A707CE7A24B66
:10574000187800F062FB02287FF49CAE9F4B1B7818
:10575000DA067FF597AEFEF7C5FF00287FF492AE1C
:10576000E320B478B4B100F039FA65E7964B1878C5
:1057700000F04BFB02287FF485AE944B1B78DB06D0
:105780007FF580AEFEF7AEFF00287FF47BAEB478E5
:10579000E720E7E700F038FA74E68D4B1B7803B199
:1057A000B3788C4A03F00103137038E7B478002C07
:1057B0003FF468AE01F0D4FE06F02AFF3CE7B37870
:1057C000002B3FF42CAF01232B7028E7B378002B7C
:1057D0003FF425AF62200AF041FC20E7B378002BAC
:1057E0003FF450AE05F0D2FBFF287FF44BAE022011
:1057F000FFF752FC46E6B378002B3FF443AE05F0CA
:1058000037FB3F287FF63EAEF1E7B478002C3FF43B
:1058100039AE05F02DFB10283FF634AE0220FFF71D
:105820003BFC00221146104604F0B4FC04E7B378B8
:10583000002B3FF4F4AE00210846FCF7D5FB002313
:105840006E211A461846FCF7A1FB5F4C0322FA2191
:105850000020FCF7DFFB0020FCF778FB207800F04D
:10586000D4FA02287FF4DBAE207800F0CEFA30B90B
:10587000022000F03BFA002000F025FECFE6207861
:1058800000F0C3FA02287FF4CAAE0020F1E7B37833
:10589000002B3FF4C4AE00210846FCF7A5FB002313
:1058A0006E2218461146FCF771FB474C0322FA2181
:1058B0000020FCF7AFFB0020FCF748FB207800F04D
:1058C000A4FA02283FF4ABAECEE7B3789BB1424CCA
:1058D0000020FFF7E1FB607800F00F00FEF794FF77
:1058E000607800F00F00FEF779FF00223B4BA01C10
:1058F0001A70FFF77FFAFFF7FBFC90E6B378002BF6
:105900003FF48DAE344C607800F00F00FEF77CFF62
:10591000607800F00F00FEF761FF0020A11CFFF788
:10592000DBF9637860F303036370FFF7E1FC6078F1
:1059300000F00F00FEF78AFF0020FFF7ADFB6EE6D8
:10594000B378002B3FF46BAE234C607800F00F006F
:10595000FEF75AFF607800F00F00FEF73FFFA11C32
:105960000120DCE7B378002B3FF459AE1A4C607885
:1059700000F00F00FEF748FF607800F00F00FEF720
:105980002DFFA11C0220CAE7FEF728FF0020FFF729
:1059900083FB0024114B1C704EE6B378002B7FF480
:1059A00071ADFEF79FFE00283FF46CAD0B4B1A78EB
:1059B000002A3FF488AD002231461A7045F22320B8
:1059C0007FE500BFF4360020A6120020F636002046
:1059D000E83600208C120020F03600209D120020B6
:1059E00047F61B63984210B51DD047F61F639842D7
:1059F0003BD109B9002411E01D4B1A681D4B13401F
:105A0000B3F1807F0CD11C4B1B78042B08D1FEF71F
:105A10002BF804460028EDD1FEF720F8204610BDF3
:105A2000FEF71FF8E6E70029E4D000241349144BE1
:105A30001C70CB7883F00202C2F3400262F3410390
:105A4000CB70FFF755FC1023FF201A461946FCF7D0
:105A50009DFA0322FA21FF20FCF7DCFAFF20FCF775
:105A600075FA0122074B1A70D8E70124D6E700BF68
:105A7000E8360020FF000001B4390020F036002095
:105A8000ED360020F436002010B50020FFF704FBAF
:105A90000C4A0024138823F4706323F0010343F0BD
:105AA00001031380FF239370074B1C70FFF71FF94E
:105AB000064B224621461878FCF71CFCBDE8104036
:105AC000FFF716BCF03600209D120020E8360020BB
:105AD00010B5FEF756FF40F2223002F00FFC0E4CDC
