:100000000C941D030C9455030C9455030C94550348
:100010000C9455030C9455030C9455030C94550300
:100020000C9455030C9455030C94982B0C946C2C45
:100030000C9414260C9455030C9455030C945503FE
:100040000C9455030C9455030C9455030C945503D0
:100050000C9455030C949B260C9455030C94550357
:100060000C9455030C9455030C9455030C945503B0
:100070000C9455030C9455030C9455030C945503A0
:100080000C9455030C9455030C9455030C94550390
:100090000C9455030C9455030C9455030C94550380
:1000A0000C9455030C9455030C945503D400CA00CA
:1000B000C000B60000000701000000FF00000000C3
:1000C0000001000000FF00000000070155FFFFFFD6
:1000D0000000000000070000FF080E0000FFFF0006
:1000E00000000029003A003B003C003D003E003F7C
:1000F000004000000035001E001F002000210022EB
:10010000002300240025002B0014001A000800150D
:100110000017001C0018000C00390004001600072E
:100120000009000A000B000D000E00E1001D001B7D
:1001300000060019000500110010003600480047B5
:100140000046006800450044004300420041004B67
:10015000004A00490000002A002E002D002700263A
:10016000004E004D004C000000310030002F001305
:1001700000120000005200000000000000280034BF
:100180000033000F004F005100500000000000003D
:1001900000E50038003700E000E300E2002C00003A
:1001A00000E600E700E40000001E0F0500047F3FAA
:1001B0001F643214643214783C1E1E140A05222374
:1001C000252628292A2C2D2F3032333536383A3B34
:1001D0003D3E4042434547494A4C4E505153555786
:1001E000595A5C5E6062646668696B6D6F717375A5
:1001F00077797B7D7F81838587898A8C8E909294A5
:1002000096989A9C9E9FA1A3A5A7A8AAACAEAFB1B1
:10021000B3B4B6B8B9BBBCBEBFC1C2C3C5C6C7C9FB
:10022000CACBCCCDCED0D1D2D2D3D4D5D6D7D7D8B5
:10023000D9D9DADADBDBDBDCDCDCDCDCDDDDDDDD07
:10024000DCDCDCDCDCDBDBDBDADAD9D9D8D7D7D60F
:10025000D5D4D3D2D2D1D0CECDCCCBCAC9C7C6C5C6
:10026000C3C2C1BFBEBCBBB9B8B6B4B3B1AFAEAC0C
:10027000AAA8A7A5A3A19F9E9C9A98969492908EB7
:100280008C8A89878583817F7D7B79777573716F90
:100290006D6B6968666462605E5C5A59575553516C
:1002A000504E4C4A4947454342403E3D3B3A383622
:1002B000353332302F2D2C2A292826252322FFAA38
:1002C0007F5540000101010101010101010202020B
:1002D00002020202020203030303030303030404F2
:1002E00004040404040505050505060606060607BC
:1002F0000707070708080808090909090A0A0A0B75
:100300000B0B0C0C0C0D0D0D0E0E0E0F0F0F101015
:10031000111111121213131414151516161717189C
:100320001819191A1A1B1B1C1D1D1E1E1F20202107
:100330002222232424252626272829292A2B2C2D4E
:100340002D2E2F30313232333435363738393A3B6F
:100350003C3D3E3F404142434445464748494A4C64
:100360004D4E4F50515354555658595A5B5D5E5F30
:10037000616264656668696B6C6D6F7072737577C6
:10038000787A7B7D7E8082838587888A8C8E8F9128
:10039000939596989A9C9EA0A2A3A5A7A9ABADAF52
:1003A000B1B3B5B7BABCBEC0C2C4C6C9CBCDCFD13C
:1003B000D4D6D8DBDDDFE2E4E7E9EBEEF0F3F5F8E5
:1003C000FAFDFF00000000000000002A2B280000BA
:1003D00000000000000000000000000000002900F4
:1003E0000000002C1E3420212224342627252E36FE
:1003F0002D3738271E1F202122232425263333366C
:100400002E37381F0405060708090A0B0C0D0E0FBE
:10041000101112131415161718191A1B1C1D2F3141
:1004200030232D350405060708090A0B0C0D0E0FA5
:10043000101112131415161718191A1B1C1D2F3121
:1004400030354C00000000000000000000000000FB
:10045000000000000000000000000000000000009C
:10046000000000000000007E0F00D4FFFFFFC70067
:100470000000781E0368006100760065006E003899
:100480000030005F0073006F006C00640065007254
:100490000000001C034100740065006C00690065E9
:1004A0000072005F0048006100760065006E000089
:1004B000000403090409025B00030100A0FA090417
:1004C0000000010301010009211101000122400087
:1004D0000705810308000109040100020300000070
:1004E00009211101000122220007058203200001D9
:1004F00007050303200001090402000103000000B6
:1005000009211101000122B6000705840320000122
:100510001201000200000008464481460001010269
:1005200000010660FF0961A1010962150026FF00B4
:100530009520750881020963150026FF0095207536
:10054000089102C005010902A10185020901A1006B
:100550000509190129081500250195087501810271
:100560000501093009311581257F9502750881063D
:1005700009381581257F950175088106050C0A3813
:10058000021581257F950175088106C0C005010906
:1005900080A101850319012AB700150126B700952E
:1005A0000175108100C0050C0901A1018504190124
:1005B0002AA002150126A002950175108100C00530
:1005C000010906A1018506050719E029E71500259F
:1005D000019508750181020507190029EF1500250D
:1005E0000195F07501810205081901290595057528
:1005F000019102950175039101C005010906A10150
:10060000050719E029E71500250195087501810204
:100610009501750881010507190029FF150026FFBE
:1006200000950675088100050819012905950575CD
:10063000019102950175039101C011241FBECFEFF6
:10064000DAE0DEBFCDBF04B603FE18C080910D0412
:1006500090910E04A0910F04B09110048730904B3C
:10066000A740B04B59F410920D0410920E04109252
:100670000F0410921004E0E0F8E3099511E0A0E007
:10068000B1E0E4E1F1E602C005900D92AE3EB107A3
:10069000D9F724E0AEEEB1E001C01D92AD30B20753
:1006A000E1F70E94BA120C9421300C9400008CEAFD
:1006B00090E0909349038093480308951F93CF934C
:1006C000DF9381FBDD27D0F982FBCC27C0F96D2FAA
:1006D00080E00E94EE166C2F81E00E94EE1611E081
:1006E0006D2F612782E00E94EE166C2F612783E058
:1006F0000E94EE1681E0DF91CF911F91089581E075
:100700000895811112C06B3080F4493070F4E42FE9
:10071000F0E089E0689FE00DF11D1124EE0FFF1F4E
:10072000ED51FF4F85919491089581E090E00895F7
:1007300081E008950E949803089581E008950E9441
:10074000980308950E949F03089508950E94A503A9
:100750000895A6E0B0E0EFEAF3E00C94C42E4983DC
:100760005A839E833091F50189819A8131111AC093
:100770003E81332399F0222389F00E941C09182F0F
:10078000682F89819A810E94F80869817A81812F76
:100790000E942E102696E3E00C94E02E0E940A0997
:1007A000182FF3CF0E941C0969817A81F1CFFC01D7
:1007B000262F4081518162817381848195810E94BD
:1007C000A9030895CF93DF93EC0161E00E94D70362
:1007D000BE010E949A03DF91CF910895CF93DF93DA
:1007E000EC0160E00E94D703BE010E94A603DF91E6
:1007F000CF91089508950E94F4070E94FA032FEF05
:1008000084E39CE0215080409040E1F700C000006C
:1008100008950E94FB030E94BF2608950E94FB03D7
:100820000E94E32608950F931F93CF93DF938C01CB
:1008300061E00E94D703EC01B8010E94A41E81115F
:1008400006C080E0DF91CF911F910F910895B8010C
:10085000CE010E94A2038823A1F3B801CE010E9419
:10086000EC23882371F3B801CE010E941520882360
:1008700041F3B801CE010E945E23882311F3B80131
:10088000CE010E949E1D8823E1F2B801CE010E9494
:1008900030248823B1F2F8018581882361F0C330C8
:1008A000FCE7DF07E9F058F4C115ECE7DE07A9F033
:1008B000C130DC47B9F0C8010E949D03C3CFCB35DE
:1008C0008CE7D807A9F0CC35ECE7DE0771F0CA3524
:1008D000DC4789F70E94740DEECF0E940904B1CF66
:1008E0000E947C0D0E940E04ACCF0E946A0DE3CFE3
:1008F0000E94780DE0CF0E94F0250E94A4040E947F
:10090000D21B08950E94A8040E94CB1C0E94F525CA
:10091000089508950895CF93DF93D82F0E945E0322
:10092000C82F882319F08D2F0E948A048C2FDF9105
:10093000CF9108950895CF93C82F0E9489048C2FDA
:100940000E948B04CF91089580E00E949B0408953B
:100950000E9483240E949B040895CF930E948324C5
:10096000C82F8091F0018C1779F0C093F0010E949C
:1009700080266093F1017093F2018093F3019093CC
:10098000F4018C2F0E949B04CF910895ADE0B0E05C
:10099000ECECF4E00C94C52E488759876A877B8776
:1009A0008C879D8791110E94A20C1F8286E0FE0118
:1009B0003896DE01119601900D928A95E1F78D81AE
:1009C00081110DC029813A814B815C816D817E81CD
:1009D0008F810E94D50B2D96E2E00C94E12ECE0182
:1009E00001960E94E2038111EDCFF5CFFC01248135
:1009F000213021F4808191810E9449090895662364
:100A000029F00E943E130E94111408950E94981329
:100A1000FACFCF93C82F8823B9F08CEF8C0F813A8F
:100A2000A8F46C2F80910401909105010E94162575
:100A3000882329F08C2F0E94620C0E94DB0C8C2FE3
:100A40000E945A0C0E94DB0CCF91089580E28C0F1B
:100A5000883048F4C77081E001C0880FCA95EAF772
:100A60000E94850CEFCFEBE5EC0FE33040F4F0E0B3
:100A7000ED59FE4F808190E00E94B824E5CFE8E573
:100A8000EC0FEB3150F4F0E0EE0FFF1FE35DFE4F93
:100A9000808191810E94DD24D7CF83E38C0F833145
:100AA00098F661E08C2F0E94FF04CECF882381F15D
:100AB0009CEF980F913A28F40E94620C0E94DB0C84
:100AC000089590E2980F983050F4877091E001C03B
:100AD000990F8A95EAF7892F0E948B0CEFCF9BE53F
:100AE000980F933028F490E080E00E94B824089595
:100AF00098E5980F9B3128F490E080E00E94DD2477
:100B0000089593E3980F933118F460E00E94FF0476
:100B100008951F93CF93DF93182FEB010E940905CF
:100B2000209739F4812F0E945605DF91CF911F91B4
:100B300008958FE99FE00197F1F700C00000219729
:100B4000EFCF70E060E0893311F460E570E00E945F
:100B500089050895882321F00E94850C0E94DB0CF2
:100B60000895882321F00E948B0C0E94DB0C0895CD
:100B7000B0E0A0E0EEEBF5E00C94BE2E6C01D62FB9
:100B8000C72FFC011581068102950F700E947B0C16
:100B9000E82E8823E9F0E12E1123D1F08C2F807FFD
:100BA000803451F080E28D0F8830F8F0011104C0DC
:100BB0008C2F807E8032C9F08091850382FF15C022
:100BC00082E00E943E0D0E947B0C91E0E82EE92617
:100BD000BC2EB2949FE0B922FBE0FB15B8F1EB2DDF
:100BE000F0E0ED5DFF4C0C94772EE12CF1CF0C2F53
:100BF0000F70C07F11F00295007F112399F0002340
:100C000059F080E28D0F883010F0D11107C0802F8D
:100C10000E94850C0E94DB0C8D2F5AC0802F0E94F1
:100C2000950CF8CF8D2F0E945605002379F080E2B5
:100C30008D0F883010F0D11104C0802F0E948B0CD2
:100C400003C0802F0E949B0C0E94DB0CEB2DE85010
:100C5000FF0B349720F40E9483240E949B04EE2013
:100C600089F00E94770C80FD0DC0F60115820E946C
:100C7000710C0E946C08C6010E94BB070E94710C97
:100C80000E947808CDB7DEB7E9E00C94DA2E2C2F5D
:100C90002F70F22EC07FC03219F0F29480EFF8224C
:100CA000DD2341F0D130D1F1112309F444C00023F8
:100CB000F1F0B2CF8091850382FD15C0112359F068
:100CC000FF2029F08F2D0E94850C0E94DB0C80E014
:100CD0000E940905BBCF80E00E945605FF2009F461
:100CE000B5CF8F2DABCF112369F0011104C08F2D2B
:100CF0000E94AA05ABCF013009F0A8CF8F2D0E942A
:100D0000B90CA4CF0111A2CF8F2D0E94B1058F2D58
:100D10000E94C50C8F2D0E94A90C98CF112321F0A1
:100D2000063008F093CFE3CF053008F08FCF8F2D3A
:100D30000E94B1058BCF0023D1F3D93349F43FEFA3
:100D400087EE93E0315080409040E1F700C0000012
:100D50008D2F0E9456057ACF8C2F869586958370AD
:100D600069F0813009F072CF8D2F9C2F9370111193
:100D700002C080E090E00E94DD2468CF8D2F9C2F80
:100D80009370111102C080E090E00E94B8245ECF01
:100D9000612F8D2F0E94FF0459CF8C2F837079F51E
:100DA000111154CF4D2F429546954770440F440F73
:100DB0008D2F8F70042E01C0880F0A94EAF72D2F13
:100DC0002071D4FF07C02FE030E001C0220F4A9508
:100DD000EAF72095C695C695C370822BC23049F0BC
:100DE00058F4C13019F00E94480830CF0E944208E0
:100DF0002DCF0E944E082ACF0E943F0827CF86950C
:100E0000112311F08C2F8170882309F41FCF4D2FEF
:100E1000429546954770440F440F8D2F8F70042ED6
:100E200001C0880F0A94EAF72D2F2071D4FF07C064
:100E30002FE030E001C0220F4A95EAF72095C695D1
:100E4000C695C370822BC23049F058F4C13019F0F6
:100E50000E949708FBCE0E949108F8CE0E949D0840
:100E6000F5CE0E945A08F2CECF70112329F08C2FB4
:100E70000E946C088D2F3CCF8D2F0E94B1058C2FC6
:100E80000E947808E3CED23F41F160F4D03FB9F040
:100E9000D13F81F0112309F446C00111BDCE8C2F42
:100EA0008F711FC0D33F01F1D43FA1F7809185031B
:100EB00082FD24C08C2F8F71112311F312C01123D6
:100EC00041F0053008F0C2CE8C2F8F710E9485084A
:100ED000BDCE063008F0BACEF7CF8C2F8F7111112E
:100EE000CFCF0E946C08B2CE112329F08C2F8F71C6
:100EF0000E946308ABCE0E945F08A8CE112349F080
:100F0000CF718C2F0E946C0863E08C2F0E94200D03
:100F10009DCE81E00E943E0D023008F497CE82E023
:100F20000E943E0D93CE002359F0D93309F010CF23
:100F3000EFEFF7EE23E0E150F0402040E1F706CF7D
:100F40008C2F8F719DCF0F931F93CF93DF93EC0165
:100F5000688179818D810E9454098C010E94A308C7
:100F60000E943E08B801CE010E94B805DF91CF91E2
:100F70001F910F910895CF93DF93EC018C8188230B
:100F800099F0CE010E941304811111C00E947B0CC4
:100F9000882351F08D81882339F08091850382FF69
:100FA00003C082E00E943E0DDF91CF910895CE01F3
:100FB0000E94A307CE010E94EE03F6CF90E080E0EE
:100FC0000E94B82490E080E00E94DD240E94A20CE0
:100FD0000E94DB0C0E942D140E94111408950E949F
:100FE0006A0C0E94DE0708950E94920C0E94EF078F
:100FF000089592959F70963091F058F4925F9F708B
:10100000923058F4803F19F030F4883E30F481E09B
:1010100008959A5FF4CF843FD1F380E00895883E2D
:10102000B0F3813FD1F7F3CFFC012481222339F0C3
:10103000808191810E9449090E94F907089580E00A
:101040000895A6E0B0E0E7E2F8E00C94C52E2696FD
:10105000E2E00C94E12EA7E0B0E0E1E3F8E00C94CC
:10106000C52E2796E2E00C94E12E08950E943508E3
:1010700008950E94360880931E02089508950E94E4
:101080003908089590911E02892B0E94390808950D
:1010900090911E0289230E943908089590911E02A2
:1010A00089270E94390808950E94350808950E94F2
:1010B000540808950E94570880931D02089580E007
:1010C0000E945A08089591E001C0990F8A95EAF7A5
:1010D000892F0E945A08089521E030E001C0220FB4
:1010E0008A95EAF780911D02822B0E945A08089582
:1010F00021E030E001C0220F8A95EAF72095809127
:101100001D0282230E945A08089521E030E001C0A8
:10111000220F8A95EAF780911D0282270E945A08C1
:10112000089590911D02892B0E945A08089590916C
:101130001D0289230E945A08089590911D02892753
:101140000E945A0808950895262F277091E001C043
:10115000990F2A95EAF723E0769567952A95E1F7A6
:10116000FB01EE0FFF1FE60FF71FE40FF51F50E026
:1011700040E0682F70E08191DF0111979B01042E00
:1011800002C0369527950A94E2F721702195282709
:10119000292328272C934F5F5F4F4330510559F780
:1011A0000895A82FA77023E0969587952A95E1F7D3
:1011B000FC01EE0FFF1FE80FF91FE60FF71F50E0CD
:1011C00040E080E0219130E00A2E02C0369527955C
:1011D0000A94E2F721703327042E01C0220F0A94EB
:1011E000EAF7822B4F5F5F4F4330510559F708955F
:1011F000262F9B3070F4893060F4682F70E089E00E
:10120000989F600D711D112446EF51E0822F0E94BE
:10121000A4080895292F9B3068F4893058F490E091
:1012200066EF71E039E0239F800D911D11240E942B
:10123000D108089580E00895CF92DF92FF920F9336
:101240001F93CF93DF936C0100911D0280911E02CA
:10125000082BC3E0D0E010E0FC2EC8010C2E02C029
:10126000959587950A94E2F780FD0CC02197A0F729
:10127000F12C8F2DDF91CF911F910F91FF90DF9077
:10128000CF900895B6018C2F0E943A10019771F308
:10129000F0CFCF93DF93EC010E941C09BE010E94A6
:1012A0003A10DF91CF9108951F93CF93DF93EB0115
:1012B0009091F501992339F0CB010E944909DF9102
:1012C000CF911F910895882369F0CB010E941C09DA
:1012D000182F682FCE010E94F808BE01812F0E94AE
:1012E0003A10EDCFCB010E940A09182FF6CFE1E0AA
:1012F000F0E0DF0102C0AA0FBB1F6A95E2F7BD0153
:10130000DF0102C0AA0FBB1F4A95E2F76A2B01C09A
:10131000EE0F2A95EAF7962F9823961302C08E2B8C
:101320000895E0958E230895242F462F682F8091ED
:101330001D020E9477090E945A0808951F93CF93B7
:10134000DF93C0911F0217E0809120028C1304C02C
:10135000DF91CF911F910895D0E01C9FF0011D9F58
:10136000F00D1124EF5DFD4F2081318142815381C9
:101370006481758186810E942B082196C770E4CF15
:101380002091590230915A0240915B0250915C02C7
:1013900060915D0270915E0280915F020E942B0855
:1013A0000895CF93DF9380915F02807F09F04DC055
:1013B00080915E02882309F448C0E0911F02509199
:1013C0002002C0915A02D091590260915B02709143
:1013D0005C0247E05E17C9F18E2F90E0E49FF001B8
:1013E0001124EF5DFD4F2481222391F1489FF001EC
:1013F000499FF00D1124DF01AF5DBD4F11962C9177
:1014000011972C1325C02C912D1322C015962C91C9
:10141000159721111DC012962D913C91261B370B5B
:10142000283C3105A8F480915F028F708061809321
:101430005F02E95DFD4F80818F708061808389E567
:1014400092E00E94BB070E949E09DF91CF91089510
:10145000FC013196E770BECF482F20911F0290917A
:10146000200257E0291302C080E0089530E0529F27
:10147000F001539FF00D1124EF5DFD4F8181681342
:1014800006C08081481303C085818111EECF2F5F94
:101490003F4F2770E7CFA4E1B0E0E1E5FAE00C941C
:1014A000BB2E8C0186E0F801DE011F9601900D92A3
:1014B0008A95E1F7F8018481E58099E5A92E92E00B
:1014C000B92E90915D0291111FC08823D1F0EE20BA
:1014D000A9F0C8010E941408F82E882379F087E04B
:1014E000F801D50101900D928A95E1F7C5010E949E
:1014F000F6040E94D1090E94C0095FC0C8010E9481
:10150000BB07FF24F39459C0C080D18082809380B0
:10151000F0905E0220915B0230915C02A401421BBC
:10152000530BFF2009F4F9C0483C510508F0A7C04F
:10153000882309F442C090915A0280915F02282FBB
:10154000207F09F05CC09D1116C090915902C9120C
:1015500012C0E1104EC08F70806180935F020E94C4
:10156000C00989E592E00E94BB0780915F02F80103
:101570008683F12C22C0E1103CC06D2D8C2D0E9481
:101580002C0A6D2D8C2D0E942C0AE82E8111F1CF92
:10159000CF86D88A8F8598890E944909292F22955C
:1015A0002F70243078F49F702230A8F09923B9F07E
:1015B000F8019681907F99F4FE2C8F2D6496ECE0D3
:1015C0000C94D72E2A5F2F70223068F0C8010E9439
:1015D000BB07EF2CF1CF992311F0882369F3805ECC
:1015E000883050F3F3CF803F38F3815F833070F75A
:1015F000E3CF80915F02816080935F02BACF9D113B
:1016000013C090915902C9120FC0E1100DC086831A
:10161000C8010E94BB0787E0F801A9E5B2E001908C
:101620000D928A95E1F767CFC8010E9414088823BC
:1016300009F464CFEE2009F461CF80915F0280321B
:1016400088F02091590230915A02398728879B8669
:101650008A8690915D029C871D868E87CE010896B2
:101660000E94BB0787E0F801A9E5B2E001900D9266
:101670008A95E1F70E94D1090E94C00942CF90915A
:101680005F02292F207FA1F4682D9A8A898AA601FA
:101690007A899E2D0E94210889E592E00E94BB076D
:1016A00087E0F50111928A95E9F70E94C00961CFA0
:1016B000882309F482CF80915A028D1110C0809145
:1016C0005902C8120CC0E1100AC09683C8010E94DA
:1016D000BB0787E0F50111928A95E9F76ECFC80143
:1016E0000E941408882309F409CFEE2009F406CFDC
:1016F00080915F02803208F4B5CF20915902309179
:101700005A023A8329839C828B8290915D029D8349
:101710001E828F83CE010196A3CF483C5105B8F5B8
:10172000882309F4EECEFE2CEE2009F4E7CE80915A
:101730005A028D111EC080915902C8121AC08091A0
:101740005F0280FD0DC0982F907F51F08683903FFF
:1017500009F45ECF982F907F905F8F70892B57CFC1
:1017600087E0F801A9E5B2E001900D928A95E1F7D2
:1017700024CFC8010E941408811174CF80915F02A8
:10178000816080935F02C8010E94BB0716CF682D5D
:101790009A8A898AA6017A899E2D0E94210887E06B
:1017A000F50111928A95E9F7A6CEAEE0B0E0EBED37
:1017B000FBE00C94C42E288739874A875B876C87A7
:1017C0007D878E87CE0108960E944B0A8823B1F050
:1017D0006C85662341F0288539854A855B857D8542
:1017E0008E850E942B0817E080911F0290912002A5
:1017F00089133DC02E96E3E00C94E02E87E0FE01B5
:101800003896DE01119601900D928A95E1F78C854C
:10181000882349F32091200230E0C90101968770A6
:10182000992740911F024817190699F097E0929F57
:10183000D001939FB00D1124AF5DBD4FFE013196D5
:1018400001900D929A95E1F7809320020E949E09E3
:10185000CACF0E94F4071092200210921F0287E064
:10186000E9E5F2E0DF011D928A95E9F7BCCF819F9F
:10187000C00111248F5D9D4F0E944B0A882309F4FB
:10188000B9CFE0911F021E9FF0011124EF5DFD4FC3
:1018900020813181428153816481758186810E94DA
:1018A0002B0880911F0290E0019687709927809302
:1018B0001F029ACF682F80910401909105010E9428
:1018C00096250895682F80910401909105010E944A
:1018D000A425089580910401909105010E94B225EC
:1018E00008958091800286958695869508958091C9
:1018F00080028770089590918002977081E009F4CA
:1019000080E008958091A40208959091A402892B0B
:101910008093A402089580959091A40298239093B7
:10192000A40208951092A40208959091A302892B15
:101930008093A302089580959091A3029823909399
:10194000A30208951092A302089508950E94A50C81
:10195000089590918102292F282331F080958923C1
:10196000809381020E94A60C089508950E94B50CF0
:10197000089590918202292F2823281729F0982B67
:10198000909382020E94B60C089590918202292FB2
:10199000282331F080958923809382020E94B60C1F
:1019A000089580918202882329F01092820280E0BB
:1019B0000E94B60C0895CF93DF93E0910401F0915B
:1019C00005018091A4028083E0910401F09105015A
:1019D00080819091A302892B808390918202992328
:1019E00081F0E0910401F09105018081892B8083D1
:1019F00080910401909105010E94022581110E94AD
:101A0000D10CC0910401D091050140E250E060E6A4
:101A100072E0CE010E94942F892B59F080E2FE01E2
:101A2000A0E6B2E001900D928A95E1F7CE010E9406
:101A30009024DF91CF91089508950E941C0D089580
:101A40009091850392FF11C098E0899F9001112425
:101A5000622B609380020E946C08809180028695C0
:101A6000869586950E941D0D08950E946C08089524
:101A70001092800280E00E941D0D089590918002D6
:101A80008095892380938002282F277069F4891715
:101A900059F09091850392FF07C0869586958695AB
:101AA0000E9478080E94380D08959091850392FB5A
:101AB000222720F9281769F080FB92F9909385037B
:101AC00080918403909185030E949E0D82E00E9484
:101AD0003E0D08958091850382FB882780F991E06F
:101AE00089270E94550D089581E00E94550D0895A3
:101AF00080E00E94550D08956FEF7FEF90E080E049
:101B00000E94EC2F089590E080E00E94B82F863E5E
:101B10009E4F19F40E943C1E089580E0089582E0D3
:101B200090E00E94AA2F089583E090E00E94AA2FDF
:101B3000089584E090E00E94B82F0895BC0184E0ED
:101B400090E00E94EC2F0895AB01BC018FE090E083
:101B50000E94E02F0895AB01BC0183E190E00E9458
:101B6000E02F089560E070E0CB010E94AB0D089576
:101B700060E070E0CB010E94A40D0E94B20D0895B8
:101B8000A8E0B0E0E6ECFDE00C94C52E66EE7EEF3A
:101B900090E080E00E94EC2F60E082E090E00E9404
:101BA000CE2F60E083E090E00E94CE2F10921E02C4
:101BB00060E074E184E090E00E94EC2F60E086E059
:101BC00090E00E94CE2F6FEF87E090E00E94CE2F32
:101BD00040E050E0BA0188E090E00E94E02F60E031
:101BE00084E290E00E94CE2F60E087E190E00E94C6
:101BF000CE2F60E08CE090E00E94CE2F60E08DE080
:101C000090E00E94CE2F19821A821B821C821D82B4
:101C10001E821F82188648E050E068E170E0CE0125
:101C200001960E94BE2F40E050E0BA0180E290E0B1
:101C30000E94E02F80E00E94551E0E94841E0E9498
:101C4000B80D2896E2E00C94E12E0E94C00D089594
:101C5000682F8EE090E00E94CE2F0895A6E0B0E0BD
:101C6000E4E3FEE00C94C32E0E9474268C01809164
:101C7000A5029091A6028017910781F019821A821D
:101C80000E947426682F49815A81792F80E090E064
:101C90000E94C6041093A6020093A5022696E4E0D3
:101CA0000C94DF2E0E9480266093C1027093C202C2
:101CB0008093C3029093C4026093BD027093BE02EE
:101CC0008093BF029093C0020895089508950E94E2
:101CD000660E08950E945703089581E0089584E2F6
:101CE00091E10E9479240E94650E0E94670E08957A
:101CF0000E946D0E08950E94780E0895089508952B
:101D00000E947E0E0E947F0E08950E9443110E9441
:101D10009A0408950E946B260E94941E0E941B1232
:101D20000E94850E0E94751C0E946A0E0895A6E00E
:101D3000B0E0EDE9FEE00C94B92E0E946D0E811129
:101D40000CC00E942E0E0E94D51C0E944F140E94AF
:101D5000AD042696EEE00C94D52E0E94311227EAAF
:101D6000822E22E0922E640110E0F601E190F190C3
:101D70006F01812F0E9466111F5F1B3009F44BC059
:101D8000E816F90691F38091C50281FD0E946F115A
:101D90000E947B0E782E10E066246394812F0E94AF
:101DA00066117C01F401A190B1904F018A159B0549
:101DB00061F1A826BF2400E0CC24C394D12CC50136
:101DC0008C219D21892BC1F07720B1F009831A83E2
:101DD0000E9474269C838B836D8221E0C7018C2135
:101DE0009D21892B09F420E049815A816B817C81F6
:101DF0008D81922F0E94C6040F5FCC0CDD1C093030
:101E0000F1F6F4013297F182E0821F5F1B3031F668
:101E10000E94520E98CFE816F90609F0B4CF91CF80
:101E20001F93CF93DF930E943F10EC01C11580E513
:101E3000D807F0F5C11580E4D80708F09CC0C03E73
:101E4000D10520F5CD3CD10508F082C0C83AD105B6
:101E500078F4C53AD10508F073C0C130D10519F145
:101E6000209709F1C430D105F0F4D0E0C0E01BC0E8
:101E7000C33CD105D0F7C85AD0E0CC0FDD1FCA59FA
:101E8000DE4F0990D881C02DD4640DC0C11580E209
:101E9000D80708F0D1C0C11581E0D80708F05AC0B2
:101EA000C83ED10510F7CE01DF91CF911F91089563
:101EB000C03682E5D80718F5C03482E5D80708F0A7
:101EC0006BC0C03282E5D80708F05FC0C11582E55B
:101ED000D80708F497C02C2F2695269580E2289FD6
:101EE000900111248C2F8370C1E0D0E002C0CC0F90
:101EF000DD1F8A95E2F7C22BD32BDD68D4CFC03A21
:101F000082E5D80760F4C03882E5D80708F459C0E4
:101F1000CF71D0E0DC2FCC27C46FD06AC4CFC03CD7
:101F200082E5D80708F462C0C03E82E5D80708F011
:101F30009CCFDC2FCC27CC27DF71C06FD06AB3CF0A
:101F4000C55AD0E0C456DE4FC881D0E0D064ABCFD4
:101F5000D065A9CF8D2F0E94E110182FCE019927AF
:101F60000E943F10C12FD0E0DC2FCC27CC27DF719F
:101F7000C82BD92B98CFCE0199270E943F10CC2790
:101F8000DF70C82BD92BD06A8ECFCF71D0E0DC2F79
:101F9000CC27C16FD06A87CF2C2F26952695277026
:101FA00080E2289F900111248C2F8370C1E0D0E043
:101FB00002C0CC0FDD1F8A95E2F7C22BD32BDC6861
:101FC00072CF2C2F26952695277080E2289F9001AE
:101FD00011248C2F8370C1E0D0E002C0CC0FDD1F34
:101FE0008A95E2F7C22BD32BDA685DCF8C2F8F71E5
:101FF0000E94E110C82FD0E0DC2FCC27CC27DF7166
:10200000D06251CF8C2F8F710E94E11055E0D69590
:10201000C7955A95E1F7CF70D0E0DC2FCC27282F59
:1020200030E084FF05C044E0220F331F4A95E1F7FA
:10203000C22BD32BD06937CF8D2F8F710E94E11027
:10204000182FCE0199270E943F10C12FD0E0DC2F1E
:10205000CC27CC27DF71C82BD92BD2CF462F7B3092
:1020600030F4693020F4672F0E947822089590E0C0
:1020700080E008950E942E100E94100F089582386B
:102080009105B9F1B0F48133910509F47DC048F4AC
:102090008932910509F46DC08A32910509F47BC03B
:1020A00008958533910509F45FC08933910509F1DD
:1020B0000895833E9105D9F138F4803E910529F1C8
:1020C000823E910579F10895863E9105D9F1873ECA
:1020D000910509F43EC0843E910541F520918503A8
:1020E00021FF24C08091840384FD19C087EE90E015
:1020F000089520918403237009F05AC0209185032C
:1021000023FF14C089E290E008952091840320FD0C
:1021100038C03091850330FF09C024FF43C090E0F0
:1021200080E008952091840322FDF7CF0895209147
:10213000840322FD3AC03091850330FD39C024FF6D
:10214000F5CFEDCF2091840323FFF0CF24FDE7CF1F
:10215000CDCF2091840323FD2EC03091850331FF24
:10216000EECF84EE90E008952091840325FFDECF2A
:10217000C9CF2091840325FD21C02091850323FF31
:10218000D5CF89E390E0D2CF2091840326FFCECF34
:102190008AE290E008952091840326FFC7CF81E36F
:1021A00090E0089583EE90E0089582EE90E0089527
:1021B00080EE90E0089586EE90E0089585E390E04B
:1021C00008959091840392FF06C0282F287128302B
:1021D000F9F4877F846093FF06C0282F2871283187
:1021E000F1F4877E84612091850320FF06C0382F9B
:1021F00038713830D9F4877F816021FF06C0282FDD
:1022000028712831D1F4877E816194FD877E0895FD
:10221000282F24712430F9F68B7F8860DCCF282F9B
:102220002471243101F78B7E8861DDCF382F317125
:10223000313019F78E7F8860E0CF282F217121314E
:1022400021F78E7E8861E1CF80E008950E947C0DA9
:1022500008950E9431122FEF86E791E021508040CF
:102260009040E1F700C000000E94311280E00E941F
:10227000661180FF04C00E9426110E94BF260895A7
:102280000E94291108950E94830D811102C00E94AD
:10229000250E0E948F0D8093C5020E94990D909388
:1022A0008503809384030E9440110E94940D0E9434
:1022B0003F0880911D020E945708089508950E94CA
:1022C0005E11089508950E9462110895E82FF0E0CC
:1022D000EE0FFF1FE456FC4F808191810895089511
:1022E00080EA8A95F1F7089500C008950E94701160
:1022F0000895F894E82FE295EF70F0E031A1282FCF
:102300002F7081E090E001C0880F2A95EAF7982F9E
:102310009095932391A392A1892B82A378940895F9
:10232000CF93DF93C8EAD1E089918F3F11F00E94EB
:10233000791181E0C33BD807B9F7CFE9D1E08991A2
:102340008F3F11F00E94791181E0C83AD807B9F7A0
:10235000DF91CF910895AF92BF92DF92EF92FF92FB
:102360000F931F93CF93DF938C01D62EC62FD0E00F
:10237000CE0188559E4F7C01FC0120812F3F09F43E
:102380004DC0F894E22FE295EF70F0E031A12F708C
:1023900081E090E001C0880F2A95EAF7932F982BEF
:1023A00091A392A18095892382A378940E947411AD
:1023B000EFE9F1E048EA51E021E030E0B12CA12C56
:1023C00061916F3FA9F1A62FA295AF70B0E09096F2
:1023D0008C9190E06F7002C0959587956A95E2F7B1
:1023E00080FD26C0C901A82AB92A220F331F4E1723
:1023F0005F0731F7F70180818F3F11F00E9479115B
:1024000061E0A114B10409F460E08D2D0E94761101
:10241000CC0FDD1FC00FD11FB982A882DF91CF91F1
:102420001F910F91FF90EF90DF90BF90AF900895B4
:1024300090E080E0D8CF0E94901186E1ECE9F3E0D3
:10244000DF01982F1D929A95E9F7E6E8F3E0DF01A6
:102450001D928A95E9F78BE00E946C120E945F1131
:102460000895A6E1B0E0E7E3F2E10C94C22E8E01FC
:102470000F5F1F4F86E1F80111928A95E9F7F12C61
:102480006F2DC8010E94AB11F394FBE0FF12F8CF4F
:1024900046E150E0B80186E893E00E94942F21E0E5
:1024A000009709F420E0892B41F086E1F801A6E8C5
:1024B000B3E001900D928A95E1F74BE06CE973E08F
:1024C00086E893E00E946D12182F0E946311812FFD
:1024D0006696E5E00C94DE2E0895CF92DF92EF929F
:1024E000FF921F93CF93DF936C017B01C42F2223B4
:1024F00049F081E08093C8020E9474269093C7023D
:102500008093C6021091C80211110AC010E0812FF9
:10251000DF91CF911F91FF90EF90DF90CF900895C2
:102520008091C6029091C7020E948C26059770F395
:10253000D0E0CC0FDD1FAE01B601C7010E94942F81
:10254000892B41F0AE01B601C7010E94A12F109264
:10255000C802DDCF10E0FBCF0E946D280E948A0EDA
:102560000E947A2808950E947F280E94970E0E9458
:10257000992808950E940D260E9453280E946F0EEC
:102580000E94AC120E94B3120E94800EFBCF809179
:10259000CF0280FF0DC060910B0170E0660F771FC6
:1025A0006038710570F56115710569F1862F089520
:1025B00081FF07C060910B0184E0689FB001112486
:1025C000EFCF60910B0182FD0AC08091CE0288237B
:1025D000A9F020910A0160910B01821710F088E0A8
:1025E000ECCF869FC001112433E0880F991F3A95E4
:1025F000E1F7622F70E00E94412ED2CF68E070E0D8
:10260000D5CF8FE7089581E008958091CF0280FFB4
:102610000CC06091070170E0759567957595679599
:102620006115710549F1862F089581FF06C06091FB
:10263000070170E075956795F3CF6091070182FD02
:102640000BC09091CD029923A1F060910601809179
:102650000701961738F0682F70E06038710500F3B5
:102660008FE70895899FC001112470E00E94412ED8
:10267000F4CF61E070E0D7CF81E008958D3C31F474
:102680000E94C71281958093D30208958E3C19F45D
:102690000E94C712F8CF8F3C31F40E94C712819577
:1026A0008093D2020895803D19F40E94C712F8CF9A
:1026B000893D29F40E9405138093D40208958A3D30
:1026C00021F40E9405138195F7CF8B3D31F40E94D0
:1026D000051381958093D50208958C3D19F40E94CD
:1026E0000513F8CF9FE2980F983070F4815D990B35
:1026F00021E030E001C0220F8A95EAF78091D102F3
:10270000822B8093D10208958D3D31F48091CF02C8
:1027100081608093CF0208958E3D21F48091CF0295
:102720008260F7CF8F3DB9F78091CF028460F1CFFF
:102730004091D2028D3C59F48091D30287FF0DC0A5
:102740001092D30241110BC01092CE0208C08E3CF1
:1027500081F48091D30218169CF3442381F0809178
:10276000D4029091D502892B09F05AC01092CD0263
:1027700008958F3C49F447FFF0CF1092D202809128
:10278000D3028111ECCFE0CF803D19F41416ACF3E5
:10279000E4CF9091D402893D29F41916F4F61092F1
:1027A000D402DBCF8A3D19F497FFD7CFF8CF9091B1
:1027B000D5028B3D29F497FFD0CF1092D502CDCF13
:1027C0008C3D19F41916CCF3C8CF9FE2980F9830BE
:1027D00090F4815D990B21E030E0B90102C0660FF1
:1027E000771F8A95E2F7CB0180959091D1028923DA
:1027F0008093D102B2CF8D3D31F48091CF028E7F94
:102800008093CF02AACF8E3D21F48091CF028D7F9D
:10281000F7CF8F3D09F0A1CF8091CF028B7FF0CF12
:1028200008950E9474269C019091D2028091D30257
:10283000982B21F03093CC022093CB029091D402BC
:102840008091D502982B21F03093CA022093C902BF
:1028500080ED92E00E94AA24089586E0E0EDF2E087
:10286000DF011D928A95E9F71092CE021092CD02F7
:102870001092CF020895FC01828181110EC08381E4
:1028800081110BC08481811108C091E08581811183
:1028900001C090E0892F8170089581E0FCCFA6E00F
:1028A000B0E0E5E5F4E10C94C42E86E0E0EDF2E062
:1028B000DE01119601900D928A95E1F71092D202F5
:1028C0001092D3021092D4021092D5028B819C8177
:1028D000892B89F08091CB029091CC020E948C26AA
:1028E000AC019091CE029923C9F180910C0184171B
:1028F000150608F440C08D819E81892B91F080914E
:10290000C9029091CA020E948C26AC019091CD021E
:10291000992309F471C0809108018417150608F401
:1029200079C0BE016F5F7F4F80ED92E00E94C425A9
:10293000811105C080ED92E00E943B1481110E943C
:10294000111486E0FE013196A0EDB2E001900D92E7
:102950008A95E1F72696E3E00C94E02E20910D0194
:102960008AE0289F900111242417350720F69F5FE5
:102970009093CE0202C09F3FD1F71B81112359F0E3
:102980000E94C7129FEF11160CF491E0899F802DD1
:1029900011248093D2021C81112359F00E94C71286
:1029A0009FEF11160CF491E0899F802D11248093E4
:1029B000D3023091D202332309F49DCF2091D30268
:1029C000222309F498CF45EB3403C0011124992345
:1029D00059F09093D20245EB240390011124332344
:1029E00039F03093D30287CF81E08093D202F3CFC6
:1029F00081E08093D3027FCF209109018AE0289F54
:102A0000900111242417350708F08BCF9F5F909316
:102A1000CD0202C09F3FD1F71D81112359F00E94C2
:102A200005139FEF11160CF491E0899F802D11245E
:102A30008093D4021E81112359F00E9405139FEF49
:102A400011160CF491E0899F802D11248093D502FA
:102A50003091D402332309F464CF2091D50222238C
:102A600009F45FCF45EB3403C0011124992359F0D9
:102A70009093D40245EB240390011124332339F0C1
:102A80003093D5024ECF81E08093D402F3CF81E022
:102A90008093D50246CFEF92FF920F931F93CF936F
:102AA000DF93EB01E82FD1110EC0442321F0F0E0B9
:102AB000ED53FD4FE4916E2F7E2F8E2FCDB7DEB7F5
:102AC000E6E00C94DD2E0D2F10E0282F30E044239B
:102AD00029F02D533D4FF901249130E0F6E0CF9FCE
:102AE000C0011124EFEFF0E0BF010E942D2EAB01D9
:102AF0008C2F90E0880F991FA5E5A49FB001A59F9A
:102B0000700D1124861B970B982F990F980FBF01FA
:102B1000601B710B629FD001639FB00D729FB00D5F
:102B200011248B2F9D9FB0011124672F7727EF0170
:102B3000C61BD70BBE01629FE001639FD00D729F41
:102B4000D00D11247F01E91AF108E09EB001E19E49
:102B5000700DF09E700D1124672F7727E61BF70B81
:102B6000E29F8001E39F100DF29F100D1124E12FD1
:102B7000722F4230510599F048F44115510569F022
:102B80004130510581F0EB2F8D2F07C044305105A6
:102B900069F080F046305105B1F76E2F8FCFE22FEC
:102BA0007B2F812FFACFE22F7D2FF7CFEB2F822FB4
:102BB000712FF3CF7B2F822FED2FEFCF41E00E94BB
:102BC0004B15089508950E94DE150895CF93DF9365
:102BD000762FE901682F842F0E94E315798368839B
:102BE0008A83DF91CF9108958091B203982F9E7FC1
:102BF00029F4817082608093B20308958635E8F3EA
:102C000081708465F8CFB0E0A0E0E9E0F6E10C94D3
:102C1000BF2E88E090E00E94B22F6B017C0184E21D
:102C200090E00E94AA2F282F30E040E050E060E0C2
:102C300070E080E090E000E20E94EC2EB22FA32F23
:102C4000F42FE52FD62FC72F97018601BC29A12B82
:102C5000FE295E2F532B2B2F3A2F4F2F6D2F7C2FBA
:102C6000CDB7DEB7E8E00C94DB2EB0E0A0E0EBE3FC
:102C7000F6E10C94BB2E49015A016B017C010E94C4
:102C8000F4158401A4016A2D7B2D88E090E00E9458
:102C9000E02F94014A2D5B2DB601C70100E20E948E
:102CA000072F622F84E290E00E94CE2FCDB7DEB7CF
:102CB000ECE00C94D72EE2EBF3E0208131814281ED
:102CC000538164817581868197810E9435160895AC
:102CD000E2EBF3E083E0808311828FEF82838383D2
:102CE0001482758123E030E04FEF5FEF60E0868172
:102CF00097810E94351608958091B20380FF02C02B
:102D00008695089580E008958091B20381700895BA
:102D10009091B603933018F49F5F9093B603882385
:102D200091F02091B2033091B3034091B4035091DC
:102D3000B5036091B6037091B7038091B803909189
:102D4000B9030E943516089581E00E9488160895FF
:102D50009091B603992319F091509093B60388236C
:102D600091F02091B2033091B3034091B40350919C
:102D7000B5036091B6037091B7038091B803909149
:102D8000B9030E943516089581E00E94A81608959F
:102D90008091B60308958093B603662389F020914D
:102DA000B2033091B3034091B4035091B5037091D5
:102DB000B703682F8091B8039091B9030E9435162C
:102DC000089560E00E94CB1608958091B3030895A2
:102DD0008091B40308958091B503089521E030E017
:102DE000A90102C0440F551F8A95E2F7CA0120913C
:102DF0005503662339F0822B8093550381E080933D
:102E00004703089580958223F7CF21E030E001C089
:102E1000220F8A95EAF790915503922381E009F4F5
:102E200080E0089570E00E94101E0895A5E0B0E0D3
:102E3000ECE1F7E10C94B92E709012019091B2037D
:102E400090FF16C0C0904803D0904903C114D1042C
:102E500009F58091110133E0839FC0011124672D92
:102E600086549C4F0E9412172596EEE00C94D52EA6
:102E7000809113012091140133E0839FF00111240C
:102E8000E654FC4F8217F0F61182108212828F5F97
:102E90003396F8CF90FFDDCFF12CE12C43E0642E88
:102EA0008E2D0E940517882309F43BC0F701EE0F11
:102EB000FF1FEC0DFD1DA590B490A114B10449F2C3
:102EC00045E050E0B501CE0101960E947E2F0981B8
:102ED0000F3F39F18A81800F9927991F873191051A
:102EE00014F086E190E04C01880C991C880D991D26
:102EF0009C0126543C4F4901069D80011124065433
:102F00001C4F0815190520F035E0A30EB11CD8CFD1
:102F100098014D816C818B810E94E6150D5F1F4FDA
:102F2000F0CF8FEFE81AF80A28E0E216F10409F072
:102F3000B7CF8FCF9091B20390FF0EC09091130145
:102F40002091140133E0939FF0011124E654FC4FCB
:102F5000921718F00E9416170895818360834283A8
:102F60009F5F3396F5CFA3E0B0E0E9EBF7E10C9477
:102F7000C52E9091B20390FF0AC09E012F5F3F4F74
:102F80000E94E6154B8169818A810E949A172396D7
:102F9000E2E00C94E12ECF93DF93EC01EC81F0E0C2
:102FA000E254FE4F4491E2EBF3E0628181810E94A2
:102FB000B3178C818F5F8C83DF91CF910895CF936E
:102FC000DF93EC01E2EBF3E0438162818C810E94AC
:102FD000B3178C818F5F8C83DF91CF910895A3E02D
:102FE000B0E0E5EFF7E10C94C32E8C018091D6029E
:102FF00081110AC09E012F5F3F4F4FEF6FEF0E947C
:10300000E6158A818093D602F8016481613069F007
:103010008091D60240E0662361F040E0623011F416
:103020004091D60280E060E004C06091D60240E0AA
:1030300080E00E949A17F801848190E0019663E095
:1030400070E00E94412E84832396E4E00C94DF2EEE
:10305000A3E0B0E0EEE2F8E10C94BE2E082FD62EED
:10306000F42EC22E9091B20390FF2EC0E92FE69568
:10307000AE2FB0E0AD54BE4F8C91809353039E7F32
:10308000923031F59E012F5F3F4F802F0E94E61551
:103090004B8169818A810E949A170093B303D09271
:1030A000B403F092B503CC2079F02091B203609183
:1030B000B6037091B703302F4D2D5F2D8091B8036B
:1030C0009091B9030E9435162396E9E00C94DA2E0C
:1030D000823019F4F090B503E0CF863019F40091F6
:1030E000B303DBCF8930D9F38931B9F6E9516E2FBB
:1030F0006170B62EE695F0E0E254FD4F1491E12C9C
:1031000060911501E61618F00E941617C6CFE19ED1
:10311000C001112470E00E942D2E802FB11014C028
:10312000860F20911301622F6E0D7727771F9B0169
:10313000220F331F260F371F26543C4F4F2D6D2D66
:103140000E94E615E394DCCF861BEBCFE2EBF3E0C5
:103150009181282F4381628188E0890F0E9428187D
:10316000089581E00E94A6180895E2EBF3E09181B2
:10317000282F4381628188EF890F0E9428180895C3
:1031800081E00E94B5180895E2EBF3E0628121E14D
:10319000620F08F46FEF282F438181810E94281865
:1031A000089581E00E94C4180895E2EBF3E0628183
:1031B00021E1621B08F460E0282F438181810E9495
:1031C0002818089581E00E94D5180895E2EBF3E0F5
:1031D000438121E1420F08F44FEF282F6281818162
:1031E0000E942818089581E00E94E6180895E2EBF5
:1031F000F3E0438121E1421B08F440E0282F628183
:1032000081810E942818089581E00E94F71808958E
:1032100020E00E9428180895EF92FF921F93CF9309
:10322000DF93EC0110E0EE24EA94F12C609115019B
:10323000161770F00E9416179A818C8190FF27C094
:103240008F5F8C83DF91CF911F91FF90EF90089556
:1032500020911301422F410F5527551FCA019A0192
:10326000220F331F280F391F26543C4F70E0C7012F
:103270000E94412E962F8C814091B5036091B4033A
:10328000199F800D11240E94E6151F5FCFCF81503A
:10329000D8CFB0E0A0E0EFE4F9E10C94BD2EFC0142
:1032A00082810FEF80FF01E010E046E1A42E8091C3
:1032B0001501181798F00E9416178091D802013056
:1032C00009F04FC0811102C0809115018150809397
:1032D000D802CDB7DEB7EAE00C94D92EC091130125
:1032E000C12ED12CCC0DDD2DD11DCE01880F991F03
:1032F000C80FD91FC654DC4F198218821A8234E0D5
:10330000E32EF12CB12C8091D8028B0D87311CF16A
:103310006A2D0E941F2E892F082E000C990BC816AB
:10332000D90691F48091B5038E9DA0018F9D500D1B
:10333000112455954795559547959E016091B40385
:103340008091B3030E94E615B00EF1E0EF1AF10888
:10335000D1F61F5FACCF87FFDFCF90911501890FAA
:10336000DBCF90E001966091150170E00E94412E44
:10337000AECF0F931F93CF93DF9380911301909162
:10338000140123E0829FF0011124E654FC4F8917B9
:1033900040F1C0E0D3E060911501C61740F10E94F2
:1033A000161720910F018091D702820F8093D702C8
:1033B00090911001920F90931001191654F4082E59
:1033C000000C990B409115014150550B841795073E
:1033D0001CF0219520930F01DF91CF911F910F9148
:1033E00008951182108212828F5F3396D0CF0C2FF6
:1033F00010E070E0C8010E94412E20911301820F5D
:10340000482F50E02091D702022E000C330B0217F8
:103410001307BCF020911001022E000C330B201773
:1034200031077CF08D9F9001112426543C4F409130
:10343000B5036091B4038091B3030E94E615CF5F9A
:10344000AACFFA01EE0FFF1FE40FF51FE654FC4F61
:10345000118210821282F3CFB0E0A0E0E2E3FAE141
:103460000C94BB2EEC014C81042F10E09801D80184
:103470000E948C2E9B01AC010E94A22E4B015C018C
:10348000E0E2F0E0E01BF10BA5E5B0E0AC019B0150
:103490000E94A22E6B017C019F01DF010E94842EFD
:1034A0009B01AC010E94AD2E9B01AC01280D391D82
:1034B0004A1D5B1DC701B6010E94552EF22E822FB8
:1034C00090E039E23F1520F143E0249F9001112460
:1034D00035952795122F109500E085E5E82EEF1819
:1034E00080911501081718F10E9416179C8181E040
:1034F000992319F0903219F48FEF80930E01809187
:103500000E01890F8C83CDB7DEB7ECE00C94D72E7B
:1035100025E530E0B901681B790B9B01220F331FB1
:10352000260F371F37FFD4CF2F5F3F4FD1CF8E2DC0
:1035300001FD8F2D20911301622F600F7727771FD8
:103540009B01220F331F260F371F26543C4F412F5C
:103550006091B4030E94E6150F5FC2CF0F931F93D3
:10356000CF93DF93EC0110E000E0909115019017EC
:10357000110609F06CF40E9416178C8190E00196F8
:10358000817099278C83DF91CF911F910F910895BE
:1035900020911301A801420F511D9A01220F331FE0
:1035A000240F351F26543C4F4C816091B403809109
:1035B000B30396959017110651F04CF0442349F04F
:1035C0004091B5030E94E6150F5F1F4FCECF4423F5
:1035D000B9F340E0F7CFB0E0A0E0E1EFFAE10C94FE
:1035E000B72EFC016280448081E08483EEEBF1E041
:1035F0007490EDE3F2E0E491C091B503C695C15833
:10360000D0E0CC0FDD1FCD2FDD27812C75E0972E6C
:10361000AA24AA94B12C55245A94E719EE2EF12C21
:1036200080911501881638F00E941617CDB7DEB7C5
:10363000E0E10C94D32EC82CD12C82E0861568F0E2
:103640009C9CF0019D9CF00D1124E752FD4F809150
:10365000B30380838091B4038183411023C09C9C79
:10366000F0019D9CF00D1124E752FD4F1382128250
:1036700020911301C601820F911D9C01220F331F5F
:10368000280F391F26543C4F9C9CF0019D9CF00D47
:103690001124E752FD4F4281618180810E94E6152D
:1036A0008394BECF9C9C80019D9C100D11240752D9
:1036B0001D4FF80183818823F1F081508383859D1C
:1036C000C0011124648170E00E942D2EFB01FF27B0
:1036D000E254FE4F8491E82FE719E59DC0011124C3
:1036E000B7010E942D2E8091B503689FB00111246F
:1036F000F8017283BDCF0E946E2FB5010E94412E4A
:103700008C179D070CF0B4CFF2E0F61598F40E94E8
:103710006E2FB5010E94412EF80180830E946E2F0A
:103720002091B4032695622F70E00E94412E280F4D
:10373000F80121839C9CF0019D9CF00D1124E7521F
:10374000FD4F12828091B503893C58F088EC9C9C17
:10375000F0019D9CF00D1124E752FD4F848383837B
:1037600087CF8431A0F784E1F2CFE2EBF3E0208150
:103770002E7F2083318142815381648175818681CE
:1037800097810E943516109254030E9416170895CF
:10379000E2EBF3E080818E7F8083109254030E94DD
:1037A00016170895109254038091510381110AC095
:1037B00081E0809351038091B20381708093500324
:1037C0000E94C81B08956091B203669570E04BE0BB
:1037D00050E086E191E00E94872F892B19F481E067
:1037E000809354030E94742690934B0380934A0362
:1037F00008959091B20390FF33C09170811131C050
:1038000092609093B203662391F02091B2033091BD
:10381000B3034091B4035091B5036091B603709126
:10382000B7038091B8039091B9030E943516609157
:10383000B203669570E04BE050E086E191E00E94B3
:10384000872F892BA9F01092540381E080934D03B8
:103850004091B5036091B4038091B3030E940819AD
:1038600008958B3210F09465CCCF880F982BC9CF78
:103870000E94E31BEACF682F9091B203969581E0F6
:10388000890F8B3208F081E00E94F91B089581E0D6
:103890000E943B1C0895682F9091B20396958FEF7C
:1038A000890F09F48AE20E94F91B089581E00E94C1
:1038B0004B1C089561E00E94F91B0895E2EBF3E0D0
:1038C00080818160808386950E945A1C0895809132
:1038D000B20380FF03C00E94B51B08950E945E1CC6
:1038E000089560E00E94F91B0895809152038111B0
:1038F0003EC00E94830D811104C00E94250E0E94CB
:1039000068160E9403162093B2033093B3034093CA
:10391000B4035093B5036093B6037093B7038093D9
:10392000B8039093B9032E7FA1F40E9468160E94F9
:1039300003162093B2033093B3034093B403509320
:10394000B5036093B6037093B7038093B803909365
:10395000B9030E94F415109254038091B20380FFC2
:1039600003C086950E94711C81E0809352030895E4
:10397000E2EBF3E080818160808386950E94711C78
:1039800008958091B20380FF03C00E94C81B089570
:103990000E94B81C08951092510380915003811128
:1039A0000E94B81C0E94E31B08950F931F93CF93AE
:1039B000DF93809154038823C1F180915303E091F8
:1039C000B203E695E81BE0934C03823009F041C056
:1039D000F0E0E654FE4FE491CE2FD0E00BEC17E17F
:1039E00080914D03882361F010924D030E9474264C
:1039F00090934B0380934A0310924F0310924E030F
:103A00000E947426E0914A03F0914B038E1B9F0B9A
:103A10008F3F9F4750F4EC0FFD1FF0934B03E09353
:103A20004A038AE493E0F8010995809147038823CB
:103A300059F01092470380915403811105C0809181
:103A4000B20386950E94711CDF91CF911F910F9157
:103A50000895863049F4F0E0E954FE4FE491CE2F0A
:103A6000D0E00FED17E1BCCF893051F4E695F0E0DE
:103A7000EC54FE4FE491CE2FD0E00CE019E1B0CF32
:103A80008F3051F4E695F0E0EF54FE4FE491CE2FE5
:103A9000D0E009E419E1A4CF853149F4F0E0E25522
:103AA000FE4FE491CE2FD0E009EB19E199CFC8E2A7
:103AB000D0E00CE21AE1883109F492CF833239F474
:103AC000ECEAF1E0C591D4910FEE17E189CFC4EF94
:103AD000D1E00EEA1AE1843209F482CFC0EDD7E0DA
:103AE00002EE15E1853209F07BCF8E2F63E00E9454
:103AF000132EE92FF0E0E755FE4FE491CE2FD0E0F2
:103B00000BEE1AE16DCFFA01811101C0FB0109959D
:103B10000895CF93DF93C82FD62F0E947C168C1761
:103B200048F00E947C168D1728F40E94471CDF91F4
:103B3000CF9108958C2F0E945A1CF9CF1F93CF93D9
:103B4000DF93EC01FB011581111110C00E94820C62
:103B50008272FE01E052F847E531F10508F05EC0DF
:103B6000E15DFF4C0C94772E0E94671C812FDF9142
:103B7000CF911F91089546E55CE167E47CE10E94E6
:103B8000831DF4CF47E45CE166E57CE1F8CF40ECCF
:103B900058E161EB78E1F3CF41EB58E160EC78E17B
:103BA000EECF42EE58E161ED78E1E9CF41ED58E129
:103BB00062EE78E1E4CF44E059E163EF78E1DFCFF2
:103BC00043EF58E164E079E1DACF44EC56E164EA8E
:103BD00076E1D5CF44EA56E164EC76E1D0CF81E0DE
:103BE0000E945A1CC3CF65E082E00E94891DBECFAF
:103BF00068E086E0FACF6EE089E0F7CF64E18FE01D
:103C0000F4CF67E185E1F1CF88E1EACF62E289E1B3
:103C1000ECCF83E2E5CF6AE285E2E7CF11E0A6CF01
:103C20006E9A4EB14F7B5EB15064EFB7F8949B0132
:103C3000220F331F260F371F280F391F2817390768
:103C400041F4EFBF8FE594E00197F1F700C0000069
:103C50000895DC016D91CD0178E05EB9000000C0EF
:103C600067FF4EB9660F000000C000C000C04EB92B
:103C700000C07A9591F7E2CF85E290E00E94AA2FEA
:103C8000833289F486E290E00E94AA2F883059F4AA
:103C900087E290E00E94AA2F91E0863209F090E03E
:103CA000892F8170089580E0FCCFCF93C82F6FEFEC
:103CB000811163E285E290E00E94CE2F6FEFC11187
:103CC00068E086E290E00E94CE2F6FEFC11166E2BD
:103CD00087E290E00E94CE2FCF910895089588E268
:103CE00090E00E94AA2F682F70E090E080E0089595
:103CF0000895CF93C62F0E94781E6C2F88E290E023
:103D00000E94CE2FCF91089580E00E94551E60E062
:103D100070E0CB010E94791E0E9404220E94D122F1
:103D200081E00E94551E08950E946E1E0E946F1E23
:103D30000E94781E0E943C1E811102C00E94841EB7
:103D400008950E94C11C08959C01FB018581882370
:103D500051F0A90157574038510530F4822F0E9485
:103D6000E12280E0089581E008952FEFFC01208397
:103D7000089580E00895CF93DF93EC01888182302D
:103D8000E9F028F4813071F0DF91CF91089583300C
:103D9000F9F08430C9F70E94E51689830E94E8167D
:103DA0008A83F2CF0E94EB162FEF829FC00111246D
:103DB0006FEF70E00E942D2E6983E6CF0E9484167B
:103DC000882321F00E947C168983DECF80E0FCCF1F
:103DD0000E94C816F9CFCF93DF93EC01888182301F
:103DE00021F128F4813069F0DF91CF91089583307B
:103DF00041F18430C9F70E94EB16482F6A8189810E
:103E000011C089812FEF829FC00111246FEF70E0F4
:103E10000E942D2ED62F0E94E816C82F0E94E5166C
:103E20004D2F6C2F0E940819DFCF8981811103C0AB
:103E30000E94C81BD9CF0E94B81C89810E94711CA6
:103E4000D3CF89810E94E116CFCFFC019C012E5F68
:103E50003F4F9081983041F0993051F0973059F4AC
:103E6000C9010E94EB1E0895C9010E94BB1E08955E
:103E70000E945B1608958FEF80830895FC012181D5
:103E8000223019F40E94251F08950E94B51E08953E
:103E9000B0E0A0E0EEE4FFE10C94BF2EEC01C62EF2
:103EA0000E94B91E811110C0E881E150E331B8F4DD
:103EB000F0E0EC5BFF4C0C94772E19828CE08A8347
:103EC0006C2DCE010E944727CDB7DEB7E8E00C94F9
:103ED000DB2E89818230C1F028F4813061F08FEFD0
:103EE0008883EECF833099F08430C9F71A821B8221
:103EF0001C821D82E5CF0E9480260E947D2E6A834F
:103F00007B838C839D83DCCF0E946F1EF6CF8A81DA
:103F1000082F10E07E019EE0D92ED80E0B3011053F
:103F200078F6802F0E946611F701938384830F5FD8
:103F30001F4FF2E0EF0EF11CD012F0CFC1CF8981FC
:103F4000823031F0853059F68A810E94A11EB8CFA7
:103F50006A817B818C819D810E947D2E0E94791EC9
:103F6000AFCF4B816A8189810E94C621982789271A
:103F700098279D838C83A4CF2C813D8132272327D2
:103F800032274B816A8189810E94E82199CF0E9462
:103F9000042296CF6C2DCE010E943E1F91CF0E942D
:103FA000842289838DCF0E9486229827892798278B
:103FB0009A83898385CF6B8170E089819A81AE0174
:103FC0004C5F5F4F9827892798270E94892278CFD6
:103FD0006B8170E089819A81AE014C5F5F4F9827B9
:103FE000892798270E94AD226BCF0E94D12268CFEB
:103FF0000E94B421D6CF6B8170E089819A81AE0195
:104000004C5F5F4F9827892798270E94302258CF0E
:104010006B8170E089819A81AE014C5F5F4F982778
:10402000892798270E9454224BCFCF93DF93EC012E
:10403000FB018581882309F4D2C09E0130572332C9
:10404000310508F0B2C00E94990D909385038093CA
:104050008403FE01E150F047E232F10520F4E95A11
:10406000FF4C0C94772E80918403816080938403AD
:1040700093C0809185038860809385038DC0809173
:1040800084038260F3CF809184038460EFCF8091BA
:1040900084038860EBCF809185038160EDCF8091B0
:1040A00085038260E9CF809184038061DFCF8091B6
:1040B00084038062DBCF809184038064D7CF0E9429
:1040C000F407809184038068D1CF809184038C6051
:1040D000CDCF809185038360CFCF809184038E7F85
:1040E000C5CF80918503877FC7CF809184038D7F63
:1040F000BDCF809184038B7FB9CF80918403877F6C
:10410000B5CF809185038E7FB7CF809185038D7F5A
:10411000B3CF809184038F7EA9CF809184038F7D5C
:10412000A5CF809184038F7BA1CF0E94F40780915B
:1041300084038F779BCF80918403837F97CF809177
:1041400085038C7F99CF8091840382FB992790F916
:1041500021E0922790FB82F990FB83F987CF809131
:104160008503982F909591708E7F892B90FB81F914
:1041700083CF90918403892F8F7B96FF806476CFC5
:104180000E94F40790918403892F97FB87F9805848
:104190006DCF81E00E94280E809184039091850369
:1041A0000E949E0D0E94F40780E0DF91CF91089558
:1041B00080E0F0CF90918403892F8F7E94FF8061FF
:1041C00055CF90918403892F8E7F90FF81604ECFD1
:1041D00090918503892F877F93FF88604DCF81E081
:1041E000E4CFB0E0A0E0E7EFF0E20C94C02EE82FBF
:1041F000F0E0ED53FC4FD490282F26952695269578
:1042000030E0F901ED59FB4F0491877010E0082E62
:1042100002C0159507950A94E2F701701127F9017C
:10422000ED5AFB4FE490F12C082E02C0F594E79470
:104230000A94E2F791E0E922FF24F901ED5BFB4FDC
:10424000C491D0E002C0D595C7958A95E2F7C170B8
:10425000DD270115110519F081EE0E940905E11411
:10426000F10419F086EE0E9409058D2D0E94A1052A
:10427000E114F10419F086EE0E94560501151105AE
:1042800019F081EE0E945605CD2B19F08CE20E94A8
:10429000A105CDB7DEB7E7E00C94DC2EEF92FF92DC
:1042A0000F931F93CF93DF93EC01162F0AE08881C1
:1042B000882309F454C0813009F04EC089818130CF
:1042C00099F47E0122E0E20EF11C8A810E94A10590
:1042D000E7012196812F815050F3EFE9FFE03197FC
:1042E000F1F700C00000F7CF823041F47E0182E098
:1042F000E80EF11C8A810E940905EACF833041F45F
:104300007E01E2E0EE0EF11C8A810E945605E0CFAC
:10431000843011F02196DDCF2A81229690E080E052
:10432000AE014F5F5F4F2053330B2A30310548F009
:10433000019778F2EFE9FFE03197F1F700C0000054
:10434000F7CF089FB001099F700D1124C901860F96
:10435000971F2981EA01E4CF0E94F120BACFCDB79F
:10436000DEB7E6E00C94DD2E84E0089550E0440FC3
:10437000551F92E1699F400D511D112496EC899FB4
:10438000400D511D1124CA01899608950F931F9362
:10439000CF93DF938430C8F46B30B8F44930A8F47D
:1043A0000E94B6218C010E94AA2FC82FD0E0DC2FDA
:1043B000CC27C80101960E94AA2F9E01282BC90173
:1043C000DF91CF911F910F91089590E080E0F8CF99
:1043D0000F931F93CF93DF93122F032F843078F422
:1043E0006B3068F4493058F40E94B621EC01602F1C
:1043F0000E94CE2F612FCE0101960E94CE2FDF9119
:10440000CF911F910F9108950F931F93CF93DF9337
:10441000D0E0C0E010E019C00E947F0321E030E04E
:104420008C171D0639F034F0402F612F8C2F0E941D
:1044300081039C01402F612F8C2F0E94E8210F5F88
:10444000093051F71F5F1B3011F000E0E5CF2196D6
:10445000C430D105F9F6DF91CF911F910F910895E6
:10446000EF92FF920F931F93CF93DF93EC018A019A
:104470007C01E60EF71ECE018996CE15DF0529F4E4
:10448000CDB7DEB7E6E00C94DD2EC83123E0D207CD
:1044900040F40E94AA2FF80180830F5F1F4F2196DE
:1044A000EACFF8011082F9CFB0E0A0E0EAE5F2E24D
:1044B0000C94BF2E7C016A018C01060F171FEC01C2
:1044C000CE018996C017D10729F4CDB7DEB7E8E051
:1044D0000C94DB2EC83123E0D20740F4FE01EE1924
:1044E000FF09EC0DFD1D60810E94CE2F2196E8CFC3
:1044F000843038F46B3028F4493018F40E94C62117
:10450000089590E080E0089580E108958FEB90E0B9
:104510000895EF92FF920F931F93CF93DF93EC01D7
:104520008A017C01E60EF71ECE018F5B9C4FCE15F3
:10453000DF0529F4CDB7DEB7E6E00C94DD2ECF3BE6
:10454000D10540F40E94AA2FF80180830F5F1F4F0E
:104550002196EACFF8011082F9CFB0E0A0E0E3EBBA
:10456000F2E20C94BF2E7C016A018C01060F171F2A
:10457000EC01CE018F5B9C4FC017D10729F4CDB75A
:10458000DEB7E8E00C94DB2ECF3BD10540F4FE0112
:10459000EE19FF09EC0DFD1D60810E94CE2F2196C2
:1045A000E8CFCF93DF93C1E4D3E060E0CE010E9477
:1045B000CE2F2196C11584E0D807B9F7DF91CF91AE
:1045C0000895A8E0B0E0E7EEF2E20C94BD2EF82EDC
:1045D0008FE08F1508F46EC08FEF93E00E94AA2F32
:1045E000811168C001E413E0F11035C0FE0131967D
:1045F0006F0188E011928A95E9F77801FFEFEF1AD1
:10460000FF0AC8010E94AA2F89831A82882309F40D
:1046100051C08130D1F4580182E0A80EB11CC7010D
:104620000E94AA2F8A83882309F444C09FEF980F21
:104630009330F0F4780193E0E90EF11CC5010E947B
:10464000AA2F8B838823B1F11C8260E0C6010E94EF
:104650004E218701D2CF011594E0190759F1C80105
:104660000E94AA2F811101C0FA940F5F1F4FBCCF87
:104670007501843051F702E010E07501EFEFEE1A9A
:10468000FE0AC5010E94AA2FF601E00FF11F8083E8
:10469000882381F08C3741F4E2E0F0E0EC0FFD1F5D
:1046A000E00FF11F1082D1CF0F5F1F4F570107306E
:1046B000110519F72896EAE00C94D92ECF93DF93D1
:1046C000EB0186319C4711F50E94820C9D81992354
:1046D00099F08A7A91E009F490E090935603811161
:1046E00009C089E20E945A0C0E94DB0C80E0DF9135
:1046F000CF91089585E3F6CF80915603811104C0D0
:1047000089E20E94620CF0CF85E3FBCF81E0EFCF1E
:104710000F931F93CF93DF93C42FD22FFC0185817A
:104720008823C9F0409359030E947426909358033C
:104730008093570380E28C0F883040F4C77081E08B
:1047400001C0880FCA95EAF70E94AA05DF91CF91B0
:104750001F910F91089510915903141332C0809145
:104760005703909158030E948C26883C910548F588
:10477000C0E2CD0F1D17B9F080E2810F883040F400
:10478000177081E001C0880F1A95EAF70E94B10501
:10479000C83048F481E09D2F977001C0880F9A952A
:1047A000EAF70E94AA05802F0E94A105C83070F682
:1047B000D77081E001C0880FDA95EAF70E94B10551
:1047C000C5CF80E28C0F883008F6C77081E001C049
:1047D000880FCA95EAF7F2CF0F93DB0188519C4707
:1047E00087309105A0F5FC01E758FF4C0C94772E1B
:1047F00006E221EE41EE6AE17CE7CD010E948823CA
:1048000080E00F91089507E225EE45EE6BE17CE72D
:10481000F4CF06E221EE40EE68E17CE7EECF07E25E
:1048200025EE44EE69E17CE7E8CF06E221EE42EEB8
:104830006CE17CE7E2CF07E225EE46EE6DE17CE736
:10484000DCCF08E221E045EE6EE17CE7D6CF15969D
:104850008C91882319F010925903D3CF81E0D1CFE6
:104860001F93CF93DF9387372CE7920759F0C1E06E
:1048700088379C47E1F4FB01C581CC2371F10E948C
:10488000732406C0FB01C581CC23B1F00E947024C3
:104890000E946C080E947624D82F0E947324C82F8F
:1048A0000E9470244D2F6C2F0E949409C0E08C2F21
:1048B000DF91CF911F9108950E9470240E94780883
:1048C0000E947624182F0E947324D82F0E947024EF
:1048D000412F6D2F0E949409EACF0E947324EECFDE
:1048E00080912301089580912201089580912101F2
:1048F00008959093EF018093EE01089590935F03E4
:1049000080935E030895E0915E03F0915F0330971A
:1049100029F00190F081E02D0995089580E0089537
:10492000E0915E03F0915F03309799F020912C01A4
:10493000222359F02091840327FF07C0DC012C912A
:1049400011962C93119726E02C930280F381E02D91
:1049500009950895E0915E03F0915F03309739F077
:1049600022E0DC012C930480F581E02D0995089567
:10497000A3E0B0E0EEEBF4E20C94C52E20915C03D2
:1049800030915D0328173907A1F090935D03809360
:104990005C03E0915E03F0915F03309751F023E0F8
:1049A00029839B838A830680F781E02DCE010196BF
:1049B00009952396E2E00C94E12EA3E0B0E0E3EE4B
:1049C000F4E20C94C52E20915A0330915B03281712
:1049D0003907A1F090935B0380935A03E0915E0343
:1049E000F0915F03309751F024E029839B838A8301
:1049F0000680F781E02DCE01019609952396E2E02D
:104A00000C94E12EFC01329680912C01882321F038
:104A1000809184039EE187FF96E080E0915008F446
:104A2000089521912223D1F38F5FF8CF662301F1FE
:104A300020912C012223F1F02091840327FF1AC03A
:104A4000462F4695469546954E3190F4677021E085
:104A500030E002C0220F331F6A95E2F7840F911DE8
:104A6000FC01828190E02823392381E0232B69F423
:104A700080E00895FC01329608962191261721F0D6
:104A8000E817F907D1F7F4CF81E008959C01FC0104
:104A900032969FEF80E04191461751F09F3F19F405
:104AA000411101C0982F8F5F8630A9F79F3F09F40D
:104AB0000895290F311D97FD3A95F90162830895F4
:104AC000FC01329608962191261303C0DF0111974D
:104AD0001C92E817F907B9F70895E62FE695E695D1
:104AE000E695EE3168F4E80FF92FF11D677021E0CB
:104AF00030E001C0220F6A95EAF78281822B82831F
:104B00000895E62FE695E695E695EE3170F4E80F08
:104B1000F92FF11D677021E030E001C0220F6A9586
:104B2000EAF72095828128232283089520912C0181
:104B3000222339F02091840327FF03C00E946D25B2
:104B400008950E944625089520912C01222339F0D2
:104B50002091840327FF03C00E94812508950E94AD
:104B600060250895FC01329680912C01882351F034
:104B70008091840387FF06C08EE1DF011D928A9534
:104B8000E9F7089586E0F9CF46E050E00E94942FBF
:104B900021E0892B09F420E0822F089508950E94D6
:104BA000CE250895811106C081E0809360030E94A4
:104BB000CF25089582E0F9CF83E0809360030E94BF
:104BC000CF2508950E94D225089581E08093600347
:104BD0000E94CF2508950E94E5250895089508951F
:104BE0000E94EF250895089508950E94EE250895E6
:104BF000CF930E94F3250E9431120E94F425C0E059
:104C00008C2F0E946611892B31F4CF5FCB30C1F716
:104C100080E0CF91089581E0FCCF85B7806885BFA3
:104C200085B7806885BF08951F921FB61F92112413
:104C30008F939F93AF93BF9380916103811113C0B2
:104C40008091FC039091FD03A091FE03B091FF03BE
:104C50004196A11DB11D8093FC039093FD03A09389
:104C6000FE03B093FF03BF91AF919F918F911F906F
:104C70001FBE1F90189580910404843031F10E946A
:104C80007B041092610388E190E020E40FB6F89471
:104C9000A895809360000FBE2093600083B7817F4A
:104CA000846083BF83B7816083BF7894889583B71E
:104CB0008E7F83BF0FB6F894A895809160008861BD
:104CC00080936000109260000FBE08950E94F40768
:104CD0000E948204089582E084BD93E095BD9AEF1E
:104CE00097BD80936E0008952FB7F8948091FC03D0
:104CF0009091FD03A091FE03B091FF032FBF089593
:104D00002FB7F8946091FC037091FD038091FE032E
:104D10009091FF032FBF08959C014FB7F8948091A5
:104D2000FC039091FD03A091FE03B091FF034FBFE0
:104D3000821B930B089578941F921FB61F92112423
:104D40008F939F93AF93BF938091FC039091FD034A
:104D5000A091FE03B091FF030196A11DB11D8093A8
:104D6000FC039093FD03A093FE03B093FF03BF9158
:104D7000AF919F918F911F901FBE1F90189581E05A
:104D80008093E00080E28093D8001092C9008FE108
:104D90009EE40197F1F700C0000087E090EBDC0192
:104DA00080930D0490930E04A0930F04B09310040D
:104DB00088E19CE00FB6F894A895809360000FBE40
:104DC00090936000FFCF88E19CE00FB6F894A8951F
:104DD000809360000FBE90936000FFCF80918203AC
:104DE00008959B01BA01909104049430E9F48F7006
:104DF0008093E9009FEF8091E800915085FD06C007
:104E000085ED8A95F1F700009111F5CF8091E800CA
:104E100085FF0AC050E040E0C9010E943D29809111
:104E2000E8008E778093E800089543E050E0BC01ED
:104E300084E00E94F126089546E050E0BC0184E041
:104E40000E94F1260895CF93DF93EC0180912C010D
:104E5000811111C048E050E0BE0181E00E94F126BE
:104E600080E2FE01A2E6B3E001900D928A95E1F79F
:104E7000DF91CF9108958091840387FF05C040E2C0
:104E800084E050E0BE01EACF48E081E0FACF603232
:104E900031F440E250E0BC0182E00E94F126089526
:104EA00080910304811109C00E941C2B0E94792B60
:104EB0008091E20084608093E200089510920304E0
:104EC00008950E94E52508956091000481E0611134
:104ED00001C080E00E94DC2508959091040481E0E7
:104EE000943009F080E0609100040E94E22508956A
:104EF00042E061EC81E00E94982A42E261EC84E0A9
:104F00000E94982A42E261EC82E00E94982A42E2E2
:104F100060EC83E00E94982A9091040481E0943030
:104F200009F080E0609100040E94D22508958091EC
:104F30000604833009F463C030F48130E1F182303B
:104F400009F4A0C008958A3009F48CC08B3009F4AC
:104F500071C0893009F052C080910504813209F096
:104F60004DC08091090490910A04009719F00297AE
:104F700009F044C08091E800877F8093E800809129
:104F8000E80082FF37C09091F3008091F200029711
:104F900031F48091F100813011F0863021F480915C
:104FA000F100809382038091E8008B778093E80082
:104FB0000E94CC2A23C080910504813AF9F48091A3
:104FC000E800877F8093E8008091090490910A04AB
:104FD000892B61F460E282E693E070E00E94DB29B5
:104FE0008091E8008B778093E800089560E090E07E
:104FF00080E0F3CF809104048111C1CF08958091A6
:105000000504813AD9F78091090490910A04892B0B
:10501000A9F78091E800877F8093E8008091E800FD
:1050200080FFFCCF80912C018093F1008091E800FB
:105030008E77BCCF80910504813201F780910904FD
:1050400090910A04892BD1F68091E800877F8093A4
:10505000E8000E94CC2A8091070480932C010E94D2
:10506000F407089580910504813241F68091E800AB
:10507000877F8093E8000E94CC2A80910804809367
:105080008303089580910504813A09F0B7CF809198
:10509000E800877F8093E8008091E80080FFFCCFE4
:1050A00080918303C1CF84B7877F84BF0FB6F89404
:1050B000A8958091600088618093600010926000E4
:1050C0000FBE80E890E00FB6F89480936100909353
:1050D00061000FBE0E94EB2508950E941C2B0E94C8
:1050E000792BE2EEF0E080818460808378940E94E6
:1050F000F82D089584E291E00E947E240895809125
:105100000404853031F480910404853019F00E9444
:10511000662608950E943B2680910204882399F315
:105120000E94F825882379F30E9427290E94F4071A
:10513000EACFA0E2B0E0EFE9F8E20C94C52E80914E
:105140000404843009F583E08093E9008091E8004D
:1051500082FF1AC08091E80090E085FF09C050E00E
:1051600040E060E270E0CE0101960E948C2991E05F
:105170008091E8008B778093E800992329F060E222
:10518000CE0101960E94481FA096E2E00C94E12E09
:105190009A0140910B0450910C040E94D02808956C
:1051A000492F55274330510521F168F4413051050D
:1051B00009F443C04230510509F444C090E080E056
:1051C00050E040E026C04132510551F142325105D4
:1051D000A9F76330710590F7FB01EE0FFF1FEF5148
:1051E000FE4F4081518162527E4FFB01808190E0F1
:1051F00010C099278130910581F0009729F002971E
:10520000E9F6E3E7F4E002C0E1EBF4E0849190E03A
:10521000AF01F901518340830895E3E9F4E0F6CF4B
:105220006330710558F6660F771FFB01E951FE4F99
:105230004081518189E090E0ECCF82E190E040E153
:1052400055E0E7CF8BE590E045EB54E0E2CF80E11D
:1052500089BD82E189BD09B400FEFDCF8091D800EF
:105260008F7D8093D8008091E00082608093E00081
:105270008091E00081FDFCCF0895AF92BF92CF9264
:10528000DF92FF920F931F93CF93DF936C01EB019B
:105290008A010E94EB2AF82E811123C00115110505
:1052A00039F0F80180819181C81BD90BC80ED91E35
:1052B000B12CA12C2097A9F08091E80085FD22C097
:1052C0008091E8008E778093E80001151105A1F028
:1052D000F80180819181A80EB91EB182A08285E07B
:1052E000F82E8F2DDF91CF911F910F91FF90DF90BE
:1052F000CF90BF90AF9008950E94EB2A8823D1F2FF
:10530000F82EEFCFF60181916F018093F100219784
:10531000FFEFAF1ABF0ACECFAF92BF92CF92DF920C
:10532000FF920F931F93CF93DF936C01EB018A01E0
:105330000E94EB2AF82E811123C00115110539F0C6
:10534000F80180819181C81BD90BC80ED91EB12CE0
:10535000A12C2097A9F08091E80085FD22C08091C2
:10536000E8008B778093E80001151105A1F0F801A2
:1053700080819181A80EB91EB182A08285E0F82EAD
:105380008F2DDF91CF911F910F91FF90DF90CF90E4
:10539000BF90AF9008950E94EB2A8823D1F2F82E97
:1053A000EFCF8091F100F60181936F012197FFEF1C
:1053B000AF1ABF0ACECFFC0180910B0490910C0470
:1053C00086179707A0F06115710529F49091E80000
:1053D0009E779093E80090E06115710551F491116A
:1053E00008C08091E80082FF34C080E00895BC01CD
:1053F000F2CF809104048823C1F18530C1F18091FE
:10540000E80083FD30C08091E80082FDEACF809102
:10541000E80080FFE1CF8091F3002091F200382F67
:105420006115710519F02830310558F091E02830E8
:10543000310509F090E02091E8002E772093E800F4
:10544000CBCF81918093F100615071092F5F3F4F65
:10545000E7CF80910404882341F0853041F08091AA
:10546000E80083FFBECF81E0089582E0089583E0E5
:105470000895FC0180910B0490910C048617970706
:10548000A0F06115710529F48091E8008E77809372
:10549000E80090E06115710551F4911108C0809108
:1054A000E80082FF35C080E00895BC01F2CF809112
:1054B00004048823C9F18530C9F18091E80083FD97
:1054C00031C08091E80082FDEACF8091E80080FF42
:1054D000E1CF8091F3002091F200382F6115710522
:1054E00019F02830310558F091E02830310509F0E5
:1054F00090E08091E8008E778093E800CBCF849194
:105500008093F1003196615071092F5F3F4FE6CFD4
:1055100080910404882341F0853041F08091E800B7
:1055200083FFBDCF81E0089582E0089583E0089570
:10553000982F973028F08F708093E90081E00895CC
:105540009093E900242F762F50E0981731F0709156
:10555000EC002091ED005091F00021FD02C09F5F12
:10556000E8CF3091EB003E7F3093EB003091ED00BF
:105570003D7F3093ED003091EB0031603093EB00D4
:105580007093EC002093ED005093F0002091EE001A
:1055900027FDE5CF80E008958091050487FF13C0C3
:1055A0008091E80082FF06C08091E8008B778093AD
:1055B000E80004C0809104048111F2CF0895809125
:1055C00004048823D9F38091E80080FFF8CF80910C
:1055D000E8008E77ECCF2091E4003091E50095E66D
:1055E000A9012091EC00822F817020FF06C08091DC
:1055F000E80080FF06C080E008952091E80022FDC9
:105600001AC080910404882389F0853089F0809144
:10561000EB0085FD0FC02091E4003091E5004217BA
:105620005307F9F29150E1F684E0089582E008957D
:1056300083E0089581E008950E948B2B0E94932BB4
:10564000E0EEF0E0808181608083E8EDF0E0808131
:105650008F77808319BCA7EDB0E08C918E7F8C93FF
:1056600080818F7E80831092030408950F931F938F
:10567000CF93DF930E948B2B0E94932BC8EDD0E039
:1056800088818F77888388818068888388818F7DEF
:10569000888319BC10920404109200041092020432
:1056A0001092010400EE10E0F80180818B7F80836E
:1056B00088818160888342E060E080E00E94982ACF
:1056C000E1EEF0E080818E7F8083E2EEF0E0808189
:1056D00081608083808188608083F80180818E7FF3
:1056E0008083888180618883DF91CF911F910F91A2
:1056F0000895E8EDF0E080818F7E8083E7EDF0E0B3
:1057000080818160808384E082BF81E08093030494
:105710000E94362B0895E8EDF0E080818E7F808333
:105720001092E20008951092DA001092E1000895BC
:105730001F920F920FB60F9211242F933F934F9306
:105740005F936F937F938F939F93AF93BF93EF93E9
:10575000FF938091E10082FF0BC08091E20082FF05
:1057600007C08091E1008B7F8093E1000E94F72DBC
:105770008091DA0080FF19C08091D80080FF15C0A9
:105780008091DA008E7F8093DA008091D90080FFCB
:1057900096C080E189BD82E189BD09B400FEFDCFDC
:1057A00081E0809304040E9450278091E10080FFF3
:1057B00019C08091E20080FF15C08091E2008E7FC9
:1057C0008093E2008091E20080618093E20080910A
:1057D000D80080628093D80019BC85E080930404CF
:1057E0000E9464278091E10084FF2BC08091E20039
:1057F00084FF27C080E189BD82E189BD89B5982FEA
:10580000917080FFFBCF8091D8008F7D8093D8006E
:105810008091E1008F7E8093E1008091E2008F7E95
:105820008093E2008091E20081608093E2008091A9
:105830000004882309F449C084E0809304040E9492
:105840006D278091E10083FF29C08091E20083FFF2
:1058500025C08091E100877F8093E10082E0809302
:105860000404109200048091E1008E7F8093E10097
:105870008091E2008E7F8093E2008091E20080615F
:105880008093E20042E060E080E00E94982A8091EC
:10589000F00088608093F0000E946127FF91EF91F3
:1058A000BF91AF919F918F917F916F915F914F9138
:1058B0003F912F910F900FBE0F901F90189519BC1C
:1058C000109204040E945E2770CF8091E30087FD50
:1058D00093E090930404B3CF1F920F920FB60F92F0
:1058E00011242F933F934F935F936F937F938F93E5
:1058F0009F93AF93BF93CF93DF93EF93FF93D09199
:10590000E900DF708091EC00C82FC17080FDC0E815
:105910001092E9008091F000877F8093F0007894E6
:105920000E94B02C1092E9008091F0008860809372
:10593000F000CD2BCF70C093E900FF91EF91DF9184
:10594000CF91BF91AF919F918F917F916F915F9117
:105950004F913F912F910F900FBE0F901F90189570
:10596000AAE2B0E0E6EBFCE20C94C42E85E094E001
:105970002091F100FC012193CF01F4E08D309F07CD
:10598000B9F70E9497278091E80083FF1EC180919C
:105990000504909106049A3008F017C1E92FF0E051
:1059A000E058FF4C0C94772E803899F0823809F03B
:1059B0000CC1809109048F70873008F006C1809374
:1059C000E9008091EB0085FB882780F91092E900BF
:1059D00006C080910104909102049111826090911F
:1059E000E800977F9093E8008093F1001092F10017
:1059F0008091E8008E77E5C0882309F4D3C0823017
:105A000009F0E3C0809107048111D6C08091090498
:105A10008F702FEF280F263008F0D7C08093E90051
:105A20002091EB0020FFC8C0933031F48091EB004F
:105A300080628093EB00C0C09091EB0090619093E6
:105A4000EB0021E030E001C0220F8A95EAF72093B5
:105A5000EA001092EA008091EB008860EACF8111A1
:105A6000B4C0109107041F778091E3008078812BE8
:105A70008093E3008091E800877F8093E8000E9494
:105A8000CC2A8091E80080FFFCCF8091E300806801
:105A90008093E30082E0111183E08093040495C0B9
:105AA0008058823008F091C08091070490910804DA
:105AB0008C3D23E09207A1F583E08A838AE2898303
:105AC0004FB7F894DE01139620E03EE051E2E32F59
:105AD000F0E050935700E49120FF03C0E295EF708F
