:100000000C941E030C9456030C9456030C94560344
:100010000C9456030C9456030C9456030C945603FC
:100020000C9456030C9456030C94992B0C946D2C41
:100030000C9415260C9456030C9456030C945603FA
:100040000C9456030C9456030C9456030C945603CC
:100050000C9456030C949C260C9456030C94560353
:100060000C9456030C9456030C9456030C945603AC
:100070000C9456030C9456030C9456030C9456039C
:100080000C9456030C9456030C9456030C9456038C
:100090000C9456030C9456030C9456030C9456037C
:1000A0000C9456030C9456030C945603D400CA00C7
:1000B000C000B60000000701000000FF00000000C3
:1000C0000001000000FF00000000070155FFFFFFD6
:1000D0000000000000070000FF080E0000FFFF0006
:1000E00000000029003A003B003C003D003E003F7C
:1000F000004000000035001E001F002000210022EB
:10010000002300240025002B0014001A000800150D
:100110000017001C0018000C00390004001600072E
:100120000009000A000B000D000E00E1001D001B7D
:1001300000060019000500110010003600480047B5
:100140000046006800450044004300420041004B67
:10015000004A00490000002A002E002D002700263A
:10016000004E004D004C000000310030002F001305
:1001700000120000005200000000000000280034BF
:100180000033000F004F005100500000000000003D
:1001900000E50038003700E000E300E2002C00003A
:1001A00000E600E700E40000001E0F0500047F3FAA
:1001B0001F643214643214783C1E1E140A05222374
:1001C000252628292A2C2D2F3032333536383A3B34
:1001D0003D3E4042434547494A4C4E505153555786
:1001E000595A5C5E6062646668696B6D6F717375A5
:1001F00077797B7D7F81838587898A8C8E909294A5
:1002000096989A9C9E9FA1A3A5A7A8AAACAEAFB1B1
:10021000B3B4B6B8B9BBBCBEBFC1C2C3C5C6C7C9FB
:10022000CACBCCCDCED0D1D2D2D3D4D5D6D7D7D8B5
:10023000D9D9DADADBDBDBDCDCDCDCDCDDDDDDDD07
:10024000DCDCDCDCDCDBDBDBDADAD9D9D8D7D7D60F
:10025000D5D4D3D2D2D1D0CECDCCCBCAC9C7C6C5C6
:10026000C3C2C1BFBEBCBBB9B8B6B4B3B1AFAEAC0C
:10027000AAA8A7A5A3A19F9E9C9A98969492908EB7
:100280008C8A89878583817F7D7B79777573716F90
:100290006D6B6968666462605E5C5A59575553516C
:1002A000504E4C4A4947454342403E3D3B3A383622
:1002B000353332302F2D2C2A292826252322FFAA38
:1002C0007F5540000101010101010101010202020B
:1002D00002020202020203030303030303030404F2
:1002E00004040404040505050505060606060607BC
:1002F0000707070708080808090909090A0A0A0B75
:100300000B0B0C0C0C0D0D0D0E0E0E0F0F0F101015
:10031000111111121213131414151516161717189C
:100320001819191A1A1B1B1C1D1D1E1E1F20202107
:100330002222232424252626272829292A2B2C2D4E
:100340002D2E2F30313232333435363738393A3B6F
:100350003C3D3E3F404142434445464748494A4C64
:100360004D4E4F50515354555658595A5B5D5E5F30
:10037000616264656668696B6C6D6F7072737577C6
:10038000787A7B7D7E8082838587888A8C8E8F9128
:10039000939596989A9C9EA0A2A3A5A7A9ABADAF52
:1003A000B1B3B5B7BABCBEC0C2C4C6C9CBCDCFD13C
:1003B000D4D6D8DBDDDFE2E4E7E9EBEEF0F3F5F8E5
:1003C000FAFDFF00000000000000002A2B280000BA
:1003D00000000000000000000000000000002900F4
:1003E0000000002C1E3420212224342627252E36FE
:1003F0002D3738271E1F202122232425263333366C
:100400002E37381F0405060708090A0B0C0D0E0FBE
:10041000101112131415161718191A1B1C1D2F3141
:1004200030232D350405060708090A0B0C0D0E0FA5
:10043000101112131415161718191A1B1C1D2F3121
:1004400030354C00000000000000000000000000FB
:10045000000000000000000000000000000000009C
:10046000000000000000007E0F00D4FFFFFFC70067
:10047000000078200368006100760065006E003897
:100480000030005F0068006F007400730077006147
:1004900000700000001C034100740065006C0069DE
:1004A00000650072005F0048006100760065006E24
:1004B0000000000403090409025B00030100A0FA24
:1004C00009040000010301010009211101000122BA
:1004D0004000070581030800010904010002030030
:1004E00000000921110100012222000705820320DA
:1004F00000010705030320000109040200010300B5
:10050000000009211101000122B600070584032023
:10051000000112010002000000084644804600016C
:10052000010200010660FF0961A1010962150026B0
:10053000FF009520750881020963150026FF0095CC
:100540002075089102C005010902A1018502090177
:10055000A100050919012908150025019508750153
:1005600081020501093009311581257F9502750841
:10057000810609381581257F950175088106050CCE
:100580000A38021581257F950175088106C0C005CE
:10059000010980A101850319012AB700150126B7B9
:1005A00000950175108100C0050C0901A1018504A9
:1005B00019012AA002150126A002950175108100DB
:1005C000C005010906A1018506050719E029E715FF
:1005D0000025019508750181020507190029EF150D
:1005E00000250195F075018102050819012905957D
:1005F0000575019102950175039101C00501090678
:10060000A101050719E029E71500250195087501E5
:1006100081029501750881010507190029FF150060
:1006200026FF009506750881000508190129059522
:100630000575019102950175039101C011241FBE3A
:10064000CFEFDAE0DEBFCDBF04B603FE18C0809165
:100650000D0490910E04A0910F04B0911004873006
:10066000904BA740B04B59F410920D0410920E0419
:1006700010920F0410921004E0E0F8E3099511E0E5
:10068000A0E0B1E0E6E1F1E602C005900D92AE3ED9
:10069000B107D9F724E0AEEEB1E001C01D92AD3054
:1006A000B207E1F70E94BB120C9422300C940000B8
:1006B0008CEA90E0909349038093480308951F9338
:1006C000CF93DF9381FBDD27D0F982FBCC27C0F9E4
:1006D0006D2F80E00E94EF166C2F81E00E94EF16D4
:1006E00011E06D2F612782E00E94EF166C2F6127C9
:1006F00083E00E94EF1681E0DF91CF911F91089572
:1007000081E00895811112C06B3080F4493070F49B
:10071000E42FF0E089E0689FE00DF11D1124EE0F59
:10072000FF1FED51FF4F85919491089581E090E076
:10073000089581E008950E949903089581E0089545
:100740000E94990308950E94A003089508950E94AD
:10075000A6030895A6E0B0E0E0EBF3E00C94C52E0C
:1007600049835A839E833091F50189819A813111A1
:100770001AC03E81332399F0222389F00E941D097B
:10078000182F682F89819A810E94F90869817A81DE
:10079000812F0E942F102696E3E00C94E12E0E94F8
:1007A0000B09182FF3CF0E941D0969817A81F1CFBF
:1007B000FC01262F40815181628173818481958162
:1007C0000E94AA030895CF93DF93EC0161E00E9499
:1007D000D803BE010E949B03DF91CF910895CF9370
:1007E000DF93EC0160E00E94D803BE010E94A703E2
:1007F000DF91CF91089508950E94F5070E94FB03B1
:100800002FEF84E39CE0215080409040E1F700C04E
:10081000000008950E94FC030E94C02608950E94D3
:10082000FC030E94E42608950F931F93CF93DF9358
:100830008C0161E00E94D803EC01B8010E94A51E62
:10084000811106C080E0DF91CF911F910F91089533
:10085000B801CE010E94A3038823A1F3B801CE0101
:100860000E94ED23882371F3B801CE010E94162067
:10087000882341F3B801CE010E945F23882311F33E
:10088000B801CE010E949F1D8823E1F2B801CE017C
:100890000E9431248823B1F2F8018581882361F018
:1008A000C330FCE7DF07E9F058F4C115ECE7DE07D9
:1008B000A9F0C130DC47B9F0C8010E949E03C3CF44
:1008C000CB358CE7D807A9F0CC35ECE7DE0771F023
:1008D000CA35DC4789F70E94750DEECF0E940A04E5
:1008E000B1CF0E947D0D0E940F04ACCF0E946B0D12
:1008F000E3CF0E94790DE0CF0E94F1250E94A5046C
:100900000E94D31B08950E94A9040E94CC1C0E943F
:10091000F625089508950895CF93DF93D82F0E9468
:100920005F03C82F882319F08D2F0E948B048C2F12
:10093000DF91CF9108950895CF93C82F0E948A0424
:100940008C2F0E948C04CF91089580E00E949C041B
:1009500008950E9484240E949C040895CF930E94CD
:100960008424C82F8091F0018C1779F0C093F00196
:100970000E9481266093F1017093F2018093F3014C
:100980009093F4018C2F0E949C04CF910895ADE0C8
:10099000B0E0EDECF4E00C94C62E488759876A87E6
:1009A0007B878C879D8791110E94A30C1F8286E014
:1009B000FE013896DE01119601900D928A95E1F7BD
:1009C0008D8181110DC029813A814B815C816D81BE
:1009D0007E818F810E94D60B2D96E2E00C94E22E50
:1009E000CE0101960E94E3038111EDCFF5CFFC010A
:1009F0002481213021F4808191810E944A09089547
:100A0000662329F00E943F130E94121408950E9449
:100A10009913FACFCF93C82F8823B9F08CEF8C0F9E
:100A2000813AA8F46C2F80910401909105010E94F5
:100A30001725882329F08C2F0E94630C0E94DC0C60
:100A40008C2F0E945B0C0E94DC0CCF91089580E2F9
:100A50008C0F883048F4C77081E001C0880FCA95B8
:100A6000EAF70E94860CEFCFEBE5EC0FE33040F4A1
:100A7000F0E0ED59FE4F808190E00E94B924E5CF6F
:100A8000E8E5EC0FEB3150F4F0E0EE0FFF1FE35D13
:100A9000FE4F808191810E94DE24D7CF83E38C0FAB
:100AA000833198F661E08C2F0E940005CECF882319
:100AB00081F19CEF980F913A28F40E94630C0E94F8
:100AC000DC0C089590E2980F983050F4877091E014
:100AD00001C0990F8A95EAF7892F0E948C0CEFCFFD
:100AE0009BE5980F933028F490E080E00E94B924B1
:100AF000089598E5980F9B3128F490E080E00E94DB
:100B0000DE24089593E3980F933118F460E00E9477
:100B1000000508951F93CF93DF93182FEB010E94D8
:100B20000A05209739F4812F0E945705DF91CF9154
:100B30001F9108958FE99FE00197F1F700C0000031
:100B40002197EFCF70E060E0893311F460E570E049
:100B50000E948A050895882321F00E94860C0E9435
:100B6000DC0C0895882321F00E948C0C0E94DC0C80
:100B70000895B0E0A0E0EFEBF5E00C94BF2E6C011F
:100B8000D62FC72FFC011581068102950F700E9498
:100B90007C0CE82E8823E9F0E12E1123D1F08C2F74
:100BA000807F803451F080E28D0F8830F8F00111A1
:100BB00004C08C2F807E8032C9F08091850382FF33
:100BC00015C082E00E943F0D0E947C0C91E0E82E4F
:100BD000E926BC2EB2949FE0B922FBE0FB15B8F1E8
:100BE000EB2DF0E0EC5DFF4C0C94782EE12CF1CF76
:100BF0000C2F0F70C07F11F00295007F112399F028
:100C0000002359F080E28D0F883010F0D11107C019
:100C1000802F0E94860C0E94DC0C8D2F5AC0802FE2
:100C20000E94960CF8CF8D2F0E945705002379F073
:100C300080E28D0F883010F0D11104C0802F0E9407
:100C40008C0C03C0802F0E949C0C0E94DC0CEB2DAE
:100C5000E850FF0B349720F40E9484240E949C04E7
:100C6000EE2089F00E94780C80FD0DC0F6011582FF
:100C70000E94720C0E946D08C6010E94BC070E946F
:100C8000720C0E947908CDB7DEB7E9E00C94DB2E38
:100C90002C2F2F70F22EC07FC03219F0F29480EF0B
:100CA000F822DD2341F0D130D1F1112309F444C001
:100CB0000023F1F0B2CF8091850382FD15C011238E
:100CC00059F0FF2029F08F2D0E94860C0E94DC0C29
:100CD00080E00E940A05BBCF80E00E945705FF20FC
:100CE00009F4B5CF8F2DABCF112369F0011104C0EA
:100CF0008F2D0E94AB05ABCF013009F0A8CF8F2D0F
:100D00000E94BA0CA4CF0111A2CF8F2D0E94B20570
:100D10008F2D0E94C60C8F2D0E94AA0C98CF1123F4
:100D200021F0063008F093CFE3CF053008F08FCFE5
:100D30008F2D0E94B2058BCF0023D1F3D93349F414
:100D40003FEF87EE93E0315080409040E1F700C0E4
:100D500000008D2F0E9457057ACF8C2F869586959F
:100D6000837069F0813009F072CF8D2F9C2F9370C2
:100D7000111102C080E090E00E94DE2468CF8D2F28
:100D80009C2F9370111102C080E090E00E94B92462
:100D90005ECF612F8D2F0E94000559CF8C2F83705D
:100DA00079F5111154CF4D2F429546954770440F58
:100DB000440F8D2F8F70042E01C0880F0A94EAF71C
:100DC0002D2F2071D4FF07C02FE030E001C0220F8B
:100DD0004A95EAF72095C695C695C370822BC23016
:100DE00049F058F4C13019F00E94490830CF0E94F0
:100DF00043082DCF0E944F082ACF0E94400827CFDA
:100E00008695112311F08C2F8170882309F41FCF50
:100E10004D2F429546954770440F440F8D2F8F708C
:100E2000042E01C0880F0A94EAF72D2F2071D4FFF9
:100E300007C02FE030E001C0220F4A95EAF7209565
:100E4000C695C695C370822BC23049F058F4C130A4
:100E500019F00E949808FBCE0E949208F8CE0E94DA
:100E60009E08F5CE0E945B08F2CECF70112329F0C8
:100E70008C2F0E946D088D2F3CCF8D2F0E94B205C4
:100E80008C2F0E947908E3CED23F41F160F4D03F2D
:100E9000B9F0D13F81F0112309F446C00111BDCE54
:100EA0008C2F8F711FC0D33F01F1D43FA1F78091E8
:100EB000850382FD24C08C2F8F71112311F312C082
:100EC000112341F0053008F0C2CE8C2F8F710E94A3
:100ED0008608BDCE063008F0BACEF7CF8C2F8F71C2
:100EE0001111CFCF0E946D08B2CE112329F08C2FA3
:100EF0008F710E946408ABCE0E946008A8CE1123B7
:100F000049F0CF718C2F0E946D0863E08C2F0E94F6
:100F1000210D9DCE81E00E943F0D023008F497CE56
:100F200082E00E943F0D93CE002359F0D93309F09F
:100F300010CFEFEFF7EE23E0E150F0402040E1F773
:100F400006CF8C2F8F719DCF0F931F93CF93DF937D
:100F5000EC01688179818D810E9455098C010E9484
:100F6000A4080E943F08B801CE010E94B905DF9194
:100F7000CF911F910F910895CF93DF93EC018C8156
:100F8000882399F0CE010E941404811111C00E949F
:100F90007C0C882351F08D81882339F08091850362
:100FA00082FF03C082E00E943F0DDF91CF91089540
:100FB000CE010E94A407CE010E94EF03F6CF90E07D
:100FC00080E00E94B92490E080E00E94DE240E942C
:100FD000A30C0E94DC0C0E942E140E94121408958F
:100FE0000E946B0C0E94DF0708950E94930C0E94E0
:100FF000F007089592959F70963091F058F4925FA3
:101000009F70923058F4803F19F030F4883E30F4ED
:1010100081E008959A5FF4CF843FD1F380E0089592
:10102000883EB0F3813FD1F7F3CFFC012481222326
:1010300039F0808191810E944A090E94FA0708953F
:1010400080E00895A6E0B0E0E8E2F8E00C94C62E57
:101050002696E2E00C94E22EA7E0B0E0E2E3F8E0AE
:101060000C94C62E2796E2E00C94E22E08950E947E
:10107000360808950E94370880931E020895089547
:101080000E943A08089590911E02892B0E943A0806
:10109000089590911E0289230E943A080895909124
:1010A0001E0289270E943A0808950E943608089572
:1010B0000E94550808950E94580880931D020895C3
:1010C00080E00E945B08089591E001C0990F8A9525
:1010D000EAF7892F0E945B08089521E030E001C003
:1010E000220F8A95EAF780911D02822B0E945B08ED
:1010F000089521E030E001C0220F8A95EAF720959B
:1011000080911D0282230E945B08089521E030E057
:1011100001C0220F8A95EAF780911D0282270E9462
:101120005B08089590911D02892B0E945B08089529
:1011300090911D0289230E945B08089590911D02E1
:1011400089270E945B0808950895262F277091E053
:1011500001C0990F2A95EAF723E0769567952A95BD
:10116000E1F7FB01EE0FFF1FE60FF71FE40FF51F7E
:1011700050E040E0682F70E08191DF0111979B0102
:10118000042E02C0369527950A94E2F72170219526
:101190002827292328272C934F5F5F4F4330510581
:1011A00059F70895A82FA77023E0969587952A955B
:1011B000E1F7FC01EE0FFF1FE80FF91FE60FF71F25
:1011C00050E040E080E0219130E00A2E02C03695E8
:1011D00027950A94E2F721703327042E01C0220FCD
:1011E0000A94EAF7822B4F5F5F4F4330510559F75E
:1011F0000895262F9B3070F4893060F4682F70E0DA
:1012000089E0989F600D711D112446EF51E0822FF7
:101210000E94A5080895292F9B3068F4893058F45E
:1012200090E066EF71E039E0239F800D911D11245D
:101230000E94D208089580E00895CF92DF92FF9235
:101240000F931F93CF93DF936C0100911D02809148
:101250001E02082BC3E0D0E010E0FC2EC8010C2ECB
:1012600002C0959587950A94E2F780FD0CC02197FE
:10127000A0F7F12C8F2DDF91CF911F910F91FF904F
:10128000DF90CF900895B6018C2F0E943B100197FC
:1012900071F3F0CFCF93DF93EC010E941D09BE01E3
:1012A0000E943B10DF91CF9108951F93CF93DF935E
:1012B000EB019091F501992339F0CB010E944A0985
:1012C000DF91CF911F910895882369F0CB010E948F
:1012D0001D09182F682FCE010E94F908BE01812F29
:1012E0000E943B10EDCFCB010E940B09182FF6CFC7
:1012F000E1E0F0E0DF0102C0AA0FBB1F6A95E2F750
:10130000BD01DF0102C0AA0FBB1F4A95E2F76A2B9D
:1013100001C0EE0F2A95EAF7962F9823961302C084
:101320008E2B0895E0958E230895242F462F682F45
:1013300080911D020E9478090E945B0808951F9306
:10134000CF93DF93C0911F0217E0809120028C138E
:1013500004C0DF91CF911F910895D0E01C9FF00150
:101360001D9FF00D1124EF5DFD4F208131814281E1
:1013700053816481758186810E942C082196C770F3
:10138000E4CF2091590230915A0240915B02509172
:101390005C0260915D0270915E0280915F020E942A
:1013A0002C080895CF93DF9380915F02807F09F02E
:1013B0004DC080915E02882309F448C0E0911F026D
:1013C00050912002C0915A02D091590260915B0263
:1013D00070915C0247E05E17C9F18E2F90E0E49FA8
:1013E000F0011124EF5DFD4F2481222391F1489FEC
:1013F000F001499FF00D1124DF01AF5DBD4F119643
:101400002C9111972C1325C02C912D1322C01596C9
:101410002C91159721111DC012962D913C91261BE0
:10142000370B283C3105A8F480915F028F708061F2
:1014300080935F02E95DFD4F80818F7080618083C2
:1014400089E592E00E94BC070E949F09DF91CF913D
:101450000895FC013196E770BECF482F20911F02FE
:101460009091200257E0291302C080E0089530E0F7
:10147000529FF001539FF00D1124EF5DFD4F8181CC
:10148000681306C08081481303C085818111EECFA7
:101490002F5F3F4F2770E7CFA4E1B0E0E2E5FAE02D
:1014A0000C94BC2E8C0186E0F801DE011F960190A1
:1014B0000D928A95E1F7F8018481E58099E5A92EDE
:1014C00092E0B92E90915D0291111FC08823D1F056
:1014D000EE20A9F0C8010E941508F82E882379F0A3
:1014E00087E0F801D50101900D928A95E1F7C501D9
:1014F0000E94F7040E94D2090E94C1095FC0C8017E
:101500000E94BC07FF24F39459C0C080D180828020
:101510009380F0905E0220915B0230915C02A40106
:10152000421B530BFF2009F4F9C0483C510508F059
:10153000A7C0882309F442C090915A0280915F02AB
:10154000282F207F09F05CC09D1116C09091590290
:10155000C91212C0E1104EC08F70806180935F028B
:101560000E94C10989E592E00E94BC0780915F0258
:10157000F8018683F12C22C0E1103CC06D2D8C2D2A
:101580000E942D0A6D2D8C2D0E942D0AE82E8111AE
:10159000F1CFCF86D88A8F8598890E944A09292F52
:1015A00022952F70243078F49F702230A8F0992370
:1015B000B9F0F8019681907F99F4FE2C8F2D6496F6
:1015C000ECE00C94D82E2A5F2F70223068F0C8010E
:1015D0000E94BC07EF2CF1CF992311F0882369F307
:1015E000805E883050F3F3CF803F38F3815F8330E3
:1015F00070F7E3CF80915F02816080935F02BACF82
:101600009D1113C090915902C9120FC0E1100DC075
:101610008683C8010E94BC0787E0F801A9E5B2E013
:1016200001900D928A95E1F767CFC8010E941508D5
:10163000882309F464CFEE2009F461CF80915F0222
:10164000803288F02091590230915A0239872887D8
:101650009B868A8690915D029C871D868E87CE012F
:1016600008960E94BC0787E0F801A9E5B2E0019066
:101670000D928A95E1F70E94D2090E94C10942CFDA
:1016800090915F02292F207FA1F4682D9A8A898A80
:10169000A6017A899E2D0E94220889E592E00E9487
:1016A000BC0787E0F50111928A95E9F70E94C1090C
:1016B00061CF882309F482CF80915A028D1110C026
:1016C00080915902C8120CC0E1100AC09683C8016B
:1016D0000E94BC0787E0F50111928A95E9F76ECF69
:1016E000C8010E941508882309F409CFEE2009F4E7
:1016F00006CF80915F02803208F4B5CF2091590265
:1017000030915A023A8329839C828B8290915D02A8
:101710009D831E828F83CE010196A3CF483C510545
:10172000B8F5882309F4EECEFE2CEE2009F4E7CEBE
:1017300080915A028D111EC080915902C8121AC0A0
:1017400080915F0280FD0DC0982F907F51F08683BD
:10175000903F09F45ECF982F907F905F8F70892B18
:1017600057CF87E0F801A9E5B2E001900D928A9584
:10177000E1F724CFC8010E941508811174CF809130
:101780005F02816080935F02C8010E94BC0716CF90
:10179000682D9A8A898AA6017A899E2D0E9422083C
:1017A00087E0F50111928A95E9F7A6CEAEE0B0E0A8
:1017B000ECEDFBE00C94C52E288739874A875B87C0
:1017C0006C877D878E87CE0108960E944C0A8823FD
:1017D000B1F06C85662341F0288539854A855B85A3
:1017E0007D858E850E942C0817E080911F029091C4
:1017F000200289133DC02E96E3E00C94E12E87E091
:10180000FE013896DE01119601900D928A95E1F75E
:101810008C85882349F32091200230E0C90101968C
:101820008770992740911F024817190699F097E091
:10183000929FD001939FB00D1124AF5DBD4FFE016B
:10184000319601900D929A95E1F7809320020E94C3
:101850009F09CACF0E94F5071092200210921F0222
:1018600087E0E9E5F2E0DF011D928A95E9F7BCCF58
:10187000819FC00111248F5D9D4F0E944C0A8823D7
:1018800009F4B9CFE0911F021E9FF0011124EF5D12
:10189000FD4F208131814281538164817581868130
:1018A0000E942C0880911F0290E001968770992772
:1018B00080931F029ACF682F8091040190910501B7
:1018C0000E9497250895682F809104019091050149
:1018D0000E94A525089580910401909105010E9420
:1018E000B325089580918002869586958695089502
:1018F000809180028770089590918002977081E0B6
:1019000009F480E008958091A40208959091A402C2
:10191000892B8093A402089580959091A402982326
:101920009093A40208951092A40208959091A302A6
:10193000892B8093A302089580959091A302982308
:101940009093A30208951092A302089508950E940F
:10195000A60C089590918102292F282331F08095BB
:101960008923809381020E94A70C089508950E9404
:10197000B60C089590918202292F2823281729F068
:10198000982B909382020E94B70C08959091820246
:10199000292F282331F080958923809382020E9489
:1019A000B70C089580918202882329F01092820258
:1019B00080E00E94B70C0895CF93DF93E09104017B
:1019C000F09105018091A4028083E0910401F091DF
:1019D000050180819091A302892B808390918202DE
:1019E000992381F0E0910401F09105018081892B18
:1019F000808380910401909105010E94032581114B
:101A00000E94D20CC0910401D091050140E250E047
:101A100060E672E0CE010E94952F892B59F080E29A
:101A2000FE01A0E6B2E001900D928A95E1F7CE01A9
:101A30000E949124DF91CF91089508950E941D0D79
:101A400008959091850392FF11C098E0899F9001BD
:101A50001124622B609380020E946D0880918002A5
:101A60008695869586950E941E0D08950E946D08A4
:101A700008951092800280E00E941E0D08959091BA
:101A800080028095892380938002282F277069F433
:101A9000891759F09091850392FF07C08695869526
:101AA00086950E9479080E94390D089590918503CA
:101AB00092FB222720F9281769F080FB92F9909376
:101AC000850380918403909185030E949F0D82E09D
:101AD0000E943F0D08958091850382FB882780F93D
:101AE00091E089270E94560D089581E00E94560DCD
:101AF000089580E00E94560D08956FEF7FEF90E00B
:101B000080E00E94ED2F089590E080E00E94B92FC0
:101B1000863E9E4F19F40E943D1E089580E0089570
:101B200082E090E00E94AB2F089583E090E00E9455
:101B3000AB2F089584E090E00E94B92F0895BC0176
:101B400084E090E00E94ED2F0895AB01BC018FE08E
:101B500090E00E94E12F0895AB01BC0183E190E089
:101B60000E94E12F089560E070E0CB010E94AC0D6F
:101B7000089560E070E0CB010E94A50D0E94B30DB6
:101B80000895A8E0B0E0E7ECFDE00C94C62E66EE08
:101B90007EEF90E080E00E94ED2F60E082E090E038
:101BA0000E94CF2F60E083E090E00E94CF2F109240
:101BB0001E0260E074E184E090E00E94ED2F60E09E
:101BC00086E090E00E94CF2F6FEF87E090E00E94C8
:101BD000CF2F40E050E0BA0188E090E00E94E12F72
:101BE00060E084E290E00E94CF2F60E087E190E027
:101BF0000E94CF2F60E08CE090E00E94CF2F60E049
:101C00008DE090E00E94CF2F19821A821B821C82E5
:101C10001D821E821F82188648E050E068E170E055
:101C2000CE0101960E94BF2F40E050E0BA0180E251
:101C300090E00E94E12F80E00E94561E0E94851EC7
:101C40000E94B90D2896E2E00C94E22E0E94C10D8C
:101C50000895682F8EE090E00E94CF2F0895A6E0AF
:101C6000B0E0E5E3FEE00C94C42E0E9475268C01E2
:101C70008091A5029091A6028017910781F01982A8
:101C80001A820E947526682F49815A81792F80E037
:101C900090E00E94C7041093A6020093A502269626
:101CA000E4E00C94E02E0E9481266093C1027093C0
:101CB000C2028093C3029093C4026093BD027093EA
:101CC000BE028093BF029093C002089508950895C4
:101CD0000E94670E08950E945803089581E00895B8
:101CE00085E291E10E947A240E94660E0E94680EAD
:101CF00008950E946E0E08950E94790E0895089529
:101D000008950E947F0E0E94800E08950E94441143
:101D10000E949B0408950E946C260E94951E0E94BA
:101D20001C120E94860E0E94761C0E946B0E089563
:101D3000A6E0B0E0EEE9FEE00C94BA2E0E946E0E32
:101D400081110CC00E942F0E0E94D61C0E945014BC
:101D50000E94AE042696EEE00C94D62E0E9432121B
:101D600027EA822E22E0922E640110E0F601E19033
:101D7000F1906F01812F0E9467111F5F1B3009F4E2
:101D80004BC0E816F90691F38091C50281FD0E94CF
:101D900070110E947C0E782E10E066246394812FCF
:101DA0000E9467117C01F401A190B1904F018A1546
:101DB0009B0561F1A826BF2400E0CC24C394D12C5C
:101DC000C5018C219D21892BC1F07720B1F00983B9
:101DD0001A830E9475269C838B836D8221E0C70144
:101DE0008C219D21892B09F420E049815A816B8146
:101DF0007C818D81922F0E94C7040F5FCC0CDD1C6B
:101E00000930F1F6F4013297F182E0821F5F1B3056
:101E100031F60E94530E98CFE816F90609F0B4CFB8
:101E200091CF1F93CF93DF930E944010EC01C11517
:101E300080E5D807F0F5C11580E4D80708F09CC00C
:101E4000C03ED10520F5CD3CD10508F082C0C83A8E
:101E5000D10578F4C53AD10508F073C0C130D10579
:101E600019F1209709F1C430D105F0F4D0E0C0E0B9
:101E70001BC0C33CD105D0F7C85AD0E0CC0FDD1F42
:101E8000CA59DE4F0990D881C02DD4640DC0C11548
:101E900080E2D80708F0D1C0C11581E0D80708F06A
:101EA0005AC0C83ED10510F7CE01DF91CF911F91E6
:101EB0000895C03682E5D80718F5C03482E5D80702
:101EC00008F06BC0C03282E5D80708F05FC0C115CA
:101ED00082E5D80708F497C02C2F2695269580E236
:101EE000289F900111248C2F8370C1E0D0E002C0A4
:101EF000CC0FDD1F8A95E2F7C22BD32BDD68D4CF40
:101F0000C03A82E5D80760F4C03882E5D80708F403
:101F100059C0CF71D0E0DC2FCC27C46FD06AC4CFBA
:101F2000C03C82E5D80708F462C0C03E82E5D8070D
:101F300008F09CCFDC2FCC27CC27DF71C06FD06A94
:101F4000B3CFC55AD0E0C456DE4FC881D0E0D064CC
:101F5000ABCFD065A9CF8D2F0E94E210182FCE01F4
:101F600099270E944010C12FD0E0DC2FCC27CC272E
:101F7000DF71C82BD92B98CFCE0199270E94401032
:101F8000CC27DF70C82BD92BD06A8ECFCF71D0E091
:101F9000DC2FCC27C16FD06A87CF2C2F26952695B2
:101FA000277080E2289F900111248C2F8370C1E05C
:101FB000D0E002C0CC0FDD1F8A95E2F7C22BD32BF5
:101FC000DC6872CF2C2F26952695277080E2289FFB
:101FD000900111248C2F8370C1E0D0E002C0CC0F9F
:101FE000DD1F8A95E2F7C22BD32BDA685DCF8C2FE9
:101FF0008F710E94E210C82FD0E0DC2FCC27CC27B5
:10200000DF71D06251CF8C2F8F710E94E21055E0AA
:10201000D695C7955A95E1F7CF70D0E0DC2FCC2745
:10202000282F30E084FF05C044E0220F331F4A957B
:10203000E1F7C22BD32BD06937CF8D2F8F710E9440
:10204000E210182FCE0199270E944010C12FD0E036
:10205000DC2FCC27CC27DF71C82BD92BD2CF462F32
:102060007B3030F4693020F4672F0E947922089584
:1020700090E080E008950E942F100E94110F0895B3
:1020800082389105B9F1B0F48133910509F47DC02E
:1020900048F48932910509F46DC08A32910509F43A
:1020A0007BC008958533910509F45FC0893391059C
:1020B00009F10895833E9105D9F138F4803E9105E8
:1020C00029F1823E910579F10895863E9105D9F175
:1020D000873E910509F43EC0843E910541F520916B
:1020E000850321FF24C08091840384FD19C087EEFD
:1020F00090E0089520918403237009F05AC0209144
:10210000850323FF14C089E290E0089520918403A1
:1021100020FD38C03091850330FF09C024FF43C043
:1021200090E080E008952091840322FDF7CF089588
:102130002091840322FD3AC03091850330FD39C0DF
:1021400024FFF5CFEDCF2091840323FFF0CF24FDB2
:10215000E7CFCDCF2091840323FD2EC0309185039E
:1021600031FFEECF84EE90E008952091840325FFA7
:10217000DECFC9CF2091840325FD21C020918503A6
:1021800023FFD5CF89E390E0D2CF2091840326FFAF
:10219000CECF8AE290E008952091840326FFC7CF36
:1021A00081E390E0089583EE90E0089582EE90E060
:1021B000089580EE90E0089586EE90E0089585E31E
:1021C00090E008959091840392FF06C0282F287113
:1021D0002830F9F4877F846093FF06C0282F287188
:1021E0002831F1F4877E84612091850320FF06C0A9
:1021F000382F38713830D9F4877F816021FF06C0CD
:10220000282F28712831D1F4877E816194FD877E43
:102210000895282F24712430F9F68B7F8860DCCF55
:10222000282F2471243101F78B7E8861DDCF382F70
:102230003171313019F78E7F8860E0CF282F2171FE
:10224000213121F78E7E8861E1CF80E008950E94E0
:102250007D0D08950E9432122FEF86E791E0215004
:1022600080409040E1F700C000000E94321280E000
:102270000E94671180FF04C00E9427110E94C0269F
:1022800008950E942A1108950E94840D811102C0B0
:102290000E94260E0E94900D8093C5020E949A0D06
:1022A00090938503809384030E9441110E94950DB1
:1022B0000E94400880911D020E94580808950895C8
:1022C0000E945F11089508950E9463110895E82FF8
:1022D000F0E0EE0FFF1FE456FC4F808191810895DE
:1022E000089580EA8A95F1F7089500C008950E9444
:1022F00071110895F894E82FE295EF70F0E031A1A4
:10230000282F2F7081E090E001C0880F2A95EAF70E
:10231000982F9095932391A392A1892B82A37894CF
:102320000895CF93DF93C8EAD1E089918F3F11F0F0
:102330000E947A1181E0C33BD807B9F7CFE9D1E019
:1023400089918F3F11F00E947A1181E0C83AD80735
:10235000B9F7DF91CF910895AF92BF92DF92EF92DC
:10236000FF920F931F93CF93DF938C01D62EC62F2E
:10237000D0E0CE0188559E4F7C01FC0120812F3F8B
:1023800009F44DC0F894E22FE295EF70F0E031A12E
:102390002F7081E090E001C0880F2A95EAF7932F13
:1023A000982B91A392A18095892382A378940E946F
:1023B0007511EFE9F1E048EA51E021E030E0B12C9D
:1023C000A12C61916F3FA9F1A62FA295AF70B0E04B
:1023D00090968C9190E06F7002C0959587956A9564
:1023E000E2F780FD26C0C901A82AB92A220F331FAF
:1023F0004E175F0731F7F70180818F3F11F00E9480
:102400007A1161E0A114B10409F460E08D2D0E94FD
:102410007711CC0FDD1FC00FD11FB982A882DF91C9
:10242000CF911F910F91FF90EF90DF90BF90AF90F1
:10243000089590E080E0D8CF0E94911186E1ECE908
:10244000F3E0DF01982F1D929A95E9F7E6E8F3E0B3
:10245000DF011D928A95E9F78BE00E946D120E94C0
:1024600060110895A6E1B0E0E8E3F2E10C94C32E18
:102470008E010F5F1F4F86E1F80111928A95E9F7EF
:10248000F12C6F2DC8010E94AC11F394FBE0FF12F8
:10249000F8CF46E150E0B80186E893E00E94952F1E
:1024A00021E0009709F420E0892B41F086E1F80152
:1024B000A6E8B3E001900D928A95E1F74BE06CE954
:1024C00073E086E893E00E946E12182F0E94641158
:1024D000812F6696E5E00C94DF2E0895CF92DF926F
:1024E000EF92FF921F93CF93DF936C017B01C42F78
:1024F000222349F081E08093C8020E9475269093C0
:10250000C7028093C6021091C80211110AC010E0E0
:10251000812FDF91CF911F91FF90EF90DF90CF90AF
:1025200008958091C6029091C7020E948D2605975A
:1025300070F3D0E0CC0FDD1FAE01B601C7010E94E1
:10254000952F892B41F0AE01B601C7010E94A22F41
:102550001092C802DDCF10E0FBCF0E946E280E94CF
:102560008B0E0E947B2808950E9480280E94980E5E
:102570000E949A2808950E940E260E9454280E94C4
:10258000700E0E94AD120E94B4120E94810EFBCF09
:102590008091CF0280FF0DC060910B0170E0660F4B
:1025A000771F6038710570F56115710569F1862F27
:1025B000089581FF07C060910B0184E0689FB0011E
:1025C0001124EFCF60910B0182FD0AC08091CE02F1
:1025D0008823A9F020910A0160910B01821710F065
:1025E00088E0ECCF869FC001112433E0880F991F4B
:1025F0003A95E1F7622F70E00E94422ED2CF68E058
:1026000070E0D5CF8FE7089581E008958091CF02E3
:1026100080FF0CC06091070170E075956795759516
:1026200067956115710549F1862F089581FF06C0F0
:102630006091070170E075956795F3CF6091070190
:1026400082FD0BC09091CD029923A1F0609106010B
:1026500080910701961738F0682F70E06038710597
:1026600000F38FE70895899FC001112470E00E9454
:10267000422EF4CF61E070E0D7CF81E008958D3C29
:1026800031F40E94C81281958093D30208958E3C44
:1026900019F40E94C812F8CF8F3C31F40E94C8127E
:1026A00081958093D2020895803D19F40E94C8124A
:1026B000F8CF893D29F40E9406138093D40208952F
:1026C0008A3D21F40E9406138195F7CF8B3D31F4AA
:1026D0000E94061381958093D50208958C3D19F4CC
:1026E0000E940613F8CF9FE2980F983070F4815D36
:1026F000990B21E030E001C0220F8A95EAF7809122
:10270000D102822B8093D10208958D3D31F48091C6
:10271000CF0281608093CF0208958E3D21F4809195
:10272000CF028260F7CF8F3DB9F78091CF028460EE
:10273000F1CF4091D2028D3C59F48091D30287FFB2
:102740000DC01092D30241110BC01092CE0208C0EE
:102750008E3C81F48091D30218169CF3442381F0BF
:102760008091D4029091D502892B09F05AC0109221
:10277000CD0208958F3C49F447FFF0CF1092D2026A
:102780008091D3028111ECCFE0CF803D19F4141673
:10279000ACF3E4CF9091D402893D29F41916F4F6F4
:1027A0001092D402DBCF8A3D19F497FFD7CFF8CF30
:1027B0009091D5028B3D29F497FFD0CF1092D5028E
:1027C000CDCF8C3D19F41916CCF3C8CF9FE2980FEA
:1027D000983090F4815D990B21E030E0B90102C09E
:1027E000660F771F8A95E2F7CB0180959091D10211
:1027F00089238093D102B2CF8D3D31F48091CF02F5
:102800008E7F8093CF02AACF8E3D21F48091CF029C
:102810008D7FF7CF8F3D09F0A1CF8091CF028B7FC5
:10282000F0CF08950E9475269C019091D20280916C
:10283000D302982B21F03093CC022093CB029091BD
:10284000D4028091D502982B21F03093CA022093B4
:10285000C90280ED92E00E94AB24089586E0E0ED8D
:10286000F2E0DF011D928A95E9F71092CE021092F4
:10287000CD021092CF020895FC01828181110EC019
:10288000838181110BC08481811108C091E0858111
:10289000811101C090E0892F8170089581E0FCCF03
:1028A000A6E0B0E0E6E5F4E10C94C52E86E0E0EDAC
:1028B000F2E0DE01119601900D928A95E1F71092F7
:1028C000D2021092D3021092D4021092D5028B81C0
:1028D0009C81892B89F08091CB029091CC020E943F
:1028E0008D26AC019091CE029923C9F180910C0103
:1028F0008417150608F440C08D819E81892B91F0C4
:102900008091C9029091CA020E948D26AC019091DB
:10291000CD02992309F471C080910801841715062E
:1029200008F479C0BE016F5F7F4F80ED92E00E9496
:10293000C525811105C080ED92E00E943C148111F3
:102940000E94121486E0FE013196A0EDB2E00190E3
:102950000D928A95E1F72696E3E00C94E12E209102
:102960000D018AE0289F900111242417350720F6D5
:102970009F5F9093CE0202C09F3FD1F71B8111232E
:1029800059F00E94C8129FEF11160CF491E0899F34
:10299000802D11248093D2021C81112359F00E94B2
:1029A000C8129FEF11160CF491E0899F802D11241D
:1029B0008093D3023091D202332309F49DCF20912A
:1029C000D302222309F498CF45EB3403C00111242C
:1029D000992359F09093D20245EB240390011124DE
:1029E000332339F03093D30287CF81E08093D20232
:1029F000F3CF81E08093D3027FCF209109018AE059
:102A0000289F900111242417350708F08BCF9F5F72
:102A10009093CD0202C09F3FD1F71D81112359F041
:102A20000E9406139FEF11160CF491E0899F802DF0
:102A300011248093D4021E81112359F00E940613A1
:102A40009FEF11160CF491E0899F802D1124809343
:102A5000D5023091D402332309F464CF2091D502FA
:102A6000222309F45FCF45EB3403C00111249923DD
:102A700059F09093D40245EB2403900111243323A1
:102A800039F03093D5024ECF81E08093D402F3CF5A
:102A900081E08093D50246CFEF92FF920F931F9370
:102AA000CF93DF93EB01E82FD1110EC0442321F027
:102AB000F0E0ED53FD4FE4916E2F7E2F8E2FCDB7BA
:102AC000DEB7E6E00C94DE2E0D2F10E0282F30E06C
:102AD000442329F02D533D4FF901249130E0F6E0D5
:102AE000CF9FC0011124EFEFF0E0BF010E942E2E16
:102AF000AB018C2F90E0880F991FA5E5A49FB00132
:102B0000A59F700D1124861B970B982F990F980F76
:102B1000BF01601B710B629FD001639FB00D729F5C
:102B2000B00D11248B2F9D9FB0011124672F7727A3
:102B3000EF01C61BD70BBE01629FE001639FD00D62
:102B4000729FD00D11247F01E91AF108E09EB001B7
:102B5000E19E700DF09E700D1124672F7727E61B04
:102B6000F70BE29F8001E39F100DF29F100D1124DF
:102B7000E12F722F4230510599F048F4411551056B
:102B800069F04130510581F0EB2F8D2F07C04430A3
:102B9000510569F080F046305105B1F76E2F8FCFA7
:102BA000E22F7B2F812FFACFE22F7D2FF7CFEB2F54
:102BB000822F712FF3CF7B2F822FED2FEFCF41E0AC
:102BC0000E944C15089508950E94DF150895CF9333
:102BD000DF93762FE901682F842F0E94E415798313
:102BE00068838A83DF91CF9108958091B203982FF3
:102BF0009E7F29F4817082608093B20308958635A8
:102C0000E8F381708465F8CFB0E0A0E0EAE0F6E197
:102C10000C94C02E88E090E00E94B32F6B017C01E1
:102C200084E290E00E94AB2F282F30E040E050E09B
:102C300060E070E080E090E000E20E94ED2EB22FB4
:102C4000A32FF42FE52FD62FC72F97018601BC297C
:102C5000A12BFE295E2F532B2B2F3A2F4F2F6D2F99
:102C60007C2FCDB7DEB7E8E00C94DC2EB0E0A0E01E
:102C7000ECE3F6E10C94BC2E49015A016B017C0196
:102C80000E94F5158401A4016A2D7B2D88E090E057
:102C90000E94E12F94014A2D5B2DB601C70100E28D
:102CA0000E94082F622F84E290E00E94CF2FCDB7C0
:102CB000DEB7ECE00C94D82EE2EBF3E0208131811A
:102CC0004281538164817581868197810E94361685
:102CD0000895E2EBF3E083E0808311828FEF82833B
:102CE00083831482758123E030E04FEF5FEF60E073
:102CF000868197810E94361608958091B20380FFE5
:102D000002C08695089580E008958091B203817095
:102D100008959091B603933018F49F5F9093B60393
:102D2000882391F02091B2033091B3034091B40312
:102D30005091B5036091B6037091B7038091B803C9
:102D40009091B9030E943616089581E00E94891679
:102D500008959091B603992319F091509093B6037A
:102D6000882391F02091B2033091B3034091B403D2
:102D70005091B5036091B6037091B7038091B80389
:102D80009091B9030E943616089581E00E94A91619
:102D900008958091B60308958093B603662389F061
:102DA0002091B2033091B3034091B4035091B50325
:102DB0007091B703682F8091B8039091B9030E9476
:102DC0003616089560E00E94CC1608958091B303F2
:102DD00008958091B40308958091B503089521E08A
:102DE00030E0A90102C0440F551F8A95E2F7CA01DD
:102DF00020915503662339F0822B8093550381E09F
:102E000080934703089580958223F7CF21E030E037
:102E100001C0220F8A95EAF790915503922381E031
:102E200009F480E0089570E00E94111E0895A5E065
:102E3000B0E0EDE1F7E10C94BA2E709012019091A0
:102E4000B20390FF16C0C0904803D0904903C1144C
:102E5000D10409F58091110133E0839FC001112451
:102E6000672D86549C4F0E9413172596EEE00C9414
:102E7000D62E809113012091140133E0839FF0013D
:102E80001124E654FC4F8217F0F611821082128250
:102E90008F5F3396F8CF90FFDDCFF12CE12C43E02C
:102EA000642E8E2D0E940617882309F43BC0F7017B
:102EB000EE0FFF1FEC0DFD1DA590B490A114B10401
:102EC00049F245E050E0B501CE0101960E947F2F06
:102ED00009810F3F39F18A81800F9927991F873126
:102EE000910514F086E190E04C01880C991C880D46
:102EF000991D9C0126543C4F4901069D80011124D7
:102F000006541C4F0815190520F035E0A30EB11C1E
:102F1000D8CF98014D816C818B810E94E7150D5FA0
:102F20001F4FF0CF8FEFE81AF80A28E0E216F104FD
:102F300009F0B7CF8FCF9091B20390FF0EC0909160
:102F400013012091140133E0939FF0011124E65402
:102F5000FC4F921718F00E94171708958183608321
:102F600042839F5F3396F5CFA3E0B0E0EAEBF7E151
:102F70000C94C62E9091B20390FF0AC09E012F5F61
:102F80003F4F0E94E7154B8169818A810E949B1700
:102F90002396E2E00C94E22ECF93DF93EC01EC81D8
:102FA000F0E0E254FE4F4491E2EBF3E06281818174
:102FB0000E94B4178C818F5F8C83DF91CF9108952D
:102FC000CF93DF93EC01E2EBF3E0438162818C81EC
:102FD0000E94B4178C818F5F8C83DF91CF9108950D
:102FE000A3E0B0E0E6EFF7E10C94C42E8C018091F1
:102FF000D60281110AC09E012F5F3F4F4FEF6FEF46
:103000000E94E7158A818093D602F80164816130BD
:1030100069F08091D60240E0662361F040E06230C2
:1030200011F44091D60280E060E004C06091D602C5
:1030300040E080E00E949B17F801848190E00196B7
:1030400063E070E00E94422E84832396E4E00C94B7
:10305000E02EA3E0B0E0EFE2F8E10C94BF2E082FE1
:10306000D62EF42EC22E9091B20390FF2EC0E92FDF
:10307000E695AE2FB0E0AD54BE4F8C9180935303D4
:103080009E7F923031F59E012F5F3F4F802F0E942F
:10309000E7154B8169818A810E949B170093B303D6
:1030A000D092B403F092B503CC2079F02091B20312
:1030B0006091B6037091B703302F4D2D5F2D809135
:1030C000B8039091B9030E9436162396E9E00C9458
:1030D000DB2E823019F4F090B503E0CF863019F47E
:1030E0000091B303DBCF8930D9F38931B9F6E951C7
:1030F0006E2F6170B62EE695F0E0E254FD4F14910C
:10310000E12C60911501E61618F00E941717C6CF42
:10311000E19EC001112470E00E942E2E802FB1107C
:1031200014C0860F20911301622F6E0D7727771F31
:103130009B01220F331F260F371F26543C4F4F2D64
:103140006D2D0E94E715E394DCCF861BEBCFE2EBFD
:10315000F3E09181282F4381628188E0890F0E94EA
:103160002918089581E00E94A7180895E2EBF3E082
:103170009181282F4381628188EF890F0E9429184D
:10318000089581E00E94B6180895E2EBF3E06281B1
:1031900021E1620F08F46FEF282F438181810E94A3
:1031A0002918089581E00E94C5180895E2EBF3E024
:1031B000628121E1621B08F460E0282F4381818154
:1031C0000E942918089581E00E94D6180895E2EB24
:1031D000F3E0438121E1420F08F44FEF282F628191
:1031E00081810E942918089581E00E94E7180895BE
:1031F000E2EBF3E0438121E1421B08F440E0282F99
:10320000628181810E942918089581E00E94F81846
:10321000089520E00E9429180895EF92FF921F93CD
:10322000CF93DF93EC0110E0EE24EA94F12C60914F
:103230001501161770F00E9417179A818C8190FF64
:1032400027C08F5F8C83DF91CF911F91FF90EF900C
:10325000089520911301422F410F5527551FCA0190
:103260009A01220F331F280F391F26543C4F70E05C
:10327000C7010E94422E962F8C814091B503609128
:10328000B403199F800D11240E94E7151F5FCFCF53
:103290008150D8CFB0E0A0E0E0E5F9E10C94BE2E7B
:1032A000FC0182810FEF80FF01E010E046E1A42ED7
:1032B00080911501181798F00E9417178091D80275
:1032C000013009F04FC0811102C080911501815079
:1032D0008093D802CDB7DEB7EAE00C94DA2EC09125
:1032E0001301C12ED12CCC0DDD2DD11DCE01880FA7
:1032F000991FC80FD91FC654DC4F198218821A8231
:1033000034E0E32EF12CB12C8091D8028B0D873163
:103310001CF16A2D0E94202E892F082E000C990B7B
:10332000C816D90691F48091B5038E9DA0018F9D9A
:10333000500D112455954795559547959E016091DF
:10334000B4038091B3030E94E715B00EF1E0EF1AC9
:10335000F108D1F61F5FACCF87FFDFCF9091150149
:10336000890FDBCF90E001966091150170E00E941B
:10337000422EAECF0F931F93CF93DF938091130113
:103380009091140123E0829FF0011124E654FC4F38
:10339000891740F1C0E0D3E060911501C61740F1F4
:1033A0000E94171720910F018091D702820F8093FE
:1033B000D70290911001920F90931001191654F4B6
:1033C000082E000C990B409115014150550B8417A4
:1033D00095071CF0219520930F01DF91CF911F914C
:1033E0000F9108951182108212828F5F3396D0CF91
:1033F0000C2F10E070E0C8010E94422E20911301B2
:10340000820F482F50E02091D702022E000C330B80
:1034100002171307BCF020911001022E000C330B91
:10342000201731077CF08D9F9001112426543C4FCA
:103430004091B5036091B4038091B3030E94E715F6
:10344000CF5FAACFFA01EE0FFF1FE40FF51FE6547E
:10345000FC4F118210821282F3CFB0E0A0E0E3E3D0
:10346000FAE10C94BC2EEC014C81042F10E0980181
:10347000D8010E948D2E9B01AC010E94A32E4B010E
:103480005C01E0E2F0E0E01BF10BA5E5B0E0AC018F
:103490009B010E94A32E6B017C019F01DF010E9412
:1034A000852E9B01AC010E94AE2E9B01AC01280D24
:1034B000391D4A1D5B1DC701B6010E94562EF22E12
:1034C000822F90E039E23F1520F143E0249F9001E4
:1034D000112435952795122F109500E085E5E82EEB
:1034E000EF1880911501081718F10E9417179C8199
:1034F00081E0992319F0903219F48FEF80930E0137
:1035000080910E01890F8C83CDB7DEB7ECE00C946F
:10351000D82E25E530E0B901681B790B9B01220FFD
:10352000331F260F371F37FFD4CF2F5F3F4FD1CF29
:103530008E2D01FD8F2D20911301622F600F7727B3
:10354000771F9B01220F331F260F371F26543C4F36
:10355000412F6091B4030E94E7150F5FC2CF0F9314
:103560001F93CF93DF93EC0110E000E090911501E1
:103570009017110609F06CF40E9417178C8190E0E7
:103580000196817099278C83DF91CF911F910F91C4
:10359000089520911301A801420F511D9A01220F95
:1035A000331F240F351F26543C4F4C816091B403C8
:1035B0008091B30396959017110651F04CF0442377
:1035C00049F04091B5030E94E7150F5F1F4FCECF22
:1035D0004423B9F340E0F7CFB0E0A0E0E2EFFAE136
:1035E0000C94B82EFC016280448081E08483EEEB71
:1035F000F1E07490EDE3F2E0E491C091B503C6957B
:10360000C158D0E0CC0FDD1FCD2FDD27812C75E018
:10361000972EAA24AA94B12C55245A94E719EE2E79
:10362000F12C80911501881638F00E941717CDB73C
:10363000DEB7E0E10C94D42EC82CD12C82E08615A4
:1036400068F09C9CF0019D9CF00D1124E752FD4F09
:103650008091B30380838091B4038183411023C0A0
:103660009C9CF0019D9CF00D1124E752FD4F1382AC
:10367000128220911301C601820F911D9C01220F1D
:10368000331F280F391F26543C4F9C9CF0019D9CF2
:10369000F00D1124E752FD4F4281618180810E942B
:1036A000E7158394BECF9C9C80019D9C100D112436
:1036B00007521D4FF80183818823F1F081508383E5
:1036C000859DC0011124648170E00E942E2EFB01B3
:1036D000FF27E254FE4F8491E82FE719E59DC001D2
:1036E0001124B7010E942E2E8091B503689FB0016E
:1036F0001124F8017283BDCF0E946F2FB5010E9483
:10370000422E8C179D070CF0B4CFF2E0F61598F41A
:103710000E946F2FB5010E94422EF80180830E9403
:103720006F2F2091B4032695622F70E00E94422EE5
:10373000280FF80121839C9CF0019D9CF00D112421
:10374000E752FD4F12828091B503893C58F088EC16
:103750009C9CF0019D9CF00D1124E752FD4F848349
:10376000838387CF8431A0F784E1F2CFE2EBF3E0EB
:1037700020812E7F20833181428153816481758134
:10378000868197810E943616109254030E94171763
:103790000895E2EBF3E080818E7F808310925403E2
:1037A0000E941717089510925403809151038111BC
:1037B0000AC081E0809351038091B20381708093AD
:1037C00050030E94C91B08956091B203669570E092
:1037D0004BE050E086E191E00E94882F892B19F49C
:1037E00081E0809354030E94752690934B0380934D
:1037F0004A0308959091B20390FF33C091708111F4
:1038000031C092609093B203662391F02091B2038D
:103810003091B3034091B4035091B5036091B60366
:103820007091B7038091B8039091B9030E94361646
:103830006091B203669570E04BE050E086E191E064
:103840000E94882F892BA9F01092540381E0809365
:103850004D034091B5036091B4038091B3030E947E
:10386000091908958B3210F09465CCCF880F982BEE
:10387000C9CF0E94E41BEACF682F9091B2039695BE
:1038800081E0890F8B3208F081E00E94FA1B0895D5
:1038900081E00E943C1C0895682F9091B203969598
:1038A0008FEF890F09F48AE20E94FA1B089581E0E4
:1038B0000E944C1C089561E00E94FA1B0895E2EBFF
:1038C000F3E080818160808386950E945B1C08956F
:1038D0008091B20380FF03C00E94B61B08950E942E
:1038E0005F1C089560E00E94FA1B089580915203C6
:1038F00081113EC00E94840D811104C00E94260ED9
:103900000E9469160E9404162093B2033093B303F9
:103910004093B4035093B5036093B6037093B70319
:103920008093B8039093B9032E7FA1F40E94691687
:103930000E9404162093B2033093B3034093B40360
:103940005093B5036093B6037093B7038093B803A5
:103950009093B9030E94F515109254038091B2031D
:1039600080FF03C086950E94721C81E08093520301
:103970000895E2EBF3E080818160808386950E9468
:10398000721C08958091B20380FF03C00E94C91B7E
:1039900008950E94B91C089510925103809150031C
:1039A00081110E94B91C0E94E41B08950F931F937C
:1039B000CF93DF93809154038823C1F18091530307
:1039C000E091B203E695E81BE0934C03823009F0E6
:1039D00041C0F0E0E654FE4FE491CE2FD0E00CEC75
:1039E00017E180914D03882361F010924D030E94EE
:1039F000752690934B0380934A0310924F031092C5
:103A00004E030E947526E0914A03F0914B038E1BF2
:103A10009F0B8F3F9F4750F4EC0FFD1FF0934B031C
:103A2000E0934A038AE493E0F80109958091470303
:103A3000882359F01092470380915403811105C0E7
:103A40008091B20386950E94721CDF91CF911F91E5
:103A50000F910895863049F4F0E0E954FE4FE49167
:103A6000CE2FD0E000EE17E1BCCF893051F4E695BF
:103A7000F0E0EC54FE4FE491CE2FD0E00DE019E1E0
:103A8000B0CF8F3051F4E695F0E0EF54FE4FE49163
:103A9000CE2FD0E00AE419E1A4CF853149F4F0E05B
:103AA000E255FE4FE491CE2FD0E00AEB19E199CF19
:103AB000C8E2D0E00DE21AE1883109F492CF8332F6
:103AC00039F4ECEAF1E0C591D49100EF17E189CF28
:103AD000C4EFD1E00FEA1AE1843209F482CFC0EDDD
:103AE000D7E003EE15E1853209F07BCF8E2F63E03E
:103AF0000E94142EE92FF0E0E755FE4FE491CE2FFF
:103B0000D0E00CEE1AE16DCFFA01811101C0FB018A
:103B100009950895CF93DF93C82FD62F0E947D1665
:103B20008C1748F00E947D168D1728F40E94481CBF
:103B3000DF91CF9108958C2F0E945B1CF9CF1F93CA
:103B4000CF93DF93EC01FB011581111110C00E948E
:103B5000830C8272FE01E052F847E531F10508F06E
:103B60005EC0E05DFF4C0C94782E0E94681C812F93
:103B7000DF91CF911F91089547E55CE168E47CE116
:103B80000E94841DF4CF48E45CE167E57CE1F8CF56
:103B900041EC58E162EB78E1F3CF42EB58E161ECA4
:103BA00078E1EECF43EE58E162ED78E1E9CF42ED06
:103BB00058E163EE78E1E4CF45E059E164EF78E164
:103BC000DFCF44EF58E165E079E1DACF45EC56E12B
:103BD00065EA76E1D5CF45EA56E165EC76E1D0CFEE
:103BE00081E00E945B1CC3CF65E082E00E948A1DD9
:103BF000BECF68E086E0FACF6EE089E0F7CF64E1FF
:103C00008FE0F4CF67E185E1F1CF88E1EACF62E2AE
:103C100089E1ECCF83E2E5CF6AE285E2E7CF11E00C
:103C2000A6CF6E9A4EB14F7B5EB15064EFB7F89459
:103C30009B01220F331F260F371F280F391F28170C
:103C4000390741F4EFBF8FE594E00197F1F700C029
:103C500000000895DC016D91CD0178E05EB90000AF
:103C600000C067FF4EB9660F000000C000C000C072
:103C70004EB900C07A9591F7E2CF85E290E00E94BC
:103C8000AB2F833289F486E290E00E94AB2F88301C
:103C900059F487E290E00E94AB2F91E0853209F061
:103CA00090E0892F8170089580E0FCCFCF93C82FDA
:103CB0006FEF811163E285E290E00E94CF2F6FEFFA
:103CC000C11168E086E290E00E94CF2F6FEFC11132
:103CD00065E287E290E00E94CF2FCF91089508958A
:103CE00088E290E00E94AB2F682F70E090E080E0C7
:103CF00008950895CF93C62F0E94791E6C2F88E2F5
:103D000090E00E94CF2FCF91089580E00E94561E30
:103D100060E070E0CB010E947A1E0E9405220E94A2
:103D2000D22281E00E94561E08950E946F1E0E94BA
:103D3000701E0E94791E0E943D1E811102C00E94C9
:103D4000851E08950E94C21C08959C01FB01858177
:103D5000882351F0A90157574038510530F4822F7C
:103D60000E94E22280E0089581E008952FEFFC0197
:103D70002083089580E00895CF93DF93EC0188813C
:103D80008230E9F028F4813071F0DF91CF9108950D
:103D90008330F9F08430C9F70E94E61689830E94C7
:103DA000E9168A83F2CF0E94EC162FEF829FC001A2
:103DB00011246FEF70E00E942E2E6983E6CF0E94DF
:103DC0008516882321F00E947D168983DECF80E04E
:103DD000FCCF0E94C916F9CFCF93DF93EC01888105
:103DE000823021F128F4813069F0DF91CF9108957C
:103DF000833041F18430C9F70E94EC16482F6A8164
:103E0000898111C089812FEF829FC00111246FEF3A
:103E100070E00E942E2ED62F0E94E916C82F0E9415
:103E2000E6164D2F6C2F0E940919DFCF8981811171
:103E300003C00E94C91BD9CF0E94B91C89810E946E
:103E4000721CD3CF89810E94E216CFCFFC019C0166
:103E50002E5F3F4F9081983041F0993051F097306C
:103E600059F4C9010E94EC1E0895C9010E94BC1EAC
:103E700008950E945C1608958FEF80830895FC01D9
:103E80002181223019F40E94261F08950E94B61E37
:103E90000895B0E0A0E0EFE4FFE10C94C02EEC0147
:103EA000C62E0E94BA1E811110C0E881E150E33194
:103EB000B8F4F0E0EB5BFF4C0C94782E19828CE0A8
:103EC0008A836C2DCE010E944827CDB7DEB7E8E08B
:103ED0000C94DC2E89818230C1F028F4813061F0AD
:103EE0008FEF8883EECF833099F08430C9F71A8240
:103EF0001B821C821D82E5CF0E9481260E947E2E9D
:103F00006A837B838C839D83DCCF0E94701EF6CFF7
:103F10008A81082F10E07E019EE0D92ED80E0B304A
:103F2000110578F6802F0E946711F701938384832F
:103F30000F5F1F4FF2E0EF0EF11CD012F0CFC1CF98
:103F40008981823031F0853059F68A810E94A21E23
:103F5000B8CF6A817B818C819D810E947E2E0E94D8
:103F60007A1EAFCF4B816A8189810E94C721982731
:103F7000892798279D838C83A4CF2C813D8132276C
:103F8000232732274B816A8189810E94E92199CFB9
:103F90000E94052296CF6C2DCE010E943F1F91CF2B
:103FA0000E94852289838DCF0E94872298278927A6
:103FB00098279A83898385CF6B8170E089819A8164
:103FC000AE014C5F5F4F9827892798270E948A226D
:103FD00078CF6B8170E089819A81AE014C5F5F4F31
:103FE0009827892798270E94AE226BCF0E94D22261
:103FF00068CF0E94B521D6CF6B8170E089819A810C
:10400000AE014C5F5F4F9827892798270E94312285
:1040100058CF6B8170E089819A81AE014C5F5F4F10
:104020009827892798270E9455224BCFCF93DF935B
:10403000EC01FB018581882309F4D2C09E01305731
:104040002332310508F0B2C00E949A0D9093850387
:1040500080938403FE01E150F047E232F10520F441
:10406000E85AFF4C0C94782E8091840381608093F1
:10407000840393C0809185038860809385038DC0FD
:10408000809184038260F3CF809184038460EFCFBA
:10409000809184038860EBCF809185038160EDCFB0
:1040A000809185038260E9CF809184038061DFCFB6
:1040B000809184038062DBCF809184038064D7CFBA
:1040C0000E94F507809184038068D1CF809184039A
:1040D0008C60CDCF809185038360CFCF80918403A6
:1040E0008E7FC5CF80918503877FC7CF8091840362
:1040F0008D7FBDCF809184038B7FB9CF8091840366
:10410000877FB5CF809185038E7FB7CF8091850360
:104110008D7FB3CF809184038F7EA9CF809184035C
:104120008F7DA5CF809184038F7BA1CF0E94F5075F
:10413000809184038F779BCF80918403837F97CF77
:10414000809185038C7F99CF8091840382FB99278E
:1041500090F921E0922790FB82F990FB83F987CFB9
:1041600080918503982F909591708E7F892B90FB7D
:1041700081F983CF90918403892F8F7B96FF806490
:1041800076CF0E94F50790918403892F97FB87F9DA
:1041900080586DCF81E00E94290E80918403909118
:1041A00085030E949F0D0E94F50780E0DF91CF916B
:1041B000089580E0F0CF90918403892F8F7E94FF43
:1041C000806155CF90918403892F8E7F90FF81600D
:1041D0004ECF90918503892F877F93FF88604DCFC5
:1041E00081E0E4CFB0E0A0E0E8EFF0E20C94C12E73
:1041F000E82FF0E0ED53FC4FD490282F269526951C
:10420000269530E0F901ED59FB4F0491877010E0DD
:10421000082E02C0159507950A94E2F70170112740
:10422000F901ED5AFB4FE490F12C082E02C0F594F1
:10423000E7940A94E2F791E0E922FF24F901ED5BAB
:10424000FB4FC491D0E002C0D595C7958A95E2F79F
:10425000C170DD270115110519F081EE0E940A05D4
:10426000E114F10419F086EE0E940A058D2D0E94DA
:10427000A205E114F10419F086EE0E94570501151C
:10428000110519F081EE0E945705CD2B19F08CE233
:104290000E94A205CDB7DEB7E7E00C94DD2EEF92C9
:1042A000FF920F931F93CF93DF93EC01162F0AE039
:1042B0008881882309F454C0813009F04EC0898177
:1042C000813099F47E0122E0E20EF11C8A810E9485
:1042D000A205E7012196812F815050F3EFE9FFE01D
:1042E0003197F1F700C00000F7CF823041F47E0132
:1042F00082E0E80EF11C8A810E940A05EACF833031
:1043000041F47E01E2E0EE0EF11C8A810E94570525
:10431000E0CF843011F02196DDCF2A81229690E003
:1043200080E0AE014F5F5F4F2053330B2A303105E1
:1043300048F0019778F2EFE9FFE03197F1F700C01C
:104340000000F7CF089FB001099F700D1124C9012B
:10435000860F971F2981EA01E4CF0E94F220BACF8D
:10436000CDB7DEB7E6E00C94DE2E84E0089550E091
:10437000440F551F92E1699F400D511D112496EC89
:10438000899F400D511D1124CA01899608950F93EC
:104390001F93CF93DF938430C8F46B30B8F4493067
:1043A000A8F40E94B7218C010E94AB2FC82FD0E047
:1043B000DC2FCC27C80101960E94AB2F9E01282B31
:1043C000C901DF91CF911F910F91089590E080E096
:1043D000F8CF0F931F93CF93DF93122F032F8430C7
:1043E00078F46B3068F4493058F40E94B721EC013E
:1043F000602F0E94CF2F612FCE0101960E94CF2FF8
:10440000DF91CF911F910F9108950F931F93CF9339
:10441000DF93D0E0C0E010E019C00E94800321E0EB
:1044200030E08C171D0639F034F0402F612F8C2FAF
:104430000E9482039C01402F612F8C2F0E94E92152
:104440000F5F093051F71F5F1B3011F000E0E5CF1F
:104450002196C430D105F9F6DF91CF911F910F91CC
:104460000895EF92FF920F931F93CF93DF93EC0188
:104470008A017C01E60EF71ECE018996CE15DF0576
:1044800029F4CDB7DEB7E6E00C94DE2EC83123E088
:10449000D20740F40E94AB2FF80180830F5F1F4FBB
:1044A0002196EACFF8011082F9CFB0E0A0E0EBE569
:1044B000F2E20C94C02E7C016A018C01060F171FDA
:1044C000EC01CE018996C017D10729F4CDB7DEB72C
:1044D000E8E00C94DC2EC83123E0D20740F4FE0162
:1044E000EE19FF09EC0DFD1D60810E94CF2F219672
:1044F000E8CF843038F46B3028F4493018F40E9447
:10450000C721089590E080E0089580E108958FEB41
:1045100090E00895EF92FF920F931F93CF93DF9354
:10452000EC018A017C01E60EF71ECE018F5B9C4FE9
:10453000CE15DF0529F4CDB7DEB7E6E00C94DE2E0C
:10454000CF3BD10540F40E94AB2FF80180830F5F71
:104550001F4F2196EACFF8011082F9CFB0E0A0E01A
:10456000E4EBF2E20C94C02E7C016A018C01060F90
:10457000171FEC01CE018F5B9C4FC017D10729F4A8
:10458000CDB7DEB7E8E00C94DC2ECF3BD10540F48C
:10459000FE01EE19FF09EC0DFD1D60810E94CF2F79
:1045A0002196E8CFCF93DF93C1E4D3E060E0CE0162
:1045B0000E94CF2F2196C11584E0D807B9F7DF916B
:1045C000CF910895A8E0B0E0E8EEF2E20C94BE2EA0
:1045D000F82E8FE08F1508F46EC08FEF93E00E94E5
:1045E000AB2F811168C001E413E0F11035C0FE016A
:1045F00031966F0188E011928A95E9F77801FFEF13
:10460000EF1AFF0AC8010E94AB2F89831A82882300
:1046100009F451C08130D1F4580182E0A80EB11CD8
:10462000C7010E94AB2F8A83882309F444C09FEFFF
:10463000980F9330F0F4780193E0E90EF11CC50176
:104640000E94AB2F8B838823B1F11C8260E0C601EE
:104650000E944F218701D2CF011594E0190759F12B
:10466000C8010E94AB2F811101C0FA940F5F1F4F48
:10467000BCCF7501843051F702E010E07501EFEF17
:10468000EE1AFE0AC5010E94AB2FF601E00FF11FE2
:104690008083882381F08C3741F4E2E0F0E0EC0F76
:1046A000FD1FE00FF11F1082D1CF0F5F1F4F570189
:1046B0000730110519F72896EAE00C94DA2ECF930B
:1046C000DF93EB0186319C4711F50E94830C9D819D
:1046D000992399F08A7A91E009F490E09093560337
:1046E000811109C089E20E945B0C0E94DC0C80E011
:1046F000DF91CF91089585E3F6CF80915603811124
:1047000004C089E20E94630CF0CF85E3FBCF81E017
:10471000EFCF0F931F93CF93DF93C42FD22FFC01C2
:1047200085818823C9F0409359030E947526909390
:1047300058038093570380E28C0F883040F4C77091
:1047400081E001C0880FCA95EAF70E94AB05DF91AE
:10475000CF911F910F91089510915903141332C0F6
:1047600080915703909158030E948D26883C9105B3
:1047700048F5C0E2CD0F1D17B9F080E2810F8830F7
:1047800040F4177081E001C0880F1A95EAF70E9483
:10479000B205C83048F481E09D2F977001C0880FA2
:1047A0009A95EAF70E94AB05802F0E94A205C830B7
:1047B00070F6D77081E001C0880FDA95EAF70E94A1
:1047C000B205C5CF80E28C0F883008F6C77081E053
:1047D00001C0880FCA95EAF7F2CF0F93DB01885129
:1047E0009C4787309105A0F5FC01E658FF4C0C94DE
:1047F000782E06E221EE41EE6AE17CE7CD010E94CF
:10480000892380E00F91089507E225EE45EE6BE1E4
:104810007CE7F4CF06E221EE40EE68E17CE7EECFE4
:1048200007E225EE44EE69E17CE7E8CF06E221EEFF
:1048300042EE6CE17CE7E2CF07E225EE46EE6DE169
:104840007CE7DCCF08E221E045EE6EE17CE7D6CFE5
:1048500015968C91882319F010925903D3CF81E0DB
:10486000D1CF1F93CF93DF9387372CE7920759F06F
:10487000C1E088379C47E1F4FB01C581CC2371F18D
:104880000E94742406C0FB01C581CC23B1F00E94B4
:1048900071240E946D080E947724D82F0E947424EE
:1048A000C82F0E9471244D2F6C2F0E949509C0E0E3
:1048B0008C2FDF91CF911F9108950E9471240E9447
:1048C00079080E947724182F0E947424D82F0E9400
:1048D0007124412F6D2F0E949509EACF0E94742404
:1048E000EECF809123010895809122010895809157
:1048F000210108959093EF018093EE010895909324
:104900005F0380935E030895E0915E03F0915F037F
:10491000309729F00190F081E02D0995089580E00D
:104920000895E0915E03F0915F03309799F0209134
:104930002C01222359F02091840327FF07C0DC01BA
:104940002C9111962C93119726E02C930280F381E1
:10495000E02D09950895E0915E03F0915F03309793
:1049600039F022E0DC012C930480F581E02D0995DB
:104970000895A3E0B0E0EFEBF4E20C94C62E209192
:104980005C0330915D0328173907A1F090935D0314
:1049900080935C03E0915E03F0915F03309751F0E8
:1049A00023E029839B838A830680F781E02DCE0153
:1049B000019609952396E2E00C94E22EA3E0B0E084
:1049C000E4EEF4E20C94C62E20915A0330915B037E
:1049D00028173907A1F090935B0380935A03E09165
:1049E0005E03F0915F03309751F024E029839B83AD
:1049F0008A830680F781E02DCE01019609952396E2
:104A0000E2E00C94E22EFC01329680912C01882386
:104A100021F0809184039EE187FF96E080E0915031
:104A200008F4089521912223D1F38F5FF8CF6623F4
:104A300001F120912C012223F1F02091840327FF22
:104A40001AC0462F4695469546954E3190F46770AC
:104A500021E030E002C0220F331F6A95E2F7840F95
:104A6000911DFC01828190E02823392381E0232BD2
:104A700069F480E00895FC0132960896219126178A
:104A800021F0E817F907D1F7F4CF81E008959C01F0
:104A9000FC0132969FEF80E04191461751F09F3F15
:104AA00019F4411101C0982F8F5F8630A9F79F3FFD
:104AB00009F40895290F311D97FD3A95F901628394
:104AC0000895FC01329608962191261303C0DF0158
:104AD00011971C92E817F907B9F70895E62FE695A4
:104AE000E695E695EE3168F4E80FF92FF11D677051
:104AF00021E030E001C0220F6A95EAF78281822B23
:104B000082830895E62FE695E695E695EE3170F4FA
:104B1000E80FF92FF11D677021E030E001C0220F8E
:104B20006A95EAF7209582812823228308952091AF
:104B30002C01222339F02091840327FF03C00E9417
:104B40006E2508950E944725089520912C01222367
:104B500039F02091840327FF03C00E948225089525
:104B60000E9461250895FC01329680912C018823D2
:104B700051F08091840387FF06C08EE1DF011D9212
:104B80008A95E9F7089586E0F9CF46E050E00E9463
:104B9000952F21E0892B09F420E0822F08950895B4
:104BA0000E94CF250895811106C081E080936003A3
:104BB0000E94D025089582E0F9CF83E080936003BE
:104BC0000E94D02508950E94D325089581E0809306
:104BD00060030E94D02508950E94E6250895089557
:104BE00008950E94F0250895089508950E94EF25E4
:104BF0000895CF930E94F4250E9432120E94F52559
:104C0000C0E08C2F0E946711892B31F4CF5FCB302D
:104C1000C1F780E0CF91089581E0FCCF85B780682F
:104C200085BF85B7806885BF08951F921FB61F9204
:104C300011248F939F93AF93BF9380916103811150
:104C400013C08091FC039091FD03A091FE03B091ED
:104C5000FF034196A11DB11D8093FC039093FD03BA
:104C6000A093FE03B093FF03BF91AF919F918F91EB
:104C70001F901FBE1F90189580910404843031F15D
:104C80000E947C041092610388E190E020E40FB65A
:104C9000F894A895809360000FBE2093600083B7BE
:104CA000817F846083BF83B7816083BF7894889558
:104CB00083B78E7F83BF0FB6F894A895809160006C
:104CC000886180936000109260000FBE08950E947A
:104CD000F5070E948304089582E084BD93E095BDAA
:104CE0009AEF97BD80936E0008952FB7F894809146
:104CF000FC039091FD03A091FE03B091FF032FBF31
:104D000008952FB7F8946091FC037091FD03809192
:104D1000FE039091FF032FBF08959C014FB7F894B5
:104D20008091FC039091FD03A091FE03B091FF03DD
:104D30004FBF821B930B089578941F921FB61F924A
:104D400011248F939F93AF93BF938091FC03909115
:104D5000FD03A091FE03B091FF030196A11DB11DBB
:104D60008093FC039093FD03A093FE03B093FF0395
:104D7000BF91AF919F918F911F901FBE1F9018956B
:104D800081E08093E00080E28093D8001092C90017
:104D90008FE19EE40197F1F700C0000087E090EBFF
:104DA000DC0180930D0490930E04A0930F04B09344
:104DB000100488E19CE00FB6F894A89580936000F9
:104DC0000FBE90936000FFCF88E19CE00FB6F8948F
:104DD000A895809360000FBE90936000FFCF8091F4
:104DE000820308959B01BA01909104049430E9F480
:104DF0008F708093E9009FEF8091E800915085FDCE
:104E000006C085ED8A95F1F700009111F5CF8091EC
:104E1000E80085FF0AC050E040E0C9010E943E2939
:104E20008091E8008E778093E800089543E050E099
:104E3000BC0184E00E94F226089546E050E0BC01E7
:104E400084E00E94F2260895CF93DF93EC018091D5
:104E50002C01811111C048E050E0BE0181E00E94A8
:104E6000F22680E2FE01A2E6B3E001900D928A955F
:104E7000E1F7DF91CF9108958091840387FF05C00A
:104E800040E284E050E0BE01EACF48E081E0FACFA2
:104E9000603231F440E250E0BC0182E00E94F22630
:104EA000089580910304811109C00E941D2B0E9466
:104EB0007A2B8091E20084608093E2000895109242
:104EC000030408950E94E62508956091000481E09E
:104ED000611101C080E00E94DD25089590910404D5
:104EE00081E0943009F080E0609100040E94E325A5
:104EF000089542E061EC81E00E94992A42E261EC6F
:104F000084E00E94992A42E261EC82E00E94992AA0
:104F100042E260EC83E00E94992A9091040481E0CF
:104F2000943009F080E0609100040E94D325089538
:104F300080910604833009F463C030F48130E1F1DC
:104F4000823009F4A0C008958A3009F48CC08B30F7
:104F500009F471C0893009F052C080910504813292
:104F600009F04DC08091090490910A04009719F04E
:104F7000029709F044C08091E800877F8093E800A1
:104F80008091E80082FF37C09091F3008091F20099
:104F9000029731F48091F100813011F0863021F4D4
:104FA0008091F100809382038091E8008B77809359
:104FB000E8000E94CD2A23C080910504813AF9F4CB
:104FC0008091E800877F8093E800809109049091A8
:104FD0000A04892B61F460E282E693E070E00E94AB
:104FE000DC298091E8008B778093E800089560E0E9
:104FF00090E080E0F3CF809104048111C1CF089547
:1050000080910504813AD9F78091090490910A04AE
:10501000892BA9F78091E800877F8093E800809131
:10502000E80080FFFCCF80912C018093F1008091FB
:10503000E8008E77BCCF80910504813201F7809122
:10504000090490910A04892BD1F68091E800877FAA
:105050008093E8000E94CD2A8091070480932C0160
:105060000E94F507089580910504813241F68091F0
:10507000E800877F8093E8000E94CD2A8091080491
:1050800080938303089580910504813A09F0B7CF96
:105090008091E800877F8093E8008091E80080FF9E
:1050A000FCCF80918303C1CF84B7877F84BF0FB6C5
:1050B000F894A895809160008861809360001092B8
:1050C00060000FBE80E890E00FB6F8948093610016
:1050D000909361000FBE0E94EC2508950E941D2B45
:1050E0000E947A2BE2EEF0E08081846080837894E5
:1050F0000E94F92D089584E291E00E947F24089592
:1051000080910404853031F480910404853019F0D5
:105110000E94672608950E943C26809102048823FD
:1051200099F30E94F925882379F30E9428290E9487
:10513000F507EACFA0E2B0E0E0EAF8E20C94C62E70
:1051400080910404843009F583E08093E900809124
:10515000E80082FF1AC08091E80090E085FF09C056
:1051600050E040E060E270E0CE0101960E948D299F
:1051700091E08091E8008B778093E800992329F0F3
:1051800060E2CE0101960E94491FA096E2E00C94D5
:10519000E22E9A0140910B0450910C040E94D128F8
:1051A0000895492F55274330510521F168F44130C6
:1051B000510509F443C04230510509F444C090E060
:1051C00080E050E040E026C04132510551F14232CA
:1051D0005105A9F76330710590F7FB01EE0FFF1F32
:1051E000EF51FE4F4081518162527E4FFB01808121
:1051F00090E010C099278130910581F0009729F047
:105200000297E9F6E3E7F4E002C0E3EBF4E084910F
:1052100090E0AF01F901518340830895E5E9F4E09E
:10522000F6CF6330710558F6660F771FFB01E95121
:10523000FE4F4081518189E090E0ECCF82E190E027
:1052400042E155E0E7CF8BE590E047EB54E0E2CF59
:1052500080E189BD82E189BD09B400FEFDCF809166
:10526000D8008F7D8093D8008091E0008260809389
:10527000E0008091E00081FDFCCF0895AF92BF92E5
:10528000CF92DF92FF920F931F93CF93DF936C0126
:10529000EB018A010E94EC2AF82E811123C001152E
:1052A000110539F0F80180819181C81BD90BC80E16
:1052B000D91EB12CA12C2097A9F08091E80085FD82
:1052C00022C08091E8008E778093E80001151105D7
:1052D000A1F0F80180819181A80EB91EB182A0824F
:1052E00085E0F82E8F2DDF91CF911F910F91FF90C8
:1052F000DF90CF90BF90AF9008950E94EC2A882352
:10530000D1F2F82EEFCFF60181916F018093F10079
:105310002197FFEFAF1ABF0ACECFAF92BF92CF92C5
:10532000DF92FF920F931F93CF93DF936C01EB01FA
:105330008A010E94EC2AF82E811123C00115110563
:1053400039F0F80180819181C81BD90BC80ED91E94
:10535000B12CA12C2097A9F08091E80085FD22C0F6
:105360008091E8008B778093E80001151105A1F08A
:10537000F80180819181A80EB91EB182A08285E0DA
:10538000F82E8F2DDF91CF911F910F91FF90DF901D
:10539000CF90BF90AF9008950E94EC2A8823D1F25D
:1053A000F82EEFCF8091F100F60181936F012197E4
:1053B000FFEFAF1ABF0ACECFFC0180910B04909192
:1053C0000C0486179707A0F06115710529F49091D8
:1053D000E8009E779093E80090E06115710551F424
:1053E000911108C08091E80082FF34C080E00895E8
:1053F000BC01F2CF809104048823C1F18530C1F152
:105400008091E80083FD30C08091E80082FDEACF02
:105410008091E80080FFE1CF8091F3002091F200BD
:10542000382F6115710519F02830310558F091E0D9
:105430002830310509F090E02091E8002E77209384
:10544000E800CBCF81918093F100615071092F5F0B
:105450003F4FE7CF80910404882341F0853041F02D
:105460008091E80083FFBECF81E0089582E0089537
:1054700083E00895FC0180910B0490910C04861741
:105480009707A0F06115710529F48091E8008E77E7
:105490008093E80090E06115710551F4911108C006
:1054A0008091E80082FF35C080E00895BC01F2CF12
:1054B000809104048823C9F18530C9F18091E80006
:1054C00083FD31C08091E80082FDEACF8091E80041
:1054D00080FFE1CF8091F3002091F200382F611519
:1054E000710519F02830310558F091E02830310568
:1054F00009F090E08091E8008E778093E800CBCFB0
:1055000084918093F1003196615071092F5F3F4F74
:10551000E6CF80910404882341F0853041F08091EA
:10552000E80083FFBDCF81E0089582E0089583E025
:105530000895982F973028F08F708093E90081E0CC
:1055400008959093E900242F762F50E0981731F0BA
:105550007091EC002091ED005091F00021FD02C00F
:105560009F5FE8CF3091EB003E7F3093EB003091AE
:10557000ED003D7F3093ED003091EB0031603093D2
:10558000EB007093EC002093ED005093F00020911D
:10559000EE0027FDE5CF80E008958091050487FFA8
:1055A00013C08091E80082FF06C08091E8008B77ED
:1055B0008093E80004C0809104048111F2CF089523
:1055C000809104048823D9F38091E80080FFF8CF0C
:1055D0008091E8008E77ECCF2091E4003091E500D7
:1055E00095E6A9012091EC00822F817020FF06C072
:1055F0008091E80080FF06C080E008952091E800D7
:1056000022FD1AC080910404882389F0853089F036
:105610008091EB0085FD0FC02091E4003091E50002
:1056200042175307F9F29150E1F684E0089582E0C1
:10563000089583E0089581E008950E948C2B0E94D4
:10564000942BE0EEF0E0808181608083E8EDF0E073
:1056500080818F77808319BCA7EDB0E08C918E7F1D
:105660008C9380818F7E80831092030408950F9322
:105670001F93CF93DF930E948C2B0E94942BC8ED35
:10568000D0E088818F77888388818068888388814B
:105690008F7D888319BC109204041092000410922C
:1056A00002041092010400EE10E0F80180818B7F6B
:1056B000808388818160888342E060E080E00E948E
:1056C000992AE1EEF0E080818E7F8083E2EEF0E0C7
:1056D000808181608083808188608083F8018081FF
:1056E0008E7F8083888180618883DF91CF911F9135
:1056F0000F910895E8EDF0E080818F7E8083E7EDE3
:10570000F0E080818160808384E082BF81E08093CB
:1057100003040E94372B0895E8EDF0E080818E7F2E
:1057200080831092E20008951092DA001092E10056
:1057300008951F920F920FB60F9211242F933F934B
:105740004F935F936F937F938F939F93AF93BF9389
:10575000EF93FF938091E10082FF0BC08091E20004
:1057600082FF07C08091E1008B7F8093E1000E945F
:10577000F82D8091DA0080FF19C08091D80080FF59
:1057800015C08091DA008E7F8093DA008091D90075
:1057900080FF96C080E189BD82E189BD09B400FE29
:1057A000FDCF81E0809304040E9451278091E100A5
:1057B00080FF19C08091E20080FF15C08091E20057
:1057C0008E7F8093E2008091E20080618093E2000E
:1057D0008091D80080628093D80019BC85E08093C6
:1057E00004040E9465278091E10084FF2BC0809112
:1057F000E20084FF27C080E189BD82E189BD89B5CF
:10580000982F917080FFFBCF8091D8008F7D80937F
:10581000D8008091E1008F7E8093E1008091E200CA
:105820008F7E8093E2008091E20081608093E200AD
:1058300080910004882309F449C084E08093040423
:105840000E946E278091E10083FF29C08091E200D1
:1058500083FF25C08091E100877F8093E10082E093
:1058600080930404109200048091E1008E7F809365
:10587000E1008091E2008E7F8093E2008091E2005F
:1058800080618093E20042E060E080E00E94992A1B
:105890008091F00088608093F0000E946227FF9161
:1058A000EF91BF91AF919F918F917F916F915F9198
:1058B0004F913F912F910F900FBE0F901F90189511
:1058C00019BC109204040E945F2770CF8091E300FE
:1058D00087FD93E090930404B3CF1F920F920FB60D
:1058E0000F9211242F933F934F935F936F937F9366
:1058F0008F939F93AF93BF93CF93DF93EF93FF93D8
:10590000D091E900DF708091EC00C82FC17080FD5C
:10591000C0E81092E9008091F000877F8093F0004A
:1059200078940E94B12C1092E9008091F000886078
:105930008093F000CD2BCF70C093E900FF91EF91E1
:10594000DF91CF91BF91AF919F918F917F916F9197
:105950005F914F913F912F910F900FBE0F901F902D
:105960001895AAE2B0E0E7EBFCE20C94C52E85E0C6
:1059700094E02091F100FC012193CF01F4E08D30FF
:105980009F07B9F70E9498278091E80083FF1EC106
:1059900080910504909106049A3008F017C1E92F10
:1059A000F0E0EF57FF4C0C94782E803899F0823855
:1059B00009F00CC1809109048F70873008F006C18E
:1059C0008093E9008091EB0085FB882780F9109295
:1059D000E90006C080910104909102049111826057
:1059E0009091E800977F9093E8008093F1001092E7
:1059F000F1008091E8008E77E5C0882309F4D3C0D8
:105A0000823009F0E3C0809107048111D6C08091F3
:105A100009048F702FEF280F263008F0D7C080932D
:105A2000E9002091EB0020FFC8C0933031F4809151
:105A3000EB0080628093EB00C0C09091EB0090611E
:105A40009093EB0021E030E001C0220F8A95EAF745
:105A50002093EA001092EA008091EB008860EACF80
:105A60008111B4C0109107041F778091E300807802
:105A7000812B8093E3008091E800877F8093E8008A
:105A80000E94CD2A8091E80080FFFCCF8091E30046
:105A900080688093E30082E0111183E08093040426
:105AA00095C08058823008F091C080910704909191
:105AB00008048C3D23E09207A1F583E08A838AE203
:105AC00089834FB7F894DE01139620E03EE051E25F
:105AD000E32FF0E050935700E49120FF03C0E295DC
